:020000040000FA
:0600000098EF12F012005F
:0600080004EF08F01200F5
:060018000CEF08F01200DD
:0610000098EF12F012004F
:06100800B8EF10F0120029
:0610180003EF11F01200CD
:02102A000000C4
:04102C002FEC0EF0A7
:10103000A09A6A6A686A706A7EEC0DF0CBEC0DF0DB
:10104000DF6AB4EC0DF003E26EEC0DF0FAD76D8CB4
:101050006E6A6D986D9C68A607D068960001736BE8
:10106000786B796B7A6BF7D70001010E8A6F8B6F03
:101070008C6B8D6B806BDF6A020EDF5C1AE2EA6AB2
:10108000DF3432EC0EF0EA22EE6AED6AEA6ADF340F
:1010900039EC0EF0EA22EE6AED6ADF504CEC0EF00D
:1010A000EA22EF6ADF5047EC0EF0EA22EF6ADF2A0D
:1010B000E3D70001080E6B6F040E6C6F160E706E96
:1010C0000401200E026F040E036F080E016F840EE0
:1010D000006F0001616B606BE55248EF0DF02FEC83
:1010E0000EF00001600507E16DBA05D0686A6980FD
:1010F0006988020E606F6850040B05E06950040BAC
:1011000002E0689491D86DB23ED06850010B09E0BE
:101110006950010B06E08ADFA08A0001040E606FAF
:1011200068906850100B05E06950100B02E071D810
:10113000689868AC08D069AC05D0D2EC0DF0730E9D
:1011400035EC0DF0689C6850200B04E06950200BD2
:1011500001E04CD86850020B0BE06950020B08E02C
:10116000D2EC0DF0E6687F0EE66E40EC0EF06A6A97
:10117000040E0001E76E6019E8AE02D0E73402D039
:10118000E750605D02E2A19A2ED069A62BD0DF6AFB
:10119000040EDF5C27E268A625D06CCF81F0000149
:1011A0008151780BE842E842E842826F689681B547
:1011B00004D0825147EC0EF003D082514CEC0EF07B
:1011C000EA22EF70825102E13DD80AD0000EE66EAD
:1011D000E66A810EE66E000EE66E720E35EC0DF0DC
:1011E000DF2AD6D7A19AE55248EF0DF070A00FD0B4
:1011F00054EC0DF0EF50800809E13EEC0DF0EF509B
:10120000840804E154EC0DF08C0EEF6E7090689A37
:101210001200698468986D820001010E806F9AEC5B
:101220000DF0750E35EF0DF00001806B9AEC0DF0AE
:10123000740E35EC0DF06D92699468A402D0689438
:10124000FCD712002FEC0EF0FD0E0001811540E1DD
:101250007E0E8115E8407F0B040DF3CF63F0F4CFD1
:1012600064F0000E6327040E642363C065F064C05D
:1012700066F0657554EC0DF0EF503C0BE842E84227
:101280000D0824E1DF6A080EDF5C1AE254EC0DF071
:10129000020EE926000E87EC0DF0EF50E66EDF50EF
:1012A000EA6A200FE96E040EEA22E552E750EF6E7B
:1012B00054EC0DF05FEC0EF0EE2AEF22DF2AE3D7BC
:1012C00054EC0DF0FFEC0DF00AD807D025D805D06E
:1012D000FD0E8115040801E12ED8E552D9D3000195
:1012E0006F6B896B8C6B8D6B836B706BC7DBEF9E49
:1012F0006B75C4DBEF9E6B75EEEC0DF0EF9E736BC0
:10130000746B756B786B796B7A6B50D89AEC0DF0C7
:10131000030EABDB65EF0BF0020E0001705D02E126
:10132000D1EF0BF0706B835104E196DB8C0EEF6E06
:101330001200836B12002FEC0EF0A0DBEF50400B7D
:1013400001E0010EDF6E00016B75080E605D08E1C3
:1013500022C46EFF6E5002E0100E01D0040E606FCA
:10136000700513E18BDBA5DBDDD9020E00016F5D9B
:1013700003E184DB840E07D0DF5003E17FDBC80E7E
:1013800002D07CDB880EEF6E0FD078AF0CD07B5193
:101390007C1107E005D07CC0FAFF00017B51F96E9B
:1013A000FADF0001789F706BE55272D3040120517F
:1013B000600BE842E842E842E842E842000901E006
:1013C000120021510C0A45E00B0A3FE00C0A31E003
:1013D000010A22E00B0A1EE0020A1CE0030A18E0E0
:1013E000080A10E0010A0CE00F0A08E0030A01E015
:1013F00012000001738F080E606F1200EFEF0AF009
:1014000035EF0CF00001610E716F000E726F0CD0A1
:101410002CEF0BF02AEF0AF024510001716F726B70
:10142000620E7127000E72237381010E746F738F29
:1014300012000001738F04012451EA6A620FE96E01
:10144000000EEA2222C4EFFF120074DB020E35EF19
:101450000DF0120018DB030EE1260401220510E155
:1014600020511F0B00090CE10001738F030E0401D2
:10147000215D04E10001010E7F6F02D000017F6B4E
:101480000401225163E120511F0B02085FE1245146
:101490000F0B00095BE024510F0B010857E3200EEE
:1014A0000001605D53E1738F040124BF04D0C2DBEF
:1014B00047DB4CDB03D0C3DB43DB4CDBEA22020E11
:1014C000EFCFDBFF76DB010B03E1000EDF9401D0F1
:1014D000DF8424BF02D0AEDB01D0B1DBEA22DECF55
:1014E000EEFFDDCFEDFF030E215D0CE1DADB07E05F
:1014F00024BF02D02BDB01D02DDBEA22EF82840E49
:10150000E3DB24D0DF74CDDB06E0B3DAEF9EB1DAA3
:10151000EF8C7FDB02D0ADDAEF8CDF744ADB020B9D
:1015200006E1BFDB11E0A5DAEF50040B0DE1040189
:1015300024BF02D00BDB01D00DDBEA22EF923B0E81
:101540000B6EB3DB66DB02D03B0EAFDB030EE15C60
:1015500002E2E16AE552E16E9BD200018A5121E18B
:10156000010E8A6F8B511DE1010E8B6F020E705DB3
:1015700007E184DAEE52EF6A81DAC80EEF6E1200EC
:1015800070050FE1836B90DAEE52080EEF6E8CDA85
:1015900036DB8ADA840EEF6E010E836F5DDA800E21
:1015A000EF6E120000018C6B8D6B020E705D04E11A
:1015B00080DB7FDA13DB10D074510401265D00015B
:1015C00075510401275904E226C474F027C475F04C
:1015D000A9D854DA6EDA52DAC80EEF6E1200800E15
:1015E0000401205D38E10001C00E736F0401235136
:1015F000030A1AE0010A09E0030A2BE10001960E32
:10160000716F230E726F120E1ED0E1DADF0EF62616
:10161000230EB2DA020E0001D3DAF5CF74F0030E16
:10162000CFDAF5CF75F01200040E225D0FE2CFDAAB
:10163000350EF626240EA0DA71C0F6FF72C0F7FF51
:101640000800F5500001746F756B12000001736B98
:1016500012000001736B1200D8DA0401286B296BA9
:1016600020511F0B020A11E0030A0CE0010A1CE1E1
:101670000001738F0401288100017F0515E1040139
:10168000288312D00001738F0FD00001738F0401E3
:1016900024BF02D0CFDA01D0D2DA52DAEAD9EF5041
:1016A000040B02E0010E286F000173AF07D0280E73
:1016B000716F040E726F7381020E746F020EE15C23
:1016C00002E2E16AE552E16EE3D16D98000173BF79
:1016D0000DD078AF09D0020E706F8D5101E162DF3D
:1016E00000018B6B8A6B120013EF0EF0040120AF28
:1016F0000DD00001010E706F8C5101E153DF00012C
:101700008B6B8A6B89510DE1ADEF0AF00001020E7F
:10171000706FA2D9840EEF6E8B6B8A6B895101E1D9
:101720001CDF12009CDA080EDF6E0001745D000EF3
:1017300075590AE274C0DFFF6F5102E1010E03D058
:101740006F0502E1020E6F6FDF500C6AE850745DA6
:10175000746F0C507559756F91D9EE52DFCFEFFF52
:10176000280E7D6F040E7E6F73B10DD0DF5017E031
:1017700071C0F6FF72C0F7FF712B000E72230800D4
:10178000F550CBD9F3D7DF500AE071C0E9FF72C042
:10179000EAFF712B000E7223EF50BFD9F4D7E55248
:1017A00077D133DA81D9EE52EFCFDFFFDFCF0BF005
:1017B0000B500001795D000E7A5902E279C0DFFF1B
:1017C000DF500B6E0C6AE850795D796F0C507A59D6
:1017D0007A6F010EDB6ADF50F36E010EDBCFF4FF90
:1017E000F350F45C16E2010EDB50EA6A280FE96E52
:1017F000040EEA22EF50E66E76C0E9FF77C0EAFFFA
:10180000762B000E7723E552E750EF6E010EDB2AB0
:10181000E2D7000ED8807955000E7A550DE249DAEC
:1018200048D942D9EF50400B03E1D8D9C80E02D0B5
:10183000D5D9880EEF6E12D00FD9840EEF6E7B5182
:101840007C1107E005D07CC0FAFF00017B51F96EE6
:10185000FADF0001789F895101E17FDE020EE15C31
:1018600002E2E16AE552E16E13D1F9D90001738F0A
:1018700045D9DF6A79D902E231D9FCD76D8C010EE6
:10188000E66EE66AE66A620EE66E000EE0D96D9CD0
:101890000001080E6B6F040E6C6F000E636F040E78
:1018A000646F63C065F0666F22C461F0615102E14C
:1018B000100E0BD0010EE66EE66A610EE66E000EAB
:1018C000E66E010ED2D80001200E606FE552E0D026
:1018D0009CD9000EDE6E040EDD6EF1D8040DF4CF3F
:1018E0000CF0D9CFE9FFDACFEAFFF350EE260C5027
:1018F000ED22BFD8EF9EFD0EDB5002E1EAD801D009
:10190000AFD8EA22DECFEEFFDDCFEDFFB2D8EF9CFD
:10191000B0D8040EE926000EEA22EF8C020EE15C3C
:1019200002E2E16AE552E16EB3D06FD9FD0EDBA4AD
:1019300002D0E66A29D9FD0EDBA203D0010EE66EC5
:1019400023D9FE0EDB500C6A700F0B6E0F0E06D9FA
:1019500090D8FD0EDBCFEFFF020EE15C02E2E16A00
:10196000E552E16E95D051D9FE0EDB5002E15BD914
:1019700005D0A5D838D9A3D8010F35D9020EE15C1E
:1019800002E2E16AE552E16E83D03FD9FD0EDB5001
:1019900002E066D801D09DD8D3D8D9CFE9FFDACFFD
:1019A000EAFFEE50ED1003E1F36AF46A21D061D84A
:1019B00086D9FB0EDBCFEEFFFC0EDBCFEDFF59D857
:1019C000EE52FA0EDBCFEFFF400E6FD9880E7CD9B6
:1019D000FD0EDB5002E044D801D07BD8EA22EF7440
:1019E000DECF0BF0DDCF0CF00BC0F3FF0CC0F4FF2B
:1019F000020EE15C02E2E16AE552E16E49D043D8B1
:101A00006DA812D021D9400EEE16EE6AEE6AEE6A8B
:101A10001BD9EE7C25D8EA22EF74400E0B6E14D948
:101A20000B50EF1611D9EF7C33D06D6A696A000153
:101A3000606B1200000160510EE16D6A696AABD8FB
:101A4000D08EA28AA08AF28E6DB602D06D86FCD7A7
:101A50000001010E606F12002CD9D1D8EEEF0DF00D
:101A6000FE0EEA6ADB3432EF0EF0E66EE66A40EF15
:101A70000EF0DECFE9FFDDCFEAFF12006BC0E9FF19
:101A80006CC0EAFF1200D9CFE6FFE1CFD9FF120008
:101A9000E552E7CFD9FF120024510F0BE96EEA6A35
:101AA000D890E936EA36120063C0E9FF64C0EAFF65
:101AB000120005D9280EEE6E040EED6E1200FD0E1A
:101AC000DB50E8240D6EFE0EDB50040DF3500D24A8
:101AD0001200FE0EEA6ADB3439EF0EF0DF50040D1F
:101AE000F3CFE9FFF4CFEAFF000EE926040EEA2265
:101AF000EE6AEE6AEE6AEE6ADF2A1200010EE66E08
:101B0000E66AE66A710EE66E0F0E27EF0EF0EA2225
:101B1000EE50EFCFEAFFE96E1200E66E7DC0E9FFFE
:101B20007EC0EAFF7D2B000E7E23E552E750EF6E6C
:101B3000DF061200000EE66EE66AE66EE66A120046
:101B4000EA22EECFDEFFEDCFDDFF120024510F0BB6
:101B500047EF0EF024510F0B4CEF0EF00C220BC090
:101B6000DEFF0CC0DDFF1200DF500B6E0C6A080EAA
:101B70000B5C000E0C581200F7220900F5CF71F033
:101B80000A00F5CF72F01200FE0EDBCFE6FFA0DEFA
:101B9000E552E5521200160E6F6E9F0E6B6E7B0EB5
:101BA000696E1200010EE66EE66A000EE66EE66AE7
:101BB0001200D950020FE96EDACFEAFFEF5012009F
:101BC000F76A7125F66E7251F72208001200225151
:101BD000F66EF76AD890F636F736120065C0E9FF60
:101BE00066C0EAFF1200040DF3CF0BF0F4CF0CF047
:101BF000000E0B26040EB2DF840E64EF0EF05FD8E9
:101C0000200EEE6E040EED6E12003DDF020EE12698
:101C10001200020EE66EE66ADECFE6FFDDCFE6FFDB
:101C2000050E35EF0DF018DF8C0EEF6E27DF840EFA
:101C3000EF6E120031DF670EE926000E12002CDF76
:101C40006B0EE926000E12000BDF87EF0DF0E66E3B
:101C50006EEC12F00B6E050EE15E0B50120013DFFE
:101C6000E6521200FE0BEA36E96E6B0EE926000E14
:101C70001200FE0BEA36E96E670EE926000E12002E
:101C80007DEC11F00B6E060EE15E0B501200EA6A5D
:101C9000860FE96E000E1200EA6A840FE96E000EEC
:101CA0001200E7DEEF50800B1200E3DEE850EF1683
:101CB000120094DFEE52080EEF6EEEEF0DF0020E02
:101CC000E926000EEA221200D4DEE850EF121200DC
:101CD0000001200E9F6F4E0EA06F00017B6B7C6B8E
:101CE0001200FAD9E65204012651DF6E0001400EBF
:101CF000766F050E776FDF500D6E0E6A080E0D5C65
:101D0000000E0E5802E2DF5001D0080E0B6E0C6A76
:101D1000796FD00E7B6F1C0E7C6F788F0001739FE4
:101D2000E552DFD10E0EE66E010EE66E95EC0CF07C
:101D3000E552E552040E0001691502E0010E01D0E2
:101D4000000E0B6E0C6A0BBE0C68060ECED9FEE1BF
:101D5000A4D9040E691502E0010E01D0000E0B6E2D
:101D60000C6A0BBE0C68060EC0D9FEE196D95CD990
:101D70005BD9040E00016D1502E0010E01D0000ECA
:101D80000B6E0C6A0BBE0C68060EAFD9FEE1D7D9FC
:101D9000040E6D1502E0010E01D0000E0B6E0C6AF0
:101DA0000BBE0C68060EA1D9FEE19FEF10F00401F6
:101DB0002051600BE842E842E842E842E84202086B
:101DC00001E012002151110A14E0010A10E01F0A7B
:101DD00006E0010A01E01200225100019A6F0001A1
:101DE0009A0E716F000E726F7381010E15D071EF34
:101DF0000EF00001400E716F050E726F73810401C9
:101E000026510001746F080E0B6E0C6A74510B5C46
:101E1000000E0C5802E2080E746F738F1200030E4E
:101E20000401235D04E1550E225D01E15ADF120039
:101E30000001030E9A6F9B6F9C6B9D6B12004CD937
:101E4000E652DF6A0001986B996BFB0EDBCF0BF05B
:101E5000FC0EDBCF0CF00B50985D0C50995919E239
:101E6000DF50DF2AE66EFD0EDB5098250F01E96E8C
:101E7000FE0EDB50000199210F01EA6EE552E7509A
:101E8000EF6EDF5001E1DF2A0001982B000E99234D
:101E9000DCD7E55226D12CEC11F0200E0001E76EC4
:101EA0006019E8AE02D0E73402D0E750605D03E38A
:101EB0006D50020B02E018EF0FF000019B519A5D8C
:101EC00004E09C6B9D6B9AC09BF09A51030A06E05C
:101ED000010A06E0030A04E172EF0FF0CCEF0FF005
:101EE00014EF10F0F9D8040EE12600016D516E11C7
:101EF00002E1000E03D00AD901E0010E000945E11C
:101F00000001620502E1400E01D0000E0B6E0C6A6A
:101F10000BBE0C68EFD8BBD8D8D8D9CFE9FFDACF41
:101F2000EAFF000ED880EE54000EED5427E2030EB7
:101F300000019C5D10E29C2BDECFE6FFDDCFE6FFCB
:101F4000020EDBCFE6FF030EDBCFE6FF78DFE552C4
:101F5000E552E552E55200019D519D2BE66E010EC2
:101F6000E76E020EDBCFE9FF030EDBCFEAFFE7509F
:101F7000E926000EEA22E552E750EF6E88D8020EFD
:101F8000DBCFEEFF030E95D899D8040EE15C02E298
:101F9000E16AE552E16EA5D09FD8060EE126000168
:101FA00069516A1102E1000E03D0B4D801E0010EBC
:101FB000000933E100016D516E1102E1000E03D002
:101FC000A5D801E0010E000928E1A8D8040EEECF43
:101FD000DBFF050EEDCFDBFF5AD877D80001620595
:101FE00002E1400E01D0000E0B6E0C6A0BBE0C68B5
:101FF00081D84DD8040EDBCFEEFF050E5AD8030E64
:102000005DD80001620502E1400E01D0000E0B6EAA
:102010000C6A0BBE0C686ED82AD8060EE15C02E290
:10202000E16AE552E16E5DD057D8040EE126000169
:1020300069516A1102E1000E03D06CD801E0010E73
:1020400000090EE10001620502E1400E01D0000E20
:102050000B6E0C6A0BBE0C684DD860D836D807D80A
:10206000040EE15C02E2E16AE552E16E3AD056D834
:10207000020EDBCFEEFF030EDBCFEDFF74D854D89A
:102080006AD871D80BC0EFFF0001697512005ED8E5
:10209000020EE926000EEA221200400E0B26040E64
:1020A0000C223CD80BC0EEFF0CC0EDFF000169759F
:1020B0001200DBCFEDFF4AD894EF10F04CD846D891
:1020C0000BC0EFFF00016D751200020EEECFDBFFBB
:1020D000030EEDCFDBFF1200D9CFE6FFE1CFD9FF32
:1020E0001200E552E7CFD9FF1200D8900B360C361C
:1020F000E80612000BC0DEFF0CC0DDFF12000BC0B3
:10210000EEFF0CC0EDFF00016D7512001FD8EF50FF
:10211000800B120028D8EF50800B120024D8020E3A
:10212000E926000EEA221200EE52DFCFEFFFDECFEB
:102130000BF0DDCF0CF00CC00BF00C6A1200C00EDF
:102140000B26040E0C22A3DF7FEF10F06DC0E9FF19
:102150006EC0EAFF12000B16000E0C16800E0B125A
:10216000000E0C12120069C0E9FF6AC0EAFF1200FB
:10217000DACFE4FFE2CFDAFFE9CFE4FFEACFE4FF12
:10218000F6CFE4FFF7CFE4FFF5CFE4FFF3CFE4FFB2
:10219000F4CFE4FFFACFE4FF00EE00F00B0EE8040A
:1021A00003E3EECFE4FFFBD700EE0BF0040EE804F0
:1021B00003E3EECFE4FFFBD7E6526FEC08F0E55205
:1021C00000EE0EF0040EE80403E3E5CFEDFFFBD7CD
:1021D00000EE0AF00B0EE80403E3E5CFEDFFFBD7BA
:1021E000E5CFFAFFE5CFF4FFE5CFF3FFE5CFF5FF4D
:1021F000E5CFF7FFE5CFF6FFE5CFEAFFE5CFE9FF53
:10220000E5CFDAFF1100D8CFE4FFE0CFE4FFE46EC2
:10221000DACFE4FFE652E552E5CFDAFFE550E5CF4D
:10222000E0FFE5CFD8FF100000019F6BA06B05D841
:102230001AEC0DF04BEC0FF0FDD70F0EC11202D8C7
:1022400016EF08F0F00E8C1695169388938A00010D
:10225000010E9E6F18EF0FF000019F51A01104E1D5
:10226000100E9F6F270EA06F9F07000EA05B6DA240
:1022700007D09F51A0112EE18C708CB013D027D0C5
:102280000001605102E18C9022D0600502E18C8057
:1022900009D0020E605D02E18C8019D0040E605DF1
:1022A00003E18C908C821200100E605D06E100014B
:1022B0009F51A0110FE18C700AD0200E605D0AE1E1
:1022C00000019F51A01106E18C708CA002D08C926D
:1022D00012008C82120012001200120012006D8493
:1022E0000001080EA16F070EA26FA107000EA25BEE
:1022F000A151A211FAE16D941200D9CFE6FFE1CF0E
:10230000D9FFFD0EDBCF06F0FE0EDBCF07F0720E1D
:10231000061801E1075036E0E868061802E17F0E72
:1023200007182EE0740E061801E1075027E0750E1D
:10233000061801E1075020E0730E061801E107506E
:1023400019E0030E061801E1075011E0020E06180D
:1023500001E1075009E0010E061801E1075001E014
:1023600013D092EC0EF011D00FEC0FF00ED0D7EC92
:102370000EF00BD0B2DF09D0AEDF07D0ADDF05D055
:10238000ADDF03D0000001D000D0010E00D0E55237
:06239000E7CFD9FF1200A7
:0A2396001201000200000008D80444
:1023A0002EFA01000102030109023700010100C0F9
:1023B00032090400000200000000070501050000CA
:1023C0000107058105000001090400010200000069
:1023D000000705010540000107058105400001A82F
:1023E000230403090420035400720061007600698D
:1023F000007300200052006F00620069006E0073DD
:10240000006F006E002203420065006E00630068EA
:10241000006D00610072006B0020004400650076D2
:10242000006900630065000E034C00550053004234
:0D2430000057003100E123E5230524272497
:02243E002A0E64
:10244000F66E100EF76E000EF86E00010900F550E2
:10245000936F0900F550946F03E1936701D03DD06D
:102460000900F5508E6F0900F5508F6F0900F55087
:10247000906F09000900F550E96E0900F550EA6E09
:10248000090009000900F550916F0900F550926F9D
:1024900009000900F6CF95F0F7CF96F0F8CF97F046
:1024A0008EC0F6FF8FC0F7FF90C0F8FF0001915378
:1024B00002E1925307E00900F550EE6E9107F8E251
:1024C0009207F9D795C0F6FF96C0F7FF97C0F8FFBF
:0C24D00000019307000E945BBFD71200C0
:0424DC00FE0EE3CF3E
:1024E000E9FFFF0EE3CFEAFFE9CFF3FFEACFF4FF06
:1024F000FB0EE35003E1FC0EE35009E0FB0EE306A4
:1025000002E2FC0EE306FD0EE350EE6EF1D7120080
:10251000000EF36E00EE00F0080E01D81200EA6023
:1025200002D0EE6AFCD7F350E9601200EE6AFCD7E5
:1025300013EE00F023EE00F0F86A0A9C1FEC12F094
:0C254000A6EC12F014EC11F0FBD7120016
:02254C0012007B
:020000040030CA
:01000000E41B
:010001003EC0
:01000200FFFE
:01000300FEFE
:01000500F901
:010006009B5E
:01000800FFF8
:01000900FFF7
:01000A00FFF6
:01000B00FFF5
:01000C00FFF4
:01000D00FFF3
:00000001FF
