:020000040000fa
:080000000414040000000000dc
:020000040000fa
:1004000000000000000000000000000000000000ec
:1004100000000000000000000000000000000000dc
:1004200000000000000000000000000000000000cc
:1004300000000000000000000000000000000000bc
:10280000ffffff00ffffff000fd42000007f22002a
:1028100000018800000000000c0007006014220086
:102820000100200011000700000020000000e0006f
:102830000200320000000200000000004c200200f4
:10284000000000000040da000000fe004440a90043
:10285000800a20000000e000030032000000200099
:10286000a00188004440a8000000060091018800f3
:10287000800078000000eb0015003700e280400087
:1028800032a0b4009101ba00e280400032a0b4004e
:102890009102ba00e280400032a0b4000002eb00d6
:1028a000472bde00f507b200602ce10004003a007f
:1028b0000059eb008301e900fdff3e0004003700f2
:1028c0006128e100010032000082eb0004000700f3
:1028d0001101ba000200e000e8ff3a000000060023
:1028e0003159ba008301e9000c0032002159ba00c5
:1028f0008301e900080032000400e00003003a0010
:10290000e280400032a0b400f5ff370011d9ba00d0
:102910008301e900faff3a008100e800e18040000d
:1029200032a0b4000000060000000000000000001b
:020000040000fa
:020000040001f9
:0457f00033ff000083
:020000040000fa
:020000040001f9
:0457f400c0ff0000f2
:020000040000fa
:020000040001f9
:0457f8008e9b000084
:020000040000fa
:020000040001f9
:0457fc00603f00000a
:020000040000fa
:1000080060210000602100006021000060210000e4
:1000180060210000602100006021000060210000d4
:1000280060210000602100006021000060210000c4
:1000380060210000602100006021000060210000b4
:1000480060210000602100006021000060210000a4
:100058006021000060210000602100006021000094
:100068006021000060210000602100006021000084
:100078006021000060210000602100006021000074
:100088006021000060210000602100006021000064
:100098006021000060210000602100006021000054
:1000a8006021000060210000602100006021000044
:1000b8006021000060210000602100006021000034
:1000c8006021000060210000602100006021000024
:1000d8006021000060210000602100006021000014
:1000e8006021000060210000602100006021000004
:1000f80060210000602100006021000060210000f4
:1001080060210000602100006021000060210000e3
:1001180060210000602100006021000060210000d3
:1001280060210000602100006021000060210000c3
:1001380060210000602100006021000060210000b3
:1001480060210000602100006021000060210000a3
:100158006021000060210000602100006021000093
:100168006021000060210000602100006021000083
:100178006021000060210000be1600006021000020
:100188006021000060210000602100006021000063
:100198006021000060210000602100006021000053
:1001a8006021000060210000602100006021000043
:1001b8006021000060210000602100006021000033
:1001c8006021000060210000602100006021000023
:1001d8006021000060210000602100006021000013
:1001e8006021000060210000602100006021000003
:0801f8006021000060210000fd
:020000040000fa
:1002080060210000602100006021000060210000e2
:1002180060210000602100006021000060210000d2
:1002280060210000602100006021000060210000c2
:1002380060210000602100006021000060210000b2
:1002480060210000602100006021000060210000a2
:100258006021000060210000602100006021000092
:100268006021000060210000602100006021000082
:100278006021000060210000602100006021000072
:100288006021000060210000602100006021000062
:100298006021000060210000602100006021000052
:1002a8006021000060210000602100006021000042
:1002b8006021000060210000602100006021000032
:1002c8006021000060210000602100006021000022
:1002d8006021000060210000602100006021000012
:1002e8006021000060210000602100006021000002
:1002f80060210000602100006021000060210000f2
:1003080060210000602100006021000060210000e1
:1003180060210000602100006021000060210000d1
:1003280060210000602100006021000060210000c1
:1003380060210000602100006021000060210000b1
:1003480060210000602100006021000060210000a1
:100358006021000060210000602100006021000091
:100368006021000060210000602100006021000081
:100378006021000060210000be160000602100001e
:100388006021000060210000602100006021000061
:100398006021000060210000602100006021000051
:1003a8006021000060210000602100006021000041
:1003b8006021000060210000602100006021000031
:1003c8006021000060210000602100006021000021
:1003d8006021000060210000602100006021000011
:1003e8006021000060210000602100006021000001
:0803f8006021000060210000fb
:020000040000fa
:10293000f0940000d0940000ae940000a094000039
:102940000e0300004c000000550000005300000082
:102950004200000057000000310000002203000088
:1029600042000000650000006e00000063000000ef
:10297000680000006d0000006100000072000000af
:102980006b00000020000000440000006500000013
:102990007600000069000000630000006500000090
:1029a00020030000540000007200000061000000dd
:1029b00076000000690000007300000020000000a5
:1029c000520000006f00000062000000690000007b
:1029d0006e000000730000006f0000006e00000039
:1029e0000403000009040000f6940000090200003e
:1029f000370000000101000000c0000032090000a3
:102a000004000000000200000000000000000000c0
:102a1000070500000105000000000000010700009c
:102a2000058100000500000000010000090400000d
:102a3000000100000200000000000000000700008c
:102a4000050100000540000000010000070500002e
:102a5000810500004000000001000000120100009c
:102a6000000200000000000000080000d804000080
:102a70002efa000001000000010200000301000026
:020000040000fa
:102a80009ec0a9008ea4ef008aa4ef00aa24ef0044
:102a9000ac24ef002000200030258800a824ef009f
:102aa0008644a900f0092000802488006024880062
:102ab0008804a80001a020004808de00c024880087
:102ac0000000eb008018eb008018eb000000e8002d
:102ad000e80f5000fbff3a009424a8009624ef0072
:102ae00094a4a9009424a90080007800070037006e
:102af000512488004e69ef004069ef0041c9bf00d2
:102b00004169ef0042c9bf004269ef008ac4bf00bb
:102b10000038a300f6ff3a001000200000498800aa
:102b2000f04888005229ef005429ef004829ef00af
:102b30000000eb00a49320000293200080007800a6
:102b40005592200033922000001aeb000019eb0090
:102b500001f07a0001f079000000e800e20f500077
:102b6000f9ff3a0080a02000d0498800d000200062
:102b700050258800609120001050880080c0b3006c
:102b800000eab70040c8b30001eab7004569ef00aa
:102b90004629ef0000000600804a800083c0b30091
:102ba000e70f50000a003e00804a80008041780014
:102bb00010c0b3002f49e200040032002fc9bf004b
:102bc000e14f500002003a0020c0b3002fe9b700e7
:102bd0000380fb005029b500d049800003487800ed
:102be000e0902000604988004ec9bf000008a300a3
:102bf00002003200034178001200370003417800e0
:102c00008041eb000600370060498000614a800087
:102c10003158780060498800614a88000241e90023
:102c2000834f5100f8ff3a00000006006049800021
:102c3000614a80003158780060498800614a880004
:102c40000241e9000204e000f8ff3a00000006003b
:102c50002009e20022003a00140020000449880004
:102c6000f14880000100e0001d003a00f4488800af
:102c70002ec9bf00e24f500006003a00d049800044
:102c80000148780081ccb300d04980001140980001
:102c9000000006002ec9bf00e14f500010003a00ae
:102ca0004149880083c0b300b049800003487800e0
:102cb000b1498000629120009200980040c8b300a2
:102cc0009040980044498800a0498000034878005b
:102cd000a14980009200980000c8b300904098007d
:102ce000000006005229ef005429ef002ec9bf0052
:102cf000e24f500009003a0081c0b300a0498000b3
:102d000001487800a1498000e090200090009800e0
:102d100080ccb30090409800000006001cc9bf00a2
:102d20000080fb00d191200091407800c808dd00b0
:102d300080807000804a8000808f50000700310042
:102d4000c1912000914078008180fb001dc9bf0027
:102d50004800dd0001007000804a88008eff0700f7
:102d6000e1902000d04980001100980081ccb30090
:102d7000d049800011409800000006003600f8009d
:102d8000809fbe00829fbe00849fbe00869fbe00c3
:102d9000889fbe008a1f78003400f80000002000e1
:102da000a00188000200fa00304a8000e10f5000c4
:102db00008003a0094c4bf000068a30005003a0070
:102dc0008aa4ef008c04a8008c84a80020002000b6
:102dd000304a880080c4bf000048a3000c003200c5
:102de00082c4bf000048a30009003200080120008f
:102df000082488004829ef000001eb008000eb0068
:102e0000400720000c0507008284a90008248800e0
:102e100088c4bf000018a300cb023a008ac4bf00d8
:102e20000008a300090032008cc4bf000008a30002
:102e30000600320012ff07009ec0a80040002000dc
:102e4000304a880010002000502488008ac4bf0047
:102e50000048a3000d0032008cc4bf000048a3004e
:102e60000a0032008284a80008012000582488004b
:102e700010002000404a88000001eb008000eb00b9
:102e800050072000ec040700582488008ac4bf00c3
:102e90000028a300090032008cc4bf000028a30052
:102ea00004003200120020008000eb0030072000f8
:102eb000e104070040002000502488008a44e2001a
:102ec00014003d008c44e20012003d00aac4bf0083
:102ed0000018a3000d003200b2498000924090001b
:102ee00000c8b30080cf500007003a00d0498000ee
:102ef0009040900040c8b30080cf500002003a00dc
:102f00006840400010419800aa24a9000008200051
:102f1000502488008ac4bf000018a3000a003200b1
:102f20008cc4bf000018a30007003200120020006c
:102f30008000eb00f0ff2700bf0407008ea4ef0025
:102f40002000200050248800304a8000e30f500009
:102f50007d0236008cc4bf000038a3007a02320024
:102f60000045eb008ac4bf000038a300760232009f
:102f7000902480002be9b7002bc9bf000080fb0024
:102f80004400de002ae9b7008000200050248800b9
:102f90002bc9bf000038a30004003a002ac9bf00b3
:102fa0000080fb0031922000030037002ac9bf00d7
:102fb0000080fb0051922000010040001041780089
:102fc000e14061000104a2001004a10010c87000db
:102fd0002a49e20055023a002bc9bf00800178005f
:102fe000b30fb20014023a002bc9bf00c00fb200e9
:102ff00001a0200001014000b2498800a2498800d8
:103000003449aa0012409000c043b20041c3b3004b
:10301000814f500099013a008200780062912000af
:103020001100900010f17900110090000000e800fc
:10303000900098008301e800e88f5100f8ff3a0003
:10304000920098002f69ef005629ef005229ef00f7
:103050005429ef002829ef002e69ef00d1498000a4
:10306000114090000074a100904098003a49aa00d5
:10307000d1498000114090000074a1009040980058
:103080003a49aa00a1498000114090000074a100b3
:10309000904098004e69ef005029ef004069ef0022
:1030a00041c9bf004169ef0042c9bf004269ef005a
:1030b00016c9bf000046b2003f013a0017c9bf0061
:1030c0000080fb0001002000eb0f5000e08f580053
:1030d00039013e00006001005c00370088003700c5
:1030e000350137008600370033013700060037000e
:1030f000080037002c01370052003700330037003a
:1031000017013700200137004ee9a8008000200099
:1031100044003700619120009140780000c8b3005e
:1031200080cf500024013a0000ccb3004ee9b70034
:1031300019c9bf00e24f500008003200e34f5000b1
:1031400013003200e14f50001e003a00e052290007
:10315000604a8800200120001800370018c9bf000d
:103160000080fb0000004000414f29006080780093
:10317000604a8800604a80002040900050e9b70013
:10318000604a80003040900051e9b7000a013700e2
:1031900018c9bf00e34f50000a003e0018c9bf0025
:1031a0000080fb0000004000814929006080780019
:1031b000604a8800604a80001080fb00804a8800d6
:1031c000fd0037004e69ef00fb0037004ee9a80014
:1031d000ac24ef000000eb0001a02000010178000a
:1031e0000019eb000019eb000000e800e80f5000a8
:1031f000fbff3a009424a8003869ef009424a9004a
:1032000080a02000d0498800b1498800a1498800e9
:1032100018c9bf0045e9b7004549e20003003a007c
:1032200000012000304a8800e3003700120020002f
:103230005194200010002000ff030700000220002e
:10324000f8ff370050942000c90037000e69ef00e6
:103250000f69ef0016c9bf007f006000e10f50004a
:103260000b003200e20f50000b0032000000e000c3
:103270001b003a004ee9a8000e09a800504a800041
:10328000e10f500016003a000e29a8001400370084
:103290004ee9a800120037004ee9a8001a49e200e2
:1032a000050035001ac9bf006f0060000000400033
:1032b00001932000040037001ac9bf006f006000ae
:1032c00000004000a1932000608078001040900032
:1032d0000028a3000200320010c0b3000ee9b700be
:1032e0004e49e200b4003d00e0902000604a8800b2
:1032f0004e09a80020c0b30050e9b700ae00370067
:1033000018c9bf00e14f50000b003a0016c9bf00ba
:103310007f40600008003a004ee9a80017c9bf00ce
:10332000e34f500003003a0010002000504a88008c
:10333000010037004a29ef001849e2009e003a00d8
:1033400016c9bf007f406000e24f50009a003a006b
:103350001ac9bf006f406000970032001ac9bf0051
:103360006f006000e10f500093003c00314a800084
:1033700000022000808f50008f003a004ee9a80024
:103380001a49e2000a0035001ac9bf006f00600048
:103390000000400001932000e0807800f1bf9f0012
:1033a0001ac9bf006f006000319220000900370089
:1033b0001ac9bf006f00600000004000a193200008
:1033c000e0807800f1bf9f001ac9bf006f00600065
:1033d0005192200060c478000808a30004003a005d
:1033e0006ff997000224a100e2ff9f00030037005d
:1033f0006ff897000024a000e0ff9f001a49e20048
:10340000050035001ac9bf006f00600000004000d1
:1034100001932000040037001ac9bf006f0060004c
:1034200000004000a19320007fb9970002b078000f
:1034300017c9bf00e34f500014003a007fb897004f
:103440001000e0000b003d001a49e20004003500c6
:103450001ac9bf006f0060003192200003003700de
:103460001ac9bf006f0060005192200001004000a7
:103470001014a0007fb897009040900042c8b3009d
:1034800082c07000114098004b0037008f84e90023
:103490006ff897000024a200e0ff9f00ffb897009c
:1034a000114090001100e0000b003d000074a100ed
:1034b00090409800ffb89700114090000064a00071
:1034c0009040980022002000ffb897005000200094
:1034d00059030700020037000064a00090409800e4
:1034e0001924a2000818a30006003a007fb997002b
:1034f000004028001200600001002800810f5000e9
:1035000013003a001a49e200040035001ac9bf004e
:103510006f00600031922000030037001ac9bf001d
:103520006f00600051922000010040001014a100c3
:10353000ffb8970011409000b043b200904098004f
:1035400022002000ffb8970050002000190037002b
:1035500012409000b043b2001041980016003700ae
:103560001ac9bf000080fb008193200001004000c9
:10357000604a88004e09a80010c0b30050e9b700a7
:103580004ee9a8000c0037004ee9a8001ac9bf0098
:103590000080fb008193200082912000124178007e
:1035a00002f07800040037000001eb008000eb001f
:1035b00020002000200307000001eb008000eb004a
:1035c000300020001c03070094a4a9004e49e2002b
:1035d000130035004049e20008003d0020c0b30060
:1035e0002ee9b7005409e20001003a00bdfd0700d2
:1035f0001e29ef002029ef00d000370081c0b30062
:10360000a049800001487800a14980006091200015
:1036100090009800c0c8b30090409800a400370004
:103620001649e20006003d0010c0b3002ee9b700c5
:103630005209e2000c003a00aafd07000a00370018
:1036400020c0b3002ee9b70081c0b300a0498000bc
:1036500001487800a1498000609120009000980006
:1036600040c8b300904098001e29ef002029ef00c9
:103670005609e200b1003a005e0037002ec9bf00d3
:10368000e24f50005d003a001242780041c9bf008d
:103690000080fb002194200091407800c808dd00e4
:1036a000808070000480fb00810f50000400360011
:1036b00041c9bf0021942000914078000042780069
:1036c00011942000914078008180fb0042c9bf0026
:1036d0004800dd00010070008480fb000100500004
:1036e000119420009140780041e9b7004800de00c5
:1036f000219420009140780042e9b700e590200035
:1037000010003700e1932000914078008180fb0099
:103710003fc9bf004800dd00010070008280fb004f
:1037200061d87a00e1932000914078003ee9b7002b
:103730004800de00f1932000914078003fe9b70097
:103740008301e8000341780084cf5100edff390088
:10375000a249800011942000914078008180fb00f4
:1037600042c9bf004800dd00010070000a003200bd
:1037700080c0b30000497800a1498000e09020009b
:1037800090009800b0498000104090000068a300ad
:103790004e0032004f00370080c0b300004978006f
:1037a000a1498000609120009000980040c8b300bb
:1037b0009040980031942000914078008180fb0077
:1037c00044c9bf004800dd0001007000070032005e
:1037d00031942000914078008180fb0044c9bf00f3
:1037e0004800dd00010070000000010040e9a90070
:1037f0009fff370016fd0700500037008001fd00d5
:103800002ee9b7008001fd002809e20008003a0017
:1038100081c0b300a049800001487800a149800020
:103820006091200090009800c0c8b3002a003700c3
:1038300043498800410037002bc9bf00b00fb200d8
:10384000e80f50003d003a00d04980001040900041
:103850004600de00610460003a49aa00304a800058
:10386000e80f500008003a0018c9bf000080fb00b4
:10387000b0248800000120009604e20001003a0014
:1038800040002000304a88002ec9bf00e14f5000a0
:1038900013003a00e0902000d14980009000980089
:1038a000bdfc07002fc9bf00e24f500004003a00e2
:1038b00041c8b300d0498000114098001f00370074
:1038c000d14980000804e00002003a0080ccb30037
:1038d0000100370080c8b3009040980017003700ff
:1038e0004049e2000f003d003194200091407800f3
:1038f0008180fb0044c9bf004800dd00010070006a
:103900000700320031942000914078008180fb0054
:1039100044c9bf004800dd00010070000000010044
:1039200040e9a9002e69ef00040037000001eb0018
:10393000b1922000200720003f0207000a45e8005e
:10394000e44f550087fd3a008ec0a9000080fa00c0
:103950003400f9004f0578004f04be004f03be004d
:103960004f02be004f01be004f00be003600f900fe
:10397000004006000080fb00800140000180fb0049
:10398000008041004300dd0002a020000201400051
:10399000124090000074a100104198000093200094
:1039a0000104e00001003200a09320008231780081
:1039b000124090000064a10010419800e400410012
:1039c000114090000064a0009040980000000600a4
:1039d000889fbe008a1f7800004478000145780067
:1039e0008184fb000938a300020032008040eb0014
:1039f000e0ff07000928a3000300320011c0b30054
:103a000008407800dbff07000880fb000000400052
:103a1000a14a20000af078004f0578004f04be004c
:103a200000000600014178000004e0000c003a00ac
:103a300081c0b300a049800001487800a1498000fe
:103a40006091200090009800c0c8b300904098009a
:103a500041c8b300d0498000114098000000060022
:103a60008080fb00818040000280fb00808040005d
:103a7000c308dd0002a02000028140001240900037
:103a800043c8b300034070001041980040a02000dc
:103a900080804000114090000340700090409800ea
:103aa00000000600004378000082fb00814378009c
:103ab0000104e0000300320084004200a0932000d3
:103ac000020037008400420000932000e1027800e9
:103ad0000500e00002003a00050078000000060042
:103ae0000682fb0092029800834a780015409000fd
:103af0000044b200904298001540900081c8b30085
:103b000001407000904298000704e000030032007a
:103b100004004200a193200002003700040042008c
:103b200001932000010040001024a200050078004d
:103b3000000006008040780094c4bf000058a30035
:103b4000180032000181fb0002014100a093200017
:103b500000014100920178001300be00040420001f
:103b600000006200010020008089be009201780000
:103b70000004200001002000931968009391680060
:103b80001224a20092007800114090000044b2007c
:103b90009040980092007800114090000440680026
:103ba00090409800000006000000eb00a024880070
:103bb00060248800304a880000000600314a8000f6
:103bc0000100e00011003a00a1248800612488006f
:103bd0002000200030258800412588008644a90067
:103be000f009200080248800602488009ec0a8007e
:103bf000010037009404a80094c4bf000008a3008b
:103c0000fcff320010002000304a8800000006004f
:103c100000e22400d04a880043c9bf000040eb0006
:103c200043e9b700419420009140780044e9b7008f
:103c300000000600c1912000914078001dc9bf001e
:103c400060802000e2932000124178003ee9b70036
:103c50004800de00f2932000124178003fe9b700ef
:103c600001407800e8cf50000100360080c0b3006a
:103c700041e9b70080e021003194200091407800b4
:103c800043e9b7004800de004194200091407800ed
:103c900044e9b70040e9a8004ee9a9000000060089
:103ca000914980000100e0000300320011409000c3
:103cb0000004e0000c00350038c9bf000004a20079
:103cc0000080fb000000e9004f00de004600dd0040
:103cd000914980008048780001c8b3009049800075
:103ce000114098003249aa0000000600c1c1b3008b
:103cf00010c0b30036ff070022932000e3802000ad
:103d00001280fb004400dd000004b200030040000c
:103d10009149800090009800124078000024a20091
:103d2000004978004400dd000004b20003004000b8
:103d300091498000900098001224a200d8ff07004b
:103d4000d7ff0700c2932000e38820001280fb0009
:103d50004400dd000004b20003004000e14980009f
:103d600090009800124078000024a20000497800da
:103d70004400dd000004b20003004000e14980007f
:103d8000900098001224a2000000060016c9bf008f
:103d90000046b20001c4b300814f500025003a0034
:103da00017c9bf00ef4f50000d00320003003e0066
:103db000ee4f50001f003a0005003700f04f500052
:103dc0000e003200f14f50001a003a000c0037008c
:103dd00018c9bf00919120009140780003e8b70016
:103de00030802000604a88004e09a80010c0b3004f
:103df00050e9b7004ee9a800000006008dff37002b
:103e000060802000604a88004e09a8001cc9bf00dd
:103e1000d19120009140780050e9b70050c9bf000f
:103e2000e84f50000200360080c0b30050e9b700f0
:103e30004ee9a8000000060019c9bf00e34f50007a
:103e400006003a00819120009140780050c5b300ef
:103e500080cf500001003a0076ff07000000060006
:103e600030c0b30003e8b70002e8b7000040eb0041
:103e700001e8b70000e8b700000006000428ef00e2
:103e80008041eb0005003700037178008341e800b2
:103e900001003a0013c0b3000428ec002240800067
:103ea000810f5100f8ff390000000600889fbe0016
:103eb000e14980000100e000030032001140900061
:103ec0000004e0001b00350038c9bf000004a20058
:103ed0000080fb000000e9004f04de004644dd00e6
:103ee000910490000b00320001c8bf00e24f500067
:103ef00004003e000168ec008800780009007800aa
:103f0000deff070000c8bf00904498000040e800b2
:103f100000e8b700e049800019009800e0498000ff
:103f20000848780001c8b300e049800011409800bb
:103f30003c49aa004f04be000000060091498000e1
:103f40000100e00003003200114090000004e00096
:103f500023003500e34980000300e0000300320045
:103f6000134090000004e0001d0035009100900017
:103f70001301900038c9bf000004a2000080fb00bc
:103f80000000e9004f00de004600dd0091019800ce
:103f9000e14980008048780001c8b300e049800012
:103fa000114098003c49aa0038c9bf000004a20093
:103fb0000080fb000000e9004f00de004600dd004d
:103fc00091498000920098009149800080487800d3
:103fd00001c8b30090498000114098003249aa00fe
:103fe0000000060038000700304a8000ff0f500034
:103ff0000300360088c4bf00624160000600320042
:1040000030c0b30003e8b70002e8b7000168ef0072
:104010000068ef0000000600318020009140780029
:1040200002c8bf0080cf5000060032000001fd0032
:1040300001e8b70000e8b7000001fd0003c8bf00b9
:1040400002e8b70003c8bf00e24f5000060032008c
:10405000e34f500003003200e14f500002003a00ed
:1040600092ff3700b5ff37000dff3700f0d72f0064
:10407000c422b600c022b60030ff2f00cc22b6000a
:10408000c822b600c142a800c122a800100020002a
:10409000e04a880072ff37005a29ef002ca3ef0096
:1040a00044a7a800802520000000e900e10f40009f
:1040b000fdff3a00edff070071fa0700bffe0700a1
:1040c000c8ff0700feff37005a09e20002003a006d
:1040d00000712200d04a88005a29ed0088c4bf0030
:1040e0000018a3000e003200d04a80000000e0005b
:1040f00042003a00c442e2000100350010c0b300a3
:10410000c700dd00c4c2bf000074a1000140700000
:10411000c4e2b700c442e2001300350034003700a7
:104120004609e20002003a00c4e2a900300037006c
:10413000304a8000e10f500002003a00c4e2a800bb
:1041400009003700304a8000e20f500002003a00b8
:10415000c4e2a80026003700304a8000e40f500077
:1041600003003a00c4e2a900cc62a80000000600e7
:10417000304a8000f00f50000c003a00d04a800016
:104180000000e0001d003a00c442e20001003500da
:1041900010c0b300c700dd00c4c2bf000074a1009e
:1041a00001407000c4e2b70011003700314a8000be
:1041b00000022000808f500010003a00d04a80009a
:1041c0000000e0000d003a00c442e20001003500aa
:1041d00010c0b300c700dd00c4c2bf000074a1005e
:1041e00001407000c4e2b700c442e20002003d009a
:1041f000cc62a90000000600cc62a8000000060006
:104200000000060000000600000006000000060096
:104210009444a80080702000c04a88008000eb0011
:104220008100e800808f5000fdff3a005829ef0020
:104230009444a9000000060080007800e20f5000be
:104240000c00320003003e00e10f50000e003a0067
:1042500006003700e30f500008003200200720005e
:10426000808f500008003a00060037009ffe0700cc
:1042700005003700f0fe070003003700c3fe07000b
:0c428000010037000000000010000500e5
:020000040000fa
:10428c005809000006000000000000000e090000a4
:10429c004a00000000000000000a0000200000009e
:1042ac0000000000000800000e01000000000000eb
:0442bc0000000000fe
:020000040000fa
:0442c0000000fe00fc
:00000001FF
