:020000040000FA
:0600000080EF14F0120075
:0600080004EF08F01200F5
:060018000CEF08F01200DD
:0610000080EF14F0120065
:061008006AEF10F0120077
:06101800B5EF10F012001C
:06102A0001002C2900006A
:08103000300F00000800000071
:08103800D9CFE6FFE1CFD9FF9B
:10104000E652636A626A0F01160E5F6F9F0E5D6F54
:101050007B0E5C6F658C5E6B010EE66EE66AE66A7F
:101060004D0EE66E0F0EE66E66EC14F00B6E050E7E
:10107000E15E0B50659CDF6ADF500B6E0C6A080E58
:101080000B5C000E0C5810E2DF50040DF3CFE9FFAB
:10109000F4CFEAFF000EE926040EEA22EE6AEE6AB9
:1010A000EE6AEE6ADF2AE8D70F01160E4C6F62A6D1
:1010B00002D06296FCD70F01136B186B196B1A6B79
:1010C0006598080E0B6F040E0C6F016B006BE552F8
:1010D000E552E7CFD9FF1200D9CFE6FFE1CFD9FF24
:1010E000E6520F01000509E165BA07D0626A0F01F7
:1010F0005C815C890F01020E006F6250040B06E0F8
:101100000F015C51040B02E06294BBD865B260D061
:101110006250010B13E00F015C51010B0FE08CDFFB
:101120000F01040E006F0401200E026F040E036F06
:10113000400E016F006B8C0E001362906250100B1A
:1011400006E00F015C51100B02E088D862986250F3
:10115000400B14E00F015C51400B10E0010EE66EF5
:10116000E66A000EE66EE66A730EE66EE66AAEECBE
:1011700011F00B6E060EE15E0B50629C6250200B6C
:1011800005E00F015C51200B01E04ED86250020BCC
:1011900014E00F015C51020B10E0010EE66EE66AEE
:1011A000000EE66EE66AE6687F0EE66EAEEC11F0C3
:1011B0000B6E060EE15E0B50636A040E0F01E76EC4
:1011C0000019E8AE02D0E73402D0E750005D02E239
:1011D000A19825D00F015CA721D0DF6A040EDF5C47
:1011E0001DE262A61BD064CF20FF6296780E0F012D
:1011F000201502E15CD810D0000EE66EE66A200EE3
:10120000E66E0F0EE66E720EE66EE66AAEEC11F05A
:101210000B6E060EE15E0B50DF2AE0D7A198E55277
:10122000E552E7CFD9FF12000F014CA115D003CF33
:10123000E9FF04CFEAFFEF5080080DE10BCFE9FF93
:101240000CCFEAFFEF50840806E103CFE9FF04CF9B
:10125000EAFF8C0EEF6E4C91629A12000F015C85D2
:1012600062986582000EE66EE66AE66EE66A750EC4
:10127000E66EE66AAEEC11F00B6E060EE15E0B5008
:101280001200000EE66EE66AE66EE66A740EE66E20
:10129000E66AAEEC11F00B6E060EE15E0B50659245
:1012A0000F015C9562A402D06294FCD71200D9CFE2
:1012B000E6FFE1CFD9FFE652FD0E0F0120155AE1FE
:1012C0007E0E2015E8407F0B040DF3CF03FFF4CF13
:1012D00004FF000E0327040E042303CF05FF04CFF1
:1012E00006FF057503CFE9FF04CFEAFFEF503C0B83
:1012F000E842E8420D083CE103CFE9FF04CFEAFFF2
:10130000020EE926000EEA22EECF0BF0EFCF0CF032
:10131000280E0B182BE1040E0C1828E103CFE9FF6F
:1013200004CFEAFF020EE926000EEA22200EEE6E3E
:10133000040EED6EDF6ADF500B6E0C6A080E0B5C5C
:10134000000E0C5813E2DF50EA6A280FE96E040E13
:10135000EA22EF50E66EDF50EA6A200FE96E040ED3
:10136000EA22E552E750EF6EDF2AE5D70DD807D025
:101370002ED805D0FD0E2015040801E14ED8E55207
:10138000E552E7CFD9FF12000BCFE9FF0CCFEAFF00
:10139000EF50800B05E00BCFE9FF0CCFEAFFEF6ABF
:1013A0000F010F6B106B146B156B136BB5D8000E20
:1013B000E66EE66AE66EE66A030EE66EE66AAEEC96
:1013C00011F00B6E060EE15E0B5021EF0CF0020ED9
:1013D0000F01105D02E17CEF0DF06CD80F0121517F
:1013E0001AE105CFE9FF06CFEAFFEE52400EEF6E9D
:1013F00005CFE9FF06CFEAFF020EE926000EEA223A
:10140000200EEE6E040EED6E05CFE9FF06CFEAFF6B
:101410008C0EEF6E1200216B1200D9CFE6FFE1CFE8
:10142000D9FFE6520BCFE9FF0CCFEAFFEF50400B9C
:1014300001E0010EDF6E0F010B75080E005D0CE17F
:1014400022C45EFF0F015E51000803E20F01100E7F
:1014500002D00F01040E006F100526E10BCFE9FF4B
:101460000CCFEAFF020EE926000EEA22280EEE6EED
:10147000040EED6EB8DA020E0F010F5D06E10BCF20
:10148000E9FF0CCFEAFF840E0DD0DF5006E10BCF51
:10149000E9FF0CCFEAFFC80E05D00BCFE9FF0CCF58
:1014A000EAFF880EEF6E01D005D8E552E552E7CF8E
:1014B000D9FF1200D9CFE6FFE1CFD9FF020EE12616
:1014C0000F01106B0BCFE9FF0CCFEAFFEF6A040EA0
:1014D0000B190B6E0CCF0CF0DE6E0CCFDDFFDECFE8
:1014E000E9FFDDCFEAFFEF6A18AF0CD01B511C11EA
:1014F00007E005D01CCFFAFF0F011B51F96EFADF90
:101500000F01189F020EE15C02E2E16AE552E16E12
:10151000E552E7CFD9FF120004012051600BE842E9
:10152000E842E842E842E842000901E012002151A5
:101530000C0A50E00B0A3FE00C0A31E0010A22E0FD
:101540000B0A1EE0020A1CE0030A18E0080A10E079
:10155000010A0CE00F0A08E0030A01E012000F0183
:10156000138F080E006F120070EF0BF019EF0EF0E2
:101570000F01010E116F0F0E126F0CD0C7EF0BF0A1
:10158000EBEF0AF024510F01116F126B020E1127BD
:101590000F0E12231381010E146F138F12000F010F
:1015A000138F04012451EA6A020FE96E0F0EEA223A
:1015B00022C4EFFF1200000EE66EE66AE66EE66AEF
:1015C000020EE66EE66AAEEC11F00B6E060EE15E00
:1015D0000B5012001200D9CFE6FFE1CFD9FF040E65
:1015E000E1260401220510E120511F0B00090CE146
:1015F0000F01138F030E0401215D04E10F01010EA1
:101600001F6F02D00F011F6B040122515FE12051B7
:101610001F0B02085BE124510F0B000957E00F017B
:10162000138F040124BF0BD024510F0BE96EEA6A1B
:10163000D890E936EA36070EE9260F0E0AD0245173
:101640000F0BE96EEA6AD890E936EA360B0EE92606
:101650000F0EEA22EECFDEFFEDCFDDFF030E215DA0
:1016600006E1DECFE9FFDDCFEAFF840E2ED0245164
:101670000F0B0C6A4C0F0B6E0F0E0C22020E0BC0E0
:10168000DBFF030E0CC0DBFF020EDBCFE9FF030E16
:10169000DBCFEAFFEF9024AF0CD0DECFE9FFDDCF48
:1016A000EAFFEF6ADF74DECFE9FFDDCFEAFF400E2D
:1016B0000CD0DECFE9FFDDCFEAFF880EEF6EDF74DE
:1016C000DECFE9FFDDCFEAFFC80EEF6E040EE15C6E
:1016D00002E2E16AE552E16EE552E7CFD9FF12007E
:1016E000800E0401205D52E10F01C00E136F040152
:1016F0002351030A29E0010A09E0030A45E10F0129
:101700007E0E116F270E126F120E38D02251F66E18
:10171000F76AD890F636F736260EF626280EF72208
:101720000900F5CF11FF0A00F5CF12FF020E0F01DD
:10173000F76A1125F66E1251F7220900F5CF14FF52
:101740000A00F5CF15FF1200030E225D1AE22251A6
:10175000F66EF76AD890F636F736280EF626280E7B
:10176000F7220900F5CF11FF0A00F5CF12FF11CFC4
:10177000F6FF12CFF7FF0800F5500F01146F156B3D
:1017800012000F01136B12000F01136B1200D9CF5F
:10179000E6FFE1CFD9FF020EE1260401286B296B99
:1017A00020511F0B020A11E0030A0CE0010A35E187
:1017B0000F01138F040128810F011F052EE1040181
:1017C00028832BD00F01138F28D00F01138F040112
:1017D00024BF0BD024510F0BE96EEA6AD890E9368A
:1017E000EA36070EE9260F0E0AD024510F0BE96ED8
:1017F000EA6AD890E936EA360B0EE9260F0EEA229D
:10180000EECFDEFFEDCFDDFFDECFE9FFDDCFEAFF7C
:10181000EF50040B02E0010E286F0F0113AF07D049
:10182000280E116F040E126F1381020E146F020E38
:10183000E15C02E2E16AE552E16EE552E7CFD9FFF1
:10184000120065980F0113BF47D018AF26D0020EC3
:10185000106F0BCFE9FF0CCFEAFFEE52EF6A0BCF10
:10186000E9FF0CCFEAFFC80EEF6E05CFE9FF06CF08
:10187000EAFFEE52400EEF6E05CFE9FF06CFEAFF1A
:10188000020EE926000EEA22280EEE6E040EED6E20
:1018900005CFE9FF06CFEAFF7AD005CFE9FF06CFF3
:1018A000EAFFEE52400EEF6E05CFE9FF06CFEAFFEA
:1018B000020EE926000EEA22200EEE6E040EED6EF8
:1018C00005CFE9FF06CFEAFF8C0EEF6E0BCFE9FFE5
:1018D0000CCFEAFF840E5CD018BF84D0040120AF87
:1018E00059D00F0114510401265D0F011551040157
:1018F000275904E226C414FF27C415FF74D80F012A
:10190000010E106F05CFE9FF06CFEAFFEE52400E41
:10191000EF6E05CFE9FF06CFEAFF020EE926000EC3
:10192000EA22200EEE6E040EED6E05CFE9FF06CF23
:10193000EAFF800EEF6E216B03CFE9FF04CFEAFFD1
:10194000EE52400EEF6E03CFE9FF04CFEAFF020E26
:10195000E926000EEA22200EEE6E040EED6E03CF95
:10196000E9FF04CFEAFF840EEF6E010E216F0BCF6B
:10197000E9FF0CCFEAFF020EE926000EEA22280E4C
:10198000EE6E040EED6E0BCFE9FF0CCFEAFFC80E32
:10199000EF6E12000F01020E106F0BCFE9FF0CCF9C
:1019A000EAFFEE52EF6A0BCFE9FF0CCFEAFFC80E59
:1019B000EF6E05CFE9FF06CFEAFFEE52400EEF6E65
:1019C00005CFE9FF06CFEAFF020EE926000EEA2264
:1019D000280EEE6E040EED6E05CFE9FF06CFEAFF8E
:1019E000C80EEF6E1200D9CFE6FFE1CFD9FF020E8D
:1019F000E1260F01400E145D000E15590DE214CFC3
:101A0000DEFF15CFDDFF0F5102E1010E03D00F0500
:101A100006E1020E0F6F03D0400EDE6EDD6A0BCFC3
:101A2000E9FF0CCFEAFFEF920BCFE9FF0CCFEAFF03
:101A3000EF900BCFE9FF0CCFEAFF010EDB50EF1266
:101A40000BCFE9FF0CCFEAFFEE52DFCFEFFF000E26
:101A5000DB50145F010EDB50155B280E1D6F040E6A
:101A60001E6F13B120D0D9CFE9FFDACFEAFFEE50D5
:101A7000ED1038E011CFF6FF12CFF7FF112B000E5B
:101A800012230800F550E66E1DCFE9FF1ECFEAFFD6
:101A90001D2B000E1E23E552E750EF6EDF06010EF0
:101AA000E2E2DB06E0D7D9CFE9FFDACFEAFFEE507A
:101AB000ED1018E011CFE9FF12CFEAFF112B000E55
:101AC0001223EF50E66E1DCFE9FF1ECFEAFF1D2B5C
:101AD000000E1E23E552E750EF6EDF06010EE3E233
:101AE000DB06E1D7020EE15C02E2E16AE552E16E5B
:101AF000E552E7CFD9FF1200D9CFE6FFE1CFD9FFFA
:101B0000020EE12603CFE9FF04CFEAFFEE52EFCF4A
:101B1000DFFFDFCF0BF00B500F01195D000E1A59DC
:101B200003E219CFDFFF09D0DF500B6E0C6AE850DB
:101B3000195D196F0C501A591A6F010EDB6ADF50CC
:101B4000F36E010EDBCFF4FFF350F45C16E2010EEE
:101B5000DB50EA6A280FE96E040EEA22EF50E66EC7
:101B600016CFE9FF17CFEAFF162B000E1723E55219
:101B7000E750EF6E010EDB2AE2D7000ED880195530
:101B8000000E1A5527E205CFE9FF06CFEAFFEE5215
:101B9000400EEF6E05CFE9FF06CFEAFF020EE92601
:101BA000000EEA22280EEE6E040EED6E03CFE9FF62
:101BB00004CFEAFFEF50400B06E105CFE9FF06CF67
:101BC000EAFFC80E05D005CFE9FF06CFEAFF880E71
:101BD000EF6E25D005CFE9FF06CFEAFFEE52400EAB
:101BE000EF6E05CFE9FF06CFEAFF020EE926000EF1
:101BF000EA22200EEE6E040EED6E05CFE9FF06CF51
:101C0000EAFF840EEF6E1B511C1107E005D01CCFBC
:101C1000FAFF0F011B51F96EFADF0F01189F020E38
:101C2000E15C02E2E16AE552E16EE552E7CFD9FFFD
:101C30001200D9CFE6FFE1CFD9FFE6520F01138F93
:101C4000010EE66EE66AE66A4D0EE66E0F0EE66E71
:101C500066EC14F00B6E050EE15E0B50DF6ADF5090
:101C60000B6E0C6A080E0B5C000E0C5810E2DF5075
:101C7000040DF3CFE9FFF4CFEAFF000EE926040ECE
:101C8000EA22EE6AEE6AEE6AEE6ADF2AE8D7658C2F
:101C9000010EE66EE66AE66A020EE66E0F0EE66E6C
:101CA00066EC14F00B6E050EE15E0B50659C0F01A7
:101CB000080E0B6F040E0C6F000E036F040E046F02
:101CC00003CF05FF066F22C401FF015103E1100E8F
:101CD000006F12D0200E006F010EE66EE66A010E54
:101CE000E66E0F0EE66E010EE66EE66AAEEC11F0E1
:101CF0000B6E060EE15E0B50E552E552E7CFD9FFC1
:101D00001200D9CFE6FFE1CFD9FF020EE126000E87
:101D1000DE6E040EDD6EFD0EDB50E8240D6EFE0E51
:101D2000DB50040DF3500D24040DF3500B6E0C6AC0
:101D3000020E0F0B05E0D8900C320B32E806FBE1E7
:101D4000D8900B360C36D8900B360C36D9CFE9FF2D
:101D5000DACFEAFF0B50EE260C50ED22DECFE9FF82
:101D6000DDCFEAFFEF9EFD0EDB500AE1FE0EEA6AD0
:101D7000DB34FE0BEA36E96E070EE9260F0E09D0BA
:101D8000FE0EEA6ADB34FE0BEA36E96E0B0EE9263C
:101D90000F0EEA22DECFEEFFDDCFEDFFDECFE9FF53
:101DA000DDCFEAFFEF9CDECFE9FFDDCFEAFF040ED7
:101DB000E926000EEA22EF8C020EE15C02E2E16A03
:101DC000E552E16EE552E7CFD9FF1200D9CFE6FF29
:101DD000E1CFD9FF020EE126FE0EDB500C6A4C0F5C
:101DE0000B6E0F0E0C220BC0DEFF0CC0DDFFDECF32
:101DF000E9FFDDCFEAFFFD0EDBCFEFFFDBA407D06D
:101E0000E66AFE0EDBCFE6FF7CDFE552E552FD0E13
:101E1000DBA208D0010EE66EFE0EDBCFE6FF71DF1F
:101E2000E552E552020EE15C02E2E16AE552E16E42
:101E3000E552E7CFD9FF1200D9CFE6FFE1CFD9FFB6
:101E4000020EE126FE0EDB5020E105CFE9FF06CFB2
:101E5000EAFFEE52400EEF6E05CFE9FF06CFEAFF34
:101E6000020EE926000EEA22200EEE6E040EED6E42
:101E700005CFE9FF06CFEAFF8C0EEF6E0BCFE9FF2F
:101E80000CCFEAFF840EEF6E3BD0FD0EDB50E82452
:101E90000D6EFE0EDB50040DF3500D24040DF3CF38
:101EA0000BF0F4CF0CF0000E0B26040E0C220BC02E
:101EB000DEFF0CC0DDFF840EDECFE9FFDDCFEAFFE1
:101EC000E850EF12FD0EDB50E8240D6EFE0EDB50E5
:101ED000040DF3500D24010F040DF3CF0BF0F4CFDC
:101EE0000CF0000E0B26040E0C220BC0DEFF0CC003
:101EF000DDFF840EDECFE9FFDDCFEAFFE850EF1211
:101F0000020EE15C02E2E16AE552E16EE552E7CFE2
:101F1000D9FF1200D9CFE6FFE1CFD9FF020EE126AB
:101F2000FD0EDB500AE0FE0EEA6ADB34FE0BEA36F9
:101F3000E96E0B0EE9260F0E09D0FE0EEA6ADB34BD
:101F4000FE0BEA36E96E070EE9260F0EEA22EECF07
:101F5000DEFFEDCFDDFFDECFE9FFDDCFEAFF020ED2
:101F6000E926000EEA22FB0EDBCFEEFFFC0EDBCFF4
:101F7000EDFFDECFE9FFDDCFEAFFEE52FA0EDBCF59
:101F8000EFFF400EDECFE9FFDDCFEAFFE850EF16AE
:101F9000880EDECFE9FFDDCFEAFFE850EF12FD0E3D
:101FA000DB500AE0FE0EEA6ADB34FE0BEA36E96E2D
:101FB0000B0EE9260F0E09D0FE0EEA6ADB34FE0B8B
:101FC000EA36E96E070EE9260F0EEA22EF74DECF3D
:101FD0000BF0DDCF0CF00BC0F3FF0CC0F4FF020ED2
:101FE000E15C02E2E16AE552E16EE552E7CFD9FF3A
:101FF0001200D9CFE6FFE1CFD9FF65A84ED0FE0E83
:10200000EA6ADB34FE0BEA36E96E0B0EE9260F0EA8
:10201000EA22EE50EFCFEAFFE96E400EEE16EE6ACE
:10202000EE6AEE6AFE0EEA6ADB34FE0BEA36E96E11
:102030000B0EE9260F0EEA22EE50EFCFEAFFE96E13
:10204000EE7CFE0EEA6ADB34FE0BEA36E96E0B0E1E
:10205000E9260F0EEA22EF74400E0B6EFE0EEA6ABE
:10206000DB34FE0BEA36E96E0B0EE9260F0EEA2290
:10207000EE50EFCFEAFFE96E0B50EF16FE0EEA6A64
:10208000DB34FE0BEA36E96E0B0EE9260F0EEA2270
:10209000EE50EFCFEAFFE96EEF7CE552E7CFD9FFD4
:1020A000120012000F01005114E1656A0F015C6B10
:1020B000160E5F6F9F0E5D6F7B0E5C6FD08EA288D9
:1020C000A088F28E65B602D06586FCD70F01010E9E
:0420D000006F12008B
:0C20D400DACFE4FFE2CFDAFFE9CFE4FF4F
:1020E000EACFE4FFF6CFE4FFF7CFE4FFF5CFE4FF5C
:1020F000F3CFE4FFF4CFE4FFFACFE4FF00EE00F00B
:102100000B0EE80403E3EECFE4FFFBD700EE0BF089
:10211000030EE80403E3EECFE4FFFBD7E6526CECDA
:1021200008F0E55200EE0DF0030EE80403E3E5CFFE
:10213000EDFFFBD700EE0AF00B0EE80403E3E5CF5A
:10214000EDFFFBD7E5CFFAFFE5CFF4FFE5CFF3FFD7
:10215000E5CFF5FFE5CFF7FFE5CFF6FFE5CFEAFFE7
:10216000E5CFE9FFE5CFDAFF1100D8CFE4FFE0CFFC
:10217000E4FFE46EDACFE4FFE652E552E5CFDAFFA2
:10218000E550E5CFE0FFE5CFD8FF100004D852ECD2
:1021900010F037D8FED7D9CFE6FFE1CFD9FF020E36
:1021A000E126580EDE6E020EDD6E9B8CDFCF0BF04B
:1021B000DF06010EDBCF0CF001E2DB060B500C104A
:1021C000F5E1C088C168C268C0980CD81CEC08F062
:1021D000020EE15C02E2E16AE552E16EE552E7CF10
:1021E000D9FF1200FC0E8D169616F30E8C1695165E
:1021F00093880F01336B346B316B326B010E306F90
:1022000012000F01305101E039D8200E0F01E76EA6
:102210000019E8AE02D0E73402D0E750005D05E3D4
:102220006550020B01E0120036D91200D9CFE6FF4B
:10223000E1CFD9FF020EE1269280C088C180C0980C
:10224000010EC26EBE0EC16EC282C2B2FED7C350B4
:10225000DF6E010EC4CFDBFFDECF0BF0DDCF0CF065
:102260000BC0F3FF0CC0F4FF020EE15C02E2E16A76
:10227000E552E16EE552E7CFD9FF12000F0136516A
:10228000371104E1100E366F270E376F3607000E38
:10229000375B65A207D0365137112EE18D708DB0B6
:1022A00013D027D00F01005102E18D9022D00005FC
:1022B00002E18D8009D0020E005D02E18D8019D00F
:1022C000040E005D03E18D908D821200100E005D02
:1022D00006E10F01365137110FE18D700AD0200E43
:1022E000005D0AE10F013651371106E18D708DA0B6
:1022F00002D08D9212008D82120012001200120084
:10230000120057EF13F012001E0EE66E010EE66E7D
:10231000E6EC0EF0E552E552400EE66E680EE66E13
:10232000040EE66EE66A010EE66E8AEC0FF00B6EA6
:10233000050EE15E0B50F3CF33FFF4CF34FF1200F4
:1023400065840001080EE06F070EE16FE007000EE4
:10235000E15BE051E111FAE165941200D9CFE6FFAB
:10236000E1CFD9FFFD0EDBCF06F0FE0EDBCF07F08D
:10237000720E061801E1075033E0E868061802E122
:102380007F0E07182BE0740E061801E1075024E0B9
:10239000750E061801E107501DE0730E061801E1E5
:1023A000075016E0030E061801E107500FE0020E79
:1023B000061801E1075008E0010E061801E1075078
:1023C00001E010D0A1DF0FD09EDF0DD09ADF0BD03F
:1023D00096DF09D092DF07D091DF05D091DF03D0DF
:1023E000000001D000D0010E00D0E552E7CFD9FFA8
:1023F0001200D9CFE6FFE1CFD9FFE652DF6A040130
:102400002351030A23E0010A41E12251020A3EE17D
:102410000401010E896F0401020E686F010EDF6E68
:10242000DF50200833E3DF50EA6A680FE96E040EDC
:10243000EA22EF50E66EDF50EA6A890FE96E040E79
:10244000EA22E552E750EF6EDF2AEAD72251030A6B
:102450001DE10001030E606F040EA06F010EDF6E20
:10246000DF50200813E3DF50EA6A600FE96E000EC8
:10247000EA22EF50E66EDF50EA6AA00FE96E000E26
:10248000EA22E552E750EF6EDF2AEAD7E552E5523D
:10249000E7CFD9FF1200D9CFE6FFE1CFD9FF030E76
:1024A000E126DF6A010EDB6A020EDB6A0F0135519D
:1024B000740A4EE0060A01E083D03351341102E180
:1024C000000E08D033CFE9FF34CFEAFFEF50800B86
:1024D00001E0010E000974E133CFE9FF34CFEAFFD8
:1024E000EE52EF50E66ED950010FE96EDACFEAFFF7
:1024F000E552E750EE6EED6AD950010FE96EDACF82
:10250000EAFF000ED880EE54000EED5459E20401AB
:10251000010E896F0401020E686F010EDF6EDF503D
:10252000200813E3DF50EA6A680FE96E040EEA221E
:10253000EF50E66EDF50EA6A890FE96E040EEA2278
:10254000E552E750EF6EDF2AEAD70F01740E37D05D
:102550003151321102E1000E08D031CFE9FF32CF04
:10256000EAFFEF50800B01E0010E000929E1210E86
:10257000E66E890EE66E040EE66E010EE66EE66EFF
:102580008AEC0FF00B6E050EE15E0B50F3CF31FFBE
:10259000F4CF32FF210EE66E680EE66E040EE66E94
:1025A000E66A010EE66E8AEC0FF00B6E050EE15E38
:1025B0000B50F3CF33FFF4CF34FF0F01720E356FA2
:1025C000030EE15C02E2E16AE552E16EE552E7CF1B
:1025D000D9FF120004012351030A07E0010A0DE1AB
:1025E0002251020A01E1020C000C2251040A03E00C
:1025F000070A02E1030C030C000C000C0401230584
:1026000010E1220521E10401010E896F0F01890EFD
:10261000116F040E126F210E146F156BC10E136F24
:102620001200030E235D10E1040E225D0DE1000196
:10263000040EA06F0F01A00E116F000E126F210E7D
:10264000146F156BC10E136F1200C4DF030A19E07B
:10265000010A01E01200020E0401225D27E10401DB
:10266000020E686F26C419FF27C41AFF0F01680EF7
:10267000166F040E176FF20E1B6F230E1C6F188F50
:102680001200030E0401225D11E10001030E606FD0
:1026900026C419FF27C41AFF0F01600E166F000E23
:0E26A000176FF20E1B6F230E1C6F188F1200A7
:0226AE00040125
:1026B00020511F0B010801E01200245101E012001B
:1026C000060E215D1EE12351230A1BE0010A0CE0E6
:1026D000030A17E10F01010514E10F01A20E116FAA
:1026E000270E126F090E09D00F0101050AE10F0133
:1026F000F90E116F270E126F2D0E146F156BC00E91
:10270000136F04012051600BE842E842E842E842BE
:10271000E842010801E0120021510B0A2AE0080AF0
:102720001DE0090A15E0080A09E00B0A05E0080A9D
:1027300001E01200FEEF12F025EF13F00F01380E4A
:10274000116F0F0E126F010E146F156BC10E0FD0AB
:102750000F01800E136F23C438FF12000F01390ED2
:10276000116F0F0E126F010E146F156B810E136F28
:0E27700012000F01800E136F22C439FF1200F9
:02277E00120146
:102780000002000000402509017001000102000163
:1027900009022900010100C03209040000020300FF
:1027A0000000092111010001222D000705810340CD
:1027B0000001070501034000010403090424034C40
:1027C0000061006B006500760069006500770020FD
:1027D00000520065007300650061007200630068CC
:1027E000001803470065006E006500720069006311
:1027F0000020004800490044000600FF0901A10133
:10280000150026FF00750895208501090082020148
:102810008502090092020185030900B202018504C4
:0E2820000900B20201C09027B927BD27E127A9
:02282E002A0E70
:10283000F66E100EF76E000EF86E0F010900F550DF
:102840002B6F0900F5502C6F03E12B6701D03DD0B1
:102850000900F550266F0900F550276F0900F55063
:10286000286F09000900F550E96E0900F550EA6E7D
:10287000090009000900F550296F0900F5502A6F79
:1028800009000900F6CF2DFFF7CF2EFFF8CF2FFF5D
:1028900026CFF6FF27CFF7FF28CFF8FF0F012953E8
:1028A00002E12A5307E00900F550EE6E2907F8E22D
:1028B0002A07F9D72DCFF6FF2ECFF7FF2FCFF8FF3E
:0C28C0000F012B07000E2C5BBFD712008D
:0428CC00FE0EE3CF4A
:1028D000E9FFFF0EE3CFEAFFE9CFF3FFEACFF4FF12
:1028E000FB0EE35003E1FC0EE35009E0FB0EE306B0
:1028F00002E2FC0EE306FD0EE350EE6EF1D712008D
:102900001EEE00F02EEE00F0F86A0A9C17EC14F0B0
:0C29100095EC14F0C6EC10F0FBD71200A0
:04291C0000EE00F0D9
:0A2920000F0EEE6AEA62FDD7120006
:02292A00120099
:04292C0001000000A6
:042930000072000031
:020000040001F9
:01FFF800AA5E
:01FFF900F710
:01FFFA000501
:01FFFB00FF06
:01FFFD00F70C
:00000001FF
