:0909FF00676F6F6400646F67000C
:10091B00500B1BC0F9A4B0999282F880988883C6BB
:10092B00A1868E5A0B018883A7A1868E908BEFE14F
:10093B0087C780ABA38C40AF9287C1CD808999A428
:04094B00410B00FF5D
:080080008C0C8D0DAB07AA06E4
:10008800751901E4F50EF50FC3E50F950DE50E950D
:100098000C5016EB250FF582EA350EF583E4F005D2
:1000A8000FE50F7002050E80DFE4F50EF50FC3E5CE
:1000B8000F950DE50E950C5023EB250FF582EA35CB
:1000C8000EF583E0600CEB250FFFEA350EFEE4FC2D
:1000D800FD22050FE50F7002050E80D2751902E4A6
:1000E800F50EF50FC3E50F950DE50E950C5017EBC2
:1000F800250FF582EA350EF58374FFF0050FE50F3D
:100108007002050E80DEE4F50EF50FC3E50F950DC0
:10011800E50E950C5024EB250FF582EA350EF58394
:10012800E0F4600CEB250FFFEA350EFEE4FCFD223F
:10013800050FE50F7002050E80D1751903E4F50E61
:10014800F50FC3E50F950DE50E950C5017EB250F30
:10015800F582EA350EF58374AAF0050FE50F7002F3
:10016800050E80DEE4F50EF50FC3E50F950DE50EDF
:10017800950C5025EB250FF582EA350EF583E064E2
:10018800AA600CEB250FFFEA350EFEE4FCFD220504
:100198000FE50F7002050E80D0751904E4F50EF511
:1001A8000FC3E50F950DE50E950C5017EB250FF5D0
:1001B80082EA350EF5837455F0050FE50F700205D8
:1001C8000E80DEE4F50EF50FC3E50F950DE50E95EF
:1001D8000C5025EB250FF582EA350EF583E06455C2
:1001E800600CEB250FFFEA350EFEE4FCFD22050F3F
:1001F800E50F7002050E80D0751905E50D24FFF591
:100208000FE50C34FFF50ED3E50F9400E50E9400CE
:100218004021E50E75F003A4FFE50F2FFFEB250F36
:10022800F582EA350EF583EFF0E50F150F7002152C
:100238000E80D4E50D24FFF50FE50C34FFF50ED341
:10024800E50F9400E50E9400402FE50E75F003A429
:10025800FFE50F2FFFEB250FF582EA350EF583E05A
:100268006F600CEB250FFFEA350EFEE4FCFD22E57E
:100278000F150F7002150E80C6751906E4F50EF5F8
:100288000FC3E50F950DE50E950C5021E50E75F0A1
:1002980003A4FFE50F2FFFEB250FF582EA350EF5D6
:1002A80083EFF0050FE50F7002050E80D4E4F50E1C
:1002B800F50FC3E50F950DE50E950C502FE50E755E
:1002C800F003A4FFE50F2FFFEB250FF582EA350EAB
:1002D800F583E06F600CEB250FFFEA350EFEE4FCBA
:1002E800FD22050FE50F7002050E80C6751907EB94
:1002F800250DFFEA350CFED3EF9400EE942040085C
:10030800EE94F050030203A3E4F50EF50FC3E50FD6
:10031800950DE50E950C5016EB250FF582EA350E76
:10032800F583E4F0050FE50F7002050E80DFEAF5AE
:100338009AEBF59BE4F50EF50FC3E50F950DE50E69
:10034800950C5019E50E75F003A4FFE50F2FFF90EB
:10035800E67BF0050FE50F7002050E80DCEAF59AE2
:10036800EBF59BE4F50EF50FC3E50F950DE50E953E
:100378000C502890E67BE0FDE50E75F003A4FFE540
:100388000F2F6D600CEB250FFFEA350EFEE4FCFD28
:1003980022050FE50F7002050E80CD74FFFFFEFDEC
:0103A800FC58
:0103A9002231
:04073E008E0C8F0D81
:10074200850C0E850D0F850E0C850F0DE4F510E559
:1007520010C394045053E50CC4540F7E00540F246C
:100762001BF582EE340BAB82FA7D017F211209D296
:100772007F211208E37F907E0112089D7A0B7B0095
:100782007D017F211209D27F211208E37FC87E00FA
:1007920012089D0510E50DC4F8540FC868F50DE563
:1007A2000CC454F048F50C80A67A0B7B007D017FC7
:1007B200211209D27F211208E37FF47E0112089DE3
:0207C200808431
:0107C4002212
:0607C5008B0C8A0D890E69
:1007CB00E4F50FAB0CAA0DA90E850F8275830012F1
:1007DB000838FF6040545FFF3395E0FE74C02FF57F
:1007EB0082740A3EAB82FA7D017F211209D27F21EE
:1007FB001208E37F907E0112089D7A0B7B007D012E
:10080B007F211209D27F211208E37FC87E001208D4
:10081B009D050F80AE7A0B7B007D017F211209D2E3
:0C082B007F211208E37FF47E0112089D7B
:01083700229E
:1003AA00E4900B2BF0A304F0120A0890E6007410F4
:1003BA00F0A374F6F043AF017A0B7B1B7D017F211A
:1003CA001209D27F211208E3900B2CE07003020578
:1003DA00957D007C147F007E0C1200808F0B8E0AA4
:1003EA008D098C0874FFFFFEFDFCAB0BAA0AA90954
:1003FA00A808C31208876007AE0AAF0B12073E901F
:10040A00E6287401F0E0B4012E7D007C207F007E96
:10041A00201200808F0B8E0A8D098C0874FFFFFE54
:10042A00FDFCAB0BAA0AA909A808C3120887600732
:10043A00AE0AAF0B12073E7D007C027F007EE012FF
:10044A0000808F0B8E0A8D098C0874FFFFFEFDFC5D
:10045A00AB0BAA0AA909A808C31208876007AE0A43
:10046A00AF0B12073E7D007C027F007EF0120080F7
:10047A008F0B8E0A8D098C0874FFFFFEFDFCAB0BF7
:10048A00AA0AA909A808C31208876007AE0AAF0B0F
:10049A0012073E7D007C027F007EF41200808F0BE3
:1004AA008E0A8D098C0874FFFFFEFDFCAB0BAA0AAD
:1004BA00A909A808C31208876007AE0AAF0B12077A
:1004CA003E7D007C027F007EF81200808F0B8E0A30
:1004DA008D098C0874FFFFFEFDFCAB0BAA0AA90963
:1004EA00A808C31208876007AE0AAF0B12073E7D41
:1004FA00007C027F007EFC1200808F0B8E0A8D0921
:10050A008C0874FFFFFEFDFCAB0BAA0AA909A80818
:10051A00C31208876007AE0AAF0B12073E90E601C6
:10052A007402F07D7F7C007F007EE41200808F0BD6
:10053A008E0A8D098C0874FFFFFEFDFCAB0BAA0A1C
:10054A00A909A808C31208876007AE0AAF0B1207E9
:10055A003E7DBF7C007F407EE71200808F0B8E0AB3
:10056A008D098C0874FFFFFEFDFCAB0BAA0AA909D2
:10057A00A808C31208876007AE0AAF0B12073E7BB2
:10058A00FF7A0979FF1207C50203D27BFF7A0A793B
:0F059A00041207C57A0B7B2B7D017F201209B657
:0105A900222F
:10089D008E118F1290E600E054187012E5122401AB
:1008AD00FFE43511C313F511EF13F512801590E622
:1008BD0000E05418FFBF100BE51225E0F512E5110D
:1008CD0033F511E5121512AE11700215114E6005BA
:0608DD001209EE80EE227C
:080A0800E4F518D2E9D2AF2297
:1008E300AD0790E678E020E6F9C2E990E678E044C7
:1008F30080F0ED25E090E679F090E678E030E0F9DD
:1009030090E678E04440F090E678E020E6F990E65F
:0809130078E030E1D6D2E922C0
:10098400AC0790E678E020E6F9E518702390E67865
:10099400E04480F0EC25E090E679F08D13AF03A9F4
:1009A400077514018A158916E4F517751801D32201
:0209B400C3225C
:10095000AC0790E678E020E6F9E518702590E67897
:10096000E04480F0EC25E0440190E679F08D13AF8F
:1009700003A9077514018A158916E4F5177518037C
:04098000D322C32299
:03004B000205AA01
:1005AA00C0E0C083C082C085C084C086758600C092
:1005BA00D075D000C000C001C002C003C006C00789
:1005CA0090E678E030E20675180602069490E6781E
:1005DA00E020E10CE518640260067518070206942B
:1005EA00E51824FE605F14603624FE700302068557
:1005FA0024FC700302069124086003020694AB14DB
:10060A00AA15A916AF1705178F8275830012083825
:10061A0090E679F0E51765137070751805806B9090
:10062A00E679E0AB14AA15A916AE178E8275830077
:10063A00120865751802E5136401704E90E678E0B9
:10064A004420F08045E51324FEB5170790E678E0CC
:10065A004420F0E51314B5170A90E678E04440F018
:10066A0075180090E679E0AB14AA15A916AE178E94
:10067A00827583001208650517800F90E678E044BA
:10068A0040F075180080037518005391DFD007D029
:10069A0006D003D002D001D000D0D0D086D084D0EA
:0806AA0085D082D083D0E0323C
:1009B600120950E51824FA600E146006240770F335
:0C09C600D322E4F518D322E4F518D32264
:1009D200120984E51824FA600E146006240770F3E5
:0C09E200D322E4F518D322E4F518D32248
:1009EE007400F58690FDA57C05A3E582458370F91C
:0109FE0022D6
:030000000206B243
:0C06B200787FE4F6D8FD7581190206F986
:10083800BB010CE58229F582E5833AF583E0225075
:1008480006E92582F8E622BBFE06E92582F8E222BF
:0D085800E58229F582E5833AF583E49322D9
:10086500F8BB010DE58229F582E5833AF583E8F0C9
:10087500225006E92582C8F622BBFE05E92582C875
:02088500F2225D
:10088700EB9FF5F0EA9E42F0E99D42F0EC6480C8E8
:0608970064809845F02288
:1006BE000203AAE493A3F8E493A34003F68001F2A5
:1006CE0008DFF48029E493A3F85407240CC8C3333D
:1006DE00C4540F4420C8834004F456800146F6DF0C
:1006EE00E4800B010204081020408090091BE47E78
:1006FE00019360BCA3FF543F30E509541FFEE49301
:10070E00A360010ECF54C025E060A840B8E493A3C7
:10071E00FAE493A3F8E493A3C8C582C8CAC583CAF2
:10072E00F0A3C8C582C8CAC583CADFE9DEE780BEAA
:01094F0000A7
:00000001FF
