:10079C0090E6007410F090E61074A0F090E611F062
:1007AC0000000090E61274A2F000000090E61374B2
:1007BC00A0F000000090E61474E2F000000090E657
:1007CC001574E0F000000090E6917480F0000000D9
:1007DC0090E695F000000090E691F000000090E6A5
:1007EC0095F090E65B7401F090E65AE04401F0E479
:1007FC00F51D90E65974FFF090E658E04430F04354
:03080C00AF012217
:10041E00E5AA20E07CE51D30E47774F0F59A7400CF
:10042E00F59B74F8F59D7400F59E90E690E0FE90B5
:10043E00E691E07C002400F51BEC3EF51AE4F5187D
:10044E00F519C3E519951BE51A6480F8E518648063
:10045E0098501290E67BE090E67CF00519E5197055
:10046E00E1051880DD90E690E090E698F00000003F
:10047E0090E691E090E699F0531DEF90E6597410D6
:10048E00F090E658E04410F000000090E691748081
:10049E00F0E5AA20E27CE51D30E57774F4F59A7458
:1004AE0000F59B74FCF59D7400F59E90E694E0FEBD
:1004BE0090E695E07C002400F51BEC3EF51AE4F581
:1004CE0018F519C3E519951BE51A6480F8E518644B
:1004DE008098501290E67BE090E67CF00519E519C5
:1004EE0070E1051880DD90E694E090E69CF0000047
:1004FE000090E695E090E69DF0531DDF90E659746E
:10050E0020F090E658E04420F000000090E695744C
:02051E0080F06B
:0105200022B8
:02099000D32270
:02099200D3226E
:02099400D3226C
:08097C0090E6BAE0F51ED3225B
:1009370090E740E51EF0E490E68AF090E68B04F03D
:02094700D322B9
:0809840090E6BAE0F51CD32255
:1009490090E740E51CF0E490E68AF090E68B04F02D
:02095900D322A7
:02099600D3226A
:02099800D32268
:02099A00D32266
:02099C00D32264
:1008F100C0E0C083C082D2015391EF90E65D7401E4
:08090100F0D082D083D0E03277
:1005EA00C0E0C083C0825391EF90E65D7404F0D0FE
:0605FA0082D083D0E03244
:10092100C0E0C083C0825391EF90E65D7402F0D0C5
:0609310082D083D0E03209
:1006B800C0E0C083C08290E680E030E70E85212547
:1006C800852226852927852A28800C852925852A9B
:1006D800268521278522285391EF90E65D7410F036
:0706E800D082D083D0E03284
:10090900C0E0C083C082D2035391EF90E65D7408C2
:08091900F0D082D083D0E0325F
:10080F00C0E0C083C08290E680E030E70E852125EE
:10081F00852226852927852A28800C852925852A42
:10082F00268521278522285391EF90E65D7420F0CD
:07083F00D082D083D0E0322B
:01099E003226
:01099F003225
:0109A0003224
:0109A1003223
:0109A2003222
:0109A3003221
:0109A4003220
:0109A500321F
:0109A600321E
:0109A700321D
:10052100C0E0C083C082C0D075D000C000C003C08D
:0705310004C005C006C0076D
:1005380090E658E4F05391EFFDFCAF0574017E009E
:10054800A807088005C333CE33CED8F9FF90E65903
:10055800E0FBEF5B6016AF057401A807088002C3D3
:1005680033D8FCFF421D90E659E04FF00DBD000165
:100578000CED64084C70C390E65BE04401F0E51DA7
:07058800F4543090E658F036
:10058F00D007D006D005D004D003D000D0D0D08271
:05059F00D083D0E03222
:0109A800321C
:0109A900321B
:0109AA00321A
:0109AB003219
:0109AC003218
:0109AD003217
:0109AE003216
:0109AF003215
:0109B0003214
:0109B1003213
:0109B2003212
:0109B3003211
:0109B4003210
:0109B500320F
:0109B600320E
:0109B700320D
:0109B800320C
:0109B900320B
:0109BA00320A
:0109BB003209
:0109BC003208
:0109BD003207
:0109BE003206
:0109BF003205
:0109C0003204
:0A097200000102020303040405055E
:1002B700E4F513F512F511F510C203C200C202C22C
:1002C7000112079C7E077F008E238F24752B0775ED
:1002D7002C1275210775221C752907752A4A752D59
:1002E70007752E78EE54C070030203B875140075B5
:1002F70015808E168F17C3749A9FFF74079ECF249D
:1003070002CF3400FEE48F0F8E0EF50DF50CF50BC2
:10031700F50AF509F508AF0FAE0EAD0DAC0CAB0B3A
:10032700AA0AA909A808C31206EF5033E517250B37
:10033700F582E516350AF583E0FFE515250BF5820D
:10034700E514350AF583EFF0E50B2401F50BE435E9
:100357000AF50AE43509F509E43508F50880B78593
:10036700142385152474002480FF740734FFFEC30B
:10037700E52C9FF52CE52B9EF52BC3E5269FF5264F
:10038700E5259EF525C3E5289FF528E5279EF52752
:10039700C3E5229FF522E5219EF521C3E52A9FF5B6
:1003A7002AE5299EF529C3E52E9FF52EE52D9EF515
:1003B7002DD2E843D82090E668E04409F090E65C47
:1003C700E0443DF0D2AF90E680E020E105D2041290
:1003D700084690E680E054F7F0538EF8C203120403
:1003E7001E300105120080C2013003F2120990503D
:1003F700EDC2031208CC20001690E682E030E70435
:10040700E020E1EF90E682E030E604E020E0E4124D
:07041700087512099280C76D
:0B09670090E509E030E402C322D32237
:1000800090E6B9E0700302013F1470030201BC2442
:10009000FE700302023F24FB700302013914700357
:1000A00002013314700302012714700302012D248E
:1000B0000560030202A312099440030202AF90E616
:1000C000BBE024FE602714603824FD601114602713
:1000D00024067050E52390E6B3F0E524803C120935
:1000E00067503EE52B90E6B3F0E52C802DE525909A
:1000F000E6B3F0E5268023E52790E6B3F0E5288017
:100100001990E6BAE0FF1208A1AA06A9077B01EA46
:10011000494B600DEE90E6B3F0EF90E6B4F00202CA
:10012000AF02029E02029E1209490202AF12098426
:100130000202AF12097C0202AF1209370202AF12AB
:10014000099640030202AF90E6B8E0247F601514E0
:10015000601924027063A200E43325E0FFA202E4E8
:10016000334F8041E490E740F0803F90E6BCE0549C
:100170007EFF7E00E0D394807C0040047D018002FD
:100180007D00EC4EFEED4F2472F58274093EF5833E
:10019000E493FF3395E0FEEF24A1FFEE34E68F8277
:1001A000F583E0540190E740F0E4A3F090E68AF094
:1001B00090E68B7402F00202AF02029E1209984090
:1001C000030202AF90E6B8E024FE6016240260034A
:1001D0000202AF90E6BAE0B40105C2000202AF022B
:1001E000029E90E6BAE0705590E6BCE0547EFF7E39
:1001F00000E0D394807C0040047D0180027D00EC0F
:100200004EFEED4F2472F58274093EF583E493FFB0
:100210003395E0FEEF24A1FFEE34E68F82F583E014
:1002200054FEF090E6BCE05480131313541FFFE01B
:10023000540F2F90E683F0E04420F08072805F122C
:10024000099A506B90E6B8E024FE60192402704EC3
:1002500090E6BAE0B40104D200805490E6BAE064BB
:1002600002604C803990E6BCE0547EFF7E00E0D313
:1002700094807C0040047D0180027D00EC4EFEED08
:100280004F2472F58274093EF583E493FF3395E0C1
:10029000FEEF24A1FFEE34E68F82F583800D90E619
:1002A000A0800812099C500790E6A0E04401F0905D
:0602B000E6A0E04480F02E
:0102B6002225
:0300330002098C33
:04098C0053D8EF321B
:100700001201000200000040B404041000000102C5
:1007100000010A06000200000040010009022E004C
:1007200001010080320904000004FF0000000705F9
:10073000020200020007050402000200070586020B
:100740000002000705880200020009022E000101D4
:100750000080320904000004FF00000007050202C7
:100760004000000705040240000007058602400023
:100770000007058802400000040309041003430039
:100780007900700072006500730073000E0345006D
:0C0790005A002D005500530042000000EC
:03004300020600B2
:03005300020600A2
:100600000208F100020921000205EA0002090900BE
:100610000206B80002080F0002099E0002099F00AE
:100620000209A0000209A1000209A2000209A30018
:100630000209A4000209A5000209A6000209A700F8
:100640000205210002099F000209A8000209A90071
:100650000209AA000209AB000209AC000209AD00C0
:100660000209AE0002099F0002099F0002099F00D3
:100670000209AF000209B0000209B1000209B2008C
:100680000209B3000209B4000209B5000209B6006C
:100690000209B7000209B8000209B9000209BA004C
:1006A0000209BB000209BC000209BD000209BE002C
:0806B0000209BF000209C000AD
:1008750090E682E030E004E020E60B90E682E0308E
:10088500E119E030E71590E680E04401F07F147E41
:0C089500001205A490E680E054FEF02262
:1008460030040990E680E0440AF0800790E680E0F4
:100856004408F07FDC7E051205A490E65D74FFF087
:0F08660090E65FF05391EF90E680E054F7F022B8
:0208A100A907A5
:1008A300AE2DAF2E8F828E83A3E064037017AD014C
:1008B30019ED7001228F828E83E07C002FFDEC3EC8
:0808C300FEAF0580DFE4FEFF3B
:0108CB00220A
:1008CC0090E682E044C0F090E681F043870100009E
:0408DC0000000022F6
:1005A4008E188F1990E600E054187012E519240192
:1005B400FFE43518C313F518EF13F519801590E609
:1005C40000E05418FFBF100BE51925E0F519E518F4
:1005D40033F518E5191519AE18700215184E600593
:0605E4001208E080EE2287
:1008E0007400F58690FDA57C05A3E582458370F92B
:0108F00022E5
:0300000002095B97
:0C095B00787FE4F6D8FD75812E0202B70B
:1006EF00EB9FF5F0EA9E42F0E99D42F0E89C45F061
:0106FF0022D8
:00000001FF
