:100100001201000200000040B404F10000000102EE
:020110000001EC
:0A0114000A0600020000004001008E
:1001200009028700010100A0320904000001FF005C
:100130000000070582020002000904000101FF001F
:100140000000070502020002000904000202FF008D
:1001500000000705820200020007050602000200F7
:100160000904000301FF00000007058201001401DB
:100170000904000401FF000000070502010014014A
:100180000904000501FF00000007058201000401C9
:100190000904000602FF00000007058201000401B7
:0701A0000705060100040140
:1001A80009024900010100A0320904000001FF0012
:1001B8000000070582024000010904000101FF0058
:1001C8000000070502024000010904000201FF00C7
:1001D800000007058201FF03010904000301FF0075
:0901E800000007050201FF0301FC
:1001F20004030904100343007900700072006500D3
:10020200730073001403430059002D00530074005F
:0A0212007200650061006D0000003D
:0A12070000010202030304040505C0
:100A1700E4F513F512F511F510C203C200C202C2C4
:100A270001120DB87E017F008E238F24752B01756F
:100A37002C14752101752220752901752AA8752D99
:100A470001752EF2EE54E07003020B657514007504
:100A570015808E168F17C3741A9FFF74029ECF24BA
:100A670002CF3400FEE48F0F8E0EF50DF50CF50B5B
:100A7700F50AF509F508AF0FAE0EAD0DAC0CAB0BD3
:100A8700AA0AA909A808C3120EC9502AE515250BF9
:100A9700F582E514350AF58374CDF0AF0BAE0AADD8
:100AA70009AC08E47B01FAF9F8120EBC8F0B8E0A29
:100AB7008D098C0880C0E4F50BF50AF509F508AF38
:100AC7000FAE0EAD0DAC0CAB0BAA0AA909A808C353
:100AD700120EC95037E517250BF582E516350AF5CD
:100AE70083E0FFE515250BF582E514350AF583EF5D
:100AF700F0AF0BAE0AAD09AC08E47B01FAF9F812C6
:100B07000EBC8F0B8E0A8D098C0880B38514238544
:100B1700152474002480FF740134FFFEC3E52C9F65
:100B2700F52CE52B9EF52BC3E5269FF526E5259E9F
:100B3700F525C3E5289FF528E5279EF527C3E52278
:100B47009FF522E5219EF521C3E52A9FF52AE52990
:100B57009EF529C3E52E9FF52EE52D9EF52DD2E8AE
:100B670043D82090E668E04409F090E65CE0443D15
:100B7700F0D2AF90E680E020E105D2041200D190D8
:100B8700E680E054F7F0538EF8C2031212193001D1
:100B970005120599C2013003291212215024C203FC
:100BA700120CD720001690E682E030E704E020E13F
:100BB700EF90E682E030E604E020E0E41210E11274
:070BC700122312082080C771
:010BCE002204
:1005990090E6B9E0120EDA066200070B0107A00324
:1005A90005BC06065C08065609064A0A06500B00F1
:1005B90000080C121225400302081890E6BBE0243B
:1005C900FE602C14604724FD601614603124067007
:1005D90066E52390E6B3F0E52490E6B4F002081846
:1005E900E52B90E6B3F0E52C90E6B4F0020818E5A7
:1005F9002590E6B3F0E52690E6B4F0020818E52761
:1006090090E6B3F0E52890E6B4F002081890E6BA4F
:10061900E0FF12110DAA06A9077B01EA494B600DFB
:10062900EE90E6B3F0EF90E6B4F002081890E6A079
:10063900E04401F002081890E6A0E04401F0020845
:10064900181211F502081812021C020818121211C8
:100659000208181211E302081812122740030208AF
:100669001890E6B8E0247F602B14603C24026003F4
:10067900020701A200E433FF25E0FFA202E4334FA1
:1006890090E740F0E4A3F090E68AF090E68B7402DC
:10069900F0020818E490E740F0A3F090E68AF090A1
:1006A900E68B7402F002081890E6BCE0547EFF7EE7
:1006B90000E0D3948040067C007D0180047C007DAD
:1006C90000EC4EFEED4F2407F58274123EF583E4EB
:1006D90093FF3395E0FEEF24A1FFEE34E68F82F518
:1006E90083E0540190E740F0E4A3F090E68AF090AB
:1006F900E68B7402F002081890E6A0E04401F002CB
:100709000818121229400302081890E6B8E024FEDE
:10071900601D2402600302081890E6BAE0B40105DE
:10072900C20002081890E6A0E04401F002081890FF
:10073900E6BAE0705990E6BCE0547EFF7E00E0D353
:10074900948040067C007D0180047C007D00EC4E95
:10075900FEED4F2407F58274123EF583E493FF33CF
:1007690095E0FEEF24A1FFEE34E68F82F583E05495
:10077900FEF090E6BCE05480FF131313541FFFE012
:10078900540F2F90E683F0E04420F002081890E619
:10079900A0E04401F0807812122B507390E6B8E083
:1007A90024FE60202402706790E6BAE0B40104D206
:1007B90000805C90E6BAE06402605490E6A0E044F0
:1007C90001F0804B90E6BCE0547EFF7E00E0D394BC
:1007D9008040067C007D0180047C007D00EC4EFE9B
:1007E900ED4F2407F58274123EF583E493FF3395A8
:1007F900E0FEEF24A1FFEE34E68F82F583E04401A9
:10080900F0800C12122D500790E6A0E04401F09000
:06081900E6A0E04480F0BF
:01081F0022B6
:03003300020CFCC0
:040CFC0053D8EF32A8
:1011A000501400C0F9A4B0999282F880988883C640
:0611B000A1868E012F0054
:100DB80090E600E054E74410F000000090E601E0FF
:100DC8004440F000000090E610E0547FF00000007E
:100DD80090E611E0547FF000000090E613E0547FA5
:100DE800F000000090E614E0547FF000000090E668
:100DF80015E0547FF000000090E61274E0F090E6F1
:100E08005CE04402F0E4F530F5317D01FCE5319019
:100E1800F000F0E530A3F090E685E090F002F09065
:100E2800E684E090F003F090E686E090F004F07F2E
:100E3800057E0074002FF58274F03EF583EDF00F07
:100E4800BF00010EE4B507EBEEB404E790E690743A
:100E580002F0E490E691F00DBD00010CED64054C44
:040E680070ABD20099
:010E6C002263
:1008200090E680E020E70302096BE52F120EDA085C
:10083000480009110108870208D20309110408D2EF
:100840000509200600000A16E5AA30E103020A168F
:10085000E53190F000F0E530A3F090E685E090F00F
:1008600002F090E684E090F003F090E686E090F0ED
:1008700004F090E6907402F0E490E691F00531E522
:10088000317002053080C1E5AA20E137E53190F0F2
:1008900000F0E530A3F090E685E090F002F090E6FD
:1008A00084E090F003F090E686E090F004F090E6AB
:1008B000907402F0E490E691F00531E531700205A4
:1008C0003080C4E5AA30E403020A1690E6997480E9
:1008D000F022E5AA30E103020A16E53190F000F0BB
:1008E000E530A3F090E685E090F002F090E684E039
:1008F00090F003F090E686E090F004F090E69074BB
:1009000004F0E490E691F00531E5317002053080A5
:10091000C1E5AA30E003020A1690E6917480F02245
:10092000E5AA20E137E53190F000F0E530A3F09042
:10093000E685E090F002F090E684E090F003F0901D
:10094000E686E090F004F090E6907404F0E490E61F
:1009500091F00531E5317002053080C4E5AA30E43C
:1009600003020A1690E6997480F022E52F14604F76
:10097000146059147003020A0924036003020A1662
:10098000E5AA30E103020A16E53190F000F0E53007
:10099000A3F090E685E090F002F090E684E090F01D
:1009A00003F090E686E090F004F0E490E690F0909A
:1009B000E6917440F00531E5317002053080C1E503
:1009C000AA20E05290E6917480F080F3E5AA20E13D
:1009D00045E53190F000F0E530A3F090E685E09039
:1009E000F002F090E684E090F003F090E686E0906C
:1009F000F004F090E6907403F090E69174FFF00537
:100A000031E5317002053080C3E5AA20E00890E6A8
:070A1000917480F080F322D5
:02122100D322D6
:02122300D322D4
:02122500D322D2
:0812110090E6BAE0F532D322A9
:1011E30090E740E532F0E490E68AF090E68B04F075
:0211F300D32205
:10021C0075180190E6BAE0F52F90E680E020E70330
:10022C00020454E52F120EDA024D0002A80102F866
:10023C0002035F03039D0403CB05040806000005BD
:10024C007890E61274E0F000000090E610E0547F25
:10025C00F000000090E611E0547FF000000090E602
:10026C0013E0547FF000000090E614E0547FF0009F
:10027C00000090E615E0547FF000000090E6047456
:10028C0080F00000007402F0000000E4F0000000B8
:10029C0090E6837412F07432F002057890E61274D2
:1002AC00A0F000000090E610E0547FF000000090F9
:1002BC00E611E0547FF000000090E613E0547FF06C
:1002CC0000000090E614E0547FF000000090E6156A
:1002DC00E0547FF000000090E6917480F000000084
:1002EC00F0000000F0000000F002057890E61274B7
:1002FC00E0F000000090E61474A0F000000090E61E
:10030C0010E0547FF000000090E611E0547FF00004
:10031C00000090E613E0547FF000000090E615E03A
:10032C00547FF000000090E6047480F0000000742C
:10033C0002F0000000E4F000000090E6837412F07C
:10034C007432F090E6997480F0000000F000000028
:10035C0002057890E61274D8F0000000E490E615DF
:10036C00F090E614F090E613F090E611F090E610A1
:10037C00F000000090E6047480F00000007402F0BD
:10038C00000000E4F000000090E6407403F0020569
:10039C0078E490E615F090E614F090E613F090E611
:1003AC0011F090E610F000000090E6127498F00046
:1003BC00000090E6917480F0000000F00205789047
:1003CC00E61274D8F0000000E490E615F090E61404
:1003DC00F090E613F090E611F090E610F0000000BB
:1003EC0090E6047480F00000007402F0000000E459
:1003FC00F000000090E64004F002057890E61274DC
:10040C00DAF000000090E614749AF0000000E4901A
:10041C00E615F090E613F090E611F090E610F0007F
:10042C00000090E6047480F00000007402F00000FC
:10043C0000E4F000000090E64004F090E69974802F
:10044C00F0000000F0020578E52F14606E147003C4
:10045C0002051614700302054D240360030205788F
:10046C0090E61274E0F000000090E610E0547FF08B
:10047C0000000090E611E0547FF000000090E613BD
:10048C00E0547FF000000090E614E0547FF0000090
:10049C000090E615E0547FF000000090E6047480B4
:1004AC00F00000007402F0000000E4F00000009086
:1004BC00E6837412F07432F002057890E61274A0A0
:1004CC00F000000090E610E0547FF000000090E691
:1004DC0011E0547FF000000090E613E0547FF00030
:1004EC00000090E614E0547FF000000090E615E068
:1004FC00547FF000000090E6917480F0000000F052
:10050C00000000F0000000F0806290E61274D8F059
:10051C00000000E490E615F090E614F090E613F07D
:10052C0090E611F090E610F000000090E604748064
:10053C00F00000007402F0000000E4F00000008005
:10054C002BE490E615F090E614F090E613F090E6AC
:10055C0011F090E610F000000090E6127498F00094
:10056C00000090E6917480F0000000F0E518601B2C
:10057C007400252FF582E43414AB82FA7D017F21BF
:0C058C001211547F2112100DE4F518D359
:010598002240
:1011F50090E740E52FF0E490E68AF090E68B04F066
:02120500D322F2
:02122700D322D0
:02122900D322CE
:02122B00D322CC
:02122D00D322CA
:10117000C0E0C083C082D2015391EF90E65D74015C
:08118000F0D082D083D0E032F0
:1011B700C0E0C083C0825391EF90E65D7404F0D025
:0611C70082D083D0E0326B
:1011CD00C0E0C083C0825391EF90E65D7402F0D011
:0611DD0082D083D0E03255
:10104500C0E0C083C082852925852A26852682851C
:101055002583A37402F0852127852228852882858A
:101065002783A37407F05391EF90E65D7410F0D0D9
:0610750082D083D0E032BE
:10118800C0E0C083C082D2035391EF90E65D74083B
:08119800F0D082D083D0E032D8
:10008000C0E0C083C08290E680E030E7288521256B
:10009000852226852682852583A37402F08529275B
:1000A000852A28852882852783A37407F090E64057
:1000B0007403F0800C852925852A26852127852231
:1000C000285391EF90E65D7420F0D082D083D0E089
:0100D00032FD
:01122F00328C
:01123000328B
:01123100328A
:011232003289
:011233003288
:011234003287
:100FD200C0E0C083C082C0D0E52F24FE601924FE89
:100FE200600824FE601124057018E5AA20E0139021
:100FF200E6917480F0800BE5AA20E40690E69974ED
:0B10020080F0D0D0D082D083D0E0324C
:011235003286
:011236003285
:011237003284
:011238003283
:011239003282
:01123A003281
:01123B003280
:01123C00327F
:01123D00327E
:01123E00327D
:01123F00327C
:01124000327B
:01124100327A
:011242003279
:011243003278
:011244003277
:011245003276
:011246003275
:011247003274
:011248003273
:011249003272
:01124A003271
:01124B003270
:01124C00326F
:01124D00326E
:01124E00326D
:01124F00326C
:01125000326B
:01125100326A
:1010E10090E682E030E004E020E60B90E682E0301A
:1010F100E119E030E71590E680E04401F07F147ECD
:0C11010000120F8C90E680E054FEF022FB
:1000D10030040990E680E0440AF0800790E680E071
:1000E1004408F07FDC7E05120F8C90E65D74FFF012
:0F00F10090E65FF05391EF90E680E054F7F02235
:08121900E4F51FD2E9D2AF2277
:10100D00AD0790E678E020E6F9C2E990E678E04495
:10101D0080F0ED25E090E679F090E678E030E0F9AB
:10102D0090E678E04440F090E678E020E6F990E62E
:08103D0078E030E1D6D2E9228F
:1010AF00AC0790E678E020E6F9E51F702390E6782C
:1010BF00E04480F0EC25E090E679F08D1AAF03A9BB
:1010CF0007751B018A1C891DE4F51E751F01D322AC
:0210DF00C3222A
:10107B00AC0790E678E020E6F9E51F702590E6785E
:10108B00E04480F0EC25E0440190E679F08D1AAF56
:10109B0003A907751B018A1C891DE4F51E751F0327
:0410AB00D322C32267
:03004B00020BCFD6
:100BCF00C0E0C083C082C085C084C086758600C067
:100BDF00D075D000C000C001C002C003C006C0075E
:100BEF0090E678E030E206751F06020CB990E678C1
:100BFF00E020E10CE51F64026006751F07020CB9C7
:100C0F00E51F24FE605F14603624FE7003020CAAF9
:100C1F0024FC7003020CB624086003020CB9AB1B52
:100C2F00AA1CA91DAF1E051E8F82758300120E6DA3
:100C3F0090E679F0E51E651A7070751F05806B9050
:100C4F00E679E0AB1BAA1CA91DAE1E8E8275830030
:100C5F00120E9A751F02E51A6401704E90E678E045
:100C6F004420F08045E51A24FEB51E0790E678E093
:100C7F004420F0E51A14B51E0A90E678E04440F0DF
:100C8F00751F0090E679E0AB1BAA1CA91DAE1E8E46
:100C9F0082758300120E9A051E800F90E678E0444D
:100CAF0040F0751F008003751F005391DFD007D0F0
:100CBF0006D003D002D001D000D0D0D086D084D0BF
:080CCF0085D082D083D0E03211
:02110D00A90730
:10110F00AE2DAF2E8F828E83A3E064037017AD01D7
:10111F0019ED7001228F828E83E07C002FFDEC3E53
:08112F00FEAF0580DFE4FEFFC6
:011137002295
:1011380012107BE51F24FA600E146006240770F372
:0C114800D322E4F51FD322E4F51FD322CC
:101154001210AFE51F24FA600E146006240770F322
:0C116400D322E4F51FD322E4F51FD322B0
:100CD70090E682E044C0F090E681F043870100008F
:040CE70000000022E7
:100F8C008E188F1990E600E054187012E5192401A0
:100F9C00FFE43518C313F518EF13F519801590E617
:100FAC0000E05418FFBF100BE51925E0F519E51802
:100FBC0033F518E5191519AE18700215184E6005A1
:060FCC00120CEB80EE2286
:100CEB007400F58690FDA57C05A3E582458370F91C
:010CFB0022D6
:03004300020D00AB
:03005300020D009B
:100D0000021170000211CD000211B700021188001B
:100D1000021045000200800002122F000212300073
:100D200002123100021232000212330002123400A9
:100D3000020FD200021235000212360002123700F2
:100D400002123800021230000212390002123A0078
:100D500002123B0002123C0002123D0002123E0051
:100D600002123F0002123000021230000212300064
:100D7000021240000212410002124200021243001D
:100D800002124400021245000212460002124700FD
:100D9000021248000212490002124A0002124B00DD
:100DA00002124C0002124D0002124E0002124F00BD
:080DB000021250000212510072
:03000000020F00EC
:0C0F0000787FE4F6D8FD758132020F47BF
:100E6D00BB010CE58229F582E5833AF583E022503A
:100E7D0006E92582F8E622BBFE06E92582F8E22284
:0D0E8D00E58229F582E5833AF583E493229E
:100E9A00F8BB010DE58229F582E5833AF583E8F08E
:100EAA00225006E92582C8F622BBFE05E92582C83A
:020EBA00F22222
:0D0EBC00EF2BFFEE3AFEED39FDEC38FC2285
:100EC900EB9FF5F0EA9E42F0E99D42F0E89C45F07F
:010ED90022F6
:100EDA00D083D082F8E4937012740193700DA3A3A7
:100EEA0093F8740193F5828883E4737402936860BB
:060EFA00EFA3A3A380DFBB
:100F0C00020A17E493A3F8E493A34003F68001F2DA
:100F1C0008DFF48029E493A3F85407240CC8C333E6
:100F2C00C4540F4420C8834004F456800146F6DFB5
:100F3C00E4800B01020408102040809011A0E47E94
:100F4C00019360BCA3FF543F30E509541FFEE493AA
:100F5C00A360010ECF54C025E060A840B8E493A371
:100F6C00FAE493A3F8E493A3C8C582C8CAC583CA9C
:100F7C00F0A3C8C582C8CAC583CADFE9DEE780BE54
:0111B6000038
:00000001FF
