:020000040000FA
:060000008AEF13F012006C
:0600080004EF08F01200F5
:060018000CEF08F01200DD
:061000008AEF13F012005C
:0610080083EF11F012005D
:06101800CEEF11F0120002
:02102A000000C4
:04102C002FEC0EF0A7
:10103000A09A6A6A686A706A7EEC0DF0CBEC0DF0DB
:10104000DF6AB4EC0DF003E26EEC0DF0FAD76D8CB4
:101050006E6A6D986D9C68A607D068960001786BE3
:101060007D6B7E6B7F6BF7D70001010E916F926FE6
:10107000936B946B856BDF6A030EDF5C1AE2EA6A9E
:10108000DF3432EC0EF0EA22EE6AED6AEA6ADF340F
:1010900039EC0EF0EA22EE6AED6ADF504CEC0EF00D
:1010A000EA22EF6ADF5047EC0EF0EA22EF6ADF2A0D
:1010B000E3D70001080E6E6F040E6F6F160E706E90
:1010C0000401300E026F040E036F080E016F840ED0
:1010D000006F0001616B606BE55248EF0DF02FEC83
:1010E0000EF00001600507E16DBA05D0686A6980FD
:1010F0006988020E606F6850040B05E06950040BAC
:1011000002E0689491D86DB23ED06850010B09E0BE
:101110006950010B06E08ADFA08A0001040E606FAF
:1011200068906850100B05E06950100B02E071D810
:10113000689868AC08D069AC05D0D2EC0DF0730E9D
:1011400035EC0DF0689C6850200B04E06950200BD2
:1011500001E04CD86850020B0BE06950020B08E02C
:10116000D2EC0DF0E6687F0EE66E40EC0EF06A6A97
:10117000040E0001E76E6019E8AE02D0E73402D039
:10118000E750605D02E2A19A2ED069A62BD0DF6AFB
:10119000040EDF5C27E268A625D06CCF86F0000144
:1011A0008651780BE842E842E842876F689686B538
:1011B00004D0875147EC0EF003D087514CEC0EF071
:1011C000EA22EF70875102E13DD80AD0000EE66EA8
:1011D000E66A860EE66E000EE66E720E35EC0DF0D7
:1011E000DF2AD6D7A19AE55248EF0DF070A00FD0B4
:1011F00054EC0DF0EF50800809E13EEC0DF0EF509B
:10120000840804E154EC0DF08C0EEF6E7090689A37
:101210001200698468986D820001010E856F9AEC56
:101220000DF0750E35EF0DF00001856B9AEC0DF0A9
:10123000740E35EC0DF06D92699468A402D0689438
:10124000FCD712002FEC0EF0FD0E0001861540E1D8
:101250007E0E8615E8407F0B040DF3CF64F0F4CFCB
:1012600065F0000E6427040E652364C066F065C057
:1012700067F0667554EC0DF0EF503C0BE842E84225
:101280000D0824E1DF6A080EDF5C1AE254EC0DF071
:10129000020EE926000E87EC0DF0EF50E66EDF50EF
:1012A000EA6A300FE96E040EEA22E552E750EF6E6B
:1012B00054EC0DF05FEC0EF0EE2AEF22DF2AE3D7BC
:1012C00054EC0DF0FFEC0DF00AD807D025D805D06E
:1012D000FD0E8615040801E12ED8E552D9D3000190
:1012E000746B906B936B946B886B756BC7DBEF9E25
:1012F0006E75C4DBEF9E6E75EEEC0DF0EF9E786BB5
:10130000796B7A6B7D6B7E6B7F6B50D89AEC0DF0AE
:10131000030EABDB65EF0BF0020E0001755D02E121
:10132000D1EF0BF0756B885104E196DB8C0EEF6EFC
:101330001200886B12002FEC0EF0A0DBEF50400B78
:1013400001E0010EDF6E00016E75080E605D08E1C0
:1013500032C46EFF6E5002E0100E01D0040E606FBA
:10136000750513E18BDBA5DBDDD9020E0001745D91
:1013700003E184DB840E07D0DF5003E17FDBC80E7E
:1013800002D07CDB880EEF6E0FD07DAF0CD0805189
:10139000811107E005D081C0FAFF00018051F96E8C
:1013A000FADF00017D9F756BE55272D30401305165
:1013B000600BE842E842E842E842E842000901E006
:1013C000120031510C0A45E00B0A3FE00C0A31E0F3
:1013D000010A22E00B0A1EE0020A1CE0030A18E0E0
:1013E000080A10E0010A0CE00F0A08E0030A01E015
:1013F00012000001788F080E606F1200EFEF0AF004
:1014000035EF0CF00001610E766F000E776F0CD097
:101410002CEF0BF02AEF0AF034510001766F776B56
:10142000620E7627000E77237881010E796F788F10
:1014300012000001788F04013451EA6A620FE96EEC
:10144000000EEA2232C4EFFF120074DB020E35EF09
:101450000DF0120018DB030EE1260401320510E145
:1014600030511F0B00090CE10001788F030E0401BD
:10147000315D04E10001010E846F02D00001846B34
:101480000401325163E130511F0B02085FE1345116
:101490000F0B00095BE034510F0B020857E3200EDD
:1014A0000001605D53E1788F040134BF04D0C2DBDA
:1014B00047DB4CDB03D0C3DB43DB4CDBEA22020E11
:1014C000EFCFDBFF76DB010B03E1000EDF9401D0F1
:1014D000DF8434BF02D0AEDB01D0B1DBEA22DECF45
:1014E000EEFFDDCFEDFF030E315D0CE1DADB07E04F
:1014F00034BF02D02BDB01D02DDBEA22EF82840E39
:10150000E3DB24D0DF74CDDB06E0B3DAEF9EB1DAA3
:10151000EF8C7FDB02D0ADDAEF8CDF744ADB020B9D
:1015200006E1BFDB11E0A5DAEF50040B0DE1040189
:1015300034BF02D00BDB01D00DDBEA22EF923B0E71
:101540000B6EB3DB66DB02D03B0EAFDB030EE15C60
:1015500002E2E16AE552E16E9BD20001915121E184
:10156000010E916F92511DE1010E926F020E755D99
:1015700007E184DAEE52EF6A81DAC80EEF6E1200EC
:1015800075050FE1886B90DAEE52080EEF6E8CDA7B
:1015900036DB8ADA840EEF6E010E886F5DDA800E1C
:1015A000EF6E12000001936B946B020E755D04E107
:1015B00080DB7FDA13DB10D079510401365D000146
:1015C0007A510401375904E236C479F037C47AF00D
:1015D000A9D854DA6EDA52DAC80EEF6E1200800E15
:1015E0000401305D38E10001C00E786F0401335111
:1015F000030A1AE0010A09E0030A2BE100012C0E9C
:10160000766F250E776F120E1ED0E1DAB50EF62634
:10161000250EB2DA020E0001D3DAF5CF79F0030E0F
:10162000CFDAF5CF7AF01200060E325D0FE2CFDA94
:10163000150EF626260EA0DA76C0F6FF77C0F7FF65
:101640000800F5500001796F7A6B12000001786B89
:1016500012000001786B1200D8DA0401386B396B84
:1016600030511F0B020A11E0030A0CE0010A1CE1D1
:101670000001788F040138810001840515E104011F
:10168000388312D00001788F0FD00001788F0401C9
:1016900034BF02D0CFDA01D0D2DA52DAEAD9EF5031
:1016A000040B02E0010E386F000178AF07D0380E4E
:1016B000766F040E776F7881020E796F020EE15C0F
:1016C00002E2E16AE552E16EE3D16D98000178BF74
:1016D0000DD07DAF09D0020E756F945101E162DF2C
:1016E0000001926B916B120013EF0EF0040130AF0A
:1016F0000DD00001010E756F935101E153DF000120
:10170000926B916B90510DE1ADEF0AF00001020E6A
:10171000756FA2D9840EEF6E926B916B905101E1BF
:101720001CDF12009CDA080EDF6E0001795D000EEE
:101730007A590AE279C0DFFF745102E1010E03D049
:10174000740502E1020E746FDF500C6AE850795D97
:10175000796F0C507A597A6F91D9EE52DFCFEFFF43
:10176000380E826F040E836F78B10DD0DF5017E012
:1017700076C0F6FF77C0F7FF762B000E77230800C0
:10178000F550CBD9F3D7DF500AE076C0E9FF77C038
:10179000EAFF762B000E7723EF50BFD9F4D7E5523E
:1017A00077D133DA81D9EE52EFCFDFFFDFCF0BF005
:1017B0000B5000017E5D000E7F5902E27EC0DFFF0C
:1017C000DF500B6E0C6AE8507E5D7E6F0C507F59C7
:1017D0007F6F010EDB6ADF50F36E010EDBCFF4FF8B
:1017E000F350F45C16E2010EDB50EA6A380FE96E42
:1017F000040EEA22EF50E66E7BC0E9FF7CC0EAFFF0
:101800007B2B000E7C23E552E750EF6E010EDB2AA6
:10181000E2D7000ED8807E55000E7F550DE249DAE2
:1018200048D942D9EF50400B03E1D8D9C80E02D0B5
:10183000D5D9880EEF6E12D00FD9840EEF6E80517D
:10184000811107E005D081C0FAFF00018051F96ED7
:10185000FADF00017D9F905101E17FDE020EE15C25
:1018600002E2E16AE552E16E13D1F9D90001788F05
:1018700045D9DF6A79D902E231D9FCD76D8C020EE5
:10188000E66EE66AE66A620EE66E000EE0D96D9CD0
:101890000001080E6E6F040E6F6F000E646F040E71
:1018A000656F64C066F0676F32C461F0615102E138
:1018B000100E0BD0010EE66EE66A610EE66E000EAB
:1018C000E66E010ED2D80001200E606FE552E0D026
:1018D0009CD9000EDE6E040EDD6EF1D8040DF4CF3F
:1018E0000CF0D9CFE9FFDACFEAFFF350EE260C5027
:1018F000ED22BFD8EF9EFD0EDB5002E1EAD801D009
:10190000AFD8EA22DECFEEFFDDCFEDFFB2D8EF9CFD
:10191000B0D8040EE926000EEA22EF8C020EE15C3C
:1019200002E2E16AE552E16EB3D06FD9FD0EDBA4AD
:1019300002D0E66A29D9FD0EDBA203D0010EE66EC5
:1019400023D9FE0EDB500C6A700F0B6E0F0E06D9FA
:1019500090D8FD0EDBCFEFFF020EE15C02E2E16A00
:10196000E552E16E95D051D9FE0EDB5002E15BD914
:1019700005D0A5D838D9A3D8010F35D9020EE15C1E
:1019800002E2E16AE552E16E83D03FD9FD0EDB5001
:1019900002E066D801D09DD8D3D8D9CFE9FFDACFFD
:1019A000EAFFEE50ED1003E1F36AF46A21D061D84A
:1019B00086D9FB0EDBCFEEFFFC0EDBCFEDFF59D857
:1019C000EE52FA0EDBCFEFFF400E6FD9880E7CD9B6
:1019D000FD0EDB5002E044D801D07BD8EA22EF7440
:1019E000DECF0BF0DDCF0CF00BC0F3FF0CC0F4FF2B
:1019F000020EE15C02E2E16AE552E16E49D043D8B1
:101A00006DA812D021D9400EEE16EE6AEE6AEE6A8B
:101A10001BD9EE7C25D8EA22EF74400E0B6E14D948
:101A20000B50EF1611D9EF7C33D06D6A696A000153
:101A3000606B1200000160510EE16D6A696AABD8FB
:101A4000D08EA28AA08AF28E6DB602D06D86FCD7A7
:101A50000001010E606F12002CD9D1D8EEEF0DF00D
:101A6000FE0EEA6ADB3432EF0EF0E66EE66A40EF15
:101A70000EF0DECFE9FFDDCFEAFF12006EC0E9FF16
:101A80006FC0EAFF1200D9CFE6FFE1CFD9FF120005
:101A9000E552E7CFD9FF120034510F0BE96EEA6A25
:101AA000D890E936EA36120064C0E9FF65C0EAFF63
:101AB000120005D9380EEE6E040EED6E1200FD0E0A
:101AC000DB50E8240D6EFE0EDB50040DF3500D24A8
:101AD0001200FE0EEA6ADB3439EF0EF0DF50040D1F
:101AE000F3CFE9FFF4CFEAFF000EE926040EEA2265
:101AF000EE6AEE6AEE6AEE6ADF2A1200020EE66E07
:101B0000E66AE66A710EE66E0F0E27EF0EF0EA2225
:101B1000EE50EFCFEAFFE96E1200E66E82C0E9FFF9
:101B200083C0EAFF822B000E8323E552E750EF6E5D
:101B3000DF061200000EE66EE66AE66EE66A120046
:101B4000EA22EECFDEFFEDCFDDFF120034510F0BA6
:101B500047EF0EF034510F0B4CEF0EF00C220BC080
:101B6000DEFF0CC0DDFF1200DF500B6E0C6A0C0EA6
:101B70000B5C000E0C581200F7220900F5CF76F02E
:101B80000A00F5CF77F01200FE0EDBCFE6FFA0DEF5
:101B9000E552E5521200160E6F6E9F0E6B6E7B0EB5
:101BA000696E1200010EE66EE66A000EE66EE66AE7
:101BB0001200D950020FE96EDACFEAFFEF5012009F
:101BC000F76A7625F66E7751F72208001200325137
:101BD000F66EF76AD890F636F736120066C0E9FF5F
:101BE00067C0EAFF1200040DF3CF0BF0F4CF0CF046
:101BF000000E0B26040EB2DF840E64EF0EF05FD8E9
:101C0000300EEE6E040EED6E12003DDF020EE12688
:101C10001200020EE66EE66ADECFE6FFDDCFE6FFDB
:101C2000050E35EF0DF018DF8C0EEF6E27DF840EFA
:101C3000EF6E120031DF680EE926000E12002CDF75
:101C40006E0EE926000E12000BDF87EF0DF0E66E38
:101C500060EC13F00B6E050EE15E0B50120013DF0B
:101C6000E6521200FE0BEA36E96E6E0EE926000E11
:101C70001200FE0BEA36E96E680EE926000E12002D
:101C800048EC12F00B6E060EE15E0B501200EA6A91
:101C90008C0FE96E000E1200EA6A890FE96E000EE1
:101CA0001200E7DEEF50800B1200E3DEE850EF1683
:101CB000120094DFEE52080EEF6EEEEF0DF0020E02
:101CC000E926000EEA221200D4DEE850EF121200DC
:101CD0001E0EE66E010E97DA00016A1502E0010E93
:101CE00001D0000E0B6E0C6A0BBE0C68050E6EDA8E
:101CF000FEE1E2DA040E6A1502E0010E01D0000EE8
:101D00000B6E0C6A0BBE0C68050E60DAFEE1D4DACD
:101D10007ED97DD9040E0001701502E0010E01D0BC
:101D2000000E0B6E0C6A0BBE0C68050E4FDAFEE15E
:101D3000CCDA040E701502E0010E01D0000E0B6E1D
:101D40000C6A0BBE0C68050E41DAFEE1BEDA1E0E0F
:101D5000E66E020E58DA00016C1502E0010E01D0A9
:101D6000000E0B6E0C6A0BBE0C68050E2FDAFEE13E
:101D7000B5DA040E6C1502E0010E01D0000E0B6EF8
:101D80000C6A0BBE0C68050E21DAFEE1A7DAC7D992
:101D9000C6D9040E0001721502E0010E01D0000E3A
:101DA0000B6E0C6A0BBE0C68050E10DAFEE19FDAB2
:101DB000040E721502E0010E01D0000E0B6E0C6ACB
:101DC0000BBE0C68050E02DAFEE177EF11F004019C
:101DD0003051600BE842E842E842E842E84202083B
:101DE00001E0120031510F0A0FE0010A01E0120078
:101DF00011DA06E10C5004E132510001A56F08D060
:101E000032510001A16F09D005DA07E10C5005E15C
:101E10000001A50E766F000E04D00001A10E766FB2
:101E2000000E776F7881010E796F788F12001200A3
:101E30000001030EA16FA26FA36BA46BA56FA66F29
:101E4000A76BA86B1200DAD9E652DF6A00019F6B1C
:101E5000A06BFB0EDBCF0BF0FC0EDBCF0CF00B50BE
:101E60009F5D0C50A05919E2DF50DF2AE66EFD0E8F
:101E7000DB509F250F01E96EFE0EDB500001A02113
:101E80000F01EA6EE552E750EF6EDF5001E1DF2A05
:101E900000019F2B000EA023DCD7E552E552E7CFCF
:101EA000D9FF1200F7EC11F0200E0001E76E601967
:101EB000E8AE02D0E73402D0E750605D03E36D5036
:101EC000020B02E018EF0FF00001A251A15D04E047
:101ED000A36BA46BA1C0A2F0A151030A06E0010A02
:101EE00006E0030A04E119D803D05DD801D08FD8E9
:101EF0000001A651A55D04E0A76BA86BA5C0A6F0E4
:101F0000A551030A06E0010A06E0030A04E124EFF2
:101F100010F05AEF10F08FEF10F070D9040EE12698
:101F200000017051711102E1000E05D02CD9EF5063
:101F3000800B01E0010E000930E1200EDE6EDD6A4B
:101F400022D9A6D9D9CFE9FFDACFEAFF000ED8808F
:101F5000EE54000EED541EE2030E0001A35D0CE2F0
:101F6000A32BDECFE6FFDDCFE6FF020EDBCFE6FFE1
:101F7000030EDBCFE6FF55D90001A451A42BE66E7A
:101F8000010EE76E020EDBCFE9FF030EDBCFEAFFA7
:101F9000E7504DD9F8D8B4D96DD9040EE15C02E20E
:101FA000E16AE5520ED12AD9060EE12600016A51F6
:101FB0006B1102E1000E05D0DCD8EF50800B01E080
:101FC000010E00091EE100017051711102E1000EC5
:101FD00005D0D9D8EF50800B01E0010E000911E1C6
:101FE000C8D8B9D82BD9CFD853D9C3D8D6D8CBD8FD
:101FF000B2D82BD93FD9200EDE6EDD6A34D900016C
:102000006A75060EE15C02E2E16AE552DAD0F6D8C2
:10201000040EE12600016A516B1102E1000E05D0A9
:10202000A8D8EF50800B01E0010E000907E1200E57
:10203000DE6EDD6A9ED82CD916D96A75040EE15C75
:1020400002E2E16AE552BDD0D9D8020EE1260001D4
:102050007251731102E1000E05D09AD8EF50800B37
:1020600001E0010E000920E193D815D9030E00010B
:10207000A75D09E2A72B200EE66EE66ADECFE6FF3B
:10208000DDCFE6FFCED80001A851A82BE66EDECF4B
:10209000E9FFDDCFEAFF010ECAD87AD807D978D890
:1020A000EE52200EEF6EFDD8020EE15C02E2E16A14
:1020B000E55287D0A3D8060EE12600016C516D11C0
:1020C00002E1000E05D05AD8EF50800B01E0010E5E
:1020D00000091FE100017251731102E1000E05D0E9
:1020E00057D8EF50800B01E0010E000912E146D8ED
:1020F00032D8A4D84DD8CCD841D84FD849D82BD82D
:10210000A4D846D8A9D8CDD839D8FAD8BAD8000199
:102110006C75060EE15C02E2E16AE55252D06ED8BF
:10212000020EE12600016C516D1102E1000E05D096
:1021300025D8EF50800B01E0010E000906E11ED802
:10214000AAD81CD8B3D89DD86C75020EE15C02E207
:10215000E16AE55236D0020EE926000EEA221200AC
:10216000EF50400B80090809E66EE552E750EF6E2C
:1021700012006AC0E9FF6BC0EAFF12006CC0E9FF01
:102180006DC0EAFF120070C0E9FF71C0EAFF1200E3
:1021900072C0E9FF73C0EAFF1200EF50000EF35067
:1021A0000D6E0E6A000E0D16030E0E16EE52EF5057
:1021B00000010D240B6E000E0E200BC0DEFFDD6E45
:1021C0001200E16EE552E7CFD9FF1200D8900B362E
:1021D0000C36E80612000BC0EEFF0CC0EDFF12003B
:1021E000020EEECFDBFF030EEDCFDBFF1200020E7F
:1021F000DBCFEEFF030EDBCFEDFF1200D9CFE6FF02
:10220000E1CFD9FF1200E66E95EC0CF0E552E552F5
:10221000040E1200FF0E34150B6E0C6A010E0B1823
:10222000120011DEE552E552E552E5521200E926B0
:10223000000EEA22E552E750EF6E1200040EEECFD8
:10224000DBFF050EEDCFDBFF1200040EDBCFEEFF50
:10225000050EDBCFEDFF1200EE52DFCFEFFF1200D5
:102260007ADFEBEF10F085DF4BD883DFF5DF81DF1E
:10227000B0EF10F088DFF0DF86DF72DF00017075ED
:1022800012007CDFEE52200EEF6E78DFB0EF10F020
:1022900062DFF0EF10F05FDFEECFDEFFEDCFDDFFAE
:1022A000120076DF5DDF00017275120054DFDECFB1
:1022B000EEFFDDCFEDFF1200400E0B26040E0C22C8
:1022C00058DFCEDF00016A751200800E0B26040E67
:1022D0000C2259DFC5DF000170751200C00E0B26FD
:1022E000040E0C224BDFBCDF00016C751200000EE7
:1022F0000B26050E0C224CDFB3DF000172751200B5
:062300002ADFF7EF10F0E8
:0A230600DACFE4FFE2CFDAFFE9CFFF
:10231000E4FFEACFE4FFF6CFE4FFF7CFE4FFF5CF29
:10232000E4FFF3CFE4FFF4CFE4FFFACFE4FF00EEE5
:1023300000F00B0EE80403E3EECFE4FFFBD700EE62
:102340000BF0040EE80403E3EECFE4FFFBD7E65204
:102350006FEC08F0E55200EE0EF0040EE80403E323
:10236000E5CFEDFFFBD700EE0AF00B0EE80403E328
:10237000E5CFEDFFFBD7E5CFFAFFE5CFF4FFE5CFE3
:10238000F3FFE5CFF5FFE5CFF7FFE5CFF6FFE5CFAC
:10239000EAFFE5CFE9FFE5CFDAFF1100D8CFE4FF90
:1023A000E0CFE4FFE46EDACFE4FFE652E552E5CF9A
:1023B000DAFFE550E5CFE0FFE5CFD8FF10000001E0
:1023C000AA6BAB6B05D81AEC0DF052EC0FF0FDD7F1
:1023D0000F0EC11202D816EF08F0F00E8C169516EB
:1023E0009388938A0001010EA96F18EF0FF0000186
:1023F000AA51AB1104E1100EAA6F270EAB6FAA070A
:10240000000EAB5B6DA207D0AA51AB112EE18C7010
:102410008CB013D027D00001605102E18C9022D003
:10242000600502E18C8009D0020E605D02E18C80C3
:1024300019D0040E605D03E18C908C821200100EA6
:10244000605D06E10001AA51AB110FE18C700AD06A
:10245000200E605D0AE10001AA51AB1106E18C700B
:102460008CA002D08C9212008C82120012001200FA
:10247000120012006D840001080EAC6F070EAD6FE4
:10248000AC07000EAD5BAC51AD11FAE16D941200DA
:10249000D9CFE6FFE1CFD9FFFD0EDBCF06F0FE0E70
:1024A000DBCF07F0720E061801E1075036E0E8684E
:1024B000061802E17F0E07182EE0740E061801E1DF
:1024C000075027E0750E061801E1075020E0730E53
:1024D000061801E1075019E0030E061801E1075044
:1024E00011E0020E061801E1075009E0010E06187E
:1024F00001E1075001E013D068EC0EF011D017ECA9
:102500000FF00ED0E7EC0EF00BD0B2DF09D0AEDF4B
:1025100007D0ADDF05D0ADDF03D0000001D000D083
:0C252000010E00D0E552E7CFD9FF1200F9
:04252C001201000296
:10253000EF020108D8042EFA01000102030109028A
:102540003F00020100C032080B0002000000000939
:10255000040000020000000407050102200000073B
:1025600005810220000009040100020000000507A7
:10257000050202200000070582022000001C034221
:102580000065006E00630068006D00610072006B02
:102590000020004F006E0065001C03420065006EC5
:1025A00000630068006D00610072006B0020005441
:1025B0000077006F003E25040309042003540072D5
:1025C000006100760069007300200052006F006215
:1025D0000069006E0073006F006E002C03440075EC
:1025E0000061006C002000420065006E006300681E
:1025F000006D00610072006B0020004400650076F1
:10260000006900630065000E034C00550053004252
:102610000057003200B725BB25DB2507267D25990D
:012620002594
:0E2622002A0EF66E100EF76E000EF86E000116
:102630000900F5509A6F0900F5509B6F03E19A6706
:1026400001D03DD00900F550956F0900F550966F07
:102650000900F550976F09000900F550E96E09006F
:10266000F550EA6E090009000900F550986F09005D
:10267000F550996F09000900F6CF9CF0F7CF9DF057
:10268000F8CF9EF095C0F6FF96C0F7FF97C0F8FF11
:102690000001985302E1995307E00900F550EE6EEE
:1026A0009807F8E29907F9D79CC0F6FF9DC0F7FF9D
:1026B0009EC0F8FF00019A07000E9B5BBFD7120077
:1026C000FE0EE3CFE9FFFF0EE3CFEAFFE9CFF3FF12
:1026D000EACFF4FFFB0EE35003E1FC0EE35009E008
:1026E000FB0EE30602E2FC0EE306FD0EE350EE6E87
:0426F000F1D712000C
:0C26F400000EF36E00EE00F0080E01D89E
:102700001200EA6002D0EE6AFCD7F350E9601200D2
:04271000EE6AFCD79A
:0C27140013EE00F023EE00F0F86A0A9CBF
:1027200011EC13F098EC13F0DFEC11F0FBD7120072
:02273000120095
:020000040030CA
:01000000E41B
:010001003EC0
:01000200FFFE
:01000300FEFE
:01000500F901
:010006009B5E
:01000800FFF8
:01000900FFF7
:01000A00FFF6
:01000B00FFF5
:01000C00FFF4
:01000D00FFF3
:00000001FF
