:020000040000FA
:06000000B4EF18F012003D
:0600080004EF08F01200F5
:060018000CEF08F01200DD
:06100000B4EF18F012002D
:021006000000E8
:0610080080EF16F012005B
:02100E001200CE
:06101800CBEF16F0120000
:02101E00D9CF28
:10102000E6FFE1CFD9FFE652A098636A626A0F013A
:10103000266B020EE66EE66AE66A270EE66E0F0E75
:10104000E66E8AEC18F00B6E050EE15E0B500F0198
:10105000160E396F9F0E376F7B0E366FDF6ADF50CB
:101060000B6E0C6A0C0E0B5C000E0C5810E2DF507D
:10107000040DF3CFE9FFF4CFEAFF000EE926040EDA
:10108000EA22EE6AEE6AEE6AEE6ADF2AE8D7658C3B
:101090000F01386B6598659C62A607D062960001C7
:1010A000786B7D6B7E6B7F6BF7D70001010E916FC4
:1010B000926F936B946B856BDF6A030EDF5C26E2A5
:1010C000EA6ADF34FE0BEA36E96E6E0EE926000EA0
:1010D000EA22EE6AED6AEA6ADF34FE0BEA36E96E6E
:1010E000680EE926000EEA22EE6AED6ADF50EA6A2F
:1010F000890FE96E000EEA22EF6ADF50EA6A8C0F70
:10110000E96E000EEA22EF6ADF2AD7D70001080E47
:101110006E6F040E6F6F0F01160E266F0401300EF6
:10112000026F040E036F080E016F840E006F000142
:10113000616B606BE552E552E7CFD9FF1200D9CF62
:10114000E6FFE1CFD9FFE6520001600509E165BA8B
:1011500007D0626A0F01368136890001020E606F86
:101160006250040B06E00F013651040B02E062945A
:10117000CCD865A202D0A19893D06250010B0AE0AE
:101180000F013651010B06E04ADFA0880001040E72
:10119000606F62906250100B06E00F013651100B29
:1011A00002E09DD8629862AC13D00F0136AD0FD02B
:1011B000010EE66EE66A000EE66EE66A730EE66EF5
:1011C000E66A72EC17F00B6E060EE15E0B50629C45
:1011D0006250200B05E00F013651200B01E065D86D
:1011E0006250020B14E00F013651020B10E0010EA9
:1011F000E66EE66A000EE66EE66AE6687F0EE66E6A
:1012000072EC17F00B6E060EE15E0B50636A040E73
:101210000001E76E6019E8AE02D0E73402D0E75073
:10122000605D02E2A1983CD00F0136A738D0DF6A9A
:10123000040EDF5C34E262A631D064CF86F0000198
:101240008651780BE842E842E842876F629686B59D
:1012500008D08751EA6A8C0FE96E000EEA22EF701F
:1012600007D08751EA6A890FE96E000EEA22EF7013
:10127000875102E162D810D0000EE66EE66A860E53
:10128000E66E000EE66E720EE66EE66A72EC17F01F
:101290000B6E060EE15E0B50DF2ACAD700D0A19874
:1012A000E552E552E7CFD9FF12000F0126A115D074
:1012B00064C0E9FF65C0EAFFEF5080080DE16EC031
:1012C000E9FF6FC0EAFFEF50840806E164C0E9FF60
:1012D00065C0EAFF8C0EEF6E2691629A12000F0134
:1012E0003685629865820001010E856F000EE66EFC
:1012F000E66AE66EE66A750EE66EE66A72EC17F06E
:101300000B6E060EE15E0B5012000001856B000EA5
:10131000E66EE66AE66EE66A740EE66EE66A72EC01
:1013200017F00B6E060EE15E0B5065920F013695BD
:1013300062A402D06294FCD71200D9CFE6FFE1CFBD
:10134000D9FFE652FD0E0001861553E17E0E86158B
:10135000E8407F0B040DF3CF64F0F4CF65F0000E8E
:101360006427040E652364C066F065C067F0667587
:1013700064C0E9FF65C0EAFFEF503C0BE842E84279
:101380000D0835E1DF6A080EDF5C23E264C0E9FF87
:1013900065C0EAFF020EE926000EEA22EE50EFCF0A
:1013A000EAFFE96EEF50E66EDF50EA6A300FE96E51
:1013B000040EEA22E552E750EF6E64C0E9FF65C013
:1013C000EAFF020EE926000EEA22EE2AEF22DF2AC9
:1013D000DAD764C0E9FF65C0EAFF020EE926000E15
:1013E000EA22300EEE6E040EED6E0DD801D03AD822
:1013F00005D0FD0E8615040801E15AD8E552E552E4
:10140000E7CFD9FF12000001746B906B936B946B64
:10141000886B756B6EC0E9FF6FC0EAFFEF9E6E755B
:101420006EC0E9FF6FC0EAFFEF9E6E7566C0E9FF10
:1014300067C0EAFFEF9E786B796B7A6B7D6B7E6B92
:101440007F6B93D8000EE66EE66AE66EE66A030EE0
:10145000E66EE66A72EC17F00B6E060EE15E0B505C
:10146000A5EF0DF0020E0001755D03E168EC0EF0D2
:101470001ED0756B88511AE166C0E9FF67C0EAFFAC
:10148000EE52080EEF6E66C0E9FF67C0EAFF020E7B
:10149000E926000EEA22300EEE6E040EED6E66C0F6
:1014A000E9FF67C0EAFF8C0EEF6E01D0886B120077
:1014B000D9CFE6FFE1CFD9FFE6526EC0E9FF6FC09A
:1014C000EAFFEF50400B01E0010EDF6E00016E7588
:1014D000080E605D0CE132C438FF0F01385104E0A2
:1014E0000001100E606F03D00001040E606F7505DF
:1014F00028E16EC0E9FF6FC0EAFF020EE926000E88
:10150000EA22380EEE6E040EED6E80DB020E000154
:10151000745D07E16EC0E9FF6FC0EAFF840EEF6EF5
:101520000FD0DF5007E16EC0E9FF6FC0EAFFC80EC1
:10153000EF6E06D06EC0E9FF6FC0EAFF880EEF6E57
:101540000FD07DAF0CD08051811107E005D081C054
:10155000FAFF00018051F96EFADF00017D9F756B83
:10156000E552E552E7CFD9FF120004013051600B7C
:10157000E842E842E842E842E842000901E059D086
:1015800031510C0A55E00B0A44E00C0A36E0010A1E
:1015900027E00B0A23E0020A21E0030A1DE0080A03
:1015A00011E0010A0CE00F0A08E0030A01E040D054
:1015B0000001788F080E606F3CD006DA3AD008EC54
:1015C0000FF037D00001610E766F000E776F7881D3
:1015D000010E796F788F2DD057DA2BD02BD829D0E8
:1015E00034510001766F776B620E7627000E7723F9
:1015F0007881010E796F788F1CD00001788F0401FB
:101600003451EA6A620FE96E000EEA2232C4EFFF3B
:1016100010D0000EE66EE66AE66EE66A020EE66E30
:10162000E66A72EC17F00B6E060EE15E0B5001D00D
:1016300000D01200D9CFE6FFE1CFD9FF030EE1269B
:101640000401320510E130511F0B00090CE10001CB
:10165000788F030E0401315D04E10001010E846FF7
:1016600002D00001846B0401325101E012D13051EB
:101670001F0B020801E00DD134510F0B000901E1ED
:1016800008D134510F0B020801E203D1200E0001F2
:10169000605D01E0FED0788F040134BF1AD0345170
:1016A0000F0BE96EEA6AD890E936EA36680EE92649
:1016B000000EEA22EECFDEFFEDCFDDFF34510F0B3F
:1016C000EA6A8C0FE96E000EEA22020EEFCFDBFF12
:1016D00019D034510F0BE96EEA6AD890E936EA3630
:1016E0006E0EE926000EEA22EECFDEFFEDCFDDFF23
:1016F00034510F0BEA6A890FE96E000EEA22020EDE
:10170000EFCFDBFFD950020FE96EDACFEAFFEF50DF
:10171000010B03E1000EDF9401D0DF8434BF10D051
:1017200034510F0BE96EEA6AD890E936EA36680E52
:10173000E926000EEA22DECFEEFFDDCFEDFF0FD06F
:1017400034510F0BE96EEA6AD890E936EA366E0E2C
:10175000E926000EEA22DECFEEFFDDCFEDFF030E1D
:10176000315D23E1DECFE9FFDDCFEAFFEF50800BF3
:1017700013E034BF09D034510F0BEA6A8C0FE96EC5
:10178000000EEA22EF8208D034510F0BEA6A890F6B
:10179000E96E000EEA22EF82840E0B6EDECFE9FFC7
:1017A000DDCFEAFF0B50EF1274D0DF74DECFE9FF1C
:1017B000DDCFEAFFEF50800B1BE0DECFE9FFDDCF8E
:1017C000EAFFEF9EDECFE9FFDDCFEAFFEF8C020EEE
:1017D000E66EE66ADECFE6FFDDCFE6FF050EE66EDB
:1017E000E66A72EC17F00B6E060EE15E0B5005D048
:1017F000DECFE9FFDDCFEAFFEF8CDF74D950020FB7
:10180000E96EDACFEAFFEF50020B0EE1DECFE9FF1F
:10181000DDCFEAFFEF50800B34E0DECFE9FFDDCF14
:10182000EAFFEF50040B2DE1040134BF09D034511D
:101830000F0BEA6A8C0FE96E000EEA22EF9208D0D5
:1018400034510F0BEA6A890FE96E000EEA22EF921B
:101850003B0E0B6EDECFE9FFDDCFEAFF0B50EF163C
:10186000020EE66EE66ADECFE6FFDDCFE6FF050E8E
:10187000E66EE66A72EC17F00B6E060EE15E0B5038
:1018800008D03B0E0B6EDECFE9FFDDCFEAFF0B5039
:10189000EF16030EE15C02E2E16AE552E16EE55209
:1018A000E7CFD9FF1200000191514DE1010E916F78
:1018B000925149E1010E926F020E755D0DE16EC00D
:1018C000E9FF6FC0EAFFEE52EF6A6EC0E9FF6FC03A
:1018D000EAFFC80EEF6E37D0750535E1886B64C03E
:1018E000E9FF65C0EAFFEE52080EEF6E64C0E9FF43
:1018F00065C0EAFF020EE926000EEA22300EEE6E07
:10190000040EED6E64C0E9FF65C0EAFF840EEF6E61
:10191000010E886F66C0E9FF67C0EAFFEE52080E4D
:10192000EF6E66C0E9FF67C0EAFF020EE926000E0F
:10193000EA22300EEE6E040EED6E66C0E9FF67C05F
:10194000EAFF800EEF6E12000001936B946B020EA3
:10195000755D1AE166C0E9FF67C0EAFFEE52080E46
:10196000EF6E66C0E9FF67C0EAFF020EE926000ECF
:10197000EA22380EEE6E040EED6E66C0E9FF67C017
:10198000EAFFC80EEF6E1FD079510401365D0001E9
:101990007A510401375904E236C479F037C47AF039
:1019A00035D96EC0E9FF6FC0EAFF020EE926000ECE
:1019B000EA22380EEE6E040EED6E6EC0E9FF6FC0C7
:1019C000EAFFC80EEF6E1200800E0401305D5BE18D
:1019D0000001C00E786F04013351030A34E0010A9C
:1019E0000EE0030A03E00001786B4DD00001800E89
:1019F000766F2F0E776F120E796F7A6B44D032515B
:101A0000F66EF76AD890F636F736090EF626300EDF
:101A1000F7220900F5CF76F00A00F5CF77F0020E35
:101A20000001F76A7625F66E7751F7220800F5CFA8
:101A300079F0030EF76A7625F66E7751F7220800E3
:101A4000F5CF7AF020D0060E325D1AE23251F66EF2
:101A5000F76AD890F636F736690EF626300EF7227A
:101A60000900F5CF76F00A00F5CF77F076C0F6FFE3
:101A700077C0F7FF0800F5500001796F7A6B02D04C
:101A80000001786B00D01200D9CFE6FFE1CFD9FF7B
:101A9000020EE1260401386B396B30511F0B020A2C
:101AA00012E0030A0DE0010A01E03BD00001788F4B
:101AB000040138810001840502E10401388331D03A
:101AC0000001788F2ED00001788F040134BF10D030
:101AD00034510F0BE96EEA6AD890E936EA36680E9F
:101AE000E926000EEA22EECFDEFFEDCFDDFF0FD0BC
:101AF00034510F0BE96EEA6AD890E936EA366E0E79
:101B0000E926000EEA22EECFDEFFEDCFDDFFDECFCD
:101B1000E9FFDDCFEAFFEF50040B02E0010E386F62
:101B200000D0000178AF07D0380E766F040E776FC3
:101B30007881020E796F020EE15C02E2E16AE55201
:101B4000E16EE552E7CFD9FF12006598000178BF3A
:101B50002BD07DAF09D0020E756F945101E1F4DEF8
:101B60000001926B916B1FD066C0E9FF67C0EAFF6E
:101B7000EE52080EEF6E66C0E9FF67C0EAFF020E84
:101B8000E926000EEA22300EEE6E040EED6E66C0FF
:101B9000E9FF67C0EAFF8C0EEF6E6EC0E9FF6FC011
:101BA000EAFF840EEF6E31D0040130AF0DD000019A
:101BB000010E756F935101E1C7DE0001926B916BCD
:101BC000905101E170DE21D00001020E756F66C0F8
:101BD000E9FF67C0EAFFEE52080EEF6E66C0E9FF4C
:101BE00067C0EAFF020EE926000EEA22300EEE6E12
:101BF000040EED6E66C0E9FF67C0EAFF840EEF6E6B
:101C0000926B916B905101E14EDE1200D9CFE6FF4D
:101C1000E1CFD9FFE652080EDF6E0001795D000EBC
:101C20007A590BE279C0DFFF745103E1010E746F42
:101C300004D0740502E1020E746FDF500B6E0C6A63
:101C40000B50795D796F0C507A597A6F6EC0E9FF4D
:101C50006FC0EAFFEE52DFCFEFFF380E826F040E47
:101C6000836F78B119D0DF5016E076C0F6FF77C0E9
:101C7000F7FF762B000E77230800F550E66E82C042
:101C8000E9FF83C0EAFF822B000E8323E552E75071
:101C9000EF6EDF06E8D717D0DF5015E076C0E9FF1A
:101CA00077C0EAFF762B000E7723EF50E66E82C0F6
:101CB000E9FF83C0EAFF822B000E8323E552E75041
:101CC000EF6EDF06E9D7E552E552E7CFD9FF120004
:101CD000D9CFE6FFE1CFD9FF020EE12664C0E9FFCC
:101CE00065C0EAFFEE52EFCFDFFFDFCF0BF00B5006
:101CF00000017E5D000E7F5902E27EC0DFFFDF50F3
:101D00000B6E0C6A0B507E5D7E6F0C507F597F6F9F
:101D1000010EDB6ADF50F36E010EDBCFF4FFF350F0
:101D2000F45C16E2010EDB50EA6A380FE96E040E2D
:101D3000EA22EF50E66E7BC0E9FF7CC0EAFF7B2B16
:101D4000000E7C23E552E750EF6E010EDB2AE2D74E
:101D5000000ED8807E55000E7F5528E266C0E9FF50
:101D600067C0EAFFEE52080EEF6E66C0E9FF67C07B
:101D7000EAFF020EE926000EEA22380EEE6E040E8D
:101D8000ED6E64C0E9FF65C0EAFFEF50400B07E16C
:101D900066C0E9FF67C0EAFFC80EEF6E06D066C0F6
:101DA000E9FF67C0EAFF880EEF6E28D066C0E9FF42
:101DB00067C0EAFFEE52080EEF6E66C0E9FF67C02B
:101DC000EAFF020EE926000EEA22300EEE6E040E45
:101DD000ED6E66C0E9FF67C0EAFF840EEF6E8051CA
:101DE000811107E005D081C0FAFF00018051F96E32
:101DF000FADF00017D9F905101E155DD020EE15CAB
:101E000002E2E16AE552E16EE552E7CFD9FF120046
:101E1000D9CFE6FFE1CFD9FFE6520001788F020E5D
:101E2000E66EE66AE66A270EE66E0F0EE66E8AEC4E
:101E300018F00B6E050EE15E0B50DF6ADF500B6E83
:101E40000C6A0C0E0B5C000E0C5810E2DF50040DF7
:101E5000F3CFE9FFF4CFEAFF000EE926040EEA22F1
:101E6000EE6AEE6AEE6AEE6ADF2AE8D7658C020E49
:101E7000E66EE66AE66A620EE66E000EE66E8AECD2
:101E800018F00B6E050EE15E0B50659C0001080E0C
:101E90006E6F040E6F6F000E646F040E656F64C08A
:101EA00066F065C067F032C461F0615103E1100E65
:101EB000606F13D0010EE66EE66A610EE66E000EEC
:101EC000E66E010EE66EE66A72EC17F00B6E060E19
:101ED000E15E0B500001200E606FE552E552E7CF46
:101EE000D9FF1200D9CFE6FFE1CFD9FF020EE126DC
:101EF000000EDE6E040EDD6EFD0EDB50E8240D6E6E
:101F0000FE0EDB50040DF3500D24040DF3CF0BF047
:101F1000F4CF0CF0D9CFE9FFDACFEAFF0B50EE2671
:101F20000C50ED22DECFE9FFDDCFEAFFEF9EFD0E84
:101F3000DB500FE1FE0EEA6ADB34FE0BEA36E96E97
:101F4000680EE926000EEA22DECFEEFFDDCFEDFFC0
:101F50000ED0FE0EEA6ADB34FE0BEA36E96E6E0E38
:101F6000E926000EEA22DECFEEFFDDCFEDFFDECF69
:101F7000E9FFDDCFEAFFEF9CDECFE9FFDDCFEAFF2F
:101F8000040EE926000EEA22EF8C020EE15C02E26A
:101F9000E16AE552E16EE552E7CFD9FF1200D9CFF1
:101FA000E6FFE1CFD9FF020EE126FD0EDBA407D04C
:101FB000E66AFE0EDBCFE6FF95DFE552E552FD0E49
:101FC000DBA208D0010EE66EFE0EDBCFE6FF8ADF55
:101FD000E552E552FE0EDB500C6A260F0B6E0F0E1B
:101FE0000C220BC0DEFF0CC0DDFFDECFE9FFDDCF32
:101FF000EAFFFD0EDBCFEFFF020EE15C02E2E16AD9
:10200000E552E16EE552E7CFD9FF1200D9CFE6FFE6
:10201000E1CFD9FF020EE126FE0EDB5020E166C0C3
:10202000E9FF67C0EAFFEE52080EEF6E66C0E9FFF7
:1020300067C0EAFF020EE926000EEA22300EEE6EBD
:10204000040EED6E66C0E9FF67C0EAFF8C0EEF6E0E
:102050006EC0E9FF6FC0EAFF840EEF6E3DD0FD0E4B
:10206000DB50E8240D6EFE0EDB50040DF3500D2402
:10207000040DF3CF0BF0F4CF0CF0000E0B26040E82
:102080000C220BC0DEFF0CC0DDFF840E0B6EDECF1A
:10209000E9FFDDCFEAFF0B50EF12FD0EDB50E82425
:1020A0000D6EFE0EDB50040DF3500D24010F040DD8
:1020B000F3CF0BF0F4CF0CF0000E0B26040E0C2225
:1020C0000BC0DEFF0CC0DDFF840E0B6EDECFE9FF20
:1020D000DDCFEAFF0B50EF12020EE15C02E2E16A93
:1020E000E552E16EE552E7CFD9FF1200D9CFE6FF06
:1020F000E1CFD9FF020EE126FD0EDB500FE0FE0E10
:10210000EA6ADB34FE0BEA36E96E6E0EE926000E53
:10211000EA22EECFDEFFEDCFDDFF0ED0FE0EEA6A43
:10212000DB34FE0BEA36E96E680EE926000EEA2281
:10213000EECFDEFFEDCFDDFFD9CFE9FFDACFEAFF4B
:10214000EE50ED1003E1F36AF46A49D0DECFE9FF07
:10215000DDCFEAFF020EE926000EEA22FB0EDBCFFE
:10216000EEFFFC0EDBCFEDFFDECFE9FFDDCFEAFFB8
:10217000EE52FA0EDBCFEFFF400E0B6EDECFE9FF23
:10218000DDCFEAFF0B50EF16880E0B6EDECFE9FFB6
:10219000DDCFEAFF0B50EF12FD0EDB500CE0FE0E20
:1021A000EA6ADB34FE0BEA36E96E6E0EE926000EB3
:1021B000EA22EF740BD0FE0EEA6ADB34FE0BEA363D
:1021C000E96E680EE926000EEA22EF74DECF0BF00E
:1021D000DDCF0CF00BC0F3FF0CC0F4FF00D0020EFB
:1021E000E15C02E2E16AE552E16EE552E7CFD9FF38
:1021F0001200D9CFE6FFE1CFD9FF65A84ED0FE0E81
:10220000EA6ADB34FE0BEA36E96E6E0EE926000E52
:10221000EA22EE50EFCFEAFFE96E400EEE16EE6ACC
:10222000EE6AEE6AFE0EEA6ADB34FE0BEA36E96E0F
:102230006E0EE926000EEA22EE50EFCFEAFFE96EBD
:10224000EE7CFE0EEA6ADB34FE0BEA36E96E6E0EB9
:10225000E926000EEA22EF74400E0B6EFE0EEA6ACB
:10226000DB34FE0BEA36E96E6E0EE926000EEA223A
:10227000EE50EFCFEAFFE96E0B50EF16FE0EEA6A62
:10228000DB34FE0BEA36E96E6E0EE926000EEA221A
:10229000EE50EFCFEAFFE96EEF7CE552E7CFD9FFD2
:1022A0001200656A0F01366B0001606B00D01200EE
:1022B0000001605114E1656A0F01366B160E396F2B
:1022C0009F0E376F7B0E366FD08EA288A088F28E5D
:1022D00065B602D06586FCD70001010E606F120062
:1022E0001E0EE66E010EE66ECFEC0FF0E552E552E3
:1022F000040E00016A1502E0010E01D0000E0B6E03
:102300000C6A0BBE0C68050ED8900B360C36E8062E
:10231000FBE1000E0B260A0E0C226AC0E9FF6BC01F
:10232000EAFF020EE926000EEA220BC0EEFF0CC007
:10233000EDFF00016A75040E6A1502E0010E01D07E
:10234000000E0B6E0C6A0BBE0C68050ED8900B3697
:102350000C36E806FBE1000E0B260A0E0C226AC0C2
:10236000E9FF6BC0EAFF020EE926000EEA220BC06D
:10237000EEFF0CC0EDFF00016A75F1DAF0DA040E31
:102380000001701502E0010E01D0000E0B6E0C6A08
:102390000BBE0C68050ED8900B360C36E806FBE138
:1023A000400E0B260A0E0C2270C0E9FF71C0EAFF36
:1023B000020EE926000EEA220BC0EEFF0CC0EDFF74
:1023C00000017075040E701502E0010E01D0000EC0
:1023D0000B6E0C6A0BBE0C68050ED8900B360C36D3
:1023E000E806FBE1400E0B260A0E0C2270C0E9FF46
:1023F00071C0EAFF020EE926000EEA220BC0EEFFD2
:102400000CC0EDFF000170751E0EE66E020EE66E4A
:10241000CFEC0FF0E552E552040E00016C1502E01E
:10242000010E01D0000E0B6E0C6A0BBE0C68050E7F
:10243000D8900B360C36E806FBE1800E0B260A0E10
:102440000C226CC0E9FF6DC0EAFF020EE926000E07
:10245000EA220BC0EEFF0CC0EDFF00016C75040E0C
:102460006C1502E0010E01D0000E0B6E0C6A0BBE63
:102470000C68050ED8900B360C36E806FBE1800E92
:102480000B260A0E0C226CC0E9FF6DC0EAFF020E9B
:10249000E926000EEA220BC0EEFF0CC0EDFF0001A2
:1024A0006C75DEDBDDDB040E0001721502E0010E4F
:1024B00001D0000E0B6E0C6A0BBE0C68050ED89096
:1024C0000B360C36E806FBE1C00E0B260A0E0C227A
:1024D00072C0E9FF73C0EAFF020EE926000EEA228D
:1024E0000BC0EEFF0CC0EDFF00017275040E7215FB
:1024F00002E0010E01D0000E0B6E0C6A0BBE0C68E0
:10250000050ED8900B360C36E806FBE1C00E0B2604
:102510000A0E0C2272C0E9FF73C0EAFF020EE92620
:10252000000EEA220BC0EEFF0CC0EDFF0001727539
:10253000120004013051600BE842E842E842E842F0
:10254000E842020801E046D031510F0A26E0010AB4
:1025500001E040D0FF0E34150B6E0C6A010E0B1813
:1025600001E10C500DE132510B01066F0001060E26
:10257000766F0B0E776F7881010E796F788F0CD0A4
:1025800032510B01026F0001020E766F0B0E776F56
:102590007881010E796F788F1DD0FF0E34150B6E88
:1025A0000C6A010E0B1801E10C500AE10001060E45
:1025B000766F0B0E776F7881010E796F788F09D067
:1025C0000001020E766F0B0E776F7881010E796F26
:1025D000788F00D0120012000B01030E026F036F00
:1025E000046B056B066F076F086B096B1200D9CF80
:1025F000E6FFE1CFD9FFE652DF6A0B01006B016B0A
:10260000FB0EDBCF0BF0FC0EDBCF0CF00B50005DB4
:102610000C50015919E2DF50DF2AE66EFD0EDB5047
:1026200000250F01E96EFE0EDB500B0101210F01A9
:10263000EA6EE552E750EF6EDF5001E1DF2A0B0151
:10264000002B000E0123DCD7E552E552E7CFD9FF7E
:1026500012001AEC17F0200E0001E76E6019E8AEC8
:1026600002D0E73402D0E750605D03E36550020B0F
:1026700002E0B2DF2ED00B010351025D04E0046BD7
:10268000056B02CB03FB0251030A0AE0010A06E0D4
:10269000030A02E064D906D01DD804D060D902D064
:1026A000A2D800D00B010751065D04E0086B096B4E
:1026B00006CB07FB0651030A0AE0010A06E0030AFB
:1026C00002E0CEDA06D0A2D904D0CADA02D00FDAFC
:1026D00000D01200D9CFE6FFE1CFD9FF040EE126EA
:1026E00000017051711102E1000E08D070C0E9FFC5
:1026F00071C0EAFFEF50800B01E0010E000969E1B3
:10270000200EDE6EDD6A70C0E9FF71C0EAFF020EC6
:10271000E926000EEA22020EEECFDBFF030EEDCF1C
:10272000DBFFD9CFE9FFDACFEAFF000ED880EE5405
:10273000000EED5427E2030E0B01045D10E2042BA2
:10274000DECFE6FFDDCFE6FF020EDBCFE6FF030EB6
:10275000DBCFE6FF4CDFE552E552E552E5520B01D7
:102760000551052BE66E010EE76E020EDBCFE9FF89
:10277000030EDBCFEAFFE750E926000EEA22E5521E
:10278000E750EF6E70C0E9FF71C0EAFF020EE92664
:10279000000EEA22020EDBCFEEFF030EDBCFEDFFD1
:1027A00070C0E9FF71C0EAFFEE52DFCFEFFF70C0EB
:1027B000E9FF71C0EAFFEF50400B80090809E66E9F
:1027C00070C0E9FF71C0EAFFE552E750EF6E00010B
:1027D0007075040EE15C02E2E16AE552E16EE552D9
:1027E000E7CFD9FF1200D9CFE6FFE1CFD9FF060E20
:1027F000E12600016A516B1102E1000E08D06AC0A7
:10280000E9FF6BC0EAFFEF50800B01E0010E000909
:1028100001E09BD000017051711102E1000E08D05F
:1028200070C0E9FF71C0EAFFEF50800B01E0010EBC
:10283000000901E08AD06AC0E9FF6BC0EAFF020E1E
:10284000E926000EEA22040EEECFDBFF050EEDCFE7
:10285000DBFF70C0E9FF71C0EAFF020EE926000E3F
:10286000EA22020EEECFDBFF030EEDCFDBFF6AC0E4
:10287000E9FF6BC0EAFFEF50000EF3500D6E0E6AD9
:10288000000E0D16030E0E166AC0E9FF6BC0EAFFBC
:10289000EE52EF5000010D240B6E000E0E200C6E58
:1028A0000BC0DEFF0CC0DDFF70C0E9FF71C0EAFFA6
:1028B000020EE926000EEA22040EDBCFEEFF050E23
:1028C000DBCFEDFF70C0E9FF71C0EAFFEE52DFCF52
:1028D000EFFF70C0E9FF71C0EAFFEF50400B8009C5
:1028E0000809E66E70C0E9FF71C0EAFFE552E750E3
:1028F000EF6E00017075200EDE6EDD6A6AC0E9FFC2
:102900006BC0EAFF020EE926000EEA22020EDBCFC0
:10291000EEFF030EDBCFEDFF6AC0E9FF6BC0EAFFFD
:10292000EE52DFCFEFFF6AC0E9FF6BC0EAFFEF5066
:10293000400B80090809E66E6AC0E9FF6BC0EAFF38
:10294000E552E750EF6E00016A75060EE15C02E2A7
:10295000E16AE552E16EE552E7CFD9FF1200D9CF27
:10296000E6FFE1CFD9FF040EE12600016A516B11A9
:1029700002E1000E08D06AC0E9FF6BC0EAFFEF5029
:10298000800B01E0010E000937E1200EDE6EDD6AEA
:102990006AC0E9FF6BC0EAFF020EE926000EEA22D8
:1029A000020EEECFDBFF030EEDCFDBFF6AC0E9FFC7
:1029B0006BC0EAFF020EE926000EEA22020EDBCF10
:1029C000EEFF030EDBCFEDFF6AC0E9FF6BC0EAFF4D
:1029D000EE52DFCFEFFF6AC0E9FF6BC0EAFFEF50B6
:1029E000400B80090809E66E6AC0E9FF6BC0EAFF88
:1029F000E552E750EF6E6A75040EE15C02E2E16AAF
:102A0000E552E16EE552E7CFD9FF1200D9CFE6FFDC
:102A1000E1CFD9FF020EE12600017251731102E1EC
:102A2000000E08D072C0E9FF73C0EAFFEF50800BC0
:102A300001E0010E000951E172C0E9FF73C0EAFF35
:102A4000020EE926000EEA22EECFDEFFEDCFDDFF1B
:102A5000030E0B01085D0DE2082B200EE66EE66A00
:102A6000DECFE6FFDDCFE6FFC2DDE552E552E552FF
:102A7000E5520B010951092BE66EDECFE9FFDDCFF0
:102A8000EAFF010EE926000EEA22E552E750EF6E5A
:102A900072C0E9FF73C0EAFF020EE926000EEA22C7
:102AA000DECFEEFFDDCFEDFF72C0E9FF73C0EAFFBE
:102AB000EE52200EEF6E72C0E9FF73C0EAFFEF50D6
:102AC000400B80090809E66E72C0E9FF73C0EAFF97
:102AD000E552E750EF6E00017275020EE15C02E212
:102AE000E16AE552E16EE552E7CFD9FF1200D9CF96
:102AF000E6FFE1CFD9FF060EE12600016C516D1112
:102B000002E1000E08D06CC0E9FF6DC0EAFFEF5093
:102B1000800B01E0010E000901E098D00001725124
:102B2000731102E1000E08D072C0E9FF73C0EAFF22
:102B3000EF50800B01E0010E000901E087D06CC06E
:102B4000E9FF6DC0EAFF020EE926000EEA22040E3C
:102B5000EECFDBFF050EEDCFDBFF72C0E9FF73C0E8
:102B6000EAFF020EE926000EEA22020EEECFDBFF9C
:102B7000030EEDCFDBFF6CC0E9FF6DC0EAFFEF5045
:102B8000000EF3500D6E0E6A000E0D16030E0E169B
:102B90006CC0E9FF6DC0EAFFEE52EF5000010D245A
:102BA0000B6E000E0E200C6E0BC0DEFF0CC0DDFFA6
:102BB00072C0E9FF73C0EAFF020EE926000EEA22A6
:102BC000040EDBCFEEFF050EDBCFEDFF72C0E9FF99
:102BD00073C0EAFFEE52DFCFEFFF72C0E9FF73C0B0
:102BE000EAFFEF50400B80090809E66E72C0E9FF6A
:102BF00073C0EAFFE552E750EF6E000172756CC0DA
:102C0000E9FF6DC0EAFF020EE926000EEA22020E7D
:102C1000DBCFEEFF030EDBCFEDFF6CC0E9FF6DC035
:102C2000EAFFEE52200EEF6E6CC0E9FF6DC0EAFFC6
:102C3000EF50400B80090809E66E6CC0E9FF6DC0DB
:102C4000EAFFE552E750EF6E00016C75060EE15C9D
:102C500002E2E16AE552E16EE552E7CFD9FF1200E8
:102C6000D9CFE6FFE1CFD9FF020EE12600016C517A
:102C70006D1102E1000E08D06CC0E9FF6DC0EAFFE3
:102C8000EF50800B01E0010E000930E16CC0E9FF5C
:102C90006DC0EAFF020EE926000EEA22EECFDEFF4B
:102CA000EDCFDDFF6CC0E9FF6DC0EAFF020EE92643
:102CB000000EEA22DECFEEFFDDCFEDFF6CC0E9FFB4
:102CC0006DC0EAFFEE52200EEF6E6CC0E9FF6DC0E2
:102CD000EAFFEF50400B80090809E66E6CC0E9FF7F
:102CE0006DC0EAFFE552E750EF6E6C75020EE15CD5
:102CF00002E2E16AE552E16EE552E7CFD9FF120048
:102D0000DACFE4FFE2CFDAFFE9CFE4FFEACFE4FF76
:102D1000F6CFE4FFF7CFE4FFF5CFE4FFF3CFE4FF16
:102D2000F4CFE4FFFACFE4FF00EE00F00B0EE8046E
:102D300003E3EECFE4FFFBD700EE0BF0040EE80454
:102D400003E3EECFE4FFFBD7E6529FEC08F0E55239
:102D500000EE0EF0040EE80403E3E5CFEDFFFBD731
:102D600000EE0AF00B0EE80403E3E5CFEDFFFBD71E
:102D7000E5CFFAFFE5CFF4FFE5CFF3FFE5CFF5FFB1
:102D8000E5CFF7FFE5CFF6FFE5CFEAFFE5CFE9FFB7
:102D9000E5CFDAFF1100D8CFE4FFE0CFE4FFE46E27
:102DA000DACFE4FFE2CFDAFFE652E552E5CFDAFF11
:102DB000E550E5CFE0FFE5CFD8FF10000001A06BA4
:102DC000A16B06D858EC11F029EC13F0FDD71200D6
:102DD000D9CFE6FFE1CFD9FF020EE1260F0EC112D7
:102DE000580EDE6E020EDD6E9B8CDFCF0BF0DF0621
:102DF000010EDBCF0CF001E2DB060B500C1001E002
:102E0000F4D70F01486949690CD80FEC08F0020E9D
:102E1000E15C02E2E16AE552E16EE552E7CFD9FFFB
:102E20001200FC0E8D16961693840001010E9F6F02
:102E3000ECEF12F00001A051A11104E1100EA06FFF
:102E4000270EA16FA007000EA15B65A20AD0A051BA
:102E5000A11106E18D708DA002D08D8201D08D92DE
:102E60002ED00001605103E18D908D9228D0600535
:102E700003E18D808D8223D0020E605D03E18D80A1
:102E80008D921DD0040E605D03E18D908D8217D070
:102E9000100E605D07E10001A051A11102E18D70EB
:102EA0008D920DD0200E605D0AE10001A051A111AC
:102EB00006E18D708DA002D08D9201D08D8212001E
:102EC000120012001200120065840001080EA26FA9
:102ED000070EA36FA207000EA35BA251A311FAE194
:102EE00065941200D9CFE6FFE1CFD9FFFD0EDBCF0D
:102EF00006F0FE0EDBCF07F0720E061801E1075058
:102F000036E0E868061802E17F0E07182EE0740E1E
:102F1000061801E1075027E0750E061801E1075079
:102F200020E0730E061801E1075019E0030E0618A1
:102F300001E1075011E0020E061801E1075009E017
:102F4000010E061801E1075001E013D070EC11F0FA
:102F500011D0EBEC12F00ED099EC12F00BD0B2DFE6
:102F600009D0AEDF07D0ADDF05D0ADDF03D0000064
:102F700001D000D0010E00D0E552E7CFD9FF1200FA
:102F800012010002EF020108D8042EFA010001022A
:102F9000030109023F00020100C032080B000200D9
:102FA00000000009040000020000000407050102FF
:102FB0002000000705810220000009040100020032
:102FC000000005070502022000000705820220001C
:102FD000001C03420065006E00630068006D006124
:102FE0000072006B0020004F006E0065001C034261
:102FF0000065006E00630068006D00610072006B88
:10300000002000540077006F00922F040309042071
:1030100003540072006100760069007300200052C2
:10302000006F00620069006E0073006F006E002C7C
:10303000034400750061006C002000420065006ED2
:1030400000630068006D00610072006B00200044A6
:1030500000650076006900630065000E034C0055B2
:103060000053004200570032000B300F302F305B0E
:0530700030D12FED2F0F
:0A307600060EF66E100EF76E000E47
:10308000F86E00010900F5509A6F0900F5509B6F2A
:1030900003E19A6701D03DD00900F550956F090012
:1030A000F550966F0900F550976F09000900F5502B
:1030B000E96E0900F550EA6E090009000900F550B3
:1030C000986F0900F550996F09000900F6CF9CF040
:1030D000F7CF9DF0F8CF9EF095C0F6FF96C0F7FFB2
:1030E00097C0F8FF0001985302E1995307E00900E7
:1030F000F550EE6E9807F8E29907F9D79CC0F6FFF5
:103100009DC0F7FF9EC0F8FF00019A07000E9B5B71
:04311000BFD7120013
:0C311400FE0EE3CFE9FFFF0EE3CFEAFF61
:10312000E9CFF3FFEACFF4FFFB0EE35003E1FC0E1F
:10313000E35009E0FB0EE30602E2FC0EE306FD0E9F
:08314000E350EE6EF1D712001E
:08314800C00EF36E00EE00F072
:103150000E0E01D81200EA6002D0EE6AFCD7F350DE
:08316000E9601200EE6AFCD7E1
:083168001DEE00F02DEE00F059
:10317000F86A0A9C3BEC18F007EC08F0DEEC16F05D
:04318000FBD7120067
:01FFF800AA5E
:01FFF900F710
:01FFFA001DE9
:01FFFB00FF06
:01FFFC0063A1
:01FFFD00F80B
:01FFFE008181
:01FFFF00F110
:00000001FF
