:0A08020000010202030304040505CF
:10033300E4F513F512F511F510C203C200C202C2AF
:100343000112080C7E067F008E238F24752B067501
:100353002C1275210675221C752906752A4A752DDE
:1003630006752E78EE54C0700302043875140075B8
:1003730015808E168F17C3749A9FFF74069ECF2421
:1003830002CF3400FEE48F0F8E0EF50DF50CF50B46
:10039300F50AF509F508AF0FAE0EAD0DAC0CAB0BBE
:1003A300AA0AA909A808C31207E55037E517250BC0
:1003B300F582E516350AF583E0FFE515250BF58291
:1003C300E514350AF583EFF0E4FAF9F8E50B2401B7
:1003D300F50BEA350AF50AE93509F509E83508F5B3
:1003E3000880B385142385152474002480FF7406C4
:1003F30034FFFEC3E52C9FF52CE52B9EF52BC3E5BF
:10040300269FF526E5259EF525C3E5289FF528E5D6
:10041300279EF527C3E5229FF522E5219EF521C3FB
:10042300E52A9FF52AE5299EF529C3E52E9FF52E9A
:10043300E52D9EF52DD2E843D82090E668E04409E7
:10044300F090E65CE0443DF0D2AF90E680E020E13E
:1004530005D2041206D290E680E054F7F0538EF8EA
:10046300C2031204FF300105120080C2013003F2FF
:100473001204FD50EDC20312075820001690E682C5
:10048300E030E704E020E1EF90E682E030E604E0CC
:0B04930020E0E412070112082880C7D7
:01049E00223B
:0B05F50090E509E030E402C322D322AD
:1000800090E6B9E0700302016B14700302021424BD
:10009000FE70030202AA24FB7003020165147003C0
:1000A00002015F147003020153147003020159240A
:1000B00005600302031F12082A400302032B90E687
:1000C000BBE024FE603B14605624FD6016146040C3
:1000D00024067075E52390E6B3F0E52490E6B4F0CD
:1000E00002032B1205F5500FE52B90E6B3F0E52C3B
:1000F00090E6B4F002032B90E6A0E04401F0020386
:100100002BE52590E6B3F0E52690E6B4F002032B4C
:10011000E52790E6B3F0E52890E6B4F002032B90D3
:10012000E6BAE0FF12072DAA06A9077B01EA494BB0
:10013000600DEE90E6B3F0EF90E6B4F002032B9082
:10014000E6A0E04401F002032B90E6A0E04401F0B9
:1001500002032B1207D302032B12081C02032B12DB
:10016000081402032B1207C102032B12082C4003B0
:1001700002032B90E6B8E0247F602B14603C24023D
:10018000600302020AA200E433FF25E0FFA202E4BA
:10019000334F90E740F0E4A3F090E68AF090E68BCE
:1001A0007402F002032BE490E740F0A3F090E68A9B
:1001B000F090E68B7402F002032B90E6BCE0547ED4
:1001C000FF7E00E0D3948040067C007D0180047CAB
:1001D000007D00EC4EFEED4F2402F58274083EF5E2
:1001E00083E493FF3395E0FEEF24A1FFEE34E68F26
:1001F00082F583E0540190E740F0E4A3F090E68AB2
:10020000F090E68B7402F002032B90E6A0E044012C
:10021000F002032B12082E400302032B90E6B8E0F5
:1002200024FE601D2402600302032B90E6BAE0B4B2
:100230000105C20002032B90E6A0E04401F0020396
:100240002B90E6BAE0705990E6BCE0547EFF7E0049
:10025000E0D3948040067C007D0180047C007D001A
:10026000EC4EFEED4F2402F58274083EF583E493D4
:10027000FF3395E0FEEF24A1FFEE34E68F82F58395
:10028000E054FEF090E6BCE05480FF131313541FBB
:10029000FFE0540F2F90E683F0E04420F002032BA0
:1002A00090E6A0E04401F002032B120830507C904D
:1002B000E6B8E024FE60202402705B90E6BAE0B469
:1002C0000104D200806590E6BAE06402605D90E6C9
:1002D000A0E04401F0805490E6BCE0547EFF7E0034
:1002E000E0D3948040067C007D0180047C007D008A
:1002F000EC4EFEED4F2402F58274083EF583E49344
:10030000FF3395E0FEEF24A1FFEE34E68F82F58304
:10031000E04401F0801590E6A0E04401F0800C126A
:100320000832500790E6A0E04401F090E6A0E044D7
:0203300080F05B
:0103320022A8
:030033000208249C
:0408240053D8EF3284
:08080C0090E605E054FDF02226
:0104FF0022DA
:0204FD00D32208
:02082800D322D9
:02082A00D322D7
:0808140090E6BAE0F51BD322C7
:1007C10090E740E51BF0E490E68AF090E68B04F0B8
:0207D100D32231
:08081C0090E6BAE0F51AD322C0
:1007D30090E740E51AF0E490E68AF090E68B04F0A7
:0207E300D3221F
:02082C00D322D5
:02082E00D322D3
:02083000D322D1
:02083200D322CF
:1004E500C0E0C083C082D2015391EF90E65D7401F4
:0804F500F0D082D083D0E03288
:10079500C0E0C083C0825391EF90E65D7404F0D051
:0607A50082D083D0E03297
:1007AB00C0E0C083C0825391EF90E65D7402F0D03D
:0607BB0082D083D0E03281
:10069C00C0E0C083C082852925852A2685268285CF
:1006AC002583A37402F0852127852228852882853D
:1006BC002783A37407F05391EF90E65D7410F0D08C
:0606CC0082D083D0E03271
:10077D00C0E0C083C082D2035391EF90E65D740850
:08078D00F0D082D083D0E032ED
:1005B800C0E0C083C08290E680E030E72085212536
:1005C800852226852682852583A37402F08529271E
:1005D800852A28852882852783A37407F05391EFFD
:0D05E80090E65D7420F0D082D083D0E03228
:010834003291
:010835003290
:01083600328F
:01083700328E
:01083800328D
:01083900328C
:01083A00328B
:01083B00328A
:01083C003289
:01083D003288
:01083E003287
:01083F003286
:010840003285
:010841003284
:010842003283
:010843003282
:010844003281
:010845003280
:01084600327F
:01084700327E
:01084800327D
:01084900327C
:01084A00327B
:01084B00327A
:01084C003279
:01084D003278
:01084E003277
:01084F003276
:010850003275
:010851003274
:010852003273
:010853003272
:010854003271
:010855003270
:01085600326F
:01085700326E
:100600001201000200000040B404041000000102C6
:1006100000010A06000200000040010009022E004D
:1006200001010080320904000004FF0000000705FA
:10063000020200020007050402000200070586020C
:100640000002000705880200020009022E000101D5
:100650000080320904000004FF00000007050202C8
:100660004000000705040240000007058602400024
:10067000000705880240000004030904100343003A
:100680007900700072006500730073000E0345006E
:0C0690005A002D005500530042000000ED
:03004300020500B3
:03005300020500A3
:100500000204E5000207AB000207950002077D0028
:1005100002069C000205B8000208340002083500FB
:1005200002083600020837000208380002083900C5
:1005300002083A0002083B0002083C0002083D00A5
:1005400002083E000208350002083F000208400091
:100550000208410002084200020843000208440069
:10056000020845000208350002083500020835007F
:100570000208460002084700020848000208490035
:1005800002084A0002084B0002084C0002084D0015
:1005900002084E0002084F000208500002085100F5
:1005A00002085200020853000208540002085500D5
:0805B000020856000208570082
:1007010090E682E030E004E020E60B90E682E03003
:10071100E119E030E71590E680E04401F07F147EB6
:0C0721000012049F90E680E054FEF022DD
:1006D20030040990E680E0440AF0800790E680E06A
:1006E2004408F07FDC7E0512049F90E65D74FFF003
:0F06F20090E65FF05391EF90E680E054F7F0222E
:02072D00A9071A
:10072F00AE2DAF2E8F828E83A3E064037017AD01C1
:10073F0019ED7001228F828E83E07C002FFDEC3E3D
:08074F00FEAF0580DFE4FEFFB0
:01075700227F
:1007580090E682E044C0F090E681F0438701000013
:04076800000000226B
:10049F008E188F1990E600E054187012E519240198
:1004AF00FFE43518C313F518EF13F519801590E60F
:1004BF0000E05418FFBF100BE51925E0F519E518FA
:1004CF0033F518E5191519AE18700215184E600599
:0604DF0012076C80EE2202
:10076C007400F58690FDA57C05A3E582458370F9A0
:01077C00225A
:030000000207F6FE
:0C07F600787FE4F6D8FD75812E020333F5
:1007E500EB9FF5F0EA9E42F0E99D42F0E89C45F06A
:0107F50022E1
:00000001FF
