:020000040000FA
:0600000022EF16F01200D1
:0600080004EF08F01200F5
:060018000CEF08F01200DD
:0610000022EF16F01200C1
:061008001DEF12F01200C2
:0610180068EF12F0120067
:06102A000100622C000031
:08103000A80000000800000008
:08103800D9CFE6FFE1CFD9FF9B
:10104000E652A09A6A6A686A706A010EE66EE66AFB
:10105000E66A710EE66E0F0EE66EF8EC15F00B6E9A
:10106000050EE15E0B50160E6F6E9F0E6B6E7B0EC3
:10107000696EDF6ADF500B6E0C6A080E0B5C000EA7
:101080000C5810E2DF50040DF3CFE9FFF4CFEAFF74
:10109000000EE926040EEA22EE6AEE6AEE6AEE6AB5
:1010A000DF2AE8D76D8C6E6A6D986D9C68A609D0B2
:1010B00068960001736B0001786B0001796B7A6BA5
:1010C000F5D70001010E8A6F0001010E8B6F000140
:1010D0008C6B00018D6B0001806BDF6A020EDF5CA0
:1010E00026E2EA6ADF34FE0BEA36E96E6B0EE92689
:1010F000000EEA22EE6AED6AEA6ADF34FE0BEA3697
:10110000E96E670EE926000EEA22EE6AED6ADF500C
:10111000EA6A840FE96E000EEA22EF6ADF50EA6A9B
:10112000860FE96E000EEA22EF6ADF2AD7D70001A8
:10113000080E6B6F040E6C6F160E706E0401200E9D
:10114000026F040E036F0401080E016F0401840E88
:10115000006F0001616B0001606BE552E552E7CF63
:10116000D9FF1200D9CFE6FFE1CFD9FFE652000147
:10117000600508E16DBA06D0686A69806988000177
:10118000020E606F6850040B06E06950040B03E028
:10119000689409EC0FF06DA202D0A19A9FD068501C
:1011A000010B09E06950010B06E046DFA08A00014F
:1011B000040E606F68906850100B06E06950100BC9
:1011C00003E0F3EC0EF0689868AC1BD069AC0FD06C
:1011D000010EE66EE66A000EE66EE66A730EE66ED5
:1011E000E66A0BEC14F00B6E060EE15E0B50689C89
:1011F0000001885102E0000188070001885101E1E7
:1012000011DA6850200B05E06950200B02E0DAEC9F
:101210000EF06850020B13E06950020B10E0010E53
:10122000E66EE66A000EE66EE66AE6687F0EE66E39
:101230000BEC14F00B6E060EE15E0B506A6A040EA6
:101240000001E76E6019E8AE02D0E73402D0E75043
:10125000605D02E2A19A42D069A63FD0DF6A040E27
:10126000DF5C3BE268A636D06CCF81F00001815193
:10127000780BE842E842E8420001826F689600017C
:1012800081B509D000018251EA6A860FE96E000E2D
:10129000EA22EF7008D000018251EA6A840FE96EF9
:1012A000000EEA22EF700001825103E121EC0FF001
:1012B00010D0000EE66EE66A810EE66E000EE66E57
:1012C000720EE66EE66A0BEC14F00B6E060EE15E33
:1012D0000B5001D002D0DF2AC2D7A19AE552E552C5
:1012E000E7CFD9FF1200D9CFE6FFE1CFD9FF020E39
:1012F000E126FD0EDBA407D0E66AFE0EDBCFE6FF9B
:101300002CDAE552E552FD0EDBA208D0010EE66EA6
:10131000FE0EDBCFE6FF21DAE552E552FE0EDB5092
:101320000C6A700F0B6E0F0E0C220BC0DEFF0CC090
:10133000DDFFDECFE9FFDDCFEAFFFD0EDBCFEFFF04
:10134000020EE15C02E2E16AE552E16EE552E7CFAE
:10135000D9FF1200D9CFE6FFE1CFD9FF020EE12677
:10136000FD0EDB500FE0FE0EEA6ADB34FE0BEA36C0
:10137000E96E6B0EE926000EEA22EECFDEFFEDCF1E
:10138000DDFF0ED0FE0EEA6ADB34FE0BEA36E96EB4
:10139000670EE926000EEA22EECFDEFFEDCFDDFF7D
:1013A000D9CFE9FFDACFEAFFEE50ED1003E1F36A9F
:1013B000F46A49D0DECFE9FFDDCFEAFF020EE9266D
:1013C000000EEA22FB0EDBCFEEFFFC0EDBCFEDFFC3
:1013D000DECFE9FFDDCFEAFFEE52FA0EDBCFEFFF03
:1013E000400E0B6EDECFE9FFDDCFEAFF0B50EF16AC
:1013F000880E0B6EDECFE9FFDDCFEAFF0B50EF1258
:10140000FD0EDB500CE0FE0EEA6ADB34FE0BEA3622
:10141000E96E6B0EE926000EEA22EF740BD0FE0E89
:10142000EA6ADB34FE0BEA36E96E670EE926000E47
:10143000EA22EF74DECF0BF0DDCF0CF00BC0F3FF30
:101440000CC0F4FF00D0020EE15C02E2E16AE5525A
:10145000E16EE552E7CFD9FF1200D9CFE6FFE1CF29
:10146000D9FF020EE126FE0EDB5020E165C0E9FF48
:1014700066C0EAFFEE52080EEF6E65C0E9FF66C077
:10148000EAFF020EE926000EEA22200EEE6E040E9E
:10149000ED6E65C0E9FF66C0EAFF8C0EEF6E6BC0B3
:1014A000E9FF6CC0EAFF840EEF6E3DD0FD0EDB500D
:1014B000E8240D6EFE0EDB50040DF3500D24040DD8
:1014C000F3CF0BF0F4CF0CF0000E0B26040E0C2221
:1014D0000BC0DEFF0CC0DDFF840E0B6EDECFE9FF1C
:1014E000DDCFEAFF0B50EF12FD0EDB50E8240D6E4E
:1014F000FE0EDB50040DF3500D24010F040DF3CF4D
:101500000BF0F4CF0CF0000E0B26040E0C220BC0D7
:10151000DEFF0CC0DDFF840E0B6EDECFE9FFDDCFFA
:10152000EAFF0B50EF12020EE15C02E2E16AE552C3
:10153000E16EE552E7CFD9FF1200D9CFE6FFE1CF48
:10154000D9FF6DA84ED0FE0EEA6ADB34FE0BEA36F8
:10155000E96E6B0EE926000EEA22EE50EFCFEAFFAD
:10156000E96E400EEE16EE6AEE6AEE6AFE0EEA6A6A
:10157000DB34FE0BEA36E96E6B0EE926000EEA223A
:10158000EE50EFCFEAFFE96EEE7CFE0EEA6ADB3446
:10159000FE0BEA36E96E6B0EE926000EEA22EF74C6
:1015A000400E0B6EFE0EEA6ADB34FE0BEA36E96E85
:1015B0006B0EE926000EEA22EE50EFCFEAFFE96E4D
:1015C0000B50EF16FE0EEA6ADB34FE0BEA36E96ECC
:1015D0006B0EE926000EEA22EE50EFCFEAFFE96E2D
:1015E000EF7CE552E7CFD9FF12006D6A696A00010E
:1015F000606B00D012000001605113E16D6A696AEE
:10160000160E6F6E9F0E6B6E7B0E696ED08EA28A69
:10161000A08AF28E6DB602D06D86FCD70001010E55
:10162000606F120000018A5154E10001010E8A6FBF
:1016300000018B514EE10001010E8B6F020E000183
:10164000705D0DE16BC0E9FF6CC0EAFFEE52EF6A1E
:101650006BC0E9FF6CC0EAFFC80EEF6E3AD0000124
:10166000700537E10001836B63C0E9FF64C0EAFFE6
:10167000EE52080EEF6E63C0E9FF64C0EAFF020E8F
:10168000E926000EEA22200EEE6E040EED6E63C017
:10169000E9FF64C0EAFF840EEF6E0001010E836F64
:1016A00065C0E9FF66C0EAFFEE52080EEF6E65C046
:1016B000E9FF66C0EAFF020EE926000EEA22200ECC
:1016C000EE6E040EED6E65C0E9FF66C0EAFF800EA7
:1016D000EF6E120000018C6B00018D6B020E000199
:1016E000705D1AE165C0E9FF66C0EAFFEE52080EC0
:1016F000EF6E65C0E9FF66C0EAFF020EE926000E44
:10170000EA22280EEE6E040EED6E65C0E9FF66C09B
:10171000EAFFC80EEF6E20D0000174510401265D6F
:10172000000175510401275904E226C474F027C44E
:1017300075F0DBD86BC0E9FF6CC0EAFF020EE9264A
:10174000000EEA22280EEE6E040EED6E6BC0E9FF6D
:101750006CC0EAFFC80EEF6E1200D9CFE6FFE1CFF2
:10176000D9FF020EE126000EDE6E040EDD6EFD0EC8
:10177000DB50E8240D6EFE0EDB50040DF3500D24FB
:10178000040DF3CF0BF0F4CF0CF0D9CFE9FFDACF93
:10179000EAFF0B50EE260C50ED22DECFE9FFDDCF45
:1017A000EAFFEF9EFD0EDB500FE1FE0EEA6ADB342E
:1017B000FE0BEA36E96E670EE926000EEA22DECF5E
:1017C000EEFFDDCFEDFF0ED0FE0EEA6ADB34FE0B3E
:1017D000EA36E96E6B0EE926000EEA22DECFEEFF56
:1017E000DDCFEDFFDECFE9FFDDCFEAFFEF9CDECFFF
:1017F000E9FFDDCFEAFF040EE926000EEA22EF8CB6
:10180000020EE15C02E2E16AE552E16EE552E7CFE9
:10181000D9FF12006D98000173BF2FD0000178AF7F
:101820000CD00001020E706F00018D5101E152DFFA
:1018300000018B6B00018A6B1FD065C0E9FF66C099
:10184000EAFFEE52080EEF6E65C0E9FF66C0EAFFE0
:10185000020EE926000EEA22200EEE6E040EED6E58
:1018600065C0E9FF66C0EAFF8C0EEF6E6BC0E9FF52
:101870006CC0EAFF840EEF6E37D0040120AF10D0A9
:101880000001010E706F00018C5101E123DF0001A6
:101890008B6B00018A6B0001895101E1C3DE24D00A
:1018A0000001020E706F65C0E9FF66C0EAFFEE52EC
:1018B000080EEF6E65C0E9FF66C0EAFF020EE9267A
:1018C000000EEA22200EEE6E040EED6E65C0E9FFFA
:1018D00066C0EAFF840EEF6E00018B6B00018A6B1D
:1018E0000001895101E19EDE1200D9CFE6FFE1CF70
:1018F000D9FFE652080EDF6E0001080E745D000E7F
:1019000075590FE274C0DFFF00016F5104E100015F
:10191000010E6F6F06D000016F0503E10001020E9A
:101920006F6FDF500B6E0C6A0B500001745D00018D
:10193000746F0C50000175590001756F6BC0E9FFA1
:101940006CC0EAFFEE52DFCFEFFF0001280E7D6F83
:10195000040E7E6F000173B11BD0DF5018E0000150
:1019600071C0F6FF72C0F7FF712B000E72230800E2
:10197000F550E66E00017DC0E9FF7EC0EAFF7D2BD9
:10198000000E7E23E552E750EF6EDF06E6D719D052
:10199000DF5017E0000171C0E9FF72C0EAFF712B50
:1019A000000E7223EF50E66E00017DC0E9FF7EC09D
:1019B000EAFF7D2B000E7E23E552E750EF6EDF0637
:1019C000E7D7E552E552E7CFD9FF1200D9CFE6FFBE
:1019D000E1CFD9FF020EE12663C0E9FF64C0EAFF50
:1019E000EE52EFCFDFFFDFCF0BF00B500001795D40
:1019F000000E7A5902E279C0DFFFDF500B6E0C6AED
:101A00000B500001795D0001796F0C5000017A598B
:101A100000017A6F010EDB6ADF50F36E010EDBCF3F
:101A2000F4FFF350F45C17E2010EDB50EA6A280F72
:101A3000E96E040EEA22EF50E66E000176C0E9FF7F
:101A400077C0EAFF762B000E7723E552E750EF6E62
:101A5000010EDB2AE1D70001000ED8807955000E77
:101A60007A5528E265C0E9FF66C0EAFFEE52080E2B
:101A7000EF6E65C0E9FF66C0EAFF020EE926000EC0
:101A8000EA22280EEE6E040EED6E63C0E9FF64C01C
:101A9000EAFFEF50400B07E165C0E9FF66C0EAFFCF
:101AA000C80EEF6E06D065C0E9FF66C0EAFF880E7B
:101AB000EF6E2AD065C0E9FF66C0EAFFEE52080E5D
:101AC000EF6E65C0E9FF66C0EAFF020EE926000E70
:101AD000EA22200EEE6E040EED6E65C0E9FF66C0D0
:101AE000EAFF840EEF6E00017B517C1107E005D008
:101AF0007CC0FAFF00017B51F96EFADF0001789F8C
:101B00000001895101E18EDD020EE15C02E2E16A31
:101B1000E552E16EE552E7CFD9FF1200D9CFE6FFDB
:101B2000E1CFD9FFE6520001738F010EE66EE66A3F
:101B3000E66A710EE66E0F0EE66EF8EC15F00B6EAF
:101B4000050EE15E0B50200EE66EE66AE66A000EB8
:101B5000E66E040EE66EF8EC15F00B6E050EE15E17
:101B60000B506D8CDF6A020EDF5C10E2DF50EA6A18
:101B7000840FE96E000EEA22EF6ADF50EA6A860FF0
:101B8000E96E000EEA22EF6ADF2AEDD7010EE66E5B
:101B9000E66AE66A620EE66E000EE66EF8EC15F096
:101BA0000B6E050EE15E0B506D9C0001080E6B6F15
:101BB000040E6C6F0001000E636F040E646F63C04F
:101BC00065F064C066F022C461F00001615104E177
:101BD0000001100E606F13D0010EE66EE66A610E12
:101BE000E66E000EE66E010EE66EE66A0BEC14F091
:101BF0000B6E060EE15E0B500001200E606FE55289
:101C0000E552E7CFD9FF1200800E0401205D61E1AB
:101C10000001C00E736F04012351030A35E0010A6D
:101C20000DE0030A01E052D00001900E716F2A0E00
:101C3000726F120E0001746F756B4BD0040122514C
:101C4000F66EF76AD890F636F7364A0EF6262B0E61
:101C5000F7220900F5CF71F00A00F5CF72F0020EFD
:101C60000001F76A7125F66E7251F7220800F5CF70
:101C700074F0030E0001F76A7125F66E7251F722B7
:101C80000800F5CF75F025D0030E0401225D1BE29C
:101C900004012251F66EF76AD890F636F7364C0EEC
:101CA000F6262B0EF7220900F5CF71F00A00F5CFCA
:101CB00072F071C0F6FF72C0F7FF0800F550000126
:101CC000746F756B02D00001736B03D00001736BEE
:101CD00000D01200D9CFE6FFE1CFD9FF020EE126F6
:101CE0000401286B0401296B040120511F0B020A17
:101CF00012E0030A0DE0010A01E045D00001738FF4
:101D00000401288100017F0502E1040128833BD002
:101D10000001738F38D00001738F040124BF11D0EC
:101D2000040124510F0BE96EEA6AD890E936EA36CD
:101D3000670EE926000EEA22EECFDEFFEDCFDDFFD3
:101D400010D0040124510F0BE96EEA6AD890E936ED
:101D5000EA366B0EE926000EEA22EECFDEFFEDCF6B
:101D6000DDFFDECFE9FFDDCFEAFFEF50800B0AE0B9
:101D7000DECFE9FFDDCFEAFFEF50040B03E0040103
:101D8000010E286F00D0000173AF0AD00001280EA9
:101D9000716F040E726F000173810001020E746F87
:101DA000020EE15C02E2E16AE552E16EE552E7CF44
:101DB000D9FF120070A015D063C0E9FF64C0EAFF2C
:101DC000EF5080080DE16BC0E9FF6CC0EAFFEF50F7
:101DD000840806E163C0E9FF64C0EAFF8C0EEF6E81
:101DE0007090689A1200698468986D820001010EF3
:101DF000806F000EE66EE66A000EE66EE66A750E0D
:101E0000E66EE66A0BEC14F00B6E060EE15E0B500C
:101E100012000001806B000EE66EE66A000EE66EB0
:101E2000E66A740EE66EE66A0BEC14F00B6E060EB4
:101E3000E15E0B506D92699468A402D06894FCD75F
:101E40001200D9CFE6FFE1CFD9FFE65200012D0EF7
:101E5000886FFD0E0001811558E17E0E000181158D
:101E6000E8407F0B040DF3CF63F0F4CF64F0000E75
:101E700000016327040E0001642363C065F064C0A1
:101E800066F00001657563C0E9FF64C0EAFFEF50CA
:101E90003C0BE842E8420D0836E1DF6A080EDF5CE1
:101EA00024E263C0E9FF64C0EAFF020EE926000EE7
:101EB000EA22EE50EFCFEAFFE96EEF50E66EDF5018
:101EC000EA6A200FE96E040EEA22E552E750EF6E4F
:101ED00063C0E9FF64C0EAFF020EE926000EEA22B1
:101EE000EE2A000EEF22DF2AD9D763C0E9FF64C0D3
:101EF000EAFF020EE926000EEA22200EEE6E040E24
:101F0000ED6E0ED801D047D806D0FD0E0001811528
:101F1000040801E168D8E552E552E7CFD9FF120085
:101F200000016F6B0001896B00018C6B00018D6BF0
:101F30000001836B0001706B6BC0E9FF6CC0EAFFAE
:101F4000EF9E00016B756BC0E9FF6CC0EAFFEF9E6E
:101F500000016B7565C0E9FF66C0EAFFEF9E0001F6
:101F6000736B0001746B756B0001786B0001796B0A
:101F70007A6B9AD8000EE66EE66A000EE66EE66AA6
:101F8000030EE66EE66A0BEC14F00B6E060EE15ED5
:101F90000B5040DC1200020E0001705D02E116DD04
:101FA00021D00001706B000183511AE165C0E9FF87
:101FB00066C0EAFFEE52080EEF6E65C0E9FF66C02C
:101FC000EAFF020EE926000EEA22200EEE6E040E53
:101FD000ED6E65C0E9FF66C0EAFF8C0EEF6E02D0C1
:101FE0000001836B1200D9CFE6FFE1CFD9FFE652A3
:101FF0006BC0E9FF6CC0EAFFEF50400B01E0010E3F
:10200000DF6E00016B75080E0001605D0BE122C4FC
:102010006EFF6E5004E00001100E606F03D00001EF
:10202000040E606F0001700528E16BC0E9FF6CC011
:10203000EAFF020EE926000EEA22280EEE6E040EDA
:10204000ED6E53DC020E00016F5D07E16BC0E9FF2E
:102050006CC0EAFF840EEF6E0FD0DF5007E16BC05B
:10206000E9FF6CC0EAFFC80EEF6E06D06BC0E9FF57
:102070006CC0EAFF880EEF6E12D0000178AF0DD071
:1020800000017B517C1107E005D07CC0FAFF000104
:102090007B51F96EFADF0001789F0001706BE55209
:1020A000E552E7CFD9FF120004012051600BE8424E
:1020B000E842E842E842E842000901E064D0040155
:1020C00021510C0A5FE00B0A4DE00C0A3FE0010AC7
:1020D0002AE00B0A26E0020A24E0030A20E0080AAC
:1020E00011E0010A0DE00F0A09E0030A01E04AD0FD
:1020F0000001738F0001080E606F45D085DD43D06D
:102100000DDD41D00001610E716F000E726F000194
:1021100073810001010E746F0001738F34D0DADD1A
:1021200032D032D830D0040124510001716F726B6B
:10213000620E00017127000E0001722300017381FD
:102140000001010E746F0001738F1DD00001738FA9
:1021500004012451EA6A620FE96E000EEA2222C4E9
:10216000EFFF11D0000EE66EE66A000EE66EE66A3C
:10217000020EE66EE66A0BEC14F00B6E060EE15EE4
:102180000B5001D000D01200D9CFE6FFE1CFD9FF2C
:10219000050EE1260401220511E1040120511F0B67
:1021A00000090CE10001738F030E0401215D04E1BD
:1021B0000001010E7F6F02D000017F6B04012251EC
:1021C00001E031D1040120511F0B020801E02BD1A5
:1021D000040124510F0B000901E125D10401245110
:1021E0000F0B010801E21FD1200E0001605D01E02C
:1021F0001AD10001738F040124BF1CD004012451A3
:102200000F0BE96EEA6AD890E936EA36670EE926DE
:10221000000EEA22EECFDEFFEDCFDDFF04012451F8
:102220000F0BEA6A860FE96E000EEA22020EEFCF6C
:10223000DBFF1BD0040124510F0BE96EEA6AD89032
:10224000E936EA366B0EE926000EEA22EECFDEFF13
:10225000EDCFDDFF040124510F0BEA6A840FE96E14
:10226000000EEA22020EEFCFDBFFD950020FE96E1B
:10227000DACFEAFFEF50010B03E1000EDB9401D04F
:10228000DF84040124BF11D0040124510F0BE96E37
:10229000EA6AD890E936EA36670EE926000EEA22A5
:1022A000DECFEEFFDDCFEDFF10D0040124510F0B88
:1022B000E96EEA6AD890E936EA366B0EE926000E36
:1022C000EA22DECFEEFFDDCFEDFF030E0401215D3C
:1022D00026E1DECFE9FFDDCFEAFFEF50800B16E00D
:1022E000040124BF0AD0040124510F0BEA6A860FAF
:1022F000E96E000EEA22EF8209D0040124510F0B8F
:10230000EA6A840FE96E000EEA22EF82840E0B6EF9
:10231000DECFE9FFDDCFEAFF0B50EF1284D0DF7490
:10232000DECFE9FFDDCFEAFFEF50800B1BE0DECF11
:10233000E9FFDDCFEAFFEF9EDECFE9FFDDCFEAFF69
:10234000EF8C020EE66EE66ADECFE6FFDDCFE6FF3B
:10235000050EE66EE66A0BEC14F00B6E060EE15EFF
:102360000B5005D0DECFE9FFDDCFEAFFEF8CDF7445
:10237000D950020FE96EDACFEAFFEF50020B07E106
:10238000DECFE9FFDDCFEAFFEF50800B2FE0040145
:1023900024BF0AD0040124510F0BEA6A860FE96EAC
:1023A000000EEA22EF9209D0040124510F0BEA6AD1
:1023B000840FE96E000EEA22EF923B0E0B6EDECF29
:1023C000E9FFDDCFEAFF0B50EF16020EE66EE66A7C
:1023D000DECFE6FFDDCFE6FF050EE66EE66A0BEC2C
:1023E00014F00B6E060EE15E0B5008D03B0E0B6E28
:1023F000DECFE9FFDDCFEAFF0B50EF1604012451D9
:102400000F0B0C6A700F0B6E0F0E0C22030E0BC01D
:10241000DBFF040E0CC0DBFF030EDBCFE9FF040E75
:10242000DBCFEAFFEF90050EE15C02E2E16AE552E4
:0A243000E16EE552E7CFD9FF12007C
:06243A00DACFE4FFE2CF5F
:10244000DAFFE9CFE4FFEACFE4FFF6CFE4FFF7CF0E
:10245000E4FFF5CFE4FFF3CFE4FFF4CFE4FFFACFDE
:10246000E4FF00EE00F00B0EE80403E3EECFE4FF20
:10247000FBD700EE0BF0030EE80403E3EECFE4FF1E
:10248000FBD7E652B2EC08F0E55200EE0DF0030E79
:10249000E80403E3E5CFEDFFFBD700EE0AF00B0EF7
:1024A000E80403E3E5CFEDFFFBD7E5CFFAFFE5CF87
:1024B000F4FFE5CFF3FFE5CFF5FFE5CFF7FFE5CF7D
:1024C000F6FFE5CFEAFFE5CFE9FFE5CFDAFF110040
:1024D000D8CFE4FFE0CFE4FFE46EDACFE4FFE2CF51
:1024E000DAFFE652E552E5CFDAFFE550E5CFE0FF4F
:1024F000E5CFD8FF100005D8FBEC0AF01ED8FED7B8
:1025000012000F0EC11203D81CEC08F01200F00EDE
:102510008C16F00E95169388938A9280010EC26EE7
:102520003C0EC06EC08E0001A86BA96B0001AA6BA7
:10253000AB6B0001010EAC6F1200D9CFE6FFE1CF0B
:10254000D9FF030EE126DF6A010EDB6A020EDB6AA9
:102550000001AC5101E0C4D8200E0001E76E601903
:10256000E8AE02D0E73402D0E750605D03E36D507F
:10257000020B01E088D00001AD51740A48E0060A60
:1025800001E080D00001A851A91102E1000E08D09D
:10259000A8C0E9FFA9C0EAFFEF50800B01E0010EDF
:1025A000000934E1A8C0E9FFA9C0EAFFEE52EF50EC
:1025B000E66ED950010FE96EDACFEAFFE552E75037
:1025C000EE6EED6AD950010FE96EDACFEAFF000E28
:1025D000D880EE54000EED5419E2DF50010813E3E9
:1025E000DF50EA6A000FE96E050EEA22EF50E66E50
:1025F000DF50EA6A400FE96E050EEA22E552E75025
:10260000EF6EDF2AEAD70001740EAD6F3CD00001F7
:10261000AA51AB1102E1000E08D0AAC0E9FFABC07D
:10262000EAFFEF50800B01E0010E00092AE1020EE3
:10263000E66E400EE66E050EE66E010EE66E010ECB
:10264000E66EAAEC09F00B6E050EE15E0B50F3CFBF
:10265000AAF0F4CFABF0400EE66E000EE66E050E6B
:10266000E66EE66A010EE66EAAEC09F00B6E050E48
:10267000E15E0B50F3CFA8F0F4CFA9F00001720E89
:10268000AD6F01D000D0030EE15C02E2E16AE552D9
:10269000E16EE552E7CFD9FF1200D9CFE6FFE1CFD7
:1026A000D9FF020EE126DE6ADD6AC282C2B2FED71F
:1026B000C350DF6E010EC4CFDBFFDECF0BF0DDCFEA
:1026C0000CF00BC0F3FF0CC0F4FF00D0020EE15C75
:1026D00002E2E16AE552E16EE552E7CFD9FF12006E
:1026E0000001AE51AF1105E10001100EAE6F270ED3
:1026F000AF6F0001AE07000EAF5B6DA20BD0000103
:10270000AE51AF1106E18C708CA002D08C8201D04A
:102710008C9233D00001605103E18C908C922DD0CB
:102720000001600503E18C808C8227D0020E00013D
:10273000605D03E18C808C9220D0040E0001605D0E
:1027400003E18C908C8219D0100E0001605D07E1CE
:102750000001AE51AF1102E18C708C920ED0200EB0
:102760000001605D0AE10001AE51AF1106E18C701D
:102770008CA002D08C9201D08C8212001200120028
:1027800012001200CCEC14F0120012001E0EE66EC5
:10279000010EE66E73EC09F0E552E552400EE66E6E
:1027A000000EE66E050EE66EE66A010EE66EAAEC17
:1027B00009F00B6E050EE15E0B50F3CFA8F0F4CFDD
:1027C000A9F0120000017F0525E10001800522E14A
:1027D000A09AD5DF6D920001806B0001100E9C6FF6
:1027E0000E0E9D6F00019C07000E9D5B00019C5129
:1027F0009D11F8E16D840001080E9C6F070E9D6F1E
:1028000000019C07000E9D5B00019C519D11F8E1A9
:102810006D94A08A1200D9CFE6FFE1CFD9FFFD0E5B
:10282000DBCF06F0FE0EDBCF07F0050E061801E148
:10283000075039E0E868061802E17F0E071831E01A
:10284000030E061801E107502AE0020E061801E106
:10285000075023E0010E061801E107501CE0740E3A
:10286000061801E1075015E0750E061801E1075042
:102870000EE0730E061801E1075007E0720E06180D
:1028800001E1075001E010D010D07ADF0ED076DFE2
:102890000CD075DF0AD07ADF08D077DF06D072DF80
:1028A00004D06FDF02D001D000D0010E00D0E5527D
:1028B000E7CFD9FF120004012351030A0BE0010AFC
:1028C00001E010D00401225101E002D0020E0CD030
:1028D000000E0AD00401225101E002D0030E04D000
:1028E000000E02D0000E00D012000401230510E1FA
:1028F000040122510CE100018E0E716F000E726F07
:10290000020E0001746F756B0001C10E736F13D05E
:10291000030E0401235D0FE1040122510CE10001CB
:10292000940E716F000E726F020E0001746F756B62
:102930000001C10E736F12000000BDDF030A17E033
:10294000010A01E028D00401225110E126C479F0E7
:1029500027C47AF000018E0E766F000E776F0001AB
:10296000EA0E7B6F280E7C6F0001788F14D0040173
:10297000225110E126C479F027C47AF00001940EA8
:10298000766F000E776F0001EA0E7B6F280E7C6F6A
:082990000001788F00D0120055
:08299800040120511F0B01088E
:1029A00001E075D00401245101E071D0060E04014C
:1029B000215D27E104012351230A22E0010A13E0EB
:1029C000030A01E01ED0000161050CE10001B40E14
:1029D000716F2A0E726F090E0001746F756B000122
:1029E000C00E736F0ED000011B0E716F2B0E726F35
:1029F0002F0E0001746F756B0001C00E736F01D054
:102A000000D004012051600BE842E842E842E8426D
:102A1000E842010801E03BD0040121510B0A31E0FA
:102A2000080A22E0090A1AE0080A0BE00B0A06E08D
:102A3000080A01E02CD075EC14F029D09CEC14F0BD
:102A400026D00001B00E716F000E726F010E0001F2
:102A5000746F756B0001C10E736F19D00001800E89
:102A6000736F23C4B0F013D00001B10E716F000E6C
:102A7000726F010E0001746F756B0001810E736F30
:102A800006D00001800E736F22C4B1F000D0120096
:102A90001201000200000008250901700100010276
:102AA000000109022900010100C0320904000002EE
:102AB00003000000092111010001222F00070581F8
:102AC0000340000107050103400001040309043429
:102AD000034D006900630072006F006300680069C5
:102AE000007000200054006500630068006E006FF5
:102AF000006C006F0067007900200049006E0063E1
:102B0000002E001803470065006E00650072006922
:102B1000006300200048004900440006A0FF0901AE
:102B2000A1010903150026FF00750895028102091D
:102B300004150026FF00750895029102090515008D
:102B400026FF0075089502B102C0A22ACB2ACF2A1F
:022B5000032B55
:0E2B52002A0EF66E100EF76E000EF86E0001E1
:102B60000900F550A36F0900F550A46F03E1A367B6
:102B700001D03DD00900F5509E6F0900F5509F6FC0
:102B80000900F550A06F09000900F550E96E090031
:102B9000F550EA6E090009000900F550A16F09001F
:102BA000F550A26F09000900F6CFA5F0F7CFA6F007
:102BB000F8CFA7F09EC0F6FF9FC0F7FFA0C0F8FFB8
:102BC0000001A15302E1A25307E00900F550EE6EA7
:102BD000A107F8E2A207F9D7A5C0F6FFA6C0F7FF44
:102BE000A7C0F8FF0001A307000EA45BBFD7120027
:102BF000FE0EE3CFE9FFFF0EE3CFEAFFE9CFF3FFDD
:102C0000EACFF4FFFB0EE35003E1FC0EE35009E0D2
:102C1000FB0EE30602E2FC0EE306FD0EE350EE6E51
:042C2000F1D71200D6
:0C2C2400000EF36E00EE00F0080E01D868
:102C30001200EA6002D0EE6AFCD7F350E96012009D
:042C4000EE6AFCD765
:0C2C440013EE00F023EE00F0F86A0A9C8A
:102C5000A9EC15F030EC16F07BEC12F0FBD712006B
:022C6000120060
:082C62000000000001720000F7
:020000040030CA
:0100000024DB
:010001000EF0
:010002003FBE
:010003001EDE
:010005008179
:010006008178
:010008000FE8
:01000900C036
:01000A000FE6
:01000B00E014
:01000C000FE4
:01000D0040B2
:00000001FF
