:020000040000FA
:0600000093EF15F0120061
:0600080004EF08F01200F5
:060018000CEF08F01200DD
:0610000093EF15F0120051
:06100800A6EF11F012003A
:06101800F1EF11F01200DF
:06102A000100522B000042
:081030002E0F00000800000073
:08103800D9CFE6FFE1CFD9FF9B
:10104000E652A098636A626A0F014C6B010EE66E6D
:10105000E66AE66A4D0EE66E0F0EE66E79EC15F066
:101060000B6E050EE15E0B500F01160E5F6F9F0EAB
:101070005D6F7B0E5C6FDF6ADF500B6E0C6A080ED3
:101080000B5C000E0C5810E2DF50040DF3CFE9FFAB
:10109000F4CFEAFF000EE926040EEA22EE6AEE6AB9
:1010A000EE6AEE6ADF2AE8D7658C0F015E6B659801
:1010B000659C62A607D062960F01136B186B196BC3
:1010C0001A6BF7D70F01010E2A6F2B6F2C6B2D6B4C
:1010D000206BDF6A020EDF5C26E2EA6ADF34FE0B79
:1010E000EA36E96E0B0EE9260F0EEA22EE6AED6A89
:1010F000EA6ADF34FE0BEA36E96E070EE9260F0EC8
:10110000EA22EE6AED6ADF50EA6A240FE96E0F0EFA
:10111000EA22EF6ADF50EA6A260FE96E0F0EEA2232
:10112000EF6ADF2AD7D70F01080E0B6F040E0C6F82
:101130000F01160E4C6F0401200E026F040E036F98
:10114000080E016F840E006F0F01016B006BE552FA
:10115000E552E7CFD9FF1200D9CFE6FFE1CFD9FFA3
:10116000E6520F01000509E165BA07D0626A0F0176
:101170005C815C890F01020E006F6250040B07E076
:101180000F015C51040B03E06294CAEC0EF065A2FF
:1011900002D0A1989DD06250010B0AE00F015C5172
:1011A000010B06E049DFA0880F01040E006F62907A
:1011B0006250100B07E00F015C51100B03E0B4EC20
:1011C0000EF0629862AC1AD00F015CAD0FD0010E28
:1011D000E66EE66A000EE66EE66A730EE66EE66A94
:1011E000A5EC13F00B6E060EE15E0B50629C0F0136
:1011F000285101E02807285101E110DA6250200B44
:1012000006E00F015C51200B02E09AEC0EF06250F8
:10121000020B14E00F015C51020B10E0010EE66EB0
:10122000E66A000EE66EE66AE6687F0EE66EA5ECFC
:1012300013F00B6E060EE15E0B50636A040E0F0195
:10124000E76E0019E8AE02D0E73402D0E750005D47
:1012500002E2A1983DD00F015CA739D0DF6A040EED
:10126000DF5C35E262A632D064CF21FF0F0121514D
:10127000780BE842E842E842226F629621B508D036
:101280002251EA6A260FE96E0F0EEA22EF7007D0AC
:101290002251EA6A240FE96E0F0EEA22EF70225102
:1012A00003E1E2EC0EF010D0000EE66EE66A210ECD
:1012B000E66E0F0EE66E720EE66EE66AA5EC13F0B1
:1012C0000B6E060EE15E0B50DF2AC9D700D0A19845
:1012D000E552E552E7CFD9FF1200D9CFE6FFE1CFC3
:1012E000D9FF020EE126FD0EDBA407D0E66AFE0E52
:1012F000DBCFE6FF24DAE552E552FD0EDBA208D093
:10130000010EE66EFE0EDBCFE6FF19DAE552E5527E
:10131000FE0EDB500C6A4C0F0B6E0F0E0C220BC036
:10132000DEFF0CC0DDFFDECFE9FFDDCFEAFFFD0E03
:10133000DBCFEFFF020EE15C02E2E16AE552E16E13
:10134000E552E7CFD9FF1200D9CFE6FFE1CFD9FFB1
:10135000020EE126FD0EDB500FE0FE0EEA6ADB34E2
:10136000FE0BEA36E96E0B0EE9260F0EEA22EECFEF
:10137000DEFFEDCFDDFF0ED0FE0EEA6ADB34FE0BA2
:10138000EA36E96E070EE9260F0EEA22EECFDEFFFF
:10139000EDCFDDFFD9CFE9FFDACFEAFFEE50ED1058
:1013A00003E1F36AF46A49D0DECFE9FFDDCFEAFF5B
:1013B000020EE926000EEA22FB0EDBCFEEFFFC0E4A
:1013C000DBCFEDFFDECFE9FFDDCFEAFFEE52FA0E15
:1013D000DBCFEFFF400E0B6EDECFE9FFDDCFEAFF84
:1013E0000B50EF16880E0B6EDECFE9FFDDCFEAFF64
:1013F0000B50EF12FD0EDB500CE0FE0EEA6ADB3400
:10140000FE0BEA36E96E0B0EE9260F0EEA22EF74A8
:101410000BD0FE0EEA6ADB34FE0BEA36E96E070EED
:10142000E9260F0EEA22EF74DECF0BF0DDCF0CF0D1
:101430000BC0F3FF0CC0F4FF00D0020EE15C02E22F
:10144000E16AE552E16EE552E7CFD9FF1200D9CF4C
:10145000E6FFE1CFD9FF020EE126FE0EDB5020E1D0
:1014600005CFE9FF06CFEAFFEE52080EEF6E05CF7B
:10147000E9FF06CFEAFF020EE926000EEA22200E5F
:10148000EE6E040EED6E05CFE9FF06CFEAFF8C0E7F
:10149000EF6E0BCFE9FF0CCFEAFF840EEF6E3DD06D
:1014A000FD0EDB50E8240D6EFE0EDB50040DF350F4
:1014B0000D24040DF3CF0BF0F4CF0CF0000E0B262F
:1014C000040E0C220BC0DEFF0CC0DDFF840E0B6E81
:1014D000DECFE9FFDDCFEAFF0B50EF12FD0EDB5050
:1014E000E8240D6EFE0EDB50040DF3500D24010FA9
:1014F000040DF3CF0BF0F4CF0CF0000E0B26040E0E
:101500000C220BC0DEFF0CC0DDFF840E0B6EDECFA5
:10151000E9FFDDCFEAFF0B50EF12020EE15C02E2C1
:10152000E16AE552E16EE552E7CFD9FF1200D9CF6B
:10153000E6FFE1CFD9FF65A84ED0FE0EEA6ADB34A4
:10154000FE0BEA36E96E0B0EE9260F0EEA22EE508C
:10155000EFCFEAFFE96E400EEE16EE6AEE6AEE6A33
:10156000FE0EEA6ADB34FE0BEA36E96E0B0EE92664
:101570000F0EEA22EE50EFCFEAFFE96EEE7CFE0E90
:10158000EA6ADB34FE0BEA36E96E0B0EE9260F0E33
:10159000EA22EF74400E0B6EFE0EEA6ADB34FE0B9D
:1015A000EA36E96E0B0EE9260F0EEA22EE50EFCF77
:1015B000EAFFE96E0B50EF16FE0EEA6ADB34FE0B13
:1015C000EA36E96E0B0EE9260F0EEA22EE50EFCF57
:1015D000EAFFE96EEF7CE552E7CFD9FF1200656ABA
:1015E0000F015C6B0F01006B00D012000F01005166
:1015F00014E1656A0F015C6B160E5F6F9F0E5D6FE5
:101600007B0E5C6FD08EA288A088F28E65B602D069
:101610006586FCD70F01010E006F12000F012A51E1
:101620004DE1010E2A6F2B5149E1010E2B6F020E85
:10163000105D0DE10BCFE9FF0CCFEAFFEE52EF6A30
:101640000BCFE9FF0CCFEAFFC80EEF6E37D01005C5
:1016500035E1236B03CFE9FF04CFEAFFEE52080E1A
:10166000EF6E03CFE9FF04CFEAFF020EE926000E7A
:10167000EA22200EEE6E040EED6E03CFE9FF04CFDA
:10168000EAFF840EEF6E010E236F05CFE9FF06CF50
:10169000EAFFEE52080EEF6E05CFE9FF06CFEAFF34
:1016A000020EE926000EEA22200EEE6E040EED6E0A
:1016B00005CFE9FF06CFEAFF800EEF6E12000F01A3
:1016C0002C6B2D6B020E105D1AE105CFE9FF06CFE2
:1016D000EAFFEE52080EEF6E05CFE9FF06CFEAFFF4
:1016E000020EE926000EEA22280EEE6E040EED6EC2
:1016F00005CFE9FF06CFEAFFC80EEF6E1FD01451E9
:101700000401265D0F0115510401275904E226C486
:1017100014FF27C415FFD1D80BCFE9FF0CCFEAFF88
:10172000020EE926000EEA22280EEE6E040EED6E81
:101730000BCFE9FF0CCFEAFFC80EEF6E1200D9CF36
:10174000E6FFE1CFD9FF020EE126000EDE6E040EA9
:10175000DD6EFD0EDB50E8240D6EFE0EDB50040D39
:10176000F3500D24040DF3CF0BF0F4CF0CF0D9CFD0
:10177000E9FFDACFEAFF0B50EE260C50ED22DECF68
:10178000E9FFDDCFEAFFEF9EFD0EDB500FE1FE0E1D
:10179000EA6ADB34FE0BEA36E96E070EE9260F0E25
:1017A000EA22DECFEEFFDDCFEDFF0ED0FE0EEA6ABD
:1017B000DB34FE0BEA36E96E0B0EE9260F0EEA2249
:1017C000DECFEEFFDDCFEDFFDECFE9FFDDCFEAFFBD
:1017D000EF9CDECFE9FFDDCFEAFF040EE926000E25
:1017E000EA22EF8C020EE15C02E2E16AE552E16E70
:1017F000E552E7CFD9FF120065980F0113BF2BD038
:1018000018AF09D0020E106F2D5101E158DF0F0102
:101810002B6B2A6B1FD005CFE9FF06CFEAFFEE52F4
:10182000080EEF6E05CFE9FF06CFEAFF020EE926AC
:10183000000EEA22200EEE6E040EED6E05CFE9FFDB
:1018400006CFEAFF8C0EEF6E0BCFE9FF0CCFEAFF5D
:10185000840EEF6E31D0040120AF0DD00F01010EC8
:10186000106F2C5101E12BDF0F012B6B2A6B2951DB
:1018700001E1D4DE21D00F01020E106F05CFE9FF88
:1018800006CFEAFFEE52080EEF6E05CFE9FF06CF56
:10189000EAFF020EE926000EEA22200EEE6E040E8A
:1018A000ED6E05CFE9FF06CFEAFF840EEF6E2B6BDE
:1018B0002A6B295101E1B2DE1200D9CFE6FFE1CF58
:1018C000D9FFE652080EDF6E0F01145D000E1559A8
:1018D0000BE214CFDFFF0F5103E1010E0F6F04D0B5
:1018E0000F0502E1020E0F6FDF500B6E0C6A0B50FA
:1018F000145D146F0C501559156F0BCFE9FF0CCF09
:10190000EAFFEE52DFCFEFFF280E1D6F040E1E6FB1
:1019100013B119D0DF5016E011CFF6FF12CFF7FF49
:10192000112B000E12230800F550E66E1DCFE9FFC3
:101930001ECFEAFF1D2B000E1E23E552E750EF6E6F
:10194000DF06E8D717D0DF5015E011CFE9FF12CF3F
:10195000EAFF112B000E1223EF50E66E1DCFE9FFB8
:101960001ECFEAFF1D2B000E1E23E552E750EF6E3F
:10197000DF06E9D7E552E552E7CFD9FF1200D9CF0C
:10198000E6FFE1CFD9FF020EE12603CFE9FF04CF46
:10199000EAFFEE52EFCFDFFFDFCF0BF00B500F016E
:1019A000195D000E1A5902E219CFDFFFDF500B6EEE
:1019B0000C6A0B50195D196F0C501A591A6F010EF1
:1019C000DB6ADF50F36E010EDBCFF4FFF350F45C03
:1019D00016E2010EDB50EA6A280FE96E040EEA22D5
:1019E000EF50E66E16CFE9FF17CFEAFF162B000E79
:1019F0001723E552E750EF6E010EDB2AE2D7000E07
:101A0000D8801955000E1A5528E205CFE9FF06CFF8
:101A1000EAFFEE52080EEF6E05CFE9FF06CFEAFFB0
:101A2000020EE926000EEA22280EEE6E040EED6E7E
:101A300003CFE9FF04CFEAFFEF50400B07E105CFEA
:101A4000E9FF06CFEAFFC80EEF6E06D005CFE9FF2B
:101A500006CFEAFF880EEF6E28D005CFE9FF06CF4C
:101A6000EAFFEE52080EEF6E05CFE9FF06CFEAFF60
:101A7000020EE926000EEA22200EEE6E040EED6E36
:101A800005CFE9FF06CFEAFF840EEF6E1B511C1154
:101A900007E005D01CCFFAFF0F011B51F96EFADFEA
:101AA0000F01189F295101E1B9DD020EE15C02E24C
:101AB000E16AE552E16EE552E7CFD9FF1200D9CFD6
:101AC000E6FFE1CFD9FFE6520F01138F010EE66E5C
:101AD000E66AE66A4D0EE66E0F0EE66E79EC15F0DC
:101AE0000B6E050EE15E0B50200EE66EE66AE66AAE
:101AF000000EE66E040EE66E79EC15F00B6E050E28
:101B0000E15E0B50658CDF6A020EDF5C10E2DF5095
:101B1000EA6A240FE96E0F0EEA22EF6ADF50EA6AE2
:101B2000260FE96E0F0EEA22EF6ADF2AEDD7010ECB
:101B3000E66EE66AE66A020EE66E0F0EE66E79EC77
:101B400015F00B6E050EE15E0B50659C0F01080E43
:101B50000B6F040E0C6F000E036F040E046F03CFA7
:101B600005FF04CF06FF22C401FF015103E1100E5F
:101B7000006F13D0010EE66EE66A010EE66E0F0EE0
:101B8000E66E010EE66EE66AA5EC13F00B6E060E2D
:101B9000E15E0B500F01200E006FE552E552E7CFDA
:101BA000D9FF1200800E0401205D5BE10F01C00E21
:101BB000136F04012351030A34E0010A0EE0030A03
:101BC00003E00F01136B4DD00F01920E116F290E20
:101BD000126F120E146F156B44D02251F66EF76A15
:101BE000D890F636F7364C0EF6262A0EF722090064
:101BF000F5CF11FF0A00F5CF12FF020E0F01F76AB1
:101C00001125F66E1251F7220800F5CF14FF030ECE
:101C1000F76A1125F66E1251F7220800F5CF15FF6D
:101C200020D0030E225D1AE22251F66EF76AD89098
:101C3000F636F7364E0EF6262A0EF7220900F5CFB5
:101C400011FF0A00F5CF12FF11CFF6FF12CFF7FFF9
:101C50000800F5500F01146F156B02D00F01136BC4
:101C600000D01200D9CFE6FFE1CFD9FF020EE12666
:101C70000401286B296B20511F0B020A12E0030A92
:101C80000DE0010A01E042D00F01138F0401288109
:101C90000F011F0502E10401288338D00F01138FC3
:101CA00035D00F01138F040124BF10D024510F0B26
:101CB000E96EEA6AD890E936EA36070EE9260F0E91
:101CC000EA22EECFDEFFEDCFDDFF0FD024510F0B68
:101CD000E96EEA6AD890E936EA360B0EE9260F0E6D
:101CE000EA22EECFDEFFEDCFDDFFDECFE9FFDDCF75
:101CF000EAFFEF50800B09E0DECFE9FFDDCFEAFF1E
:101D0000EF50040B02E0010E286F00D00F0113AF5B
:101D100007D0280E116F040E126F1381020E146F7C
:101D2000020EE15C02E2E16AE552E16EE552E7CFC4
:101D3000D9FF12000F014CA115D003CFE9FF04CF4A
:101D4000EAFFEF5080080DE10BCFE9FF0CCFEAFF6F
:101D5000EF50840806E103CFE9FF04CFEAFF8C0EC1
:101D6000EF6E4C91629A12000F015C856298658259
:101D70000F01010E206F000EE66EE66AE66EE66A5F
:101D8000750EE66EE66AA5EC13F00B6E060EE15ECC
:101D90000B5012000F01206B000EE66EE66AE66E35
:101DA000E66A740EE66EE66AA5EC13F00B6E060E9C
:101DB000E15E0B5065920F015C9562A402D06294C3
:101DC000FCD71200D9CFE6FFE1CFD9FFE6520F01D1
:101DD0002D0E286FFD0E211553E17E0E2115E840D2
:101DE0007F0B040DF3CF03FFF4CF04FF000E032796
:101DF000040E042303CF05FF04CF06FF057503CFB0
:101E0000E9FF04CFEAFFEF503C0BE842E8420D083F
:101E100035E1DF6A080EDF5C23E203CFE9FF04CF80
:101E2000EAFF020EE926000EEA22EE50EFCFEAFFAB
:101E3000E96EEF50E66EDF50EA6A200FE96E040E9D
:101E4000EA22E552E750EF6E03CFE9FF04CFEAFF45
:101E5000020EE926000EEA22EE2AEF22DF2ADAD766
:101E600003CFE9FF04CFEAFF020EE926000EEA22C3
:101E7000200EEE6E040EED6E0DD801D03AD805D0CE
:101E8000FD0E2115040801E159D8E552E552E7CFCE
:101E9000D9FF12000F010F6B296B2C6B2D6B236B7D
:101EA000106B0BCFE9FF0CCFEAFFEF9E0B750BCF4A
:101EB000E9FF0CCFEAFFEF9E0B7505CFE9FF06CFD8
:101EC000EAFFEF9E136B146B156B186B196B1A6B93
:101ED00092D8000EE66EE66AE66EE66A030EE66EDD
:101EE000E66AA5EC13F00B6E060EE15E0B50FCEFFC
:101EF0000BF0020E0F01105D02E141DD1ED0106BF0
:101F000023511AE105CFE9FF06CFEAFFEE52080E92
:101F1000EF6E05CFE9FF06CFEAFF020EE926000EBD
:101F2000EA22200EEE6E040EED6E05CFE9FF06CF1D
:101F3000EAFF8C0EEF6E01D0236B1200D9CFE6FFC3
:101F4000E1CFD9FFE6520BCFE9FF0CCFEAFFEF500C
:101F5000400B01E0010EDF6E0F010B75080E005DF6
:101F60000CE122C45EFF0F015E5104E00F01100E70
:101F7000006F03D00F01040E006F100528E10BCF96
:101F8000E9FF0CCFEAFF020EE926000EEA22280E36
:101F9000EE6E040EED6E91DC020E0F010F5D07E197
:101FA0000BCFE9FF0CCFEAFF840EEF6E0FD0DF50AE
:101FB00007E10BCFE9FF0CCFEAFFC80EEF6E06D0AA
:101FC0000BCFE9FF0CCFEAFF880EEF6E0FD018AFF2
:101FD0000CD01B511C1107E005D01CCFFAFF0F01DC
:101FE0001B51F96EFADF0F01189F106BE552E55295
:101FF000E7CFD9FF120004012051600BE842E8420C
:10200000E842E842E842000901E058D021510C0AB8
:1020100054E00B0A43E00C0A35E0010A26E00B0A03
:1020200022E0020A20E0030A1CE0080A10E0010A8C
:102030000CE00F0A08E0030A01E03FD00F01138F04
:10204000080E006F3BD0AEDD39D039DD37D00F013F
:10205000010E116F0F0E126F1381010E146F138F8B
:102060002DD000DE2BD02BD829D024510F01116F99
:10207000126B020E11270F0E12231381010E146F23
:10208000138F1CD00F01138F04012451EA6A020F31
:10209000E96E0F0EEA2222C4EFFF10D0000EE66EAA
:1020A000E66AE66EE66A020EE66EE66AA5EC13F0F4
:1020B0000B6E060EE15E0B5001D000D01200D9CF9E
:1020C000E6FFE1CFD9FF050EE1260401220510E16C
:1020D00020511F0B00090CE10F01138F030E0401A7
:1020E000215D04E10F01010E1F6F02D00F011F6B74
:1020F0000401225101E020D120511F0B020801E010
:102100001BD124510F0B000901E116D124510F0BF3
:10211000010801E211D1200E0F01005D01E00CD198
:10212000138F040124BF1AD024510F0BE96EEA6A01
:10213000D890E936EA36070EE9260F0EEA22EECFEE
:10214000DEFFEDCFDDFF24510F0BEA6A260FE96EAB
:102150000F0EEA22020EEFCFDBFF19D024510F0B36
:10216000E96EEA6AD890E936EA360B0EE9260F0ED8
:10217000EA22EECFDEFFEDCFDDFF24510F0BEA6A3E
:10218000240FE96E0F0EEA22020EEFCFDBFFD950CB
:10219000020FE96EDACFEAFFEF50010B03E1000E08
:1021A000DF9401D0DF8424BF10D024510F0BE96EDF
:1021B000EA6AD890E936EA36070EE9260F0EEA22D7
:1021C000DECFEEFFDDCFEDFF0FD024510F0BE96E18
:1021D000EA6AD890E936EA360B0EE9260F0EEA22B3
:1021E000DECFEEFFDDCFEDFF030E215D23E1DECF7D
:1021F000E9FFDDCFEAFFEF50800B13E024BF09D0E9
:1022000024510F0BEA6A260FE96E0F0EEA22EF82C5
:1022100008D024510F0BEA6A240FE96E0F0EEA2250
:10222000EF82840E0B6EDECFE9FFDDCFEAFF0B50AD
:10223000EF1282D0DF74DECFE9FFDDCFEAFFEF508F
:10224000800B1BE0DECFE9FFDDCFEAFFEF9EDECFA4
:10225000E9FFDDCFEAFFEF8C020EE66EE66ADECF25
:10226000E6FFDDCFE6FF050EE66EE66AA5EC13F0AD
:102270000B6E060EE15E0B5005D0DECFE9FFDDCF21
:10228000EAFFEF8CDF74D950020FE96EDACFEAFF74
:10229000EF50020B07E1DECFE9FFDDCFEAFFEF50A1
:1022A000800B2DE0040124BF09D024510F0BEA6AF2
:1022B000260FE96E0F0EEA22EF9208D024510F0B81
:1022C000EA6A240FE96E0F0EEA22EF923B0E0B6EC4
:1022D000DECFE9FFDDCFEAFF0B50EF16020EE66E10
:1022E000E66ADECFE6FFDDCFE6FF050EE66EE66AC4
:1022F000A5EC13F00B6E060EE15E0B5008D03B0E02
:102300000B6EDECFE9FFDDCFEAFF0B50EF160401C5
:1023100024510F0B0C6A4C0F0B6E0F0E0C22030E88
:102320000BC0DBFF040E0CC0DBFF030EDBCFE9FFAD
:10233000040EDBCFEAFFEF90050EE15C02E2E16AFA
:0C234000E552E16EE552E7CFD9FF120034
:04234C00DACFE4FF01
:10235000E2CFDAFFE9CFE4FFEACFE4FFF6CFE4FF14
:10236000F7CFE4FFF5CFE4FFF3CFE4FFF4CFE4FFD2
:10237000FACFE4FF00EE00F00B0EE80403E3EECF2B
:10238000E4FFFBD700EE0BF0030EE80403E3EECF0F
:10239000E4FFFBD7E652ACEC08F0E55200EE0DF09E
:1023A000030EE80403E3E5CFEDFFFBD700EE0AF0F0
:1023B0000B0EE80403E3E5CFEDFFFBD7E5CFFAFF13
:1023C000E5CFF4FFE5CFF3FFE5CFF5FFE5CFF7FF6E
:1023D000E5CFF6FFE5CFEAFFE5CFE9FFE5CFDAFF8E
:1023E0001100D8CFE4FFE0CFE4FFE46EDACFE4FFE2
:1023F000E2CFDAFFE652E552E5CFDAFFE550E5CF6E
:10240000E0FFE5CFD8FF100005D8F6EC0AF041D880
:10241000FED71200D9CFE6FFE1CFD9FF020EE126A9
:10242000580EDE6E020EDD6E9B8CDFCF0BF0DF06EA
:10243000010EDBCF0CF001E2DB060B500C1001E0CB
:10244000F4D7C088C168C268C0980CD81CEC08F0EA
:10245000020EE15C02E2E16AE552E16EE552E7CF8D
:10246000D9FF1200FC0E8D169616F30E8C169516DB
:1024700093889280C088C180C098010EC26EBE0E43
:10248000C16E0F012E6B2F6B306B316B010E326FF3
:102490001200D9CFE6FFE1CFD9FF030EE126DF6AB4
:1024A000010EDB6A020EDB6A0F01325101E0C0D877
:1024B000200E0F01E76E0019E8AE02D0E73402D01B
:1024C000E750005D03E36550020B01E084D00F018B
:1024D0003351740A47E0060A01E07DD02E512F11D6
:1024E00002E1000E08D02ECFE9FF2FCFEAFFEF5018
:1024F000800B01E0010E000934E12ECFE9FF2FCF60
:10250000EAFFEE52EF50E66ED950010FE96EDACFD6
:10251000EAFFE552E750EE6EED6AD950010FE96E21
:10252000DACFEAFF000ED880EE54000EED5419E227
:10253000DF50010813E3DF50EA6A600FE96E000E16
:10254000EA22EF50E66EDF50EA6AA00FE96E000E55
:10255000EA22E552E750EF6EDF2AEAD70F01740E48
:10256000336F39D03051311102E1000E08D030CF35
:10257000E9FF31CFEAFFEF50800B01E0010E0009C7
:1025800029E1020EE66EA00EE66E000EE66E010E6A
:10259000E66EE66EA4EC09F00B6E050EE15E0B50E4
:1025A000F3CF30FFF4CF31FF400EE66E600EE66EE3
:1025B000000EE66EE66A010EE66EA4EC09F00B6E04
:1025C000050EE15E0B50F3CF2EFFF4CF2FFF0F016E
:1025D000720E336F00D0030EE15C02E2E16AE55255
:1025E000E16EE552E7CFD9FF1200D9CFE6FFE1CF88
:1025F000D9FF020EE126DE6ADD6AC282C2B2FED7D0
:10260000C350DF6E010EC4CFDBFFDECF0BF0DDCF9A
:102610000CF00BC0F3FF0CC0F4FF020EE15C03E210
:1026200000D0E16AE552E16EE552E7CFD9FF120032
:102630000F013451351104E1100E346F270E356F40
:102640003407000E355B65A20AD03451351106E11E
:102650008D708DA002D08D8201D08D922ED00F0171
:10266000005103E18D908D9228D0000503E18D800B
:102670008D8223D0020E005D03E18D808D921DD0EE
:10268000040E005D03E18D908D8217D0100E005D69
:1026900007E10F013451351102E18D708D920DD09B
:1026A000200E005D0AE10F013451351106E18D70F5
:1026B0008DA002D08D9201D08D82120012001200E6
:1026C0001200120059EF14F012001E0EE66E010EF9
:1026D000E66E6DEC09F0E552E552400EE66E600ED6
:1026E000E66E000EE66EE66A010EE66EA4EC09F0F8
:1026F0000B6E050EE15E0B50F3CF2EFFF4CF2FFFD4
:1027000012000F011F0520E10F0120051DE1A09817
:10271000D6DF65920F01206B0001100EEE6F0E0EDA
:10272000EF6FEE07000EEF5BEE51EF11FAE16584FB
:10273000080EEE6F070EEF6FEE07000EEF5BEE5127
:10274000EF11FAE16594A0881200D9CFE6FFE1CF3E
:10275000D9FFFD0EDBCF06F0FE0EDBCF07F0050E36
:10276000061801E1075039E0E868061802E17F0E1B
:10277000071831E0030E061801E107502AE0020EA7
:10278000061801E1075023E0010E061801E1075089
:102790001CE0740E061801E1075015E0750E0618CE
:1027A00001E107500EE0730E061801E1075007E043
:1027B000720E061801E1075001E010D00FD080DF43
:1027C0000DD07CDF0BD07BDF09D07FDF07D07CDF33
:1027D00005D078DF03D075DF01D000D0010E00D026
:1027E000E552E7CFD9FF120004012351030A0AE0A2
:1027F000010A02E0000E0CD0225102E0000E08D0C7
:10280000020E06D0225102E0000E02D0030E00D0CC
:102810001200040123050DE122510AE10F01E00E2F
:10282000116F000E126F020E146F156BC10E136F35
:102830000FD0030E235D0CE122510AE10F01E60ED9
:10284000116F000E126F020E146F156BC10E136F15
:1028500012000000C9DF030A17E0010A01E028D0D6
:102860000401225110E126C419FF27C41AFF0F01E9
:10287000E00E166F000E176F0F01120E1B6F280E61
:102880001C6F0F01188F14D00401225110E126C4CF
:1028900019FF27C41AFF0F01E60E166F000E176FFF
:1028A0000F01120E1B6F280E1C6F0F01188F00D026
:0228B000120014
:0E28B200040120511F0B010801E069D02451E0
:1028C00001E066D0060E215D22E12351230A1EE0BD
:1028D000010A11E0030A01E01AD00F0101050AE123
:1028E0000F01B60E116F290E126F090E146F156BC2
:1028F000C00E136F0CD00F011D0E116F2A0E126F38
:102900002F0E146F156BC00E136F01D000D0040191
:102910002051600BE842E842E842E842E842010800
:1029200001E036D021510B0A2DE0080A20E0090A07
:1029300018E0080A0BE00B0A06E0080A01E028D0BC
:1029400009EC14F025D029EC14F022D00F01FA0E76
:10295000116F000E126F010E146F156BC10E136F05
:1029600017D00F01800E136F23C4FAF011D00F019E
:10297000FB0E116F000E126F010E146F156B810E9E
:10298000136F06D00F01800E136F22C4FBF000D02E
:02299000120033
:0E29920012010002000000082509017001007A
:1029A0000102000109022900010100C032090400EE
:1029B000000203000000092111010001222F00077D
:1029C00005810340000107050103400001040309DC
:1029D0000434034D006900630072006F00630068F7
:1029E0000069007000200054006500630068006EFC
:1029F000006F006C006F0067007900200049006ED6
:102A00000063002E001803470065006E0065007229
:102A10000069006300200048004900440006A0FF50
:102A20000901A1010903150026FF0075089502811F
:102A3000020904150026FF00750895029102090598
:102A4000150026FF0075089502B102C0A429CD2902
:042A5000D129052A59
:0C2A54002A0EF66E100EF76E000EF86EE3
:102A600000010900F550F56F0900F550F66F03E11C
:102A7000F56701D03DD00900F550F06F0900F55021
:102A8000F16F0900F550F26F09000900F550E96E89
:102A90000900F550EA6E090009000900F550F36FCE
:102AA0000900F550F46F09000900F6CFF7F0F7CFF1
:102AB000F8F0F8CFF9F0F0C0F6FFF1C0F7FFF2C080
:102AC000F8FF0001F35302E1F45307E00900F55069
:102AD000EE6EF307F8E2F407F9D7F7C0F6FFF8C097
:102AE000F7FFF9C0F8FF0001F507000EF65BBFD74E
:022AF0001200D2
:0E2AF200FE0EE3CFE9FFFF0EE3CFEAFFE9CFD0
:102B0000F3FFEACFF4FFFB0EE35003E1FC0EE350CA
:102B100009E0FB0EE30602E2FC0EE306FD0EE350C5
:062B2000EE6EF1D7120079
:0A2B26001EEE00F02EEE00F0F86A3B
:102B30000A9C2AEC15F0A8EC15F004EC12F0FBD777
:022B4000120081
:0E2B420000EE00F00F0EEE6AEA62FDD7120000
:022B5000120071
:082B5200000000000172000008
:020000040001F9
:01FFF800AA5E
:01FFF900F710
:01FFFA000501
:01FFFB00FF06
:01FFFD00F70C
:00000001FF
