:020000040000FA
:060000006BEF12F012008C
:0600080004EF08F01200F5
:060018000CEF08F01200DD
:061000006BEF12F012007C
:021006000000E8
:0610080099EF10F0120048
:02100E001200CE
:06101800E4EF10F01200ED
:02101E0031ECB3
:101020000EF0A0940F015F6B626A536B7FEC0DF0C2
:10103000B5EC0DF0DF6ABDEC0DF003E26FEC0DF0E6
:10104000FAD7648C0F015C6B6498649C62A607D02D
:1010500062960001736B786B796B7A6BF7D700013E
:10106000010E8A6F8B6F8C6B8D6B806BDF6A020E4B
:10107000DF5C1AE2EA6ADF3434EC0EF0EA22EE6A50
:10108000ED6AEA6ADF343BEC0EF0EA22EE6AED6AC2
:10109000DF504EEC0EF0EA22EF6ADF5049EC0EF022
:1010A000EA22EF6ADF2AE3D70001080E6B6F020E17
:1010B0006C6F0F01160E536F0201200E026F020EAD
:1010C000036F080E016F840E006F0001616B606B8F
:1010D000E55249EF0DF031EC0EF00001600507E13B
:1010E00064BA05D0626A60806088020E606F6250E8
:1010F000040B05E06050040B02E0629493D864B2E4
:101100003FD06250010B09E06050010B06E087DF21
:10111000A0840001040E606F62906250100B05E025
:101120006050100B02E073D8629862AC08D060ACDB
:1011300005D0D4EC0DF0730E36EC0DF0629C6250CD
:10114000200B04E06050200B01E04DD86250020BF0
:101150000CE06050020B09E0D4EC0DF0E6687F0E65
:10116000E66E42EC0EF00F015F6B040E0001E76EBD
:101170006019E8AE02D0E73402D0E750605D02E2C9
:10118000A1942ED060A62BD0DF6A040EDF5C27E28C
:1011900062A625D063CF81F000018151780BE8422F
:1011A000E842E842826F629681B504D0825149ECF0
:1011B0000EF003D082514EEC0EF0EA22EF70825115
:1011C00002E13ED80AD0000EE66EE66A810EE66EB7
:1011D000000EE66E720E36EC0DF0DF2AD6D7A19423
:1011E000E55249EF0DF00F0153A10FD055EC0DF072
:1011F000EF50800809E13FEC0DF0EF50840804E166
:1012000055EC0DF08C0EEF6E5391629A12006084D3
:10121000629864820001010E806F9BEC0DF0750EE8
:1012200036EF0DF00001806B9BEC0DF0740E36EC88
:101230000DF06492609462A402D06294FCD7120014
:1012400031EC0EF0FD0E0001811540E17E0E81159E
:10125000E8407F0B040DF3CF63F0F4CF64F0000E91
:101260006327020E642363C065F064C066F0657591
:1012700055EC0DF0EF503C0BE842E8420D0824E13C
:10128000DF6A080EDF5C1AE255EC0DF0020EE9266B
:10129000000E88EC0DF0EF50E66EDF50EA6A200F8A
:1012A000E96E020EEA22E552E750EF6E55EC0DF0C2
:1012B00061EC0EF0EE2AEF22DF2AE3D755EC0DF0B9
:1012C00001EC0EF00AD807D025D805D0FD0E811507
:1012D000040801E12ED8E552DCD300016F6B896B65
:1012E0008C6B8D6B836B706BCADBEF9E6B75C7DB92
:1012F000EF9E6B75F0EC0DF0EF9E736B746B756B7E
:10130000786B796B7A6B53D89BEC0DF0030EAEDBE8
:1013100066EF0BF0020E0001705D02E1D2EF0BF000
:10132000706B835104E199DB8C0EEF6E1200836BBE
:10133000120031EC0EF0A3DBEF50400B01E0010E88
:10134000DF6E00016B75080E605D0BE122C25CFF71
:101350000F015C5103E00001100E02D00001040EE9
:10136000606F700513E18BDBA5DBDDD9020E000198
:101370006F5D03E184DB840E07D0DF5003E17FDB88
:10138000C80E02D07CDB880EEF6E0FD078AF0CD089
:101390007B517C1107E005D07CC0FAFF00017B5136
:1013A000F96EFADF0001789F706BE55272D302018B
:1013B0002051600BE842E842E842E842E842000976
:1013C00001E0120021510C0A45E00B0A3FE00C0A33
:1013D00031E0010A22E00B0A1EE0020A1CE0030AC7
:1013E00018E0080A10E0010A0CE00F0A08E0030AFE
:1013F00001E012000001738F080E606F1200F0EF21
:101400000AF036EF0CF00001610E716F000E726F82
:101410000CD02DEF0BF02BEF0AF024510001716F6F
:10142000726B620E7127000E72237381010E746F4E
:10143000738F12000001738F02012451EA6A620F58
:10144000E96E000EEA2222C2EFFF120074DB020EE8
:1014500036EF0DF0120018DB030EE1260201220523
:1014600010E120511F0B00090CE10001738F030EE6
:101470000201215D04E10001010E7F6F02D0000135
:101480007F6B0201225163E120511F0B02085FE1D3
:1014900024510F0B00095BE024510F0B010857E3A7
:1014A000200E0001605D53E1738F020124BF04D060
:1014B000C3DB47DB4CDB03D0C4DB43DB4CDBEA2282
:1014C000020EEFCFDBFF77DB010B03E1000EDF94B1
:1014D00001D0DF8424BF02D0AFDB01D0B2DBEA222F
:1014E000DECFEEFFDDCFEDFF030E215D0CE1DBDB98
:1014F00007E024BF02D02BDB01D02DDBEA22EF82F4
:10150000840EE4DB24D0DF74CEDB06E0B3DAEF9E9A
:10151000B1DAEF8C80DB02D0ADDAEF8CDF744BDB1D
:10152000020B06E1C0DB11E0A5DAEF50040B0DE180
:10153000020124BF02D00BDB01D00DDBEA22EF92C7
:101540003B0E0B6EB4DB67DB02D03B0EB0DB030E51
:10155000E15C02E2E16AE552E16E9BD200018A5150
:1015600021E1010E8A6F8B511DE1010E8B6F020E7E
:10157000705D07E184DAEE52EF6A81DAC80EEF6E31
:10158000120070050FE1836B90DAEE52080EEF6ED9
:101590008CDA37DB8ADA840EEF6E010E836F5DDA48
:1015A000800EEF6E120000018C6B8D6B020E705D71
:1015B00004E181DB7FDA14DB10D074510201265D77
:1015C000000175510201275904E226C274F027C2B6
:1015D00075F0A9D854DA6EDA52DAC80EEF6E12003E
:1015E000800E0201205D38E10001C00E736F020120
:1015F0002351030A1AE0010A09E0030A2BE1000162
:10160000F20E716F230E726F120E1ED0E2DA240EEC
:10161000F626240EBADA020E0001D4DAF5CF74F001
:10162000030ED0DAF5CF75F01200040E225D0FE242
:10163000D0DA7A0EF626240EA8DA71C0F6FF72C050
:10164000F7FF0800F5500001746F756B1200000180
:10165000736B12000001736B1200D9DA0201286B60
:10166000296B20511F0B020A11E0030A0CE0010A4A
:101670001CE10001738F0201288100017F0515E143
:101680000201288312D00001738F0FD00001738FE5
:10169000020124BF02D0D0DA01D0D3DA52DAEAD97B
:1016A000EF50040B02E0010E286F000173AF07D06A
:1016B000280E716F020E726F7381020E746F020E2C
:1016C000E15C02E2E16AE552E16EE3D16498000177
:1016D00073BF0DD078AF09D0020E706F8D5101E14C
:1016E00062DF00018B6B8A6B120015EF0EF00201B6
:1016F00020AF0DD00001010E706F8C5101E153DF5E
:1017000000018B6B8A6B89510DE1AEEF0AF000018D
:10171000020E706FA2D9840EEF6E8B6B8A6B8951AB
:1017200001E11CDF12009DDA080EDF6E0001745D1E
:10173000000E75590AE274C0DFFF6F5102E1010E1D
:1017400003D06F0502E1020E6F6FDF500C6AE850A4
:10175000745D746F0C507559756F91D9EE52DFCF6F
:10176000EFFF280E7D6F020E7E6F73B10DD0DF503C
:1017700017E071C0F6FF72C0F7FF712B000E7223E5
:101780000800F550CBD9F3D7DF500AE071C0E9FF6C
:1017900072C0EAFF712B000E7223EF50BFD9F4D74D
:1017A000E55277D134DA81D9EE52EFCFDFFFDFCFC8
:1017B0000BF00B500001795D000E7A5902E279C0FE
:1017C000DFFFDF500B6E0C6AE850795D796F0C50CB
:1017D0007A597A6F010EDB6ADF50F36E010EDBCFB0
:1017E000F4FFF350F45C16E2010EDB50EA6A280FB6
:1017F000E96E020EEA22EF50E66E76C0E9FF77C08E
:10180000EAFF762B000E7723E552E750EF6E010ECC
:10181000DB2AE2D7000ED8807955000E7A550DE20A
:101820004ADA48D942D9EF50400B03E1D9D9C80E62
:1018300002D0D6D9880EEF6E12D00FD9840EEF6E7B
:101840007B517C1107E005D07CC0FAFF00017B5181
:10185000F96EFADF0001789F895101E17FDE020E07
:10186000E15C02E2E16AE552E16E13D1FAD90001CE
:10187000738F45D9DF6A81D902E231D9FCD7648CF4
:10188000010EE66EE66AE66A620EE66E000EE1D9C9
:10189000649C0001080E6B6F020E6C6F000E636F8C
:1018A000020E646F63C065F0666F22C261F0615121
:1018B00002E1100E0BD0010EE66EE66A610EE66ED6
:1018C000000EE66E010ED2D80001200E606FE552C8
:1018D000E0D09DD9000EDE6E020EDD6EF1D8040D53
:1018E000F4CF0CF0D9CFE9FFDACFEAFFF350EE26C0
:1018F0000C50ED22BFD8EF9EFD0EDB5002E1EAD87E
:1019000001D0AFD8EA22DECFEEFFDDCFEDFFB2D8B7
:10191000EF9CB0D8040EE926000EEA22EF8C020EEE
:10192000E15C02E2E16AE552E16EB3D070D9FD0EEE
:10193000DBA402D0E66A31D9FD0EDBA203D0010E92
:10194000E66E2BD9FE0EDB500C6A530F0B6E0F0E9A
:1019500006D990D8FD0EDBCFEFFF020EE15C02E26C
:10196000E16AE552E16E95D052D9FE0EDB5002E1FC
:101970005CD905D0A5D839D9A3D8010F36D9020E24
:10198000E15C02E2E16AE552E16E83D040D9FD0EEE
:10199000DB5002E066D801D09DD8D3D8D9CFE9FF7B
:1019A000DACFEAFFEE50ED1003E1F36AF46A21D0DA
:1019B00061D887D9FB0EDBCFEEFFFC0EDBCFEDFF4E
:1019C00059D8EE52FA0EDBCFEFFF400E70D9880ED9
:1019D0007DD9FD0EDB5002E044D801D07BD8EA224D
:1019E000EF74DECF0BF0DDCF0CF00BC0F3FF0CC0BB
:1019F000F4FF020EE15C02E2E16AE552E16E49D0D9
:101A000043D864A812D022D9400EEE16EE6AEE6AD0
:101A1000EE6A1CD9EE7C25D8EA22EF74400E0B6EDC
:101A200015D90B50EF1612D9EF7C33D0646A606A77
:101A30000001606B1200000160510EE1646A606A8F
:101A400094D8D08EA284A084F28E64B602D064862C
:101A5000FCD70001010E606F12002DD9D2D8F0EF33
:101A60000DF0FE0EEA6ADB3434EF0EF0E66EE66A45
:101A700042EF0EF0DECFE9FFDDCFEAFF12006BC0D0
:101A8000E9FF6CC0EAFF1200D9CFE6FFE1CFD9FF32
:101A90001200E552E7CFD9FF120024510F0BE96E77
:101AA000EA6AD890E936EA36120063C0E9FF64C0FA
:101AB000EAFF120006D9280EEE6E020EED6E12003D
:101AC000FD0EDB50E8240D6EFE0EDB50040DF350CE
:101AD0000D241200FE0EEA6ADB343BEF0EF0DF50FD
:101AE000040DF3CFE9FFF4CFEAFF000EE926020E62
:101AF000EA22EE6AEE6AEE6AEE6ADF2A1200010E50
:101B0000E66EE66AE66A540EE66E0F0E29EF0EF0F8
:101B1000EA22EE50EFCFEAFFE96E1200E66E7DC0DA
:101B2000E9FF7EC0EAFF7D2B000E7E23E552E750E1
:101B3000EF6EDF061200000EE66EE66AE66EE66AFB
:101B40001200EA22EECFDEFFEDCFDDFF12002451BE
:101B50000F0B49EF0EF024510F0B4EEF0EF00C223D
:101B60000BC0DEFF0CC0DDFF1200160E616E0F0110
:101B70009F0E5B6F7B0E606E1200DF500B6E0C6A67
:101B8000080E0B5C000E0C581200F7220900F5CF6E
:101B900071F00A00F5CF72F01200FE0EDBCFE6FF07
:101BA00098DEE552E5521200010EE66EE66A000E7E
:101BB000E66EE66A1200D950020FE96EDACFEAFF4C
:101BC000EF501200F76A7125F66E7251F722080085
:101BD00012002251F66EF76AD890F636F7361200E8
:101BE00065C0E9FF66C0EAFF1200040DF3CF0BF0F9
:101BF000F4CF0CF0000E0B26020EB1DF840E66EF60
:101C00000EF05FD8200EEE6E020EED6E12003CDF7D
:101C1000020EE1261200020EE66EE66ADECFE6FF55
:101C2000DDCFE6FF050E36EF0DF017DF8C0EEF6E01
:101C300026DF840EEF6E120030DF670EE926000EFD
:101C400012002BDF6B0EE926000E12000ADF88EF70
:101C50000DF0E66E41EC12F00B6E050EE15E0B50DE
:101C6000120012DFE6521200FE0BEA36E96E6B0E2E
:101C7000E926000E1200FE0BEA36E96E670EE92631
:101C8000000E12005CEC11F00B6E060EE15E0B50C4
:101C90001200EA6A860FE96E000E1200EA6A840FEB
:101CA000E96E000E1200E6DEEF50800B1200E2DE5D
:101CB000E850EF16120094DFEE52080EEF6EF0EFD0
:101CC0000DF0020EE926000EEA221200D3DEE850E3
:041CD000EF121200FD
:0C1CD4000001200E9F6F4E0EA06F00015B
:101CE0007B6B7C6B1200E8D9E65202012651DF6E55
:101CF0000001C00E766F020E776FDF500D6E0E6A18
:101D0000080E0D5C000E0E5802E2DF5001D0080EE6
:101D10000B6E0C6A796FD40E7B6F1C0E7C6F788F04
:101D20000001739FE552CDD11E0EE66E010EE66EE8
:101D300096EC0CF0E552E552040E0001691502E044
:101D4000010E01D0000E0B6E0C6A0BBE0C68050E66
:101D5000BCD9FEE19ED9040E691502E0010E01D046
:101D6000000E0B6E0C6A0BBE0C68050EAED9FEE1C0
:101D700090D954D953D9040E00016D1502E0010E1B
:101D800001D0000E0B6E0C6A0BBE0C68050E9DD9BF
:101D9000FEE1B5D9040E6D1502E0010E01D0000E72
:101DA0000B6E0C6A0BBE0C68050E8FD9FEE17FEF3F
:101DB00010F002012051600BE842E842E842E8429C
:101DC000E842020801E012002151110A14E0010A60
:101DD00010E01F0A06E0010A01E012002251000192
:101DE0009A6F00019A0E716F000E726F7381010E6F
:101DF00015D073EF0EF00001C00E716F020E726FFE
:101E00007381020126510001746F080E0B6E0C6A7B
:101E100074510B5C000E0C5802E2080E746F738F45
:101E20001200030E0201235D04E1550E225D01E163
:101E30005ADF12000001030E9A6F9B6F9C6B9D6B23
:101E400012003AD9E652DF6A0001986B996BFB0EDB
:101E5000DBCF0BF0FC0EDBCF0CF00B50985D0C5081
:101E6000995919E2DF50DF2AE66EFD0EDB50982506
:101E70000F01E96EFE0EDB50000199210F01EA6EA1
:101E8000E552E750EF6EDF5001E1DF2A0001982BA9
:101E9000000E9923DCD7E55214D10BEC11F0200E83
:101EA0000001E76E6019E8AE02D0E73402D0E750D7
:101EB000605D03E36450020B02E01AEF0FF00001D3
:101EC0009B519A5D04E09C6B9D6B9AC09BF09A516C
:101ED000030A06E0010A06E0030A04E174EF0FF0CA
:101EE000C5EF0FF00EEF10F0E7D8040EE126000169
:101EF0006D516E1102E1000E03D0F3D801E0010E26
:101F000000093CE1200EDE6EDD6AB2D8CED8D9CF12
:101F1000E9FFDACFEAFF000ED880EE54000EED5450
:101F200027E2030E00019C5D10E29C2BDECFE6FF52
:101F3000DDCFE6FF020EDBCFE6FF030EDBCFE6FFD1
:101F400080DFE552E552E552E55200019D519D2B9F
:101F5000E66E010EE76E020EDBCFE9FF030EDBCF6C
:101F6000EAFFE750E926000EEA22E552E750EF6E5D
:101F70007FD8020EDBCFEEFF030E80D8040EE15CAB
:101F800002E2E16AE552E16E9CD096D8060EE126A7
:101F9000000169516A1102E1000E03D0A6D801E0E8
:101FA000010E000934E100016D516E1102E1000ED5
:101FB00003D097D801E0010E000929E19AD8040E58
:101FC000EECFDBFF050EEDCFDBFF52D86ED8ACD8DD
:101FD000EF50000EF3500D6E0E6A000E0D16030E3C
:101FE0000E16EE52EF5000010D240B6E000E0E2067
:101FF0000BC0DEFFDD6E3CD8040EDBCFEEFF050E1E
:102000003DD8200EDE6EDD6A25D800016975060E0A
:10201000E15C02E2E16AE552E16E53D04DD8040E74
:10202000E126000169516A1102E1000E03D05DD87A
:1020300001E0010E000907E1200EDE6EDD6A59D8CD
:1020400034D808D86975040EE15C02E2E16AE55211
:10205000E16E37D04ED8020EDBCFEEFF030EDBCFA2
:10206000EDFF62D8EE52DFCFEFFF5ED886EF10F0C3
:1020700056D8020EE926000EEA221200DBCFEDFF51
:102080004ED8EE52DFCFEFFF4AD840D800016D7531
:102090001200400E0B26020E0C222BD80BC0EEFFB6
:1020A0000CC0EDFF000169751200020EEECFDBFFE0
:1020B000030EEDCFDBFF1200D9CFE6FFE1CFD9FF52
:1020C0001200E552E7CFD9FF1200D8900B360C363C
:1020D000E80612000BC0EEFF0CC0EDFF00016D75AD
:1020E00012001DD8EF50800B12001ED8EF50800B4D
:1020F00012001AD8020EE926000EEA221200800E03
:102100000B26020E0C22B4DF6AEF10F0EF50400BEA
:1021100080090809E66EE552E750EF6E12006DC0C7
:10212000E9FF6EC0EAFF120069C0E9FF6AC0EAFF7A
:0221300012009B
:0E213200DACFE4FFE2CFDAFFE9CFE4FFEACF35
:10214000E4FFF6CFE4FFF7CFE4FFF5CFE4FFF3CFF2
:10215000E4FFF4CFE4FFFACFE4FF00EE00F00B0E53
:10216000E80403E3EECFE4FFFBD700EE0BF0040E30
:10217000E80403E3EECFE4FFFBD7E6526BEC08F094
:10218000E55200EE0EF0040EE80403E3E5CFEDFFA8
:10219000FBD700EE0AF00B0EE80403E3E5CFEDFFFA
:1021A000FBD7E5CFFAFFE5CFF4FFE5CFF3FFE5CFAF
:1021B000F5FFE5CFF7FFE5CFF6FFE5CFEAFFE5CF87
:1021C000E9FFE5CFDAFF1100D8CFE4FFE0CFE4FF6D
:1021D000E46EDACFE4FFE652E552E5CFDAFFE550F0
:1021E000E5CFE0FFE5CFD8FF100000019F6BA06BAB
:1021F00005D81BEC0DF04DEC0FF0FDD70F0EC11202
:1022000002D80FEF08F0F00E8B1694160001010EA5
:102210009E6F1AEF0FF000019F51A01104E1100E04
:102220009F6F270EA06F9F07000EA05B64A207D0D0
:102230009F51A0112EE18B708BB013D027D00001DD
:10224000605102E18B9022D0600502E18B8009D0C1
:10225000020E605D02E18B8019D0040E605D03E127
:102260008B908B821200100E605D06E100019F5181
:10227000A0110FE18B700AD0200E605D0AE1000111
:102280009F51A01106E18B708BA002D08B9212009F
:102290008B821200120012001200120064840001EE
:1022A000080EA16F070EA26FA107000EA25BA1513D
:1022B000A211FAE164941200D9CFE6FFE1CFD9FF71
:1022C000FD0EDBCF06F0FE0EDBCF07F0720E061818
:1022D00001E1075036E0E868061802E17F0E0718B2
:1022E0002EE0740E061801E1075027E0750E06185F
:1022F00001E1075020E0730E061801E1075019E0D4
:10230000030E061801E1075011E0020E061801E164
:10231000075009E0010E061801E1075001E013D053
:1023200094EC0EF011D011EC0FF00ED0D9EC0EF0B1
:102330000BD0B2DF09D0AEDF07D0ADDF05D0ADDF07
:1023400003D0000001D000D0010E00D0E552E7CF4D
:04235000D9FF12009F
:0C235400060EF66E100EF76E000EF86E0E
:1023600000010900F550936F0900F550946F03E1E7
:10237000936701D03DD00900F5508E6F0900F550EC
:102380008F6F0900F550906F09000900F550E96E54
:102390000900F550EA6E090009000900F550916F37
:1023A0000900F550926F09000900F6CF95F0F7CFBC
:1023B00096F0F8CF97F08EC0F6FF8FC0F7FF90C071
:1023C000F8FF0001915302E1925307E00900F55034
:1023D000EE6E9107F8E29207F9D795C0F6FF96C026
:1023E000F7FF97C0F8FF00019307000E945BBFD77B
:0223F0001200D9
:0E23F2001201000200000008D8042EFA0100BB
:102400000102030109022000010100C03209040099
:1024100000020000000007050102200000070581FE
:102420000220000004240403090420035400720065
:102430006100760069007300200052006F006200A6
:1024400069006E0073006F006E0022034200650099
:102450006E00630068006D00610072006B00200078
:102460004400650076006900630065000E034C00BF
:102470005500530042005700310026242A244A24E4
:022480006C24CA
:0E248200FE0EE3CFE9FFFF0EE3CFEAFFE9CF46
:10249000F3FFEACFF4FFFB0EE35003E1FC0EE35041
:1024A00009E0FB0EE30602E2FC0EE306FD0EE3503C
:0624B000EE6EF1D71200F0
:0A24B600000EF36E00EE00F0030EBE
:1024C00001D81200EA6002D0EE6AFCD7F350E9604E
:0624D0001200EE6AFCD7C9
:0A24D60011EE00F021EE00F0F86AAC
:1024E0000A9CAAEC11F007EC08F0F5EC10F0FBD711
:0224F0001200D8
:020000040030CA
:0100000000FF
:0100010032CC
:0100020021DC
:010003001EDE
:0100050000FA
:010006008178
:0100080003F4
:01000900C036
:01000A0003F2
:01000B00E014
:01000C0003F0
:01000D0040B2
:00000001FF
