:020000040000fa
:080000000414040000000000dc
:020000040000fa
:1004000000000000000000000000000000000000ec
:1004100000000000000000000000000000000000dc
:1004200000000000000000000000000000000000cc
:1004300000000000000000000000000000000000bc
:10280000ffffff00ffffff000f542100007f2200a9
:1028100000018800000000000c000700a00f22004b
:102820000100200011000700000020000000e0006f
:102830000200320000000200000000000020020040
:10284000000000000040da000000fe004440a90043
:10285000000920000000e00003003200000020001a
:10286000a00188004440a8000000060091018800f3
:10287000800078000000eb0015003700e280400087
:1028800032a0b4009101ba00e280400032a0b4004e
:102890009102ba00e280400032a0b4000002eb00d6
:1028a000472bde00f507b200602ce10004003a007f
:1028b0000059eb008301e900fdff3e0004003700f2
:1028c0006128e100010032000082eb0004000700f3
:1028d0001101ba000200e000e8ff3a000000060023
:1028e0003159ba008301e9000c0032002159ba00c5
:1028f0008301e900080032000400e00003003a0010
:10290000e280400032a0b400f5ff370011d9ba00d0
:102910008301e900faff3a008100e800e18040000d
:1029200032a0b4000000060000000000000000001b
:020000040000fa
:020000040001f9
:0457f00033ff000083
:020000040000fa
:020000040001f9
:0457f400c0ff0000f2
:020000040000fa
:020000040001f9
:0457f8008e9b000084
:020000040000fa
:020000040001f9
:0457fc00603f00000a
:020000040000fa
:100008001421000014210000142100001421000014
:100018001421000014210000142100001421000004
:1000280014210000142100001421000014210000f4
:1000380014210000142100001421000014210000e4
:1000480014210000142100001421000014210000d4
:1000580014210000142100001421000014210000c4
:1000680014210000142100001421000014210000b4
:1000780014210000142100001421000014210000a4
:100088001421000014210000142100001421000094
:100098001421000014210000142100001421000084
:1000a8001421000014210000142100001421000074
:1000b8001421000014210000142100001421000064
:1000c8001421000014210000142100001421000054
:1000d8001421000014210000142100001421000044
:1000e8001421000014210000142100001421000034
:1000f8001421000014210000142100001421000024
:100108001421000014210000142100001421000013
:100118001421000014210000142100001421000003
:1001280014210000142100001421000014210000f3
:1001380014210000142100001421000014210000e3
:1001480014210000142100001421000014210000d3
:1001580014210000142100001421000014210000c3
:1001680014210000142100001421000014210000b3
:100178001421000014210000a6160000142100001c
:100188001421000014210000142100001421000093
:100198001421000014210000142100001421000083
:1001a8001421000014210000142100001421000073
:1001b8001421000014210000142100001421000063
:1001c8001421000014210000142100001421000053
:1001d8001421000014210000142100001421000043
:1001e8001421000014210000142100001421000033
:0801f800142100001421000095
:020000040000fa
:100208001421000014210000142100001421000012
:100218001421000014210000142100001421000002
:1002280014210000142100001421000014210000f2
:1002380014210000142100001421000014210000e2
:1002480014210000142100001421000014210000d2
:1002580014210000142100001421000014210000c2
:1002680014210000142100001421000014210000b2
:1002780014210000142100001421000014210000a2
:100288001421000014210000142100001421000092
:100298001421000014210000142100001421000082
:1002a8001421000014210000142100001421000072
:1002b8001421000014210000142100001421000062
:1002c8001421000014210000142100001421000052
:1002d8001421000014210000142100001421000042
:1002e8001421000014210000142100001421000032
:1002f8001421000014210000142100001421000022
:100308001421000014210000142100001421000011
:100318001421000014210000142100001421000001
:1003280014210000142100001421000014210000f1
:1003380014210000142100001421000014210000e1
:1003480014210000142100001421000014210000d1
:1003580014210000142100001421000014210000c1
:1003680014210000142100001421000014210000b1
:100378001421000014210000a6160000142100001a
:100388001421000014210000142100001421000091
:100398001421000014210000142100001421000081
:1003a8001421000014210000142100001421000071
:1003b8001421000014210000142100001421000061
:1003c8001421000014210000142100001421000051
:1003d8001421000014210000142100001421000041
:1003e8001421000014210000142100001421000031
:0803f800142100001421000093
:020000040000fa
:10293000f0940000d0940000ae940000a094000039
:102940000e0300004c000000550000005300000082
:102950004200000057000000310000002203000088
:1029600042000000650000006e00000063000000ef
:10297000680000006d0000006100000072000000af
:102980006b00000020000000440000006500000013
:102990007600000069000000630000006500000090
:1029a00020030000540000007200000061000000dd
:1029b00076000000690000007300000020000000a5
:1029c000520000006f00000062000000690000007b
:1029d0006e000000730000006f0000006e00000039
:1029e0000403000009040000f6940000090200003e
:1029f000200000000101000000c0000032090000ba
:102a000004000000000200000000000000000000c0
:102a1000070500000105000000020000010700009a
:102a20000581000005000000020100001201000005
:102a3000000200000000000000080000d8040000b0
:102a40002efa000001000000010200000301000056
:020000040000fa
:102a50009ec0a9008ea4ef008aa4ef00aa24ef0074
:102a6000ac24ef002000200030258800a824ef00cf
:102a70008644a900f0092000802488006024880092
:102a80008804a800012021004808de00c024880036
:102a90000000eb008018eb008018eb000000e8005d
:102aa000e80f5000fbff3a009424a8009624ef00a2
:102ab00094a4a9009424a90080007800070037009e
:102ac000512488004e70ef004070ef0041d0bf00ed
:102ad0004170ef0042d0bf004270ef008ac4bf00d7
:102ae0000038a300f6ff3a001000200000818800a3
:102af000f08088005230ef005430ef004830ef0093
:102b00000000eb00a40321000203210080007800f4
:102b10005502210033022100001aeb000019eb00de
:102b200001f07a0001f079000000e800e20f5000a7
:102b3000f9ff3a0080202100d0818800d0002000d9
:102b400050258800600121001090880080c0b300eb
:102b500000f2b70040c8b30001f2b7004570ef00c3
:102b60004630ef00000006008082800083c0b30082
:102b7000e70f50000a003e0080828000804178000c
:102b800010c0b3002f50e200040032002fd0bf006d
:102b9000e14f500002003a0020c0b3002ff0b70010
:102ba0000380fb005030b500d081800003487800de
:102bb000e0002100608188004ed0bf000008a30023
:102bc0000200320003417800120037000341780010
:102bd0008041eb0006003700608180006182800048
:102be0003158780060818800618288000241e900e4
:102bf000834f5100f8ff3a0000000600608180001a
:102c0000618280003158780060818800618288008c
:102c10000241e9000204e000f8ff3a00000006006b
:102c20002010e20022003a001400200004818800f5
:102c3000f18080000100e0001d003a00f48088006f
:102c40002ed0bf00e24f500006003a00d081800035
:102c50000148780081ccb300d081800011409800f9
:102c6000000006002ed0bf00e14f500010003a00d7
:102c70004181880083c0b300b081800003487800a0
:102c8000b1818000620121009200980040c8b30029
:102c90009040980044818800a0818000034878001b
:102ca000a18180009200980000c8b3009040980075
:102cb000000006005230ef005430ef002ed0bf006d
:102cc000e24f500009003a0081c0b300a0818000ab
:102cd00001487800a1818000e00021009000980068
:102ce00080ccb30090409800000006001cd0bf00cc
:102cf0000080fb00d101210091407800c808dd0070
:102d00008080700080828000808f5000070031003a
:102d1000c1012100914078008180fb001dd0bf00df
:102d20004800dd0001007000808288008eff0700ef
:102d3000e1002100d08180001100980081ccb30017
:102d4000d081800011409800000006003600f80095
:102d5000809fbe00829fbe00849fbe00869fbe00f3
:102d6000889fbe008a1f78003400f8000000200011
:102d7000a00188000200fa0030828000e10f5000bc
:102d800008003a0094c4bf000068a30005003a00a0
:102d90008aa4ef008c04a8008c84a80020002000e6
:102da0003082880080c4bf000048a3000c003200bd
:102db00082c4bf000048a3000900320008012000bf
:102dc000082488004830ef000001eb008000eb0091
:102dd00040072000f20407008284a900082488002c
:102de00088c4bf000018a300cb023a008ac4bf0009
:102df0000008a300090032008cc4bf000008a30033
:102e00000600320012ff07009ec0a800400020000c
:102e10003082880010002000502488008ac4bf003f
:102e20000048a3000d0032008cc4bf000048a3007e
:102e30000a0032008284a80008012000582488007b
:102e400010002000408288000001eb008000eb00b1
:102e500050072000d2040700582488008ac4bf000d
:102e60000028a300090032008cc4bf000028a30082
:102e700004003200120020008000eb003007200028
:102e8000c704070040002000502488008a44e20064
:102e900014003d008c44e20012003d00aac4bf00b3
:102ea0000018a3000d003200b28180009240900013
:102eb00000c8b30080cf500007003a00d0818000e6
:102ec0009040900040c8b30080cf500002003a000c
:102ed0006840400010419800aa24a9000008200082
:102ee000502488008ac4bf000018a3000a003200e2
:102ef0008cc4bf000018a30007003200120020009d
:102f00008000eb00f0ff2700a50407008ea4ef006f
:102f1000200020005024880030828000e30f500001
:102f20007d0236008cc4bf000038a3007a02320054
:102f30000045eb008ac4bf000038a30076023200cf
:102f4000902480002bf0b7002bd0bf000080fb0046
:102f50004400de002af0b7008000200050248800e2
:102f60002bd0bf000038a30004003a002ad0bf00d5
:102f70000080fb0031022100030037002ad0bf008f
:102f80000080fb0051022100010040001041780048
:102f9000e14061000104a2001004a10010c870000b
:102fa0002a50e20055023a002bd0bf008001780081
:102fb000b30fb20014023a002bd0bf00c00fb20012
:102fc0000120210001014000b2818800a281880017
:102fd0003450aa0012409000c043b20041c3b30075
:102fe000814f500099013a0082007800620121006f
:102ff0001100900010f17900110090000000e8002d
:10300000900098008301e800e88f5100f8ff3a0033
:10301000920098002f70ef005630ef005230ef0012
:103020005430ef002830ef002e70ef00d181800087
:10303000114090000074a100904098003a50aa00fe
:10304000d1818000114090000074a1009040980050
:103050003a50aa00a1818000114090000074a100a4
:10306000904098004e70ef005030ef004070ef003d
:1030700041d0bf004170ef0042d0bf004270ef006e
:1030800016d0bf000046b2003f013a0017d0bf0083
:103090000080fb0001002000eb0f5000e08f580083
:1030a00039013e00006001005c00370088003700f5
:1030b000350137008600370033013700060037003e
:1030c000080037002c01370052003700330037006a
:1030d00017013700200137004ef0a80080002000c3
:1030e00044003700610121009140780000c8b3001e
:1030f00080cf500024013a0000ccb3004ef0b7005e
:1031000019d0bf00e24f500008003200e34f5000da
:1031100013003200e14f50001e003a0060512900b8
:1031200060828800200120001800370018d0bf00fe
:103130000080fb0000004000414f290060807800c3
:1031400060828800608280002040900050f0b700cc
:10315000608280003040900051f0b7000a013700d3
:1031600018d0bf00e34f50000a003e0018d0bf0047
:103170000080fb0000004000814929006080780049
:1031800060828800608280001080fb00808288005e
:10319000fd0037004e70ef00fb0037004ef0a80036
:1031a000ac24ef000000eb000120210001017800b9
:1031b0000019eb000019eb000000e800e80f5000d8
:1031c000fbff3a009424a8003870ef009424a90073
:1031d00080202100d0818800b1818800a1818800f1
:1031e00018d0bf0045f0b7004550e20003003a0098
:1031f0000001200030828800e30037001200200028
:103200005104210010002000e50307000002200007
:10321000f8ff370050042100c90037000e70ef009e
:103220000f70ef0016d0bf007f006000e10f50006c
:103230000b003200e20f50000b0032000000e000f3
:103240001b003a004ef0a8000e10a800508280002b
:10325000e10f500016003a000e30a80014003700ad
:103260004ef0a800120037004ef0a8001a50e200fd
:10327000050035001ad0bf006f006000000040005c
:1032800001032100040037001ad0bf006f00600066
:1032900000004000a10321006080780010409000f1
:1032a0000028a3000200320010c0b3000ef0b700e7
:1032b0004e50e200b4003d00e00021006082880032
:1032c0004e10a80020c0b30050f0b700ae00370089
:1032d00018d0bf00e14f50000b003a0016d0bf00dd
:1032e0007f40600008003a004ef0a80017d0bf00f1
:1032f000e34f500003003a00100020005082880085
:10330000010037004a30ef001850e2009e003a00fa
:1033100016d0bf007f406000e24f50009a003a0094
:103320001ad0bf006f406000970032001ad0bf0073
:103330006f006000e10f500093003c00318280007c
:1033400000022000808f50008f003a004ef0a8004d
:103350001a50e2000a0035001ad0bf006f0060006a
:103360000000400001032100e0807800f1bf9f00d1
:103370001ad0bf006f006000310221000900370041
:103380001ad0bf006f00600000004000a1032100c0
:10339000e0807800f1bf9f001ad0bf006f0060008e
:1033a0005102210060c478000808a30004003a001c
:1033b0006ff997000224a100e2ff9f00030037008d
:1033c0006ff897000024a000e0ff9f001a50e20071
:1033d000050035001ad0bf006f00600000004000fb
:1033e00001032100040037001ad0bf006f00600005
:1033f00000004000a10321007fb9970002b07800cf
:1034000017d0bf00e34f500014003a007fb8970078
:103410001000e0000b003d001a50e20004003500ef
:103420001ad0bf006f006000310221000300370096
:103430001ad0bf006f00600051022100010040005f
:103440001014a0007fb897009040900042c8b300cd
:1034500082c07000114098004b0037008f84e90053
:103460006ff897000024a200e0ff9f00ffb89700cc
:10347000114090001100e0000b003d000074a1001d
:1034800090409800ffb89700114090000064a000a1
:103490009040980022002000ffb8970050002000c4
:1034a0003f030700020037000064a000904098002e
:1034b0001924a2000818a30006003a007fb997005b
:1034c000004028001200600001002800810f500019
:1034d00013003a001a50e200040035001ad0bf0071
:1034e0006f00600031022100030037001ad0bf00d6
:1034f0006f00600051022100010040001014a10083
:10350000ffb8970011409000b043b200904098007f
:1035100022002000ffb8970050002000190037005b
:1035200012409000b043b2001041980016003700de
:103530001ad0bf000080fb00810321000100400081
:10354000608288004e10a80010c0b30050f0b70091
:103550004ef0a8000c0037004ef0a8001ad0bf00b3
:103560000080fb00810321008201210012417800cc
:1035700002f07800040037000001eb008000eb004f
:1035800020002000060307000001eb008000eb0094
:10359000300020000203070094a4a9004e50e2006e
:1035a000130035004050e20008003d0020c0b30089
:1035b0002ef0b7005410e20001003a00bdfd0700f4
:1035c0001e30ef002030ef00d000370081c0b30084
:1035d000a081800001487800a18180006001210065
:1035e00090009800c0c8b30090409800a400370035
:1035f0001650e20006003d0010c0b3002ef0b700e8
:103600005210e2000c003a00aafd07000a00370041
:1036100020c0b3002ef0b70081c0b300a0818000ad
:1036200001487800a181800060012100900098008d
:1036300040c8b300904098001e30ef002030ef00eb
:103640005610e200b1003a005e0037002ed0bf00f5
:10365000e24f50005d003a001242780041d0bf00b6
:103660000080fb002104210091407800c808dd00a3
:10367000808070000480fb00810f50000400360041
:1036800041d0bf0021042100914078000042780021
:1036900011042100914078008180fb0042d0bf00de
:1036a0004800dd00010070008480fb000100500034
:1036b000110421009140780041f0b7004800de007d
:1036c000210421009140780042f0b700e50021007c
:1036d00010003700e1032100914078008180fb0059
:1036e0003fd0bf004800dd00010070008280fb0079
:1036f00061d87a00e1032100914078003ef0b700e4
:103700004800de00f1032100914078003ff0b7004f
:103710008301e8000341780084cf5100edff3900b8
:10372000a281800011042100914078008180fb007b
:1037300042d0bf004800dd00010070000a003200e6
:1037400080c0b30000497800a1818000e000210022
:1037500090009800b0818000104090000068a300a5
:103760004e0032004f00370080c0b300004978009f
:10377000a1818000600121009000980040c8b30042
:103780009040980031042100914078008180fb0036
:1037900044d0bf004800dd00010070000700320087
:1037a00031042100914078008180fb0044d0bf00ab
:1037b0004800dd00010070000000010040f0a90099
:1037c0009fff370016fd0700500037008001fd0005
:1037d0002ef0b7008001fd002810e20008003a003a
:1037e00081c0b300a081800001487800a1818000e1
:1037f0006001210090009800c0c8b3002a00370083
:1038000043818800410037002bd0bf00b00fb200c9
:10381000e80f50003d003a00d08180001040900039
:103820004600de00610460003a50aa003082800049
:10383000e80f500008003a0018d0bf000080fb00dd
:10384000b0248800000120009604e20001003a0044
:1038500040002000308288002ed0bf00e14f500091
:1038600013003a00e0002100d18180009000980010
:10387000bdfc07002fd0bf00e24f500004003a000b
:1038800041c8b300d0818000114098001f0037006c
:10389000d18180000804e00002003a0080ccb3002f
:1038a0000100370080c8b30090409800170037002f
:1038b0004050e2000f003d003104210091407800ab
:1038c0008180fb0044d0bf004800dd000100700093
:1038d0000700320031042100914078008180fb0014
:1038e00044d0bf004800dd0001007000000001006e
:1038f00040f0a9002e70ef00040037000001eb003b
:10390000b102210020072000250207000a45e80037
:10391000e44f550087fd3a008ec0a9000080fa00f0
:103920003400f9004f0578004f04be004f03be007d
:103930004f02be004f01be004f00be003600f9002e
:10394000004006000080fb00800140000180fb0079
:10395000008041004300dd00022021000201400000
:10396000124090000074a100104198000003210053
:103970000104e00001003200a00321008231780040
:10398000124090000064a10010419800e400410042
:10399000114090000064a0009040980000000600d4
:1039a000889fbe008a1f7800004478000145780097
:1039b0008184fb000938a300020032008040eb0044
:1039c000e0ff07000928a3000300320011c0b30084
:1039d00008407800dbff07000880fb000000400083
:1039e000a14a20000af078004f0578004f04be007d
:1039f00000000600014178000004e0000c003a00dd
:103a000081c0b300a081800001487800a1818000be
:103a10006001210090009800c0c8b3009040980059
:103a200041c8b300d081800011409800000006001a
:103a30008080fb00818040000280fb00808040008d
:103a4000c308dd00022021000281400012409000e6
:103a500043c8b3000340700010419800402021008b
:103a6000808040001140900003407000904098001a
:103a700000000600004378000082fb0081437800cc
:103a80000104e0000300320084004200a003210092
:103a9000020037008400420000032100e1027800a8
:103aa0000500e00002003a00050078000000060072
:103ab0000682fb0092029800834a7800154090002d
:103ac0000044b200904298001540900081c8b300b5
:103ad00001407000904298000704e00003003200ab
:103ae00004004200a103210002003700040042004c
:103af00001032100010040001024a200050078000d
:103b0000000006008040780094c4bf000058a30065
:103b1000180032000181fb0002014100a0032100d6
:103b200000014100920178001300be00040420004f
:103b300000006200010020008089be009201780030
:103b40000004200001002000931968009391680090
:103b50001224a20092007800114090000044b200ac
:103b60009040980092007800114090000440680056
:103b700090409800000006000000eb00a0248800a0
:103b800060248800308288000000060031828000b6
:103b90000100e00011003a00a1248800612488009f
:103ba0002000200030258800412588008644a90097
:103bb000f009200080248800602488009ec0a800ae
:103bc000010037009404a80094c4bf000008a300bb
:103bd000fcff320010002000308288000000060048
:103be00000e22400d082880043d0bf000040eb00f8
:103bf00043f0b700410421009140780044f0b70041
:103c000000000600c1012100914078001dd0bf00d6
:103c100060802000e2032100124178003ef0b700ee
:103c20004800de00f2032100124178003ff0b700a7
:103c300001407800e8cf50000100360080c0b3009a
:103c400041f0b70000df21003104210091407800ed
:103c500043f0b7004800de004104210091407800a5
:103c600044f0b70040f0a8004ef0a90000000600a4
:103c7000918180000100e0000300320011409000bb
:103c80000004e00006003500908180000048eb0051
:103c900021c8b30090818000114098003250aa00e2
:103ca00000000600c1c1b30010c0b3003cff070014
:103cb00022032100e38020001280fb004700dd008a
:103cc0000020b20003004000918180009000980025
:103cd000124078000024a200004978004700dd006f
:103ce0000020b20003004000918180009000980005
:103cf0001224a200deff0700ddff0700c20321003f
:103d0000e3c020001280fb004700dd000020b2006d
:103d100003004000e181800090009800124078008c
:103d20000024a200004978004700dd000020b20016
:103d300003004000e1818000900098001224a2005e
:103d40000000060016d0bf000046b20001c4b30058
:103d5000814f500025003a0017d0bf00ef4f5000b0
:103d60000d00320003003e00ee4f50001f003a00ed
:103d700005003700f04f50000e003200f14f5000a8
:103d80001a003a000c00370018d0bf009101210042
:103d90009140780003e8b7003080200060828800fe
:103da0004e10a80010c0b30050f0b7004ef0a800ad
:103db0000000060093ff37006080200060828800ca
:103dc0004e10a8001cd0bf00d10121009140780006
:103dd00050f0b70050d0bf00e84f5000020036004e
:103de00080c0b30050f0b7004ef0a80000000600fd
:103df00019d0bf00e34f500006003a0081012100b6
:103e00009140780050c5b30080cf500001003a00c7
:103e10007cff07000000060030c0b30003e8b700d5
:103e200002e8b7000040eb0001e8b70000e8b70087
:103e3000000006000428ef008041eb000500370079
:103e4000037178008341e80001003a0013c0b30019
:103e50000428ec0022408000810f5100f8ff390057
:103e600000000600881f7800e18180000100e0006a
:103e700003003200114090000004e00014003500ff
:103e80001104900001c8bf00e24f500004003e0042
:103e90000168ec000120200008007800e5ff070021
:103ea00000c8bf00104498000040e80000e8b700d8
:103eb000e081800018009800e08180000048eb005d
:103ec00021c8b300e0818000114098003c50aa0056
:103ed0004f04780000000600928180000200e0009c
:103ee00003003200124090000004e000160035008c
:103ef000e18180000100e0000300320011409000e9
:103f00000004e00010003500120090001101900044
:103f100090009800e08180000048eb0021c8b300c9
:103f2000e0818000114098003c50aa009081800000
:103f300012009800908180000048eb009081800082
:103f4000114098003250aa00000006003800070017
:103f500030828000ff0f50000300360088c4bf008d
:103f6000624160000600320030c0b30003e8b700d1
:103f700002e8b7000168ef000068ef0000000600eb
:103f8000318020009140780002c8bf0080cf5000ef
:103f9000060032000001fd0001e8b70000e8b700ac
:103fa0000001fd0003c8bf0002e8b70003c8bf005e
:103fb000e24f500006003200e34f50000300320091
:103fc000e14f500002003a00a6ff3700c2ff370061
:103fd00027ff3700f0d72f00c422b600c022b6005a
:103fe00030ff2f00cc22b600c822b600c142a80084
:103ff000c122a80010002000e082880086ff370060
:104000005a30ef002ca3ef0044a7a8008025200021
:104010000000e900e10f4000fdff3a00edff07005e
:104020008bfa0700d9fe0700c8ff0700feff370024
:104030005a10e20002003a0000712200d08288008b
:104040005a30ed0088c4bf000018a3000e003200f3
:10405000d08280000000e00042003a00c442e2004a
:104060000100350010c0b300c700dd00c4c2bf00ae
:104070000074a10001407000c4e2b700c442e20035
:1040800013003500340037004610e20002003a0009
:10409000c4e2a9003000370030828000e10f5000f8
:1040a00002003a00c4e2a800090037003082800014
:1040b000e20f500002003a00c4e2a80026003700d8
:1040c00030828000e40f500003003a00c4e2a900ef
:1040d000cc62a8000000060030828000f00f500083
:1040e0000c003a00d08280000000e0001d003a0081
:1040f000c442e2000100350010c0b300c700dd007b
:10410000c4c2bf000074a10001407000c4e2b70047
:10411000110037003182800000022000808f5000a3
:1041200010003a00d08280000000e0000d003a004c
:10413000c442e2000100350010c0b300c700dd003a
:10414000c4c2bf000074a10001407000c4e2b70007
:10415000c442e20002003d00cc62a900000006005b
:10416000cc62a80000000600000006000000060067
:1041700000000600000006009444a80080702000a3
:10418000c08288008000eb008100e800808f500032
:10419000fdff3a005830ef009444a90000000600eb
:1041a00080007800e20f50000c00320003003e0057
:1041b000e10f50000e003a0006003700e30f5000f8
:1041c0000800320020072000808f500008003a00cd
:1041d00006003700b3fe07000500370004ff0700a4
:1041e00003003700d7fe0700010037000000000081
:0441f00010000500b6
:020000040000fa
:1041f4005810000006000000000000000e1000002f
:104204004a0000000000000000120000200000002e
:1042140000000000000800000e080000000000007c
:044224000000000096
:020000040000fa
:044228000000fe0094
:00000001FF
