:1007410090E600E054E74410F090E601E04440F008
:1007510090E61074A0F090E611F000000090E6120F
:1007610074A2F000000090E61374A0F00000009065
:10077100E61474E2F000000090E61574E0F090E6F3
:100781008D7440F000000090E6917480F00000004C
:10079100F000000090E695F0000000F090E65EE0C9
:0D07A1004438F0E044C4F043AF01D2002220
:010A2C0022A7
:0204FE00D32207
:020A2200D322DD
:020A2400D322DB
:080A120090E6BAE0F51BD322C7
:1009C80090E740E51BF0E490E68AF090E68B04F0AF
:0209D800D32228
:080A1A0090E6BAE0F51AD322C0
:1009DA0090E740E51AF0E490E68AF090E68B04F09E
:0209EA00D32216
:020A2600D322D9
:020A2800D322D7
:020A2A00D322D5
:1008CD0090E6B9E0242F600D04701990E604E0FF66
:1008DD00430780800890E604E0FF53077F00000087
:0708ED00EFF08002D322C3EB
:0108F40022E1
:10096C00C0E0C083C082D2015391EF90E65D740168
:08097C00F0D082D083D0E032FC
:10099C00C0E0C083C0825391EF90E65D7404F0D048
:0609AC0082D083D0E0328E
:1009B200C0E0C083C0825391EF90E65D7402F0D034
:0609C20082D083D0E03278
:1005C600C0E0C083C082852925852A2685268285A6
:1005D6002583A37402F08521278522288528828514
:1005E6002783A37407F05391EF90E65D7410F0D063
:0605F60082D083D0E03248
:10098400C0E0C083C082D2035391EF90E65D740847
:08099400F0D082D083D0E032E4
:10080A00C0E0C083C08290E680E030E720852125E1
:10081A00852226852682852583A37402F0852927C9
:10082A00852A28852882852783A37407F05391EFA8
:0D083A0090E65D7420F0D082D083D0E032D3
:010A2D003296
:010A2E003295
:010A2F003294
:010A30003293
:10091A00C0E0C083C08290E68D7440F05391EF909E
:0C092A00E65F7404F0D082D083D0E0328D
:1007AE00C0E0C083C082C0D075D000C005C006C0F6
:0107BE000733
:1007BF0090E68DE0FF90E6A2E020E127E4FEEEC395
:1007CF009F501B74802EF582E434E7F583E0FD74AF
:1007DF00C02EF582E434E7F583EDF00E80E090E66D
:0C07EF008FEFF05391EF90E65F7408F07C
:0F07FB00D007D006D005D0D0D082D083D0E03246
:1006B800C0E0C083C082C0D075D000C001C002C0F5
:0706C80004C005C006C007D5
:1006CF00E5AA20E54F74F0F59A7400F59B74F8F5E0
:1006DF009D7400F59E90E690E0FE90E691E07C0020
:1006EF002400FFEC3EFEE4FDC3ED9FEC9E500F9007
:1006FF00E67BE090E67CF00DBD00010C80EA90E611
:10070F0090E090E698F000000090E691E090E69976
:0D071F00F00000005391EF90E65F7410F0C1
:10072C00D007D006D005D004D002D001D0D0D082D2
:05073C00D083D0E03283
:10041E00C0E0C083C082C0D075D000C001C002C091
:07042E0004C005C006C00771
:10043500E5AA20E254E5AA20E74F74F4F59A740082
:10044500F59B74FCF59D7400F59E90E694E0FE9096
:10045500E695E07C002400FFEC3EFEE4FDC3ED9F45
:10046500EC9E500F90E67BE090E67CF00DBD000120
:100475000C80EA90E694E090E69CF000000090E69F
:1004850095E090E69DF00000005391EF90E65F74D3
:0204950020F055
:10049700D007D006D005D004D002D001D0D0D0826A
:0504A700D083D0E0321B
:10093600C0E0C083C08290E6917480F05391EF903E
:0C094600E65F7440F0D082D083D0E03235
:10095200C0E0C083C08290E6957480F05391EF901E
:0A096200E65FF0D082D083D0E032CF
:010A31003292
:010A32003291
:010A33003290
:010A3400328F
:010A3500328E
:010A3600328D
:010A3700328C
:010A3800328B
:010A3900328A
:010A3A003289
:010A3B003288
:010A3C003287
:010A3D003286
:010A3E003285
:010A3F003284
:010A40003283
:010A41003282
:010A42003281
:010A43003280
:010A4400327F
:010A4500327E
:010A4600327D
:010A4700327C
:010A4800327B
:010A4900327A
:010A4A003279
:0A0A080000010202030304040505C7
:1002B700E4F513F512F511F510C203C200C202C22C
:1002C700011207417E057F008E238F24752B05754C
:1002D7002C1275210575221C752905752A58752D4F
:1002E70005752E94EE54C070030203B8751400759B
:1002F70015808E168F17C374C49FFF74059ECF2475
:1003070002CF3400FEE48F0F8E0EF50DF50CF50BC2
:10031700F50AF509F508AF0FAE0EAD0DAC0CAB0B3A
:10032700AA0AA909A808C31209EC5033E517250B37
:10033700F582E516350AF583E0FFE515250BF5820D
:10034700E514350AF583EFF0E50B2401F50BE435E9
:100357000AF50AE43509F509E43508F50880B78593
:10036700142385152474002480FF740534FFFEC30D
:10037700E52C9FF52CE52B9EF52BC3E5269FF5264F
:10038700E5259EF525C3E5289FF528E5279EF52752
:10039700C3E5229FF522E5219EF521C3E52A9FF5B6
:1003A7002AE5299EF529C3E52E9FF52EE52D9EF515
:1003B7002DD2E843D82090E668E04409F090E65C47
:1003C700E0443DF0D2AF90E680E020E105D2041290
:1003D700084790E680E054F7F0538EF8C203120AFC
:1003E7002C300105120080C2013003F21204FE50C6
:1003F700EDC2031208F520001690E682E030E7040C
:10040700E020E1EF90E682E030E604E020E0E4124D
:070417000876120A2280C7DB
:0B09FD0090E509E030E402C322D322A1
:1000800090E6B9E0700302013F1470030201BC2442
:10009000FE700302023F24FB700302013914700357
:1000A00002013314700302012714700302012D248E
:1000B0000560030202A3120A2440030202AF90E685
:1000C000BBE024FE602714603824FD601114602713
:1000D00024067050E52390E6B3F0E524803C120935
:1000E000FD503EE52B90E6B3F0E52C802DE5259004
:1000F000E6B3F0E5268023E52790E6B3F0E5288017
:100100001990E6BAE0FF1208A2AA06A9077B01EA45
:10011000494B600DEE90E6B3F0EF90E6B4F00202CA
:10012000AF02029E02029E1209DA0202AF120A1AFE
:100130000202AF120A120202AF1209C80202AF1283
:100140000A2640030202AF90E6B8E0247F6015144F
:10015000601924027063A200E43325E0FFA202E4E8
:10016000334F8041E490E740F0803F90E6BCE0549C
:100170007EFF7E00E0D394807C0040047D018002FD
:100180007D00EC4EFEED4F2408F582740A3EF583A7
:10019000E493FF3395E0FEEF24A1FFEE34E68F8277
:1001A000F583E0540190E740F0E4A3F090E68AF094
:1001B00090E68B7402F00202AF02029E120A2840FF
:1001C000030202AF90E6B8E024FE6016240260034A
:1001D0000202AF90E6BAE0B40105C2000202AF022B
:1001E000029E90E6BAE0705590E6BCE0547EFF7E39
:1001F00000E0D394807C0040047D0180027D00EC0F
:100200004EFEED4F2408F582740A3EF583E493FF19
:100210003395E0FEEF24A1FFEE34E68F82F583E014
:1002200054FEF090E6BCE05480131313541FFFE01B
:10023000540F2F90E683F0E04420F08072805F122C
:100240000A2A506B90E6B8E024FE60192402704E32
:1002500090E6BAE0B40104D200805490E6BAE064BB
:1002600002604C803990E6BCE0547EFF7E00E0D313
:1002700094807C0040047D0180027D00EC4EFEED08
:100280004F2408F582740A3EF583E493FF3395E02A
:10029000FEEF24A1FFEE34E68F82F583800D90E619
:1002A000A080081208CD500790E6A0E04401F0902D
:0602B000E6A0E04480F02E
:0102B6002225
:030033000205FCC7
:0405FC0053D8EF32AF
:100500001201000200000040B404041000000102C7
:1005100000010A06000200000040010009023C0040
:1005200001010080320904000006FF0000000705F9
:100530000102000200070581020002000705020215
:1005400000020007050402000200070586020002FF
:10055000000705880200020009023C00010100803A
:10056000320904000006FF000000070501024000F8
:100570000007058102400000070502024000000755
:1005800005040240000007058602400000070588B8
:1005900002400000040309041003430079007000C6
:1005A00072006500730073001C0345005A002D00A3
:1005B0005500530042002000450050002000490033
:0605C0004E005400000093
:03004300020600B2
:03005300020600A2
:1006000002096C000209B20002099C000209840080
:100610000205C60002080A00020A2D00020A2E0086
:10062000020A2F00020A300002091A000207AE0077
:100630000206B80002041E00020936000209520038
:10064000020A3100020A2E00020A3200020A3300B6
:10065000020A3400020A3500020A3600020A370094
:10066000020A3800020A2E00020A2E00020A2E0098
:10067000020A3900020A3A00020A3B00020A3C0060
:10068000020A3D00020A3E00020A3F00020A400040
:10069000020A4100020A4200020A4300020A440020
:1006A000020A4500020A4600020A4700020A480000
:0806B000020A4900020A4A0097
:1008760090E682E030E004E020E60B90E682E0308D
:10088600E119E030E71590E680E04401F07F147E40
:0C089600001204AC90E680E054FEF0225A
:1008470030040990E680E0440AF0800790E680E0F3
:100857004408F07FDC7E051204AC90E65D74FFF07F
:0F08670090E65FF05391EF90E680E054F7F022B7
:0208A200A907A4
:1008A400AE2DAF2E8F828E83A3E064037017AD014B
:1008B40019ED7001228F828E83E07C002FFDEC3EC7
:0808C400FEAF0580DFE4FEFF3A
:0108CC002209
:1008F50090E682E044C0F090E681F0438701000075
:0409050000000022CC
:1004AC008E188F1990E600E054187012E51924018B
:1004BC00FFE43518C313F518EF13F519801590E602
:1004CC0000E05418FFBF100BE51925E0F519E518ED
:1004DC0033F518E5191519AE18700215184E60058C
:0604EC0012090980EE2256
:100909007400F58690FDA57C05A3E582458370F901
:0109190022BB
:030000000204F205
:0C04F200787FE4F6D8FD75812E0202B779
:1009EC00EB9FF5F0EA9E42F0E99D42F0E89C45F061
:0109FC0022D8
:00000001FF
