:020000040000FA
:10080000B3EF0AF00000000004EF04F00000000065
:0C08100000000000000000000CEF04F0ED
:06082A00000EF86E080E3E
:10083000F76E500E00017325D8A024EF04F0F72ABC
:10084000D8A424EF04F0F82AF66E0800F550120040
:100850001201100100000008D8040200000001028B
:10086000000109022200010100A032090400000178
:1008700003010100092100010001223F0007058159
:100880000308000A05010906A101050719E029E787
:1008900015002501750195088102950175088101F2
:1008A0009505750105081901290591029501750342
:1008B000910195067508150025650507190029653C
:1008C0008100C0000403090436034D006900630081
:1008D00072006F006300680069007000200054001F
:1008E0006500630068006E006F006C006F006700B9
:1008F00079002C00200049006E0063002E004403A4
:1009000045004E0047005200200032003200310006
:1009100030002000500049004300310038004600FC
:1009200032003400350035002000550053004200ED
:1009300020004B006500790062006F0061007200CA
:100940006400696A686A140E6F6E080E6D6E0001AD
:100950006D6B706B786B010E6E6F6F6FFF0E716F4A
:100960001200B5EF04F0B8EF04F068A2BDEF04F098
:100970006A6A5CEF05F0C0EF04F068ACC5EF04F004
:10098000689C5CEF05F0C8EF04F068A8CDEF04F0B8
:1009900068985CEF05F0D0EF04F068A4D6EF04F09F
:1009A00068946D925CEF05F0D9EF04F068AADEEF71
:1009B00004F0689A5CEF05F0E1EF04F068A017EF2F
:1009C00005F0838200016D6B68966896689668965C
:1009D000706A716A726A736A746A756A766A776A2B
:1009E000786A796A7A6A7B6A7C6A7D6A7E6A7F6ADB
:1009F0000401080E016F800E026F040E036F880E53
:100A0000006F880E066F040E076F080E046F6E6A83
:100A1000686A160E706EFF0E6B6E0001010E786F25
:100A2000010E6E6F83845CEF05F01AEF05F068A687
:100A30005CEF05F08386040EEA6E6C507C0BE96E69
:100A40000001EE50606FEE50616FEE50626FEE503D
:100A5000636F6C50776F689660513C0B32EF05F016
:100A60003AEF05F0340AD8B439EF05F0340A40EF14
:100A700005F0340A5DEC05F05AEF05F048EF05F09B
:100A8000240AD8B447EF05F0240A4EEF05F0240AF3
:100A9000C6EC09F05AEF05F056EF05F0040AD8B499
:100AA00055EF05F0040A5AEF05F0040A21EC0AF0AC
:100AB0005AEF05F05CEF05F0120000016351EA6E99
:100AC0006251E96EEE50646FEE50656FEE50666FE6
:100AD000EE50676FEE50686FEE50696FEE506A6FC0
:100AE000EE506B6F0401080E016F046F000164513A
:100AF0002108D8A47FEF05F0C80E80EF05F0880E1E
:100B00000401006F6D980001FF0E716F6451600B5E
:100B10008CEF05F094EF05F0000AD8B493EF05F0E0
:100B2000000A9AEF05F0000AB6EC05F0B5EF05F003
:100B3000A2EF05F0200AD8B4A1EF05F0200AA8EF33
:100B400005F0200A32EC09F0B5EF05F0B0EF05F042
:100B5000400AD8B4AFEF05F0400AB4EF05F0400A00
:100B6000C1EC09F0B5EF05F0708012006551BBEFE4
:100B700005F0C3EF05F0000AD8B4C2EF05F0000A93
:100B800086EF06F0000A64511F0BC9EF05F0D1EFA4
:100B900005F0000AD8B4D0EF05F0000AE3EF05F045
:100BA000000A04010751EA6E0651E96E00016E5118
:100BB000EE6EEF6A0401020E056FC80E046F82EF3D
:100BC00006F0EBEF05F0010AD8B4EAEF05F0010AF0
:100BD0001EEF06F0010A7851F0EF05F0F8EF05F08E
:100BE000020AD8B4F7EF05F0020AFDEF05F0020A99
:100BF00070801AEF06F005EF06F0030AD8B404EF90
:100C000006F0030A1AEF06F0030A010E685DD8B079
:100C100017EF06F004010751EA6E0651E96EEE6A1D
:100C2000EF6A020E056FC80E046F18EF06F07080B1
:100C30001AEF06F082EF06F026EF06F0020AD8B4AB
:100C400025EF06F0020A81EF06F0020A78512BEF39
:100C500006F033EF06F0020AD8B432EF06F0020ACB
:100C600051EF06F0020A68510F0BD8A44CEF06F0C2
:100C700004010751EA6E0651E96E70A043EF06F0D9
:100C8000010E44EF06F0000EEE6EEF6A020E056FE5
:100C9000C80E046F4DEF06F070807FEF06F059EF3D
:100CA00006F0030AD8B458EF06F0030A7EEF06F008
:100CB000030A04010751EA6E0651E96E0F0EE26E57
:100CC000700EE16E000168510F0BE3B46EEF06F099
:100CD000E3B26EEF06F070807CEF06F0E3A074EFF5
:100CE00006F0010E75EF06F0000EEE6EEF6A0401DD
:100CF000020E056FC80E046F7FEF06F0708082EF62
:100D000006F0708031EF09F08EEF06F0010AD8B4DA
:100D10008DEF06F0010A90EF06F0010A98EF06F059
:100D2000030AD8B497EF06F0030A28EF07F0030A86
:100D300064511F0B9EEF06F0A6EF06F0000AD8B430
:100D4000A5EF06F0000AC7EF06F0000A6651ABEF08
:100D500006F0B3EF06F0010AD8B4B2EF06F0010ACC
:100D6000C2EF06F0010A65510108D8A4BBEF06F0F6
:100D70006E93BCEF06F06E830401056BC80E046F22
:100D8000C3EF06F0708024EF07F0CFEF06F0020A01
:100D9000D8B4CEEF06F0020A23EF07F0020A78512A
:100DA000D4EF06F0DCEF06F0020AD8B4DBEF06F071
:100DB000020AF5EF06F0020A68510F0BD8A4F0EF13
:100DC00006F065510108D8A4E9EF06F07090EAEF4B
:100DD00006F070800401056BC80E046FF1EF06F099
:100DE000708021EF07F0FDEF06F0030AD8B4FCEFA6
:100DF00006F0030A20EF07F0030A0F0EEA6E700EEA
:100E0000E96E68510F0BE926D8A008EF07F0EA2A2F
:100E1000EFB411EF07F0EFB211EF07F070801EEFA3
:100E200007F065510108D8A419EF07F0EF901AEF09
:100E300007F0EF800401056BC80E046F21EF07F087
:100E4000708024EF07F0708031EF09F030EF07F089
:100E5000050AD8B42FEF07F0050A42EF07F0050A9C
:100E600066AF36EF07F070803EEF07F0050E716F4A
:100E70006651726F0401056BC80E046F31EF09F003
:100E80004AEF07F0060AD8B449EF07F0060A66EF02
:100E900008F0060A716F675150EF07F058EF07F03E
:100EA000010AD8B457EF07F0010A6FEF07F0010A03
:100EB000000E736F15EC04F0746F6B510008D8A42A
:100EC00069EF07F074516A5DD8B069EF07F06A51B5
:100ED000746F6AEC0AF062EF08F077EF07F0020A2D
:100EE000D8B476EF07F0020AA8EF07F0020A6C9177
:100EF00066517DEF07F085EF07F0000AD8B484EF64
:100F000007F0000A88EF07F0000A120E89EF07F0D9
:100F10006C816CB1A3EF07F0020F736F15EC04F056
:100F2000746F020E735F6B510008D8A49FEF07F037
:100F300074516A5DD8B09FEF07F06A51746F6AEC24
:100F40000AF0A4EF07F0708062EF08F0B0EF07F04E
:100F5000030AD8B4AFEF07F0030AF8EF07F0030A6B
:100F60006C916651B6EF07F0BEEF07F0000AD8B4F7
:100F7000BDEF07F0000AC3EF07F0000A740EDCEFC4
:100F800007F0CBEF07F0010AD8B4CAEF07F0010A67
:100F9000D0EF07F0010A780EDCEF07F0D8EF07F08A
:100FA000020AD8B4D7EF07F0020ADBEF07F0020A13
:100FB000AE0EDCEF07F06C816CB1F3EF07F0736FEE
:100FC00015EC04F0746F6B510008D8A4EFEF07F034
:100FD00074516A5DD8B0EFEF07F06A51746F6AEC34
:100FE0000AF0F4EF07F0708062EF08F000EF08F00D
:100FF000210AD8B4FFEF07F0210A2EEF08F0210AEA
:101000006C91665106EF08F00EEF08F0000AD8B4B4
:101010000DEF08F0000A11EF08F0000A240E12EF9D
:1010200008F06C816CB129EF08F0736F15EC04F0D7
:10103000746F6B510008D8A425EF08F074516A5DF5
:10104000D8B025EF08F06A51746F6AEC0AF02AEF05
:1010500008F0708062EF08F036EF08F0220AD8B48A
:1010600035EF08F0220A61EF08F0220A6C91665110
:101070003CEF08F044EF08F0000AD8B443EF08F062
:10108000000A49EF08F0000A3F0E746F340E4AEF71
:1010900008F06C816CB15EEF08F0736F6B51000863
:1010A000D8A45AEF08F074516A5DD8B05AEF08F02E
:1010B0006A51746F6AEC0AF05FEF08F0708062EFBB
:1010C00008F0708031EF09F06EEF08F0080AD8B42C
:1010D0006DEF08F0080A7FEF08F0080A04010751D5
:1010E000EA6E0651E96E00016D51EF6E0401010ECA
:1010F000056FC80E046F31EF09F087EF08F0090A99
:10110000D8B486EF08F0090AB6EF08F0090A66516C
:101110000108D8A0B1EF08F066516D6F92EF08F0AA
:101120009AEF08F0000AD8B499EF08F0000A9EEF91
:1011300008F0000A020E786FABEF08F0030E786F2C
:10114000080E04010D6F900E0E6F040E0F6F480E07
:101150000C6F120E716E0401056BC80E046FB2EFB6
:1011600008F0708031EF09F0BEEF08F00A0AD8B439
:10117000BDEF08F00A0AE4EF08F00A0A7851C3EF5D
:1011800008F0CBEF08F0030AD8B4CAEF08F0030A5E
:10119000DFEF08F0030A010E685DD8B0DCEF08F05D
:1011A00004010751EA6E0651E96EEF6A010E056F00
:1011B000C80E046FDDEF08F07080E0EF08F070807B
:1011C00031EF09F0ECEF08F00B0AD8B4EBEF08F0C0
:1011D0000B0A1CEF09F00B0A7851F1EF08F0F9EF58
:1011E00008F0030AD8B4F8EF08F0030A17EF09F083
:1011F000030A010E685DD8B014EF09F0665103EFE1
:1012000009F00BEF09F0000AD8B40AEF09F0000A60
:1012100011EF09F0000A0401056BC80E046F12EF0C
:1012200009F0708015EF09F0708018EF09F07080F8
:1012300031EF09F024EF09F0070AD8B423EF09F0E1
:10124000070A26EF09F0070A2EEF09F00C0AD8B4B6
:101250002DEF09F00C0A2EEF09F00C0A708031EF27
:1012600009F01200655137EF09F03FEF09F0010A6C
:10127000D8B43EEF09F0010A5EEF09F0010A04015B
:101280000751EA6E0651E96E00017B51EE6E7C510A
:10129000EE6E7D51EE6E7E51EE6E7F51EE6E8051A0
:1012A000EE6E8151EE6E8251EF6E0401080E056FF5
:1012B000C80E046FC0EF09F066EF09F0090AD8B450
:1012C00065EF09F0090A6BEF09F0090A716FC0EFC9
:1012D00009F073EF09F0030AD8B472EF09F0030ABA
:1012E00084EF09F0030A04010751EA6E0651E96E22
:1012F00000016F51EF6E0401010E056FC80E046FFF
:10130000C0EF09F08CEF09F00B0AD8B48BEF09F0AD
:101310000B0A96EF09F00B0A66516F6F0401056B1B
:10132000C80E046FC0EF09F09EEF09F0020AD8B4AE
:101330009DEF09F0020AAFEF09F0020A040107511C
:10134000EA6E0651E96E00017051EF6E0401010E64
:10135000056FC80E046FC0EF09F0B7EF09F00A0A75
:10136000D8B4B6EF09F00A0ABFEF09F00A0A6651CD
:10137000706F0401056BC80E046FC0EF09F0708038
:1013800012006551C4EF09F070801200000177511E
:10139000180BCDEF09F0D5EF09F0000AD8B4D4EF5F
:1013A00009F0000A0AEF0AF0000A7151DAEF09F0B9
:1013B000E2EF09F0050AD8B4E1EF09F0050AFAEF07
:1013C00009F0050A72516E6EE8EF09F0F0EF09F0CE
:1013D000000AD8B4EFEF09F0000AF4EF09F0000AB0
:1013E000010E786FF6EF09F0020E786F06EF0AF043
:1013F00002EF0AF0060AD8B401EF0AF0060A06EF77
:101400000AF0060A6AEC0AF006EF0AF020EF0AF08A
:1014100012EF0AF0080AD8B411EF0AF0080A16EF22
:101420000AF0080A20EF0AF01EEF0AF0100AD8B4FA
:101430001DEF0AF0100A20EF0AF0100A20EF0AF060
:10144000120000017751180B28EF0AF030EF0AF074
:10145000000AD8B42FEF0AF0000A53EF0AF0000A8E
:10146000715135EF0AF03DEF0AF0090AD8B43CEFAC
:101470000AF0090A47EF0AF0090AFF0E716F04012A
:101480000351EA6E0251E96EEF5000017A6F0401D8
:10149000080E016F880E006F056BC80E046F69EFB0
:1014A0000AF05BEF0AF0080AD8B45AEF0AF0080A0B
:1014B0005FEF0AF0080A69EF0AF067EF0AF0100A16
:1014C000D8B466EF0AF0100A69EF0AF0100A69EF63
:1014D0000AF012000001080E745DD8B075EF0AF032
:1014E000FF0E716F745176EF0AF0080E745F766F1D
:1014F0000401056F0751EA6E0651E96E0001010E05
:10150000756F7551765DD8A08DEF0AF015EC04F07B
:10151000EE6E732B752B81EF0AF00401400E041957
:10152000400B8809046F120004010F51EA6E0E513E
:10153000E96E00017B51EE6E7C51EE6E7D51EE6ED8
:101540007E51EE6E7F51EE6E8051EE6E8151EE6EE9
:101550008251EF6E0401080E0D6F0C51400B400AD2
:1015600088090C6F12000001010E796F795117087C
:10157000D8A0BEEF0AF0792BB6EF0AF0806A0F0E02
:10158000C16EFF0E926EF00E956E81501009816E45
:10159000FE0ED76E200ED66E970ED56EA1EC04F01F
:1015A000B1EC04F00F018372000178510308D8A454
:1015B000D0EF0AF00001796B7A6B7B6B7C6B7D6BF3
:1015C0007E6B7F6B806B816B826BB1EC04F0F2A45D
:1015D000E5EF0AF0F294FE0ED76E200ED66E0401EF
:1015E0000CBF05EF0BF0000EEA6E7D0EE96E81A8D0
:1015F000FCEF0AF0390EEE6E07EC0BF0EE6EEF6AC0
:10160000792B070E791794EC0AF0E5EF0AF0000E3B
:10161000F86E160EF76E340E00017925D8A016EF7D
:101620000BF0F72AD8A416EF0BF0F82AF66E080094
:0C163000F5501200091200120504152CE0
:00000001FF
