:020000040000FA
:06000000B4EF16F012003F
:0600080004EF08F01200F5
:060018000CEF08F01200DD
:06100000B4EF16F012002F
:021006000000E8
:06100800A7EF14F0120036
:02100E001200CE
:06101800F2EF14F01200DB
:02101E00D9CF28
:10102000E6FFE1CFD9FFE652A098636A626A0F013A
:10103000266B010EE66EE66AE66A270EE66E0F0E76
:10104000E66E8AEC16F00B6E050EE15E0B500F019A
:10105000160E396F9F0E376F7B0E366FDF6ADF50CB
:101060000B6E0C6A080E0B5C000E0C5810E2DF5081
:10107000040DF3CFE9FFF4CFEAFF000EE926040EDA
:10108000EA22EE6AEE6AEE6AEE6ADF2AE8D7658C3B
:101090000F01386B6598659C62A607D062960001C7
:1010A000736B786B796B7A6BF7D70001010E8A6FDF
:1010B0008B6F8C6B8D6B806BDF6A020EDF5C26E2C0
:1010C000EA6ADF34FE0BEA36E96E6B0EE926000EA3
:1010D000EA22EE6AED6AEA6ADF34FE0BEA36E96E6E
:1010E000670EE926000EEA22EE6AED6ADF50EA6A30
:1010F000840FE96E000EEA22EF6ADF50EA6A860F7B
:10110000E96E000EEA22EF6ADF2AD7D70001080E47
:101110006B6F040E6C6F0F01160E266F0401200E0C
:10112000026F040E036F080E016F840E006F000142
:10113000616B606BE552E552E7CFD9FF1200D9CF62
:10114000E6FFE1CFD9FFE6520001600509E165BA8B
:1011500007D0626A0F01368136890001020E606F86
:101160006250040B06E00F013651040B02E062945A
:10117000CCD865A202D0A19893D06250010B0AE0AE
:101180000F013651010B06E04ADFA0880001040E72
:10119000606F62906250100B06E00F013651100B29
:1011A00002E09DD8629862AC13D00F0136AD0FD02B
:1011B000010EE66EE66A000EE66EE66A730EE66EF5
:1011C000E66A99EC15F00B6E060EE15E0B50629C20
:1011D0006250200B05E00F013651200B01E065D86D
:1011E0006250020B14E00F013651020B10E0010EA9
:1011F000E66EE66A000EE66EE66AE6687F0EE66E6A
:1012000099EC15F00B6E060EE15E0B50636A040E4E
:101210000001E76E6019E8AE02D0E73402D0E75073
:10122000605D02E2A1983CD00F0136A738D0DF6A9A
:10123000040EDF5C34E262A631D064CF81F000019D
:101240008151780BE842E842E842826F629681B5AC
:1012500008D08251EA6A860FE96E000EEA22EF702A
:1012600007D08251EA6A840FE96E000EEA22EF701D
:10127000825102E162D810D0000EE66EE66A810E5D
:10128000E66E000EE66E720EE66EE66A99EC15F0FA
:101290000B6E060EE15E0B50DF2ACAD700D0A19874
:1012A000E552E552E7CFD9FF12000F0126A115D074
:1012B00063C0E9FF64C0EAFFEF5080080DE16BC036
:1012C000E9FF6CC0EAFFEF50840806E163C0E9FF64
:1012D00064C0EAFF8C0EEF6E2691629A12000F0135
:1012E0003685629865820001010E806F000EE66E01
:1012F000E66AE66EE66A750EE66EE66A99EC15F049
:101300000B6E060EE15E0B5012000001806B000EAA
:10131000E66EE66AE66EE66A740EE66EE66A99ECDA
:1013200015F00B6E060EE15E0B5065920F013695BF
:1013300062A402D06294FCD71200D9CFE6FFE1CFBD
:10134000D9FFE652FD0E0001811553E17E0E811595
:10135000E8407F0B040DF3CF63F0F4CF64F0000E90
:101360006327040E642363C065F064C066F065758E
:1013700063C0E9FF64C0EAFFEF503C0BE842E8427B
:101380000D0835E1DF6A080EDF5C23E263C0E9FF88
:1013900064C0EAFF020EE926000EEA22EE50EFCF0B
:1013A000EAFFE96EEF50E66EDF50EA6A200FE96E61
:1013B000040EEA22E552E750EF6E63C0E9FF64C015
:1013C000EAFF020EE926000EEA22EE2AEF22DF2AC9
:1013D000DAD763C0E9FF64C0EAFF020EE926000E17
:1013E000EA22200EEE6E040EED6E0DD801D03AD832
:1013F00005D0FD0E8115040801E15AD8E552E552E9
:10140000E7CFD9FF120000016F6B896B8C6B8D6B7E
:10141000836B706B6BC0E9FF6CC0EAFFEF9E6B756E
:101420006BC0E9FF6CC0EAFFEF9E6B7565C0E9FF1A
:1014300066C0EAFFEF9E736B746B756B786B796BAC
:101440007A6B93D8000EE66EE66AE66EE66A030EE5
:10145000E66EE66A99EC15F00B6E060EE15E0B5037
:10146000A5EF0DF0020E0001705D03E168EC0EF0D7
:101470001ED0706B83511AE165C0E9FF66C0EAFFB8
:10148000EE52080EEF6E65C0E9FF66C0EAFF020E7D
:10149000E926000EEA22200EEE6E040EED6E65C007
:1014A000E9FF66C0EAFF8C0EEF6E01D0836B12007D
:1014B000D9CFE6FFE1CFD9FFE6526BC0E9FF6CC0A0
:1014C000EAFFEF50400B01E0010EDF6E00016B758B
:1014D000080E605D0CE122C438FF0F01385104E0B2
:1014E0000001100E606F03D00001040E606F7005E4
:1014F00028E16BC0E9FF6CC0EAFF020EE926000E8E
:10150000EA22280EEE6E040EED6E80DB020E000164
:101510006F5D07E16BC0E9FF6CC0EAFF840EEF6E00
:101520000FD0DF5007E16BC0E9FF6CC0EAFFC80EC7
:10153000EF6E06D06BC0E9FF6CC0EAFF880EEF6E5D
:101540000FD078AF0CD07B517C1107E005D07CC068
:10155000FAFF00017B51F96EFADF0001789F706B92
:10156000E552E552E7CFD9FF120004012051600B8C
:10157000E842E842E842E842E842000901E059D086
:1015800021510C0A55E00B0A44E00C0A36E0010A2E
:1015900027E00B0A23E0020A21E0030A1DE0080A03
:1015A00011E0010A0CE00F0A08E0030A01E040D054
:1015B0000001738F080E606F3CD006DA3AD008EC59
:1015C0000FF037D00001610E716F000E726F7381E2
:1015D000010E746F738F2DD057DA2BD02BD829D0F2
:1015E00024510001716F726B620E7127000E72231D
:1015F0007381010E746F738F1CD00001738F04010F
:101600002451EA6A620FE96E000EEA2222C4EFFF5B
:1016100010D0000EE66EE66AE66EE66A020EE66E30
:10162000E66A99EC15F00B6E060EE15E0B5001D0E8
:1016300000D01200D9CFE6FFE1CFD9FF030EE1269B
:101640000401220510E120511F0B00090CE10001EB
:10165000738F030E0401215D04E10001010E7F6F11
:1016600002D000017F6B0401225101E012D1205110
:101670001F0B020801E00DD124510F0B000901E1FD
:1016800008D124510F0B010801E203D1200E000103
:10169000605D01E0FED0738F040124BF1AD0245195
:1016A0000F0BE96EEA6AD890E936EA36670EE9264A
:1016B000000EEA22EECFDEFFEDCFDDFF24510F0B4F
:1016C000EA6A860FE96E000EEA22020EEFCFDBFF18
:1016D00019D024510F0BE96EEA6AD890E936EA3640
:1016E0006B0EE926000EEA22EECFDEFFEDCFDDFF26
:1016F00024510F0BEA6A840FE96E000EEA22020EF3
:10170000EFCFDBFFD950020FE96EDACFEAFFEF50DF
:10171000010B03E1000EDF9401D0DF8424BF10D061
:1017200024510F0BE96EEA6AD890E936EA36670E63
:10173000E926000EEA22DECFEEFFDDCFEDFF0FD06F
:1017400024510F0BE96EEA6AD890E936EA366B0E3F
:10175000E926000EEA22DECFEEFFDDCFEDFF030E1D
:10176000215D23E1DECFE9FFDDCFEAFFEF50800B03
:1017700013E024BF09D024510F0BEA6A860FE96EEB
:10178000000EEA22EF8208D024510F0BEA6A840F80
:10179000E96E000EEA22EF82840E0B6EDECFE9FFC7
:1017A000DDCFEAFF0B50EF1274D0DF74DECFE9FF1C
:1017B000DDCFEAFFEF50800B1BE0DECFE9FFDDCF8E
:1017C000EAFFEF9EDECFE9FFDDCFEAFFEF8C020EEE
:1017D000E66EE66ADECFE6FFDDCFE6FF050EE66EDB
:1017E000E66A99EC15F00B6E060EE15E0B5005D023
:1017F000DECFE9FFDDCFEAFFEF8CDF74D950020FB7
:10180000E96EDACFEAFFEF50020B0EE1DECFE9FF1F
:10181000DDCFEAFFEF50800B34E0DECFE9FFDDCF14
:10182000EAFFEF50040B2DE1040124BF09D024513D
:101830000F0BEA6A860FE96E000EEA22EF9208D0DB
:1018400024510F0BEA6A840FE96E000EEA22EF9230
:101850003B0E0B6EDECFE9FFDDCFEAFF0B50EF163C
:10186000020EE66EE66ADECFE6FFDDCFE6FF050E8E
:10187000E66EE66A99EC15F00B6E060EE15E0B5013
:1018800008D03B0E0B6EDECFE9FFDDCFEAFF0B5039
:10189000EF16030EE15C02E2E16AE552E16EE55209
:1018A000E7CFD9FF120000018A514DE1010E8A6F86
:1018B0008B5149E1010E8B6F020E705D0DE16BC023
:1018C000E9FF6CC0EAFFEE52EF6A6BC0E9FF6CC043
:1018D000EAFFC80EEF6E37D0700535E1836B63C049
:1018E000E9FF64C0EAFFEE52080EEF6E63C0E9FF45
:1018F00064C0EAFF020EE926000EEA22200EEE6E18
:10190000040EED6E63C0E9FF64C0EAFF840EEF6E63
:10191000010E836F65C0E9FF66C0EAFFEE52080E54
:10192000EF6E65C0E9FF66C0EAFF020EE926000E11
:10193000EA22200EEE6E040EED6E65C0E9FF66C071
:10194000EAFF800EEF6E120000018C6B8D6B020EB1
:10195000705D1AE165C0E9FF66C0EAFFEE52080E4D
:10196000EF6E65C0E9FF66C0EAFF020EE926000ED1
:10197000EA22280EEE6E040EED6E65C0E9FF66C029
:10198000EAFFC80EEF6E1FD074510401265D0001FE
:1019900075510401275904E226C474F027C475F078
:1019A00035D96BC0E9FF6CC0EAFF020EE926000ED4
:1019B000EA22280EEE6E040EED6E6BC0E9FF6CC0DD
:1019C000EAFFC80EEF6E1200800E0401205D5BE19D
:1019D0000001C00E736F04012351030A34E0010AB1
:1019E0000EE0030A03E00001736B4DD00001CE0E40
:1019F000716F2B0E726F120E746F756B44D0225183
:101A0000F66EF76AD890F636F736170EF6262C0ED5
:101A1000F7220900F5CF71F00A00F5CF72F0020E3F
:101A20000001F76A7125F66E7251F7220800F5CFB2
:101A300074F0030EF76A7125F66E7251F7220800F2
:101A4000F5CF75F020D0040E225D1AE22251F66E19
:101A5000F76AD890F636F7366D0EF6262C0EF7227A
:101A60000900F5CF71F00A00F5CF72F071C0F6FFF2
:101A700072C0F7FF0800F5500001746F756B02D05B
:101A80000001736B00D01200D9CFE6FFE1CFD9FF80
:101A9000020EE1260401286B296B20511F0B020A5C
:101AA00012E0030A0DE0010A01E03BD00001738F50
:101AB0000401288100017F0502E10401288331D05F
:101AC0000001738F2ED00001738F040124BF10D04A
:101AD00024510F0BE96EEA6AD890E936EA36670EB0
:101AE000E926000EEA22EECFDEFFEDCFDDFF0FD0BC
:101AF00024510F0BE96EEA6AD890E936EA366B0E8C
:101B0000E926000EEA22EECFDEFFEDCFDDFFDECFCD
:101B1000E9FFDDCFEAFFEF50040B02E0010E286F72
:101B200000D0000173AF07D0280E716F040E726FE2
:101B30007381020E746F020EE15C02E2E16AE5520B
:101B4000E16EE552E7CFD9FF12006598000173BF3F
:101B50002BD078AF09D0020E706F8D5101E1F4DE09
:101B600000018B6B8A6B1FD065C0E9FF66C0EAFF7E
:101B7000EE52080EEF6E65C0E9FF66C0EAFF020E86
:101B8000E926000EEA22200EEE6E040EED6E65C010
:101B9000E9FF66C0EAFF8C0EEF6E6BC0E9FF6CC018
:101BA000EAFF840EEF6E31D0040120AF0DD00001AA
:101BB000010E706F8C5101E1C7DE00018B6B8A6BE7
:101BC000895101E170DE21D00001020E706F65C005
:101BD000E9FF66C0EAFFEE52080EEF6E65C0E9FF4E
:101BE00066C0EAFF020EE926000EEA22200EEE6E23
:101BF000040EED6E65C0E9FF66C0EAFF840EEF6E6D
:101C00008B6B8A6B895101E14EDE1200D9CFE6FF62
:101C1000E1CFD9FFE652080EDF6E0001745D000EC1
:101C200075590BE274C0DFFF6F5103E1010E6F6F56
:101C300004D06F0502E1020E6F6FDF500B6E0C6A6D
:101C40000B50745D746F0C507559756F6BC0E9FF64
:101C50006CC0EAFFEE52DFCFEFFF280E7D6F040E5F
:101C60007E6F73B119D0DF5016E071C0F6FF72C0FD
:101C7000F7FF712B000E72230800F550E66E7DC051
:101C8000E9FF7EC0EAFF7D2B000E7E23E552E75080
:101C9000EF6EDF06E8D717D0DF5015E071C0E9FF1F
:101CA00072C0EAFF712B000E7223EF50E66E7DC00A
:101CB000E9FF7EC0EAFF7D2B000E7E23E552E75050
:101CC000EF6EDF06E9D7E552E552E7CFD9FF120004
:101CD000D9CFE6FFE1CFD9FF020EE12663C0E9FFCD
:101CE00064C0EAFFEE52EFCFDFFFDFCF0BF00B5007
:101CF0000001795D000E7A5902E279C0DFFFDF5002
:101D00000B6E0C6A0B50795D796F0C507A597A6FB3
:101D1000010EDB6ADF50F36E010EDBCFF4FFF350F0
:101D2000F45C16E2010EDB50EA6A280FE96E040E3D
:101D3000EA22EF50E66E76C0E9FF77C0EAFF762B25
:101D4000000E7723E552E750EF6E010EDB2AE2D753
:101D5000000ED8807955000E7A5528E265C0E9FF5B
:101D600066C0EAFFEE52080EEF6E65C0E9FF66C07E
:101D7000EAFF020EE926000EEA22280EEE6E040E9D
:101D8000ED6E63C0E9FF64C0EAFFEF50400B07E16E
:101D900065C0E9FF66C0EAFFC80EEF6E06D065C0F9
:101DA000E9FF66C0EAFF880EEF6E28D065C0E9FF44
:101DB00066C0EAFFEE52080EEF6E65C0E9FF66C02E
:101DC000EAFF020EE926000EEA22200EEE6E040E55
:101DD000ED6E65C0E9FF66C0EAFF840EEF6E7B51D1
:101DE0007C1107E005D07CC0FAFF00017B51F96E41
:101DF000FADF0001789F895101E155DD020EE15CB7
:101E000002E2E16AE552E16EE552E7CFD9FF120046
:101E1000D9CFE6FFE1CFD9FFE6520001738F010E63
:101E2000E66EE66AE66A270EE66E0F0EE66E8AEC4E
:101E300016F00B6E050EE15E0B50DF6ADF500B6E85
:101E40000C6A080E0B5C000E0C5810E2DF50040DFB
:101E5000F3CFE9FFF4CFEAFF000EE926040EEA22F1
:101E6000EE6AEE6AEE6AEE6ADF2AE8D7658C010E4A
:101E7000E66EE66AE66A620EE66E000EE66E8AECD2
:101E800016F00B6E050EE15E0B50659C0001080E0E
:101E90006B6F040E6C6F000E636F040E646F63C093
:101EA00065F064C066F022C461F0615103E1100E78
:101EB000606F13D0010EE66EE66A610EE66E000EEC
:101EC000E66E010EE66EE66A99EC15F00B6E060EF4
:101ED000E15E0B500001200E606FE552E552E7CF46
:101EE000D9FF1200D9CFE6FFE1CFD9FF020EE126DC
:101EF000000EDE6E040EDD6EFD0EDB50E8240D6E6E
:101F0000FE0EDB50040DF3500D24040DF3CF0BF047
:101F1000F4CF0CF0D9CFE9FFDACFEAFF0B50EE2671
:101F20000C50ED22DECFE9FFDDCFEAFFEF9EFD0E84
:101F3000DB500FE1FE0EEA6ADB34FE0BEA36E96E97
:101F4000670EE926000EEA22DECFEEFFDDCFEDFFC1
:101F50000ED0FE0EEA6ADB34FE0BEA36E96E6B0E3B
:101F6000E926000EEA22DECFEEFFDDCFEDFFDECF69
:101F7000E9FFDDCFEAFFEF9CDECFE9FFDDCFEAFF2F
:101F8000040EE926000EEA22EF8C020EE15C02E26A
:101F9000E16AE552E16EE552E7CFD9FF1200D9CFF1
:101FA000E6FFE1CFD9FF020EE126FD0EDBA407D04C
:101FB000E66AFE0EDBCFE6FF95DFE552E552FD0E49
:101FC000DBA208D0010EE66EFE0EDBCFE6FF8ADF55
:101FD000E552E552FE0EDB500C6A260F0B6E0F0E1B
:101FE0000C220BC0DEFF0CC0DDFFDECFE9FFDDCF32
:101FF000EAFFFD0EDBCFEFFF020EE15C02E2E16AD9
:10200000E552E16EE552E7CFD9FF1200D9CFE6FFE6
:10201000E1CFD9FF020EE126FE0EDB5020E165C0C4
:10202000E9FF66C0EAFFEE52080EEF6E65C0E9FFF9
:1020300066C0EAFF020EE926000EEA22200EEE6ECE
:10204000040EED6E65C0E9FF66C0EAFF8C0EEF6E10
:102050006BC0E9FF6CC0EAFF840EEF6E3DD0FD0E51
:10206000DB50E8240D6EFE0EDB50040DF3500D2402
:10207000040DF3CF0BF0F4CF0CF0000E0B26040E82
:102080000C220BC0DEFF0CC0DDFF840E0B6EDECF1A
:10209000E9FFDDCFEAFF0B50EF12FD0EDB50E82425
:1020A0000D6EFE0EDB50040DF3500D24010F040DD8
:1020B000F3CF0BF0F4CF0CF0000E0B26040E0C2225
:1020C0000BC0DEFF0CC0DDFF840E0B6EDECFE9FF20
:1020D000DDCFEAFF0B50EF12020EE15C02E2E16A93
:1020E000E552E16EE552E7CFD9FF1200D9CFE6FF06
:1020F000E1CFD9FF020EE126FD0EDB500FE0FE0E10
:10210000EA6ADB34FE0BEA36E96E6B0EE926000E56
:10211000EA22EECFDEFFEDCFDDFF0ED0FE0EEA6A43
:10212000DB34FE0BEA36E96E670EE926000EEA2282
:10213000EECFDEFFEDCFDDFFD9CFE9FFDACFEAFF4B
:10214000EE50ED1003E1F36AF46A49D0DECFE9FF07
:10215000DDCFEAFF020EE926000EEA22FB0EDBCFFE
:10216000EEFFFC0EDBCFEDFFDECFE9FFDDCFEAFFB8
:10217000EE52FA0EDBCFEFFF400E0B6EDECFE9FF23
:10218000DDCFEAFF0B50EF16880E0B6EDECFE9FFB6
:10219000DDCFEAFF0B50EF12FD0EDB500CE0FE0E20
:1021A000EA6ADB34FE0BEA36E96E6B0EE926000EB6
:1021B000EA22EF740BD0FE0EEA6ADB34FE0BEA363D
:1021C000E96E670EE926000EEA22EF74DECF0BF00F
:1021D000DDCF0CF00BC0F3FF0CC0F4FF00D0020EFB
:1021E000E15C02E2E16AE552E16EE552E7CFD9FF38
:1021F0001200D9CFE6FFE1CFD9FF65A84ED0FE0E81
:10220000EA6ADB34FE0BEA36E96E6B0EE926000E55
:10221000EA22EE50EFCFEAFFE96E400EEE16EE6ACC
:10222000EE6AEE6AFE0EEA6ADB34FE0BEA36E96E0F
:102230006B0EE926000EEA22EE50EFCFEAFFE96EC0
:10224000EE7CFE0EEA6ADB34FE0BEA36E96E6B0EBC
:10225000E926000EEA22EF74400E0B6EFE0EEA6ACB
:10226000DB34FE0BEA36E96E6B0EE926000EEA223D
:10227000EE50EFCFEAFFE96E0B50EF16FE0EEA6A62
:10228000DB34FE0BEA36E96E6B0EE926000EEA221D
:10229000EE50EFCFEAFFE96EEF7CE552E7CFD9FFD2
:1022A0001200656A0F01366B0001606B00D01200EE
:1022B0000001605114E1656A0F01366B160E396F2B
:1022C0009F0E376F7B0E366FD08EA288A088F28E5D
:1022D00065B602D06586FCD70001010E606F120062
:1022E0000001200E996F4E0E9A6F00017B6B7C6B84
:1022F0001200D9CFE6FFE1CFD9FFE6520401265103
:10230000DF6E0001000E766F0B0E776FDF500D6EE3
:102310000E6A080E0D5C000E0E5804E2DF500B6EC4
:102320000C6A03D0080E0B6E0C6A0BC079F0E00E3D
:102330007B6F220E7C6F788F0001739FE552E55210
:10234000E7CFD9FF12001E0EE66E010EE66ECFEC4F
:102350000FF0E552E552040E0001691502E0010E8E
:1023600001D0000E0B6E0C6A0BBE0C68060ED890E6
:102370000B360C36E806FBE1000E0B260A0E0C228B
:1023800069C0E9FF6AC0EAFF020EE926000EEA22F0
:102390000BC0EEFF0CC0EDFF00016975040E69155E
:1023A00002E0010E01D0000E0B6E0C6A0BBE0C6831
:1023B000060ED8900B360C36E806FBE1000E0B2615
:1023C0000A0E0C2269C0E9FF6AC0EAFF020EE92684
:1023D000000EEA220BC0EEFF0CC0EDFF0001697594
:1023E00053DA52DA040E00016D1502E0010E01D03D
:1023F000000E0B6E0C6A0BBE0C68060ED8900B36E6
:102400000C36E806FBE1800E0B260A0E0C226DC08E
:10241000E9FF6EC0EAFF020EE926000EEA220BC0B9
:10242000EEFF0CC0EDFF00016D75040E6D1502E0AE
:10243000010E01D0000E0B6E0C6A0BBE0C68060E6E
:10244000D8900B360C36E806FBE1800E0B260A0E00
:102450000C226DC0E9FF6EC0EAFF020EE926000EF5
:10246000EA220BC0EEFF0CC0EDFF00016D751200FB
:1024700004012051600BE842E842E842E842E842A9
:10248000020801E039D02151110A20E0010A1CE0C4
:102490001F0A10E0010A01E02FD022510B010A6F40
:1024A00000010A0E716F0B0E726F7381010E746F53
:1024B000738F22D000010A0E716F0B0E726F738141
:1024C000010E746F738F18D014DF16D00001000E48
:1024D000716F0B0E726F7381040126510001746FCE
:1024E000080E0B6E0C6A74510B5C000E0C5802E265
:1024F000080E746F738F00D01200030E0401235D69
:1025000004E1550E225D01E1F4DE12000B01030E21
:102510000A6F0B6F0C6B0D6B1200D9CFE6FFE1CF8A
:10252000D9FFE652DF6A0B01086B096BFB0EDBCFAC
:102530000BF0FC0EDBCF0CF00B50085D0C50095972
:1025400019E2DF50DF2AE66EFD0EDB5008250F0191
:10255000E96EFE0EDB500B0109210F01EA6EE55218
:10256000E750EF6EDF5001E1DF2A0B01082B000E70
:102570000923DCD7E552E552E7CFD9FF120041EC41
:1025800015F0200E0001E76E6019E8AE02D0E734C6
:1025900002D0E750605D03E36550020B02E0B6DF56
:1025A00017D00B010B510A5D04E00C6B0D6B0ACBCD
:1025B0000BFB0A51030A0AE0010A06E0030A02E0E3
:1025C00063D906D006D804D05FD902D096D800D0FF
:1025D0001200D9CFE6FFE1CFD9FF040EE1260001BA
:1025E0006D516E1102E1000E08D06DC0E9FF6EC0A2
:1025F000EAFFEF50800B01E0010E000974E10001D9
:10260000620502E1400E01D0200E0B6E0C6A0BBE7B
:102610000C680BC0DEFF0CC0DDFF6DC0E9FF6EC0B3
:10262000EAFF020EE926000EEA22020EEECFDBFFE1
:10263000030EEDCFDBFFD9CFE9FFDACFEAFF000EC3
:10264000D880EE54000EED5427E2030E0B010C5D12
:1026500010E20C2BDECFE6FFDDCFE6FF020EDBCF74
:10266000E6FF030EDBCFE6FF58DFE552E552E55209
:10267000E5520B010D510D2BE66E010EE76E020EB9
:10268000DBCFE9FF030EDBCFEAFFE750E926000EC0
:10269000EA22E552E750EF6E6DC0E9FF6EC0EAFF37
:1026A000020EE926000EEA22020EDBCFEEFF030E39
:1026B000DBCFEDFF6DC0E9FF6EC0EAFFEE52DFCF6A
:1026C000EFFF6DC0E9FF6EC0EAFFEF50400B8009DD
:1026D0000809E66E6DC0E9FF6EC0EAFFE552E750FB
:1026E000EF6E00016D75040EE15C02E2E16AE552F5
:1026F000E16EE552E7CFD9FF1200D9CFE6FFE1CF77
:10270000D9FF060EE126000169516A1102E1000EAF
:1027100008D069C0E9FF6AC0EAFFEF50800B01E012
:10272000010E000901E0A6D000016D516E1102E119
:10273000000E08D06DC0E9FF6EC0EAFFEF50800BBD
:1027400001E0010E000901E095D069C0E9FF6AC00F
:10275000EAFF020EE926000EEA22040EEECFDBFFAE
:10276000050EEDCFDBFF6DC0E9FF6EC0EAFF020E84
:10277000E926000EEA22020EEECFDBFF030EEDCFBC
:10278000DBFF69C0E9FF6AC0EAFFEF50000EF350BB
:102790000D6E0E6A000E0D16030E0E1669C0E9FFCF
:1027A0006AC0EAFFEE52EF5000010D240B6E000EDE
:1027B0000E200C6E0BC0DEFF0CC0DDFF6DC0E9FF0C
:1027C0006EC0EAFF020EE926000EEA22040EDBCFFD
:1027D000EEFF050EDBCFEDFF6DC0E9FF6EC0EAFF37
:1027E000EE52DFCFEFFF6DC0E9FF6EC0EAFFEF50A2
:1027F000400B80090809E66E6DC0E9FF6EC0EAFF74
:10280000E552E750EF6E00016D750001620502E1CF
:10281000400E01D0200E0B6E0C6A0BBE0C680BC074
:10282000DEFF0CC0DDFF69C0E9FF6AC0EAFF020EEF
:10283000E926000EEA22020EDBCFEEFF030EDBCF0D
:10284000EDFF69C0E9FF6AC0EAFFEE52DFCFEFFF9C
:1028500069C0E9FF6AC0EAFFEF50400B8009080930
:10286000E66E69C0E9FF6AC0EAFFE552E750EF6E25
:1028700000016975060EE15C02E2E16AE552E16E73
:10288000E552E7CFD9FF1200D9CFE6FFE1CFD9FF5C
:10289000040EE126000169516A1102E1000E08D020
:1028A00069C0E9FF6AC0EAFFEF50800B01E0010E4A
:1028B000000943E10001620502E1400E01D0200E53
:1028C0000B6E0C6A0BBE0C680BC0DEFF0CC0DDFF8C
:1028D00069C0E9FF6AC0EAFF020EE926000EEA229B
:1028E000020EEECFDBFF030EEDCFDBFF69C0E9FF89
:1028F0006AC0EAFF020EE926000EEA22020EDBCFD2
:10290000EEFF030EDBCFEDFF69C0E9FF6AC0EAFF0F
:10291000EE52DFCFEFFF69C0E9FF6AC0EAFFEF5078
:10292000400B80090809E66E69C0E9FF6AC0EAFF4A
:10293000E552E750EF6E00016975040EE15C02E2BA
:0E294000E16AE552E16EE552E7CFD9FF1200E1
:02294E00DACFDE
:10295000E4FFE2CFDAFFE9CFE4FFEACFE4FFF6CF0E
:10296000E4FFF7CFE4FFF5CFE4FFF3CFE4FFF4CFCC
:10297000E4FFFACFE4FF00EE00F00B0EE80403E3FF
:10298000EECFE4FFFBD700EE0BF0040EE80403E308
:10299000EECFE4FFFBD7E6529FEC08F0E55200EEE5
:1029A0000EF0040EE80403E3E5CFEDFFFBD700EEE5
:1029B0000AF00B0EE80403E3E5CFEDFFFBD7E5CF0C
:1029C000FAFFE5CFF4FFE5CFF3FFE5CFF5FFE5CF65
:1029D000F7FFE5CFF6FFE5CFEAFFE5CFE9FFE5CF6B
:1029E000DAFF1100D8CFE4FFE0CFE4FFE46EDACFE6
:1029F000E4FFE2CFDAFFE652E552E5CFDAFFE55039
:102A0000E5CFE0FFE5CFD8FF10000001996B9A6B8E
:102A100006D858EC11F0BFEC12F0FDD71200D9CF58
:102A2000E6FFE1CFD9FF020EE1260F0EC112580ECC
:102A3000DE6E020EDD6E9B8CDFCF0BF0DF06010E2B
:102A4000DBCF0CF001E2DB060B500C1001E0F4D7F9
:102A50000F01486949690CD80FEC08F0020EE15CDF
:102A600002E2E16AE552E16EE552E7CFD9FF1200DA
:102A7000FC0E8D16961693840001010E986F86EF5A
:102A800012F0000199519A1104E1100E996F270E6E
:102A90009A6F9907000E9A5B65A20AD099519A1114
:102AA00006E18D708DA002D08D8201D08D922ED046
:102AB0000001605103E18D908D9228D0600503E103
:102AC0008D808D8223D0020E605D03E18D808D921A
:102AD0001DD0040E605D03E18D908D8217D0100E25
:102AE000605D07E1000199519A1102E18D708D92AC
:102AF0000DD0200E605D0AE1000199519A1106E1A6
:102B00008D708DA002D08D9201D08D8212001200A6
:102B100012001200120065840001080E9B6F070E60
:102B20009C6F9B07000E9C5B9B519C11FAE1659486
:102B30001200D9CFE6FFE1CFD9FFFD0EDBCF06F0C3
:102B4000FE0EDBCF07F0720E061801E1075036E0EB
:102B5000E868061802E17F0E07182EE0740E0618CA
:102B600001E1075027E0750E061801E1075020E04B
:102B7000730E061801E1075019E0030E061801E173
:102B8000075011E0020E061801E1075009E0010E9E
:102B9000061801E1075001E013D0A3EC11F011D0A9
:102BA0007DEC12F00ED038EC12F00BD0B2DF09D071
:102BB000AEDF07D0ADDF05D0ADDF03D0000001D020
:0E2BC00000D0010E00D0E552E7CFD9FF120081
:022BCE001201F2
:102BD000000200000008D8042EFA010001020301DF
:102BE00009023700010100C03209040000020000A0
:102BF00000000705010220000007058102200000F7
:102C00000904000102000000000705010240000065
:102C100007058102400000E02B040309042003544F
:102C20000072006100760069007300200052006F9E
:102C300000620069006E0073006F006E00220342A4
:102C40000065006E00630068006D00610072006B3B
:102C50000020004400650076006900630065000EF6
:102C6000034C0055005300420057003100192C1D41
:052C70002C3D2C5F2C3F
:0A2C7600060EF66E100EF76E000E4B
:102C8000F86E00010900F550936F0900F550946F3C
:102C900003E1936701D03DD00900F5508E6F090024
:102CA000F5508F6F0900F550906F09000900F5503D
:102CB000E96E0900F550EA6E090009000900F550B7
:102CC000916F0900F550926F09000900F6CF95F059
:102CD000F7CF96F0F8CF97F08EC0F6FF8FC0F7FFD2
:102CE00090C0F8FF0001915302E1925307E0090000
:102CF000F550EE6E9107F8E29207F9D795C0F6FF0E
:102D000096C0F7FF97C0F8FF00019307000E945B91
:042D1000BFD7120017
:0C2D1400FE0EE3CFE9FFFF0EE3CFEAFF65
:102D2000E9CFF3FFEACFF4FFFB0EE35003E1FC0E23
:102D3000E35009E0FB0EE30602E2FC0EE306FD0EA3
:082D4000E350EE6EF1D7120022
:082D4800C00EF36E00EE00F076
:102D50000E0E01D81200EA6002D0EE6AFCD7F350E2
:082D6000E9601200EE6AFCD7E5
:082D68001DEE00F02DEE00F05D
:102D7000F86A0A9C3BEC16F007EC08F005EC15F03D
:042D8000FBD712006B
:01FFF800AA5E
:01FFF900F710
:01FFFA001DE9
:01FFFB00FF06
:01FFFC0063A1
:01FFFD00F80B
:01FFFE008181
:01FFFF00F110
:00000001FF
