:020000040000FA
:06000000BDEF16F0120036
:0600080004EF08F01200F5
:060018000CEF08F01200DD
:06100000BDEF16F0120026
:06100800AEEF14F012002F
:06101800F9EF14F01200D4
:02102A000000C4
:04102C00D9CFE6FF33
:10103000E1CFD9FFE652A098636A626A0F014C6B58
:10104000010EE66EE66AE66A4D0EE66E0F0EE66E7D
:1010500093EC16F00B6E050EE15E0B500F01160EB1
:101060005F6F9F0E5D6F7B0E5C6FDF6ADF500B6EF4
:101070000C6A080E0B5C000E0C5810E2DF50040DD9
:10108000F3CFE9FFF4CFEAFF000EE926040EEA22CF
:10109000EE6AEE6AEE6AEE6ADF2AE8D7658C0F0127
:1010A0005E6B6598659C62A607D062960F01136B14
:1010B000186B196B1A6BF7D70F01010E2A6F2B6F84
:1010C0002C6B2D6B206BDF6A020EDF5C26E2EA6A76
:1010D000DF34FE0BEA36E96E0B0EE9260F0EEA222C
:1010E000EE6AED6AEA6ADF34FE0BEA36E96E070E55
:1010F000E9260F0EEA22EE6AED6ADF50EA6A240F53
:10110000E96E0F0EEA22EF6ADF50EA6A260FE96EF7
:101110000F0EEA22EF6ADF2AD7D70F01080E0B6FF6
:10112000040E0C6F0F01160E4C6F0401200E026F9F
:10113000040E036F080E016F840E006F0F01016B28
:10114000006BE552E552E7CFD9FF1200D9CFE6FF99
:10115000E1CFD9FFE6520F01000509E165BA07D0DA
:10116000626A0F015C815C890F01020E006F6250A0
:10117000040B06E00F015C51040B02E06294CCD832
:1011800065A202D0A19893D06250010B0AE00F0132
:101190005C51010B06E04ADFA0880F01040E006FCE
:1011A00062906250100B06E00F015C51100B02E0E0
:1011B0009DD8629862AC13D00F015CAD0FD0010EC8
:1011C000E66EE66A000EE66EE66A730EE66EE66AA4
:1011D000A2EC15F00B6E060EE15E0B50629C6250A5
:1011E000200B05E00F015C51200B01E065D8625037
:1011F000020B14E00F015C51020B10E0010EE66ED1
:10120000E66A000EE66EE66AE6687F0EE66EA2EC1F
:1012100015F00B6E060EE15E0B50636A040E0F01B3
:10122000E76E0019E8AE02D0E73402D0E750005D67
:1012300002E2A1983CD00F015CA738D0DF6A040E0F
:10124000DF5C34E262A631D064CF21FF0F0121516F
:10125000780BE842E842E842226F629621B508D056
:101260002251EA6A260FE96E0F0EEA22EF7007D0CC
:101270002251EA6A240FE96E0F0EEA22EF70225122
:1012800002E162D810D0000EE66EE66A210EE66E2C
:101290000F0EE66E720EE66EE66AA2EC15F00B6EAD
:1012A000060EE15E0B50DF2ACAD700D0A198E552A6
:1012B000E552E7CFD9FF12000F014CA115D003CFA3
:1012C000E9FF04CFEAFFEF5080080DE10BCFE9FF03
:1012D0000CCFEAFFEF50840806E103CFE9FF04CF0B
:1012E000EAFF8C0EEF6E4C91629A12000F015C8542
:1012F000629865820F01010E206F000EE66EE66AAD
:10130000E66EE66A750EE66EE66AA2EC15F00B6E06
:10131000060EE15E0B5012000F01206B000EE66E10
:10132000E66AE66EE66A740EE66EE66AA2EC15F010
:101330000B6E060EE15E0B5065920F015C9562A488
:1013400002D06294FCD71200D9CFE6FFE1CFD9FFDB
:10135000E652FD0E0F01211553E17E0E2115E840E6
:101360007F0B040DF3CF03FFF4CF04FF000E032720
:10137000040E042303CF05FF04CF06FF057503CF3A
:10138000E9FF04CFEAFFEF503C0BE842E8420D08CA
:1013900035E1DF6A080EDF5C23E203CFE9FF04CF0B
:1013A000EAFF020EE926000EEA22EE50EFCFEAFF36
:1013B000E96EEF50E66EDF50EA6A200FE96E040E28
:1013C000EA22E552E750EF6E03CFE9FF04CFEAFFD0
:1013D000020EE926000EEA22EE2AEF22DF2ADAD7F1
:1013E00003CFE9FF04CFEAFF020EE926000EEA224E
:1013F000200EEE6E040EED6E0DD801D03AD805D059
:10140000FD0E2115040801E15AD8E552E552E7CF57
:10141000D9FF12000F010F6B296B2C6B2D6B236B07
:10142000106B0BCFE9FF0CCFEAFFEF9E0B750BCFD4
:10143000E9FF0CCFEAFFEF9E0B7505CFE9FF06CF62
:10144000EAFFEF9E136B146B156B186B196B1A6B1D
:1014500093D8000EE66EE66AE66EE66A030EE66E66
:10146000E66AA2EC15F00B6E060EE15E0B50ACEFD7
:101470000DF0020E0F01105D03E16FEC0EF01ED0B7
:10148000106B23511AE105CFE9FF06CFEAFFEE52B8
:10149000080EEF6E05CFE9FF06CFEAFF020EE92640
:1014A000000EEA22200EEE6E040EED6E05CFE9FF6F
:1014B00006CFEAFF8C0EEF6E01D0236B1200D9CF5E
:1014C000E6FFE1CFD9FFE6520BCFE9FF0CCFEAFFF1
:1014D000EF50400B01E0010EDF6E0F010B75080E9F
:1014E000005D0CE122C45EFF0F015E5104E00F01BC
:1014F000100E006F03D00F01040E006F100528E1DD
:101500000BCFE9FF0CCFEAFF020EE926000EEA221C
:10151000280EEE6E040EED6E80DB020E0F010F5DE5
:1015200007E10BCFE9FF0CCFEAFF840EEF6E0FD07F
:10153000DF5007E10BCFE9FF0CCFEAFFC80EEF6EDB
:1015400006D00BCFE9FF0CCFEAFF880EEF6E0FD06D
:1015500018AF0CD01B511C1107E005D01CCFFAFFAF
:101560000F011B51F96EFADF0F01189F106BE55246
:10157000E552E7CFD9FF120004012051600BE84289
:10158000E842E842E842E842000901E059D021512E
:101590000C0A55E00B0A44E00C0A36E0010A27E089
:1015A0000B0A23E0020A21E0030A1DE0080A11E009
:1015B000010A0CE00F0A08E0030A01E040D00F0125
:1015C000138F080E006F3CD006DA3AD00FEC0FF004
:1015D00037D00F01010E116F0F0E126F1381010E24
:1015E000146F138F2DD057DA2BD02BD829D024513C
:1015F0000F01116F126B020E11270F0E12231381B0
:10160000010E146F138F1CD00F01138F040124518E
:10161000EA6A020FE96E0F0EEA2222C4EFFF10D031
:10162000000EE66EE66AE66EE66A020EE66EE66AB0
:10163000A2EC15F00B6E060EE15E0B5001D000D04F
:101640001200D9CFE6FFE1CFD9FF030EE126040156
:10165000220510E120511F0B00090CE10F01138F2F
:10166000030E0401215D04E10F01010E1F6F02D082
:101670000F011F6B0401225101E012D120511F0BF9
:10168000020801E00DD124510F0B000901E108D13E
:1016900024510F0B010801E203D1200E0F01005D60
:1016A00001E0FED0138F040124BF1AD024510F0B88
:1016B000E96EEA6AD890E936EA36070EE9260F0E97
:1016C000EA22EECFDEFFEDCFDDFF24510F0BEA6AF9
:1016D000260FE96E0F0EEA22020EEFCFDBFF19D0C4
:1016E00024510F0BE96EEA6AD890E936EA360B0E00
:1016F000E9260F0EEA22EECFDEFFEDCFDDFF24510B
:101700000F0BEA6A240FE96E0F0EEA22020EEFCFEA
:10171000DBFFD950020FE96EDACFEAFFEF50010B81
:1017200003E1000EDF9401D0DF8424BF10D02451E8
:101730000F0BE96EEA6AD890E936EA36070EE92619
:101740000F0EEA22DECFEEFFDDCFEDFF0FD02451EA
:101750000F0BE96EEA6AD890E936EA360B0EE926F5
:101760000F0EEA22DECFEEFFDDCFEDFF030E215D8F
:1017700023E1DECFE9FFDDCFEAFFEF50800B13E07E
:1017800024BF09D024510F0BEA6A260FE96E0F0E11
:10179000EA22EF8208D024510F0BEA6A240FE96E87
:1017A0000F0EEA22EF82840E0B6EDECFE9FFDDCF53
:1017B000EAFF0B50EF1274D0DF74DECFE9FFDDCF0C
:1017C000EAFFEF50800B1BE0DECFE9FFDDCFEAFF41
:1017D000EF9EDECFE9FFDDCFEAFFEF8C020EE66E73
:1017E000E66ADECFE6FFDDCFE6FF050EE66EE66ACF
:1017F000A2EC15F00B6E060EE15E0B5005D0DECFAD
:10180000E9FFDDCFEAFFEF8CDF74D950020FE96EFC
:10181000DACFEAFFEF50020B0EE1DECFE9FFDDCFBA
:10182000EAFFEF50800B34E0DECFE9FFDDCFEAFFC7
:10183000EF50040B2DE1040124BF09D024510F0BFC
:10184000EA6A260FE96E0F0EEA22EF9208D02451C1
:101850000F0BEA6A240FE96E0F0EEA22EF923B0E9D
:101860000B6EDECFE9FFDDCFEAFF0B50EF16020E65
:10187000E66EE66ADECFE6FFDDCFE6FF050EE66E3A
:10188000E66AA2EC15F00B6E060EE15E0B5008D076
:101890003B0E0B6EDECFE9FFDDCFEAFF0B50EF16FC
:1018A000030EE15C02E2E16AE552E16EE552E7CF48
:1018B000D9FF12000F012A514DE1010E2A6F2B5161
:1018C00049E1010E2B6F020E105D0DE10BCFE9FF18
:1018D0000CCFEAFFEE52EF6A0BCFE9FF0CCFEAFF25
:1018E000C80EEF6E37D0100535E1236B03CFE9FF4B
:1018F00004CFEAFFEE52080EEF6E03CFE9FF04CFEC
:10190000EAFF020EE926000EEA22200EEE6E040E19
:10191000ED6E03CFE9FF04CFEAFF840EEF6E010EF8
:10192000236F05CFE9FF06CFEAFFEE52080EEF6EF8
:1019300005CFE9FF06CFEAFF020EE926000EEA22F4
:10194000200EEE6E040EED6E05CFE9FF06CFEAFF26
:10195000800EEF6E12000F012C6B2D6B020E105DCE
:101960001AE105CFE9FF06CFEAFFEE52080EEF6E4F
:1019700005CFE9FF06CFEAFF020EE926000EEA22B4
:10198000280EEE6E040EED6E05CFE9FF06CFEAFFDE
:10199000C80EEF6E1FD014510401265D0F011551C2
:1019A0000401275904E226C414FF27C415FF35D9C2
:1019B0000BCFE9FF0CCFEAFF020EE926000EEA2268
:1019C000280EEE6E040EED6E0BCFE9FF0CCFEAFF92
:1019D000C80EEF6E1200800E0401205D5BE10F0166
:1019E000C00E136F04012351030A34E0010A0EE014
:1019F000030A03E00F01136B4DD00F01E00E116FCE
:101A00002B0E126F120E146F156B44D02251F66E0E
:101A1000F76AD890F636F736290EF6262C0EF722FE
:101A20000900F5CF11FF0A00F5CF12FF020E0F01DA
:101A3000F76A1125F66E1251F7220800F5CF14FF50
:101A4000030EF76A1125F66E1251F7220800F5CF42
:101A500015FF20D0040E225D1AE22251F66EF76ABD
:101A6000D890F636F7367F0EF6262C0EF7220900B0
:101A7000F5CF11FF0A00F5CF12FF11CFF6FF12CFFD
:101A8000F7FF0800F5500F01146F156B02D00F011E
:101A9000136B00D01200D9CFE6FFE1CFD9FF020EC1
:101AA000E1260401286B296B20511F0B020A12E06A
:101AB000030A0DE0010A01E03BD00F01138F04017E
:101AC00028810F011F0502E10401288331D00F0195
:101AD000138F2ED00F01138F040124BF10D0245177
:101AE0000F0BE96EEA6AD890E936EA36070EE92666
:101AF0000F0EEA22EECFDEFFEDCFDDFF0FD0245137
:101B00000F0BE96EEA6AD890E936EA360B0EE92641
:101B10000F0EEA22EECFDEFFEDCFDDFFDECFE9FFD5
:101B2000DDCFEAFFEF50040B02E0010E286F00D07A
:101B30000F0113AF07D0280E116F040E126F13811F
:101B4000020E146F020EE15C02E2E16AE552E16E00
:101B5000E552E7CFD9FF120065980F0113BF2BD0D4
:101B600018AF09D0020E106F2D5101E1F4DE0F0104
:101B70002B6B2A6B1FD005CFE9FF06CFEAFFEE5291
:101B8000080EEF6E05CFE9FF06CFEAFF020EE92649
:101B9000000EEA22200EEE6E040EED6E05CFE9FF78
:101BA00006CFEAFF8C0EEF6E0BCFE9FF0CCFEAFFFA
:101BB000840EEF6E31D0040120AF0DD00F01010E65
:101BC000106F2C5101E1C7DE0F012B6B2A6B2951DD
:101BD00001E170DE21D00F01020E106F05CFE9FF89
:101BE00006CFEAFFEE52080EEF6E05CFE9FF06CFF3
:101BF000EAFF020EE926000EEA22200EEE6E040E27
:101C0000ED6E05CFE9FF06CFEAFF840EEF6E2B6B7A
:101C10002A6B295101E14EDE1200D9CFE6FFE1CF58
:101C2000D9FFE652080EDF6E0F01145D000E155944
:101C30000BE214CFDFFF0F5103E1010E0F6F04D051
:101C40000F0502E1020E0F6FDF500B6E0C6A0B5096
:101C5000145D146F0C501559156F0BCFE9FF0CCFA5
:101C6000EAFFEE52DFCFEFFF280E1D6F040E1E6F4E
:101C700013B119D0DF5016E011CFF6FF12CFF7FFE6
:101C8000112B000E12230800F550E66E1DCFE9FF60
:101C90001ECFEAFF1D2B000E1E23E552E750EF6E0C
:101CA000DF06E8D717D0DF5015E011CFE9FF12CFDC
:101CB000EAFF112B000E1223EF50E66E1DCFE9FF55
:101CC0001ECFEAFF1D2B000E1E23E552E750EF6EDC
:101CD000DF06E9D7E552E552E7CFD9FF1200D9CFA9
:101CE000E6FFE1CFD9FF020EE12603CFE9FF04CFE3
:101CF000EAFFEE52EFCFDFFFDFCF0BF00B500F010B
:101D0000195D000E1A5902E219CFDFFFDF500B6E8A
:101D10000C6A0B50195D196F0C501A591A6F010E8D
:101D2000DB6ADF50F36E010EDBCFF4FFF350F45C9F
:101D300016E2010EDB50EA6A280FE96E040EEA2271
:101D4000EF50E66E16CFE9FF17CFEAFF162B000E15
:101D50001723E552E750EF6E010EDB2AE2D7000EA3
:101D6000D8801955000E1A5528E205CFE9FF06CF95
:101D7000EAFFEE52080EEF6E05CFE9FF06CFEAFF4D
:101D8000020EE926000EEA22280EEE6E040EED6E1B
:101D900003CFE9FF04CFEAFFEF50400B07E105CF87
:101DA000E9FF06CFEAFFC80EEF6E06D005CFE9FFC8
:101DB00006CFEAFF880EEF6E28D005CFE9FF06CFE9
:101DC000EAFFEE52080EEF6E05CFE9FF06CFEAFFFD
:101DD000020EE926000EEA22200EEE6E040EED6ED3
:101DE00005CFE9FF06CFEAFF840EEF6E1B511C11F1
:101DF00007E005D01CCFFAFF0F011B51F96EFADF87
:101E00000F01189F295101E155DD020EE15C02E24C
:101E1000E16AE552E16EE552E7CFD9FF1200D9CF72
:101E2000E6FFE1CFD9FFE6520F01138F010EE66EF8
:101E3000E66AE66A4D0EE66E0F0EE66E93EC16F05D
:101E40000B6E050EE15E0B50DF6ADF500B6E0C6A05
:101E5000080E0B5C000E0C5810E2DF50040DF3CF9F
:101E6000E9FFF4CFEAFF000EE926040EEA22EE6A4B
:101E7000EE6AEE6AEE6ADF2AE8D7658C010EE66E3E
:101E8000E66AE66A020EE66E0F0EE66E93EC16F058
:101E90000B6E050EE15E0B50659C0F01080E0B6F7B
:101EA000040E0C6F000E036F040E046F03CF05FFCA
:101EB00004CF06FF22C401FF015103E1100E006FA1
:101EC00013D0010EE66EE66A010EE66E0F0EE66EA8
:101ED000010EE66EE66AA2EC15F00B6E060EE15EF0
:101EE0000B500F01200E006FE552E552E7CFD9FFEE
:101EF0001200D9CFE6FFE1CFD9FF020EE126000E96
:101F0000DE6E040EDD6EFD0EDB50E8240D6EFE0E5F
:101F1000DB50040DF3500D24040DF3CF0BF0F4CF80
:101F20000CF0D9CFE9FFDACFEAFF0B50EE260C50C8
:101F3000ED22DECFE9FFDDCFEAFFEF9EFD0EDB50A5
:101F40000FE1FE0EEA6ADB34FE0BEA36E96E070E9D
:101F5000E9260F0EEA22DECFEEFFDDCFEDFF0ED039
:101F6000FE0EEA6ADB34FE0BEA36E96E0B0EE9265A
:101F70000F0EEA22DECFEEFFDDCFEDFFDECFE9FF71
:101F8000DDCFEAFFEF9CDECFE9FFDDCFEAFF040EF5
:101F9000E926000EEA22EF8C020EE15C02E2E16A21
:101FA000E552E16EE552E7CFD9FF1200D9CFE6FF47
:101FB000E1CFD9FF020EE126FD0EDBA407D0E66AD1
:101FC000FE0EDBCFE6FF95DFE552E552FD0EDBA20C
:101FD00008D0010EE66EFE0EDBCFE6FF8ADFE5528B
:101FE000E552FE0EDB500C6A4C0F0B6E0F0E0C22EE
:101FF0000BC0DEFF0CC0DDFFDECFE9FFDDCFEAFF67
:10200000FD0EDBCFEFFF020EE15C02E2E16AE5527A
:10201000E16EE552E7CFD9FF1200D9CFE6FFE1CF5D
:10202000D9FF020EE126FE0EDB5020E105CFE9FFCD
:1020300006CFEAFFEE52080EEF6E05CFE9FF06CF9E
:10204000EAFF020EE926000EEA22200EEE6E040ED2
:10205000ED6E05CFE9FF06CFEAFF8C0EEF6E0BCFDA
:10206000E9FF0CCFEAFF840EEF6E3DD0FD0EDB5092
:10207000E8240D6EFE0EDB50040DF3500D24040D0C
:10208000F3CF0BF0F4CF0CF0000E0B26040E0C2255
:102090000BC0DEFF0CC0DDFF840E0B6EDECFE9FF50
:1020A000DDCFEAFF0B50EF12FD0EDB50E8240D6E82
:1020B000FE0EDB50040DF3500D24010F040DF3CF81
:1020C0000BF0F4CF0CF0000E0B26040E0C220BC00C
:1020D000DEFF0CC0DDFF840E0B6EDECFE9FFDDCF2F
:1020E000EAFF0B50EF12020EE15C02E2E16AE552F8
:1020F000E16EE552E7CFD9FF1200D9CFE6FFE1CF7D
:10210000D9FF020EE126FD0EDB500FE0FE0EEA6A5B
:10211000DB34FE0BEA36E96E0B0EE9260F0EEA22DF
:10212000EECFDEFFEDCFDDFF0ED0FE0EEA6ADB3430
:10213000FE0BEA36E96E070EE9260F0EEA22EECF15
:10214000DEFFEDCFDDFFD9CFE9FFDACFEAFFEE50BA
:10215000ED1003E1F36AF46A49D0DECFE9FFDDCF89
:10216000EAFF020EE926000EEA22FB0EDBCFEEFFAD
:10217000FC0EDBCFEDFFDECFE9FFDDCFEAFFEE5255
:10218000FA0EDBCFEFFF400E0B6EDECFE9FFDDCFA7
:10219000EAFF0B50EF16880E0B6EDECFE9FFDDCFA6
:1021A000EAFF0B50EF12FD0EDB500CE0FE0EEA6A68
:1021B000DB34FE0BEA36E96E0B0EE9260F0EEA223F
:1021C000EF740BD0FE0EEA6ADB34FE0BEA36E96EE2
:1021D000070EE9260F0EEA22EF74DECF0BF0DDCFFB
:1021E0000CF00BC0F3FF0CC0F4FF00D0020EE15C5A
:1021F00002E2E16AE552E16EE552E7CFD9FF120053
:10220000D9CFE6FFE1CFD9FF65A84ED0FE0EEA6A2E
:10221000DB34FE0BEA36E96E0B0EE9260F0EEA22DE
:10222000EE50EFCFEAFFE96E400EEE16EE6AEE6A70
:10223000EE6AFE0EEA6ADB34FE0BEA36E96E0B0E3E
:10224000E9260F0EEA22EE50EFCFEAFFE96EEE7CB0
:10225000FE0EEA6ADB34FE0BEA36E96E0B0EE92667
:102260000F0EEA22EF74400E0B6EFE0EEA6ADB34AC
:10227000FE0BEA36E96E0B0EE9260F0EEA22EE504F
:10228000EFCFEAFFE96E0B50EF16FE0EEA6ADB3481
:10229000FE0BEA36E96E0B0EE9260F0EEA22EE502F
:1022A000EFCFEAFFE96EEF7CE552E7CFD9FF1200EE
:1022B000656A0F015C6B0F01006B00D012000F010B
:1022C000005114E1656A0F015C6B160E5F6F9F0E83
:1022D0005D6F7B0E5C6FD08EA288A088F28E65B693
:0E22E00002D06586FCD70F01010E006F1200C0
:0222EE000F01DE
:1022F000200E396F4E0E3A6F0F011B6B1C6B1200D4
:10230000D9CFE6FFE1CFD9FFE65204012651DF6EB7
:102310000F01000E166F0D0E176FDF500D6E0E6A57
:10232000080E0D5C000E0E5804E2DF500B6E0C6AB6
:1023300003D0080E0B6E0C6A0BC019FFEE0E1B6F5C
:10234000220E1C6F188F0F01139FE552E552E7CF45
:10235000D9FF12001E0EE66E010EE66ED6EC0FF0EF
:10236000E552E552040E0F01091502E0010E01D0FD
:10237000000E0B6E0C6A0BBE0C68060ED8900B3666
:102380000C36E806FBE1000E0B260C0E0C2209CFE2
:10239000E9FF0ACFEAFF020EE926000EEA220BC08F
:1023A000EEFF0CC0EDFF0F010975040E091502E0E8
:1023B000010E01D0000E0B6E0C6A0BBE0C68060EEF
:1023C000D8900B360C36E806FBE1000E0B260C0EFF
:1023D0000C2209CFE9FF0ACFEAFF020EE926000E20
:1023E000EA220BC0EEFF0CC0EDFF0F01097553DAB6
:1023F00052DA040E0F010D1502E0010E01D0000E9D
:102400000B6E0C6A0BBE0C68060ED8900B360C36A1
:10241000E806FBE1800E0B260C0E0C220DCFE9FF27
:102420000ECFEAFF020EE926000EEA220BC0EEFFF5
:102430000CC0EDFF0F010D75040E0D1502E0010E2D
:1024400001D0000E0B6E0C6A0BBE0C68060ED89005
:102450000B360C36E806FBE1800E0B260C0E0C2228
:102460000DCFE9FF0ECFEAFF020EE926000EEA22A9
:102470000BC0EEFF0CC0EDFF0F010D751200040143
:102480002051600BE842E842E842E842E842020894
:1024900001E039D02151110A20E0010A1CE01F0A95
:1024A00010E0010A01E02FD022510D010A6F0F0147
:1024B0000A0E116F0D0E126F1381010E146F138F20
:1024C00022D00F010A0E116F0D0E126F1381010E33
:1024D000146F138F18D014DF16D00F01000E116F78
:1024E0000D0E126F1381040126510F01146F080E97
:1024F0000B6E0C6A14510B5C000E0C5802E2080EB5
:10250000146F138F00D01200030E0401235D04E149
:10251000550E225D01E1F4DE12000D01030E0A6F7B
:102520000B6F0C6B0D6B1200D9CFE6FFE1CFD9FF1B
:10253000E652DF6A0D01086B096BFB0EDBCF0BF077
:10254000FC0EDBCF0CF00B50085D0C50095919E262
:10255000DF50DF2AE66EFD0EDB5008250F01E96E25
:10256000FE0EDB500D0109210F01EA6EE552E75026
:10257000EF6EDF5001E1DF2A0D01082B000E092369
:10258000DCD7E552E552E7CFD9FF12004AEC15F04F
:10259000200E0F01E76E0019E8AE02D0E73402D03A
:1025A000E750005D03E36550020B02E0B6DF17D091
:1025B0000D010B510A5D04E00C6B0D6B0ACD0BFD98
:1025C0000A51030A0AE0010A06E0030A02E063D99D
:1025D00006D006D804D05FD902D096D800D0120019
:1025E000D9CFE6FFE1CFD9FF040EE1260F010D514F
:1025F0000E1102E1000E08D00DCFE9FF0ECFEAFF69
:10260000EF50800B01E0010E000974E10F0102059B
:1026100002E1400E01D0200E0B6E0C6A0BBE0C685E
:102620000BC0DEFF0CC0DDFF0DCFE9FF0ECFEAFFD0
:10263000020EE926000EEA22020EEECFDBFF030EA9
:10264000EDCFDBFFD9CFE9FFDACFEAFF000ED8806C
:10265000EE54000EED5427E2030E0D010C5D10E266
:102660000C2BDECFE6FFDDCFE6FF020EDBCFE6FF71
:10267000030EDBCFE6FF58DFE552E552E552E552A7
:102680000D010D510D2BE66E010EE76E020EDBCF34
:10269000E9FF030EDBCFEAFFE750E926000EEA224E
:1026A000E552E750EF6E0DCFE9FF0ECFEAFF020EC5
:1026B000E926000EEA22020EDBCFEEFF030EDBCF8F
:1026C000EDFF0DCFE9FF0ECFEAFFEE52DFCFEFFFB8
:1026D0000DCFE9FF0ECFEAFFEF50400B800908094C
:1026E000E66E0DCFE9FF0ECFEAFFE552E750EF6E41
:1026F0000F010D75040EE15C02E2E16AE552E16E44
:10270000E552E7CFD9FF1200D9CFE6FFE1CFD9FFDD
:10271000060EE1260F0109510A1102E1000E08D050
:1027200009CFE9FF0ACFEAFFEF50800B01E0010E6D
:10273000000901E0A6D00F010D510E1102E1000EBB
:1027400008D00DCFE9FF0ECFEAFFEF50800B01E07C
:10275000010E000901E095D009CFE9FF0ACFEAFF99
:10276000020EE926000EEA22040EEECFDBFF050E74
:10277000EDCFDBFF0DCFE9FF0ECFEAFF020EE9261A
:10278000000EEA22020EEECFDBFF030EEDCFDBFFE1
:1027900009CFE9FF0ACFEAFFEF50000EF3500D6EAC
:1027A0000E6A000E0D16030E0E1609CFE9FF0ACFB2
:1027B000EAFFEE52EF5000010D240B6E000E0E20CA
:1027C0000C6E0BC0DEFF0CC0DDFF0DCFE9FF0ECF9E
:1027D000EAFF020EE926000EEA22040EDBCFEEFF2E
:1027E000050EDBCFEDFF0DCFE9FF0ECFEAFFEE5276
:1027F000DFCFEFFF0DCFE9FF0ECFEAFFEF50400B29
:1028000080090809E66E0DCFE9FF0ECFEAFFE55219
:10281000E750EF6E0F010D750F01020502E1400E4A
:1028200001D0200E0B6E0C6A0BBE0C680BC0DEFFD5
:102830000CC0DDFF09CFE9FF0ACFEAFF020EE9264F
:10284000000EEA22020EDBCFEEFF030EDBCFEDFF20
:1028500009CFE9FF0ACFEAFFEE52DFCFEFFF09CF42
:10286000E9FF0ACFEAFFEF50400B80090809E66E46
:1028700009CFE9FF0ACFEAFFE552E750EF6E0F01FB
:102880000975060EE15C02E2E16AE552E16EE5528D
:10289000E7CFD9FF1200D9CFE6FFE1CFD9FF040E71
:1028A000E1260F0109510A1102E1000E08D009CFFB
:1028B000E9FF0ACFEAFFEF50800B01E0010E0009AB
:1028C00043E10F01020502E1400E01D0200E0B6E24
:1028D0000C6A0BBE0C680BC0DEFF0CC0DDFF09CF1D
:1028E000E9FF0ACFEAFF020EE926000EEA22020EF5
:1028F000EECFDBFF030EEDCFDBFF09CFE9FF0ACF01
:10290000EAFF020EE926000EEA22020EDBCFEEFFFE
:10291000030EDBCFEDFF09CFE9FF0ACFEAFFEE524E
:10292000DFCFEFFF09CFE9FF0ACFEAFFEF50400BFF
:1029300080090809E66E09CFE9FF0ACFEAFFE552F0
:10294000E750EF6E0F010975040EE15C02E2E16AE7
:0C295000E552E16EE552E7CFD9FF12001E
:04295C00DACFE4FFEB
:10296000E2CFDAFFE9CFE4FFEACFE4FFF6CFE4FFFE
:10297000F7CFE4FFF5CFE4FFF3CFE4FFF4CFE4FFBC
:10298000FACFE4FF00EE00F00B0EE80403E3EECF15
:10299000E4FFFBD700EE0BF0040EE80403E3EECFF8
:1029A000E4FFFBD7E652A6EC08F0E55200EE0EF08D
:1029B000040EE80403E3E5CFEDFFFBD700EE0AF0D9
:1029C0000B0EE80403E3E5CFEDFFFBD7E5CFFAFFFD
:1029D000E5CFF4FFE5CFF3FFE5CFF5FFE5CFF7FF58
:1029E000E5CFF6FFE5CFEAFFE5CFE9FFE5CFDAFF78
:1029F0001100D8CFE4FFE0CFE4FFE46EDACFE4FFCC
:102A0000E2CFDAFFE652E552E5CFDAFFE550E5CF57
:102A1000E0FFE5CFD8FF10000F01396B3A6B06D805
:102A20005FEC11F0C6EC12F0FDD71200D9CFE6FF33
:102A3000E1CFD9FF020EE126580EDE6E020EDD6EEA
:102A40009B8CDFCF0BF0DF06010EDBCF0CF001E239
:102A5000DB060B500C1001E0F4D7C088C168C268D7
:102A6000C0980CD816EC08F0020EE15C02E2E16AB4
:102A7000E552E16EE552E7CFD9FF1200FC0E8D164C
:102A80009616F30E8C16951693880F01010E386F6B
:102A90008DEF12F00F0139513A1104E1100E396F28
:102AA000270E3A6F3907000E3A5B65A20AD03951FA
:102AB0003A1106E18D708DA002D08D8201D08D92E9
:102AC0002ED00F01005103E18D908D9228D000058A
:102AD00003E18D808D8223D0020E005D03E18D80A5
:102AE0008D921DD0040E005D03E18D908D8217D074
:102AF000100E005D07E10F0139513A1102E18D70AE
:102B00008D920DD0200E005D0AE10F0139513A116E
:102B100006E18D708DA002D08D9201D08D821200C1
:102B2000120012001200120065840F01080E3B6FA4
:102B3000070E3C6F3B07000E3C5B3B513C11FAE13A
:102B400065941200D9CFE6FFE1CFD9FFFD0EDBCFB0
:102B500006F0FE0EDBCF07F0720E061801E10750FB
:102B600036E0E868061802E17F0E07182EE0740EC2
:102B7000061801E1075027E0750E061801E107501D
:102B800020E0730E061801E1075019E0030E061845
:102B900001E1075011E0020E061801E1075009E0BB
:102BA000010E061801E1075001E013D0AAEC11F064
:102BB00011D084EC12F00ED03FEC12F00BD0B2DF4B
:102BC00009D0AEDF07D0ADDF05D0ADDF03D0000008
:102BD00001D000D0010E00D0E552E7CFD9FF12009E
:102BE0001201000200000008D8042EFA01000102C0
:102BF000030109023700010100C03209040000028C
:102C000000000000070501022000000705810220E6
:102C10000000090400010200000000070501024055
:102C2000000007058102400000F22B040309042084
:102C300003540072006100760069007300200052A6
:102C4000006F00620069006E0073006F006E00226A
:102C500003420065006E00630068006D0061007251
:102C6000006B002000440065007600690063006589
:102C7000000E034C00550053004200570031002B5A
:072C80002C2F2C4F2C712CAE
:082C88002A0EF66E100EF76E25
:102C9000000EF86E0F010900F550336F0900F55072
:102CA000346F03E1336701D03DD00900F5502E6F3A
:102CB0000900F5502F6F0900F550306F0900090029
:102CC000F550E96E0900F550EA6E090009000900A7
:102CD000F550316F0900F550326F09000900F6CF49
:102CE00035FFF7CF36FFF8CF37FF2ECFF6FF2FCFC8
:102CF000F7FF30CFF8FF0F01315302E1325307E005
:102D00000900F550EE6E3107F8E23207F9D735CFFA
:102D1000F6FF36CFF7FF37CFF8FF0F013307000E6E
:062D2000345BBFD7120076
:0A2D2600FE0EE3CFE9FFFF0EE3CF3E
:102D3000EAFFE9CFF3FFEACFF4FFFB0EE35003E134
:102D4000FC0EE35009E0FB0EE30602E2FC0EE30694
:0A2D5000FD0EE350EE6EF1D7120005
:062D5A00400EF36E00EED6
:102D600000F00F0E01D81200EA6002D0EE6AFCD724
:0A2D7000F350E9601200EE6AFCD790
:062D7A001EEE00F02EEE3B
:102D800000F0F86A0A9C44EC16F0CBEC16F00CEC60
:062D900015F0FBD7120054
:022D9600120029
:020000040001F9
:01FFF800BA4E
:01FFF900F710
:01FFFA003DC9
:01FFFB00FF06
:01FFFD00F70C
:00000001FF
