:0A0B3400000102020303040405059A
:1002B700E4F513F512F511F510C203C200C202C22C
:1002C70001120A267E067F008E238F24752B067562
:1002D7002C1275210675221C752906752A46752D5F
:1002E70006752E70EE54C070030203B875140075BE
:1002F70015808E168F17C374D19FFF74069ECF2467
:1003070002CF3400FEE48F0F8E0EF50DF50CF50BC2
:10031700F50AF509F508AF0FAE0EAD0DAC0CAB0B3A
:10032700AA0AA909A808C31208075033E517250B1D
:10033700F582E516350AF583E0FFE515250BF5820D
:10034700E514350AF583EFF0E50B2401F50BE435E9
:100357000AF50AE43509F509E43508F50880B78593
:10036700142385152474002480FF740634FFFEC30C
:10037700E52C9FF52CE52B9EF52BC3E5269FF5264F
:10038700E5259EF525C3E5289FF528E5279EF52752
:10039700C3E5229FF522E5219EF521C3E52A9FF5B6
:1003A7002AE5299EF529C3E52E9FF52EE52D9EF515
:1003B7002DD2E843D82090E668E04409F090E65C47
:1003C700E0443DF0D2AF90E680E020E105D2041290
:1003D70009CC90E680E054F7F0538EF8C20312057B
:1003E70026300105120080C2013003F21205FD50CC
:1003F700EDC203120A4C20001690E682E030E704B3
:10040700E020E1EF90E682E030E604E020E0E4124D
:0704170006D3120B5A80C747
:0B0B290090E509E030E402C322D32273
:1000800090E6B9E0700302013F1470030201BC2442
:10009000FE700302023F24FB700302013914700357
:1000A00002013314700302012714700302012D248E
:1000B0000560030202A312081840030202AF90E693
:1000C000BBE024FE602714603824FD601114602713
:1000D00024067050E52390E6B3F0E524803C120B33
:1000E00029503EE52B90E6B3F0E52C802DE52590D8
:1000F000E6B3F0E5268023E52790E6B3F0E5288017
:100100001990E6BAE0FF1209FBAA06A9077B01EAEB
:10011000494B600DEE90E6B3F0EF90E6B4F00202CA
:10012000AF02029E02029E120B170202AF120B4692
:100130000202AF120B3E0202AF120B050202AF1217
:100140000B5C40030202AF90E6B8E0247F60151418
:10015000601924027063A200E43325E0FFA202E4E8
:10016000334F8041E490E740F0803F90E6BCE0549C
:100170007EFF7E00E0D394807C0040047D018002FD
:100180007D00EC4EFEED4F2434F582740B3EF5837A
:10019000E493FF3395E0FEEF24A1FFEE34E68F8277
:1001A000F583E0540190E740F0E4A3F090E68AF094
:1001B00090E68B7402F00202AF02029E120B5E40C8
:1001C000030202AF90E6B8E024FE6016240260034A
:1001D0000202AF90E6BAE0B40105C2000202AF022B
:1001E000029E90E6BAE0705590E6BCE0547EFF7E39
:1001F00000E0D394807C0040047D0180027D00EC0F
:100200004EFEED4F2434F582740B3EF583E493FFEC
:100210003395E0FEEF24A1FFEE34E68F82F583E014
:1002200054FEF090E6BCE05480131313541FFFE01B
:10023000540F2F90E683F0E04420F08072805F122C
:100240000B60506B90E6B8E024FE60192402704EFB
:1002500090E6BAE0B40104D200805490E6BAE064BB
:1002600002604C803990E6BCE0547EFF7E00E0D313
:1002700094807C0040047D0180027D00EC4EFEED08
:100280004F2434F582740B3EF583E493FF3395E0FD
:10029000FEEF24A1FFEE34E68F82F583800D90E619
:1002A000A08008120B62500790E6A0E04401F09095
:0602B000E6A0E04480F02E
:0102B6002225
:03003300020B5667
:040B560053D8EF324F
:100A260090100174FFF0A3F090E61074B0F090E619
:100A360011F0E490E615F090E614F090E613F090CD
:060A4600E612F0020B4E67
:1005260090E6A2E020E1777A107B007D017F201221
:100536000A71901000E0540FF0E0FF901002E0C343
:100546009F6053EF30E007E490E7C0F0800690E745
:10055600C07402F0901000E0FF30E107E490E7C2BB
:10056600F0800690E7C27404F0EF30E207E490E70B
:10057600C3F0800690E7C37405F0EF30E307E4901C
:10058600E7C4F0800690E7C47406F0E490E7C1F093
:1005960090E68F7405F0901000E0901002F090E65F
:1005A600A1E020E14590100174FFF090E780E03073
:1005B600E107901001E054BFF090E780E030E007DB
:1005C600901001E054F7F090E780E030E2079010D9
:1005D60001E054FEF07A107B017D017F21120A8D25
:0B05E6007F211208F8E490E68DF0225F
:0205FD00D32207
:020B5A00D322A4
:1008180075340675352E752F067530927532067546
:1008280033D190E6BBE024DE601104703EE53490DD
:10083800E6B3F0E53590E6B4F0C322AD30C3E53356
:100848009DFCE52FF59AEDF59BE4FFEFC39C501452
:1008580090E67BE0FE74402FF582E434E7F583EE02
:0C086800F00F80E790E68BECF0C322D389
:010874002261
:080B3E0090E6BAE0F536D3227F
:100B050090E740E536F0E490E68AF090E68B04F055
:020B1500D322E9
:080B460090E6BAE0F531D3227C
:100B170090E740E531F0E490E68AF090E68B04F048
:020B2700D322D7
:020B5C00D322A2
:020B5E00D322A0
:020B6000D3229E
:020B6200D3229C
:100AA900C0E0C083C082D2015391EF90E65D74012A
:080AB900F0D082D083D0E032BE
:100AD900C0E0C083C0825391EF90E65D7404F0D00A
:060AE90082D083D0E03250
:100AEF00C0E0C083C0825391EF90E65D7402F0D0F6
:060AFF0082D083D0E0323A
:10093000C0E0C083C082852925852A268526828538
:100940002583A37402F085212785222885288285A6
:100950002783A37407F05391EF90E65D7410F0D0F5
:0609600082D083D0E032DA
:100AC100C0E0C083C082D2035391EF90E65D740809
:080AD100F0D082D083D0E032A6
:1008BB00C0E0C083C08290E680E030E72085212530
:1008CB00852226852682852583A37402F085292718
:1008DB00852A28852882852783A37407F05391EFF7
:0D08EB0090E65D7420F0D082D083D0E03222
:0105FF0032C9
:0106FF0032C8
:010B6400325E
:010B6500325D
:010B6600325C
:010B6700325B
:010B6800325A
:010B69003259
:010B6A003258
:010B6B003257
:010B6C003256
:010B6D003255
:010B6E003254
:010B6F003253
:010B70003252
:010B71003251
:010B72003250
:010B7300324F
:010B7400324E
:010B7500324D
:010B7600324C
:010B7700324B
:010B7800324A
:010B79003249
:010B7A003248
:010B7B003247
:010B7C003246
:010B7D003245
:010B7E003244
:010B7F003243
:010B80003242
:010B81003241
:010B82003240
:010B8300323F
:010B8400323E
:010B8500323D
:100600001201000200000040B404051000000102C5
:1006100000010A0600020000004001000902290052
:10062000010100A0320904000002030000000921BA
:1006300010010001223F000705810340000A070561
:10064000010340000A0009022900010100A032094B
:100650000400000203000000092110010001223FF4
:10066000000705810340000A0705010340000A0056
:100670000403090410034300790070007200650050
:10068000730073000E0345005A002D0055005300FF
:10069000420005010906A101050719E029E7150037
:1006A000250175019508810295017508810195055F
:1006B000750105081901290591029501750391013C
:1006C0009503750815002565050719002965810042
:0306D000C0000067
:03004300020700B1
:03005300020700A1
:10070000020AA900020AEF00020AD900020AC10087
:10071000020930000208BB000205FF000206FF00CC
:10072000020B6400020B6500020B6600020B6700FF
:10073000020B6800020B6900020B6A00020B6B00DF
:10074000020B6C000206FF00020B6D00020B6E0034
:10075000020B6F00020B7000020B7100020B7200A3
:10076000020B73000206FF000206FF000206FF00F4
:10077000020B7400020B7500020B7600020B77006F
:10078000020B7800020B7900020B7A00020B7B004F
:10079000020B7C00020B7D00020B7E00020B7F002F
:1007A000020B8000020B8100020B8200020B83000F
:0807B000020B8400020B85001E
:1006D30090E682E030E004E020E60B90E682E03032
:1006E300E119E030E71590E680E04401F07F147EE5
:0C06F3000012087590E680E054FEF02232
:1009CC0030040990E680E0440AF0800790E680E06D
:1009DC004408F07FDC7E0512087590E65D74FFF02C
:0F09EC0090E65FF05391EF90E680E054F7F02231
:080B4E00E4F51FD2E9D2AF2249
:1008F800AD0790E678E020E6F9C2E990E678E044B2
:1009080080F0ED25E090E679F090E678E030E0F9C7
:1009180090E678E04440F090E678E020E6F990E64A
:0809280078E030E1D6D2E922AB
:10099A00AC0790E678E020E6F9E51F702390E67848
:1009AA00E04480F0EC25E090E679F08D1AAF03A9D7
:1009BA0007751B018A1C891DE4F51E751F01D322C8
:0209CA00C32246
:10096600AC0790E678E020E6F9E51F702590E6787A
:10097600E04480F0EC25E0440190E679F08D1AAF72
:1009860003A907751B018A1C891DE4F51E751F0343
:04099600D322C32283
:03004B0002041E8E
:10041E00C0E0C083C082C085C084C086758600C01F
:10042E00D075D000C000C001C002C003C006C00716
:10043E0090E678E030E206751F0602050890E67831
:10044E00E020E10CE51F64026006751F0702050837
:10045E00E51F24FE605F14603624FE70030204F96B
:10046E0024FC700302050524086003020508AB1B7B
:10047E00AA1CA91DAF1E051E8F827583001207B818
:10048E0090E679F0E51E651A7070751F05806B9009
:10049E00E679E0AB1BAA1CA91DAE1E8E82758300E9
:1004AE001207E5751F02E51A6401704E90E678E0BA
:1004BE004420F08045E51A24FEB51E0790E678E04C
:1004CE004420F0E51A14B51E0A90E678E04440F098
:1004DE00751F0090E679E0AB1BAA1CA91DAE1E8EFF
:1004EE00827583001207E5051E800F90E678E044C2
:1004FE0040F0751F008003751F005391DFD007D0A9
:10050E0006D003D002D001D000D0D0D086D084D077
:08051E0085D082D083D0E032C9
:0209FB00A9074A
:1009FD00AE2DAF2E8F828E83A3E064037017AD01F1
:100A0D0019ED7001228F828E83E07C002FFDEC3E6C
:080A1D00FEAF0580DFE4FEFFDF
:010A250022AE
:100A7100120966E51F24FA600E146006240770F35C
:0C0A8100D322E4F51FD322E4F51FD3229A
:100A8D0012099AE51F24FA600E146006240770F30C
:0C0A9D00D322E4F51FD322E4F51FD3227E
:100A4C0090E682E044C0F090E681F043870100001C
:040A5C000000002274
:100875008E188F1990E600E054187012E5192401BE
:10088500FFE43518C313F518EF13F519801590E635
:1008950000E05418FFBF100BE51925E0F519E51820
:1008A50033F518E5191519AE18700215184E6005BF
:0608B500120A6080EE2231
:100A60007400F58690FDA57C05A3E582458370F9A9
:010A70002263
:030000000205F105
:0C05F100787FE4F6D8FD7581360202B771
:1007B800BB010CE58229F582E5833AF583E02250F6
:1007C80006E92582F8E622BBFE06E92582F8E22240
:0D07D800E58229F582E5833AF583E493225A
:1007E500F8BB010DE58229F582E5833AF583E8F04A
:1007F500225006E92582C8F622BBFE05E92582C8F6
:02080500F222DD
:10080700EB9FF5F0EA9E42F0E99D42F0E89C45F047
:0108170022BE
:00000001FF
